{"abi":[{"type":"function","name":"MAX_NONCE_INCREASE","inputs":[],"outputs":[{"name":"","type":"uint256","internalType":"uint256"}],"stateMutability":"view"},{"type":"function","name":"allAuthorized","inputs":[{"name":"sender","type":"address","internalType":"address"}],"outputs":[{"name":"authorized","type":"address[]","internalType":"address[]"}],"stateMutability":"view"},{"type":"function","name":"authorize","inputs":[{"name":"user","type":"address","internalType":"address"}],"outputs":[],"stateMutability":"nonpayable"},{"type":"function","name":"callAs","inputs":[{"name":"sender","type":"address","internalType":"address"},{"name":"target","type":"address","internalType":"address"},{"name":"data","type":"bytes","internalType":"bytes"}],"outputs":[{"name":"returnData","type":"bytes","internalType":"bytes"}],"stateMutability":"payable"},{"type":"function","name":"callBatched","inputs":[{"name":"calls","type":"tuple[]","internalType":"struct Call[]","components":[{"name":"target","type":"address","internalType":"address"},{"name":"data","type":"bytes","internalType":"bytes"},{"name":"value","type":"uint256","internalType":"uint256"}]}],"outputs":[{"name":"returnData","type":"bytes[]","internalType":"bytes[]"}],"stateMutability":"payable"},{"type":"function","name":"callSigned","inputs":[{"name":"sender","type":"address","internalType":"address"},{"name":"target","type":"address","internalType":"address"},{"name":"data","type":"bytes","internalType":"bytes"},{"name":"deadline","type":"uint256","internalType":"uint256"},{"name":"r","type":"bytes32","internalType":"bytes32"},{"name":"sv","type":"bytes32","internalType":"bytes32"}],"outputs":[{"name":"returnData","type":"bytes","internalType":"bytes"}],"stateMutability":"payable"},{"type":"function","name":"eip712Domain","inputs":[],"outputs":[{"name":"fields","type":"bytes1","internalType":"bytes1"},{"name":"name","type":"string","internalType":"string"},{"name":"version","type":"string","internalType":"string"},{"name":"chainId","type":"uint256","internalType":"uint256"},{"name":"verifyingContract","type":"address","internalType":"address"},{"name":"salt","type":"bytes32","internalType":"bytes32"},{"name":"extensions","type":"uint256[]","internalType":"uint256[]"}],"stateMutability":"view"},{"type":"function","name":"isAuthorized","inputs":[{"name":"sender","type":"address","internalType":"address"},{"name":"user","type":"address","internalType":"address"}],"outputs":[{"name":"authorized","type":"bool","internalType":"bool"}],"stateMutability":"view"},{"type":"function","name":"isTrustedForwarder","inputs":[{"name":"forwarder","type":"address","internalType":"address"}],"outputs":[{"name":"","type":"bool","internalType":"bool"}],"stateMutability":"view"},{"type":"function","name":"nonce","inputs":[{"name":"sender","type":"address","internalType":"address"}],"outputs":[{"name":"","type":"uint256","internalType":"uint256"}],"stateMutability":"view"},{"type":"function","name":"setNonce","inputs":[{"name":"newNonce","type":"uint256","internalType":"uint256"}],"outputs":[],"stateMutability":"nonpayable"},{"type":"function","name":"unauthorize","inputs":[{"name":"user","type":"address","internalType":"address"}],"outputs":[],"stateMutability":"nonpayable"},{"type":"function","name":"unauthorizeAll","inputs":[],"outputs":[],"stateMutability":"nonpayable"},{"type":"event","name":"Authorized","inputs":[{"name":"sender","type":"address","indexed":true,"internalType":"address"},{"name":"authorized","type":"address","indexed":true,"internalType":"address"}],"anonymous":false},{"type":"event","name":"CalledAs","inputs":[{"name":"sender","type":"address","indexed":true,"internalType":"address"},{"name":"authorized","type":"address","indexed":true,"internalType":"address"}],"anonymous":false},{"type":"event","name":"CalledSigned","inputs":[{"name":"sender","type":"address","indexed":true,"internalType":"address"},{"name":"nonce","type":"uint256","indexed":false,"internalType":"uint256"}],"anonymous":false},{"type":"event","name":"EIP712DomainChanged","inputs":[],"anonymous":false},{"type":"event","name":"NonceSet","inputs":[{"name":"sender","type":"address","indexed":true,"internalType":"address"},{"name":"newNonce","type":"uint256","indexed":false,"internalType":"uint256"}],"anonymous":false},{"type":"event","name":"Unauthorized","inputs":[{"name":"sender","type":"address","indexed":true,"internalType":"address"},{"name":"unauthorized","type":"address","indexed":true,"internalType":"address"}],"anonymous":false},{"type":"event","name":"UnauthorizedAll","inputs":[{"name":"sender","type":"address","indexed":true,"internalType":"address"}],"anonymous":false},{"type":"error","name":"InvalidShortString","inputs":[]},{"type":"error","name":"StringTooLong","inputs":[{"name":"str","type":"string","internalType":"string"}]}],"bytecode":{"object":"0x6101a06040818152346200020157620000188262000205565b6006825260208201906521b0b63632b960d11b825280516200003a8162000205565b6001815260208101603160f81b8152620000548562000221565b936101209485526200006683620003ee565b95610140968752519020918260e05251902093610100948086524660a05283519060208201937f8b73c3c69bb8fe3d512ecc4cf759cc79239f7b179b0ffacaa9a75d522b39400f85528583015260608201524660808201523060a082015260a0815260c081019060018060401b039381831085841117620001ed57828652815190206080523060c052610160933085528482019083821090821117620001ed576061928391875252602960f81b8360e08301927f43616c6c5369676e656428616464726573732073656e6465722c61646472657384527f73207461726765742c627974657320646174612c75696e743235362076616c758a8201527f652c75696e74323536206e6f6e63652c75696e7432353620646561646c696e6589820152015220926101809384525193611582958662000590873960805186611257015260a05186611321015260c05186611221015260e051866112a6015251856112cc0152518461047b015251836104a501525182818161062d0152610e84015251816109f20152f35b634e487b7160e01b5f52604160045260245ffd5b5f80fd5b604081019081106001600160401b03821117620001ed57604052565b80516020919082811015620002bd575090601f8251116200025e57808251920151908083106200025057501790565b825f19910360031b1b161790565b90604051809263305a27a960e01b82528060048301528251908160248401525f935b828510620002a3575050604492505f838284010152601f80199101168101030190fd5b848101820151868601604401529381019385935062000280565b6001600160401b038111620001ed575f928354926001938481811c91168015620003e3575b83821014620003cf57601f811162000399575b5081601f8411600114620003335750928293918392869462000327575b50501b915f199060031b1c191617905560ff90565b015192505f8062000312565b919083601f1981168780528488209488905b888383106200037e575050501062000365575b505050811b01905560ff90565b01515f1960f88460031b161c191690555f808062000358565b85870151885590960195948501948793509081019062000345565b85805284601f848820920160051c820191601f860160051c015b828110620003c3575050620002f5565b878155018590620003b3565b634e487b7160e01b86526022600452602486fd5b90607f1690620002e2565b8051602090818110156200047a5750601f8251116200041b57808251920151908083106200025057501790565b90604051809263305a27a960e01b82528060048301528251908160248401525f935b82851062000460575050604492505f838284010152601f80199101168101030190fd5b84810182015186860160440152938101938593506200043d565b9192916001600160401b038111620001ed5760019182548381811c9116801562000584575b828210146200057057601f81116200053a575b5080601f8311600114620004f05750819293945f92620004e4575b50505f19600383901b1c191690821b17905560ff90565b015190505f80620004cd565b90601f19831695845f52825f20925f905b8882106200052257505083859697106200036557505050811b01905560ff90565b80878596829496860151815501950193019062000501565b835f5283601f835f20920160051c820191601f850160051c015b82811062000564575050620004b2565b5f815501849062000554565b634e487b7160e01b5f52602260045260245ffd5b90607f16906200049f56fe6080604081815260049081361015610015575f80fd5b5f92833560e01c908163048484cb1461092857508063068b2ab0146108c757806317183cd214610818578063299a1d7714610654578063572b6c051461060257806365e4ad9e146105b757806370ae92d21461057f57806384b0196e14610465578063b6a5d7de146103ad578063b778341b146102a1578063e6a4b3501461027e578063f0b37c04146101ca5763f360c183146100b0575f80fd5b346101c657602090816003193601126101c2578235906001600160a01b036100d6610e81565b169384865260038452818620548084111561018a57633b9aca0081018091116101775783116101385750907f25803c8020fbf98a1efdb9b1be994ef79699425c3c9e06503e0b89fe97f5f47c929184865260038352818187205551908152a280f35b83606492519162461bcd60e51b8352820152601b60248201527a09cdedcc6ca40d2dcc6e4cac2e6cac840c4f240e8dede40daeac6d602b1b6044820152fd5b634e487b7160e01b875260118252602487fd5b5083606492519162461bcd60e51b83528201526013602482015272139bdb98d9481b9bdd081a5b98dc99585cd959606a1b6044820152fd5b8380fd5b8280fd5b5090346101c65760203660031901126101c6576101e5610ba9565b906101ee610e81565b906101f88261135b565b6001600160a01b039384169490610210908690610f8d565b1561023f575050167f295a81c15f8ed30f90d2dbdefc77f34f2603dc4ea3df178ac206913987b62f4b8380a380f35b906020606492519162461bcd60e51b835282015260196024820152781059191c995cdcc81a5cc81b9bdd08185d5d1a1bdc9a5e9959603a1b6044820152fd5b83823461029d578160031936011261029d5760209051633b9aca008152f35b5080fd5b509190606036600319011261029d576102b8610ba9565b916102c1610bc3565b916044356001600160401b0381116101c6576102e09036908301610bd9565b9190926102eb610e81565b6102f48761135b565b6001600160a01b03918216939061030c908590610f7a565b1561037957610375896103628a8a61035c8b8b8b8a86167f564f1a10dc05ac5b0915ad9639db6d7e2a9e6998fdd6f78546da36406a0ef6c68d80a3349460601b6001600160601b0319169161137f565b906113b5565b9051918291602083526020830190610c06565b0390f35b60649060208a519162461bcd60e51b8352820152600e60248201526d139bdd08185d5d1a1bdc9a5e995960921b6044820152fd5b5090346101c65760203660031901126101c6576103c8610ba9565b906103d1610e81565b906103db8261135b565b6001600160a01b0393841694906103f3908690610f17565b15610422575050167ff5a7f4fb8a92356e8c8c4ae7ac3589908381450500a7e2fd08c95600021ee8898380a380f35b906020606492519162461bcd60e51b8352820152601d60248201527f4164647265737320616c726561647920697320617574686f72697a65640000006044820152fd5b50346101c657826003193601126101c65761049f7f0000000000000000000000000000000000000000000000000000000000000000610cad565b926104c97f0000000000000000000000000000000000000000000000000000000000000000610db3565b908251926020928385019585871060018060401b0388111761056c57509280610522838896610515998b9996528686528151998a99600f60f81b8b5260e0868c015260e08b0190610c06565b91898303908a0152610c06565b924660608801523060808801528460a088015286840360c088015251928381520193925b82811061055557505050500390f35b835185528695509381019392810192600101610546565b634e487b7160e01b845260419052602483fd5b83823461029d57602036600319011261029d5760209181906001600160a01b036105a7610ba9565b1681526003845220549051908152f35b83823461029d578060031936011261029d576020906105f96105d7610ba9565b6105e86105e2610bc3565b9161135b565b6001600160a01b0390911690610f7a565b90519015158152f35b83823461029d57602036600319011261029d57602090610620610ba9565b90519060018060a01b03807f0000000000000000000000000000000000000000000000000000000000000000169116148152f35b509190602092836003193601126101c6578135936001600160401b0392838611610814573660238701121561081457850135948386116108145760246005963682828a1b8501011161081057916106ae8397959497610c96565b956106bb85519788610c73565b838752601f196106ca85610c96565b01865b8181106108015750506106de610e81565b60601b6001600160601b03191691368190036082190190875b86811061075c57505050505050508051938080860192818752855180945283818801981b870101940192955b8287106107305785850386f35b90919293828061074c600193603f198a82030186528851610c06565b9601920196019592919092610723565b85818d9c999a9c1b83010135838112156107fd578201868101356001600160a01b03811681036107f957604480830135604219843603018112156107f15783019089820135918883116107f557019281360384136107f1579161035c896107e896959360646107cd9601359461137f565b6107d7828d611347565b526107e2818c611347565b5061107a565b999796996106f7565b8e80fd5b8f80fd5b8c80fd5b8b80fd5b60608982018b015289016106cd565b8680fd5b8480fd5b5082346108c457602090816003193601126108c457829061083f61083a610ba9565b61135b565b908251808584549182815201908194845286842090845b8181106108b0575050508161086c910382610c73565b83519485948186019282875251809352850193925b82811061089057505050500390f35b83516001600160a01b031685528695509381019392810192600101610881565b825484529288019260019283019201610856565b80fd5b83823461029d578160031936011261029d576001600160a01b036108e9610e81565b1690818352600260205282206108ff815461107a565b90557f913f0ad1eb26c02eb8b734574db509b81f7671c2ad81b0999ef46c922edcc7358280a280f35b8484849260c06003193601126101c657610940610ba9565b91610949610bc3565b6001600160401b039490929060443586811161029d5761096c9036908501610bd9565b9290936064359160a43590834211610b6b575060018060a01b03908189169485815260209a60038c528c8220958654966109a58861107a565b90558d6109bd6109b48b610e66565b91519182610c73565b8981528d810190368b8d011161081457918f93918f93818f92918f8f8089918c938f973783010152519020918c8751968701977f0000000000000000000000000000000000000000000000000000000000000000895287015216606085015260808401523460a08401528860c084015260e083015260e0825261010082019082821090821117610b58578e525190206042908d90610a5961121e565b91519161190160f01b83526002830152602282015220918060ff1c91601b8301809311610b455750869392610aab92610aa3926001600160ff1b0316916084359160ff169061119b565b919091611088565b1603610b0e575092610afe949261035c927fa1116fa8615ff5f3e9f0f804a1aaa4db4a342ba97ccdb942893f60cfeba20b9d8961037599978c51908152a2349460601b6001600160601b0319169161137f565b9251928284938452830190610c06565b885162461bcd60e51b81529081018890526011602482015270496e76616c6964207369676e617475726560781b6044820152606490fd5b634e487b7160e01b815260118652602490fd5b634e487b7160e01b845260418752602484fd5b62461bcd60e51b8152602083820152601a602482015279115e1958dd5d1a5bdb88191958591b1a5b9948195e1c1a5c995960321b6044820152606490fd5b600435906001600160a01b0382168203610bbf57565b5f80fd5b602435906001600160a01b0382168203610bbf57565b9181601f84011215610bbf578235916001600160401b038311610bbf5760208381860195010111610bbf57565b91908251928382525f5b848110610c30575050825f602080949584010152601f8019910116010190565b602081830181015184830182015201610c10565b604081019081106001600160401b03821117610c5f57604052565b634e487b7160e01b5f52604160045260245ffd5b601f909101601f19168101906001600160401b03821190821017610c5f57604052565b6001600160401b038111610c5f5760051b60200190565b60ff8114610ceb5760ff811690601f8211610cd95760405191610ccf83610c44565b8252602082015290565b604051632cd44ac360e21b8152600490fd5b506040515f805490600182811c90808416938415610da9575b6020948584108114610d955783875286949392918115610d755750600114610d38575b5050610d3592500382610c73565b90565b5f80805285812095935091905b818310610d5d575050610d3593508201015f80610d27565b85548784018501529485019486945091830191610d45565b915050610d3594925060ff191682840152151560051b8201015f80610d27565b634e487b7160e01b85526022600452602485fd5b91607f1691610d04565b60ff8114610dd55760ff811690601f8211610cd95760405191610ccf83610c44565b506040515f60019081549182811c90808416938415610e5c575b6020948584108114610d955783875286949392918115610d755750600114610e1f575050610d3592500382610c73565b5f81815285812095935091905b818310610e44575050610d3593508201015f80610d27565b85548784018501529485019486945091830191610e2c565b91607f1691610def565b6001600160401b038111610c5f57601f01601f191660200190565b337f00000000000000000000000000000000000000000000000000000000000000006001600160a01b03161480610ee3575b15610edf576013193601368111610ecb573560601c90565b634e487b7160e01b5f52601160045260245ffd5b3390565b506014361015610eb3565b8054821015610f03575f5260205f2001905f90565b634e487b7160e01b5f52603260045260245ffd5b610f218282610f7a565b610f7457805490600160401b821015610c5f5782610f5f610f49846001809601855584610eee565b819391549060031b91821b915f19901b19161790565b90558054925f520160205260405f2055600190565b50505f90565b6001915f520160205260405f2054151590565b9060018201905f92818452826020526040842054908115155f14611073575f199180830181811161105f5782549084820191821161104b57808203611016575b5050508054801561100257820191610fe58383610eee565b909182549160031b1b191690555582526020526040812055600190565b634e487b7160e01b86526031600452602486fd5b611036611026610f499386610eee565b90549060031b1c92839286610eee565b905586528460205260408620555f8080610fcd565b634e487b7160e01b88526011600452602488fd5b634e487b7160e01b87526011600452602487fd5b5050505090565b5f198114610ecb5760010190565b600581101561118757806110995750565b600181036110e15760405162461bcd60e51b815260206004820152601860248201527745434453413a20696e76616c6964207369676e617475726560401b6044820152606490fd5b6002810361112e5760405162461bcd60e51b815260206004820152601f60248201527f45434453413a20696e76616c6964207369676e6174757265206c656e677468006044820152606490fd5b60031461113757565b60405162461bcd60e51b815260206004820152602260248201527f45434453413a20696e76616c6964207369676e6174757265202773272076616c604482015261756560f01b6064820152608490fd5b634e487b7160e01b5f52602160045260245ffd5b9291906fa2a8918ca85bafe22016d0b997e4df60600160ff1b0383116112135791608094939160ff6020946040519485521684840152604083015260608201525f93849182805260015afa156112065781516001600160a01b03811615611200579190565b50600190565b50604051903d90823e3d90fd5b505050505f90600390565b307f00000000000000000000000000000000000000000000000000000000000000006001600160a01b0316148061131e575b15611279577f000000000000000000000000000000000000000000000000000000000000000090565b60405160208101907f8b73c3c69bb8fe3d512ecc4cf759cc79239f7b179b0ffacaa9a75d522b39400f82527f000000000000000000000000000000000000000000000000000000000000000060408201527f000000000000000000000000000000000000000000000000000000000000000060608201524660808201523060a082015260a0815260c0810181811060018060401b03821117610c5f5760405251902090565b507f00000000000000000000000000000000000000000000000000000000000000004614611250565b8051821015610f035760209160051b010190565b60018060a01b03165f526002602052600160405f2080545f520160205260405f2090565b6034906113b392949385604051968793602085013782019060018060601b0319166020820152036014810185520183610c73565b565b60405191606083016001600160401b03811184821017610c5f57604052602983527f416464726573733a206c6f772d6c6576656c2063616c6c20776974682076616c6020840152681d594819985a5b195960ba1b604084015283471061145b575f81610d35956020839451920190855af13d15611453573d9161143783610e66565b926114456040519485610c73565b83523d5f602085013e6114af565b6060916114af565b60405162461bcd60e51b815260206004820152602660248201527f416464726573733a20696e73756666696369656e742062616c616e636520666f6044820152651c8818d85b1b60d21b6064820152608490fd5b9192901561151157508151156114c3575090565b3b156114cc5790565b60405162461bcd60e51b815260206004820152601d60248201527f416464726573733a2063616c6c20746f206e6f6e2d636f6e74726163740000006044820152606490fd5b8251909150156115245750805190602001fd5b60405162461bcd60e51b815260206004820152908190611548906024830190610c06565b0390fdfea2646970667358221220057fab42db8dd4b04ec0a65155990f5c756b4edd62c21f009b23aad4a1c7d31664736f6c63430008140033","linkReferences":{}},"methodIdentifiers":{"MAX_NONCE_INCREASE()":"e6a4b350","allAuthorized(address)":"17183cd2","authorize(address)":"b6a5d7de","callAs(address,address,bytes)":"b778341b","callBatched((address,bytes,uint256)[])":"299a1d77","callSigned(address,address,bytes,uint256,bytes32,bytes32)":"048484cb","eip712Domain()":"84b0196e","isAuthorized(address,address)":"65e4ad9e","isTrustedForwarder(address)":"572b6c05","nonce(address)":"70ae92d2","setNonce(uint256)":"f360c183","unauthorize(address)":"f0b37c04","unauthorizeAll()":"068b2ab0"},"id":46}