{"abi":[{"type":"constructor","inputs":[{"name":"drips_","type":"address","internalType":"contract Drips"},{"name":"forwarder","type":"address","internalType":"address"},{"name":"driverId_","type":"uint32","internalType":"uint32"}],"stateMutability":"nonpayable"},{"type":"function","name":"acceptAdmin","inputs":[],"outputs":[],"stateMutability":"nonpayable"},{"type":"function","name":"admin","inputs":[],"outputs":[{"name":"","type":"address","internalType":"address"}],"stateMutability":"view"},{"type":"function","name":"allPausers","inputs":[],"outputs":[{"name":"pausersList","type":"address[]","internalType":"address[]"}],"stateMutability":"view"},{"type":"function","name":"calcAccountId","inputs":[{"name":"addr","type":"address","internalType":"address"}],"outputs":[{"name":"accountId","type":"uint256","internalType":"uint256"}],"stateMutability":"view"},{"type":"function","name":"collect","inputs":[{"name":"erc20","type":"address","internalType":"contract IERC20"},{"name":"transferTo","type":"address","internalType":"address"}],"outputs":[{"name":"amt","type":"uint128","internalType":"uint128"}],"stateMutability":"nonpayable"},{"type":"function","name":"drips","inputs":[],"outputs":[{"name":"","type":"address","internalType":"contract Drips"}],"stateMutability":"view"},{"type":"function","name":"driverId","inputs":[],"outputs":[{"name":"","type":"uint32","internalType":"uint32"}],"stateMutability":"view"},{"type":"function","name":"emitAccountMetadata","inputs":[{"name":"accountMetadata","type":"tuple[]","internalType":"struct AccountMetadata[]","components":[{"name":"key","type":"bytes32","internalType":"bytes32"},{"name":"value","type":"bytes","internalType":"bytes"}]}],"outputs":[],"stateMutability":"nonpayable"},{"type":"function","name":"forceCollect","inputs":[{"name":"erc20","type":"address","internalType":"contract IERC20"},{"name":"yieldManager","type":"address","internalType":"address"},{"name":"strategy","type":"address","internalType":"address"},{"name":"transferTo","type":"address","internalType":"address"},{"name":"strategyData","type":"bytes","internalType":"bytes"}],"outputs":[{"name":"amt","type":"uint128","internalType":"uint128"}],"stateMutability":"nonpayable"},{"type":"function","name":"give","inputs":[{"name":"receiver","type":"uint256","internalType":"uint256"},{"name":"erc20","type":"address","internalType":"contract IERC20"},{"name":"amt","type":"uint128","internalType":"uint128"}],"outputs":[],"stateMutability":"nonpayable"},{"type":"function","name":"grantPauser","inputs":[{"name":"pauser","type":"address","internalType":"address"}],"outputs":[],"stateMutability":"nonpayable"},{"type":"function","name":"implementation","inputs":[],"outputs":[{"name":"","type":"address","internalType":"address"}],"stateMutability":"view"},{"type":"function","name":"isPaused","inputs":[],"outputs":[{"name":"","type":"bool","internalType":"bool"}],"stateMutability":"view"},{"type":"function","name":"isPauser","inputs":[{"name":"pauser","type":"address","internalType":"address"}],"outputs":[{"name":"isAddrPauser","type":"bool","internalType":"bool"}],"stateMutability":"view"},{"type":"function","name":"isTrustedForwarder","inputs":[{"name":"forwarder","type":"address","internalType":"address"}],"outputs":[{"name":"","type":"bool","internalType":"bool"}],"stateMutability":"view"},{"type":"function","name":"pause","inputs":[],"outputs":[],"stateMutability":"nonpayable"},{"type":"function","name":"proposeNewAdmin","inputs":[{"name":"newAdmin","type":"address","internalType":"address"}],"outputs":[],"stateMutability":"nonpayable"},{"type":"function","name":"proposedAdmin","inputs":[],"outputs":[{"name":"","type":"address","internalType":"address"}],"stateMutability":"view"},{"type":"function","name":"proxiableUUID","inputs":[],"outputs":[{"name":"","type":"bytes32","internalType":"bytes32"}],"stateMutability":"view"},{"type":"function","name":"renounceAdmin","inputs":[],"outputs":[],"stateMutability":"nonpayable"},{"type":"function","name":"revokePauser","inputs":[{"name":"pauser","type":"address","internalType":"address"}],"outputs":[],"stateMutability":"nonpayable"},{"type":"function","name":"setSplits","inputs":[{"name":"receivers","type":"tuple[]","internalType":"struct SplitsReceiver[]","components":[{"name":"accountId","type":"uint256","internalType":"uint256"},{"name":"weight","type":"uint32","internalType":"uint32"}]}],"outputs":[],"stateMutability":"nonpayable"},{"type":"function","name":"setStreams","inputs":[{"name":"erc20","type":"address","internalType":"contract IERC20"},{"name":"currReceivers","type":"tuple[]","internalType":"struct StreamReceiver[]","components":[{"name":"accountId","type":"uint256","internalType":"uint256"},{"name":"config","type":"uint256","internalType":"StreamConfig"}]},{"name":"balanceDelta","type":"int128","internalType":"int128"},{"name":"newReceivers","type":"tuple[]","internalType":"struct StreamReceiver[]","components":[{"name":"accountId","type":"uint256","internalType":"uint256"},{"name":"config","type":"uint256","internalType":"StreamConfig"}]},{"name":"maxEndHint1","type":"uint32","internalType":"uint32"},{"name":"maxEndHint2","type":"uint32","internalType":"uint32"},{"name":"transferTo","type":"address","internalType":"address"}],"outputs":[{"name":"realBalanceDelta","type":"int128","internalType":"int128"}],"stateMutability":"nonpayable"},{"type":"function","name":"unpause","inputs":[],"outputs":[],"stateMutability":"nonpayable"},{"type":"function","name":"upgradeTo","inputs":[{"name":"newImplementation","type":"address","internalType":"address"}],"outputs":[],"stateMutability":"nonpayable"},{"type":"function","name":"upgradeToAndCall","inputs":[{"name":"newImplementation","type":"address","internalType":"address"},{"name":"data","type":"bytes","internalType":"bytes"}],"outputs":[],"stateMutability":"payable"},{"type":"event","name":"AdminChanged","inputs":[{"name":"previousAdmin","type":"address","indexed":false,"internalType":"address"},{"name":"newAdmin","type":"address","indexed":false,"internalType":"address"}],"anonymous":false},{"type":"event","name":"BeaconUpgraded","inputs":[{"name":"beacon","type":"address","indexed":true,"internalType":"address"}],"anonymous":false},{"type":"event","name":"NewAdminProposed","inputs":[{"name":"currentAdmin","type":"address","indexed":true,"internalType":"address"},{"name":"newAdmin","type":"address","indexed":true,"internalType":"address"}],"anonymous":false},{"type":"event","name":"Paused","inputs":[{"name":"pauser","type":"address","indexed":true,"internalType":"address"}],"anonymous":false},{"type":"event","name":"PauserGranted","inputs":[{"name":"pauser","type":"address","indexed":true,"internalType":"address"},{"name":"admin","type":"address","indexed":true,"internalType":"address"}],"anonymous":false},{"type":"event","name":"PauserRevoked","inputs":[{"name":"pauser","type":"address","indexed":true,"internalType":"address"},{"name":"admin","type":"address","indexed":true,"internalType":"address"}],"anonymous":false},{"type":"event","name":"Unpaused","inputs":[{"name":"pauser","type":"address","indexed":true,"internalType":"address"}],"anonymous":false},{"type":"event","name":"Upgraded","inputs":[{"name":"implementation","type":"address","indexed":true,"internalType":"address"}],"anonymous":false}],"bytecode":{"object":"0x610120346200021757601f6200247d38819003918201601f19168301916001600160401b03918284118585101762000203578160609286926040968752833981010312620002175782516001600160a01b0393909190848316830362000217576020810151948516850362000217578301519363ffffffff8516850362000217576080523060a0528251908184019081118282101762000203578352601781527f656970313936372e6d616e616765642e73746f726167650000000000000000006020909101527fe8b5d5c9b680c1fe7b4e140cb3994baa0dd775346136353dbe31ddb68b924fa78060c052600160ff1982541617905560e0526101009182525161226191826200021c8339608051828181610d580152611df7015260a051828181610d9501528181610ebc01526112c3015260c051828181610238015281816104a2015281816105bd01528181610650015281816106f1015281816108b70152818161092f0152818161099601528181610a1201528181610b7a01528181611158015281816111cd0152818161126a015281816114b20152818161154801528181611665015281816117da015281816118c501526119af015260e0518281816102b2015281816104cb0152818161074a01528181610abf01528181610be40152818161158c0152818161168e0152611e9801525181818161027e01526106a30152f35b634e487b7160e01b5f52604160045260245ffd5b5f80fdfe60406080815260049081361015610014575f80fd5b5f915f3560e01c90816309c1d95f1461196457816309d48a94146118ad5781630e18b681146117c75781630e64589d1461160c5783826321164d3f1461150f5750816328c2813c146114e757816332f751ec1461149c5781633659cfe61461129b5781633f4ba83a1461118e57816346fbf68e146111265781634f1ef28614610e4157816352d1902d14610d7f578163572b6c0514610d2d5781635c60da1b14610cf85781636d2befc714610aee5781637c435d2914610aaa5781637fe76df0146109c75781638456cb59146108f25781638bad0c0a1461084f578163a12ef25e146106c7578163a1694a7714610686578163a6376746146105e7578163b187bd26146105a4578163d30df03714610466578163dde554c614610177575063f851a44014610140575f80fd5b346101735781600319360112610173575f805160206121ec8339815191525490516001600160a01b039091168152602090f35b5080fd5b919050346103d5576003199160e0368401126103e357610195611a44565b906024359367ffffffffffffffff9485811161042e576101b89036908401611af2565b919060443580600f0b9788820361046257606435908111610462576101e09036908701611af2565b6084959195359063ffffffff9081831680930361045e5760a43591821680920361045e5760c4359b6001600160a01b0391828e168e900361045e578c998f97996102fd60209a8f9c998f9a97610311988f61025f60ff7f0000000000000000000000000000000000000000000000000000000000000000541615611b66565b6102a561026a611df4565b6001600160a01b03166001600160e01b03197f000000000000000000000000000000000000000000000000000000000000000060e01b161790565b9e8a13610444575b5050807f0000000000000000000000000000000000000000000000000000000000000000169f519e8f9d8e9d8e63b3a3a57360e01b815201521660248c015260e060448c015260e48b0191611d1f565b936064890152878403016084880152611d1f565b9160a484015260c483015203818a865af190811561043a5787916103fa575b50600f0b94868612610347575b6020868651908152f35b6f7fffffffffffffffffffffffffffffff1986146103e75790869291813b156103e3578551636ce5768960e11b81526001600160a01b03958616938101938452941660208301526001600160801b03868403166040830152839182908490829060600103925af180156103d9576103c1575b80808061033d565b6103cb8491611a70565b6103d557826103b9565b8280fd5b82513d86823e3d90fd5b8380fd5b634e487b7160e01b875260118352602487fd5b90506020813d602011610432575b8161041560209383611ab4565b8101031261042e575180600f0b810361042e575f610330565b8680fd5b3d9150610408565b85513d89823e3d90fd5b610457916001600160801b031690611e61565b5f8f6102ad565b5f80fd5b8980fd5b839150346101735760209260206003193601126103d557813567ffffffffffffffff81116103e35761049b9036908401611af2565b6104c960ff7f0000000000000000000000000000000000000000000000000000000000000000541615611b66565b7f00000000000000000000000000000000000000000000000000000000000000006001600160a01b0316956104ff61026a611df4565b94873b1561042e57918091928551966302cfc75360e01b885260448801918801528560248801525260648501929186905b8282106105725750505050828495818681819503925af190811561056957506105565750f35b61055f90611a70565b6105665780f35b80fd5b513d84823e3d90fd5b9091929384358152818501359063ffffffff821680920361045e57828101919091528501938501929160010190610530565b50503461017357816003193601126101735760209060ff7f0000000000000000000000000000000000000000000000000000000000000000541690519015158152f35b833461056657602036600319011261056657610601611a44565b5f805160206121ec833981519152546001600160a01b0391906106279083163314611b23565b1680337fed2d93e7985747cd1a4a093c2cc3bb73d0f177b81bdfd26020e8f20a97e8112e8480a37f000000000000000000000000000000000000000000000000000000000000000060030180546001600160a01b031916909117905580f35b5050346101735781600319360112610173576020905163ffffffff7f0000000000000000000000000000000000000000000000000000000000000000168152f35b919050346103d557806003193601126103d5576106e2611a44565b6106ea611a5a565b61071860ff7f0000000000000000000000000000000000000000000000000000000000000000541615611b66565b61072361026a611df4565b835163469e080560e11b8152858101919091526001600160a01b03808416602483015290927f0000000000000000000000000000000000000000000000000000000000000000909116906020846044818a865af193841561043a57879461081e575b506001600160801b03841695866107a1575b6020878751908152f35b9082918894933b1561081a578651636ce5768960e11b81526001600160a01b039283169181019182529190931660208401526001600160801b039094166040830152839182908490829060600103925af180156103d957610806575b80808080610797565b6108108491611a70565b6103d557826107fd565b8480fd5b61084191945060203d602011610848575b6108398183611ab4565b810190611cd1565b925f610785565b503d61082f565b5050346101735781600319360112610173575f805160206121ec833981519152805490917f7e644d79422f17c01e4894b5f4f588d331ebfa28653d42ae832dc59e38c9798f916001600160a01b03166108a9338214611b23565b81519081525f6020820152a17f000000000000000000000000000000000000000000000000000000000000000060030180546001600160a01b0319908116909155815416905580f35b83346105665780600319360112610566575f805160206121ec833981519152546001600160a01b03163314801561098e575b61092d90611c86565b7f00000000000000000000000000000000000000000000000000000000000000006001815461095f60ff821615611b66565b60ff1916179055337f62e78cea01bee320cd4e420270b5ea74000d11b0c9f74754ebdbfc544b05a2588280a280f35b50335f9081527f000000000000000000000000000000000000000000000000000000000000000060020160205260409020541515610924565b9050346103d55760203660031901126103d5576109e2611a44565b5f805160206121ec833981519152546001600160a01b039190610a089083163314611b23565b1691610a378360017f000000000000000000000000000000000000000000000000000000000000000001612054565b15610a6757505033907ffd55549bcbafb9531a61db3cfb88d1cca64e215b12def56e6ea913fe1ac91fd28380a380f35b906020606492519162461bcd60e51b8352820152601760248201527f41646472657373206973206e6f742061207061757365720000000000000000006044820152fd5b505034610173578160031936011261017357517f00000000000000000000000000000000000000000000000000000000000000006001600160a01b03168152602090f35b919050346103d55760a03660031901126103d557610b0a611a44565b91610b13611a5a565b6001600160a01b039390604435908582169081830361045e576064359680881680980361045e5788946084359167ffffffffffffffff998a8411610cf45736602385011215610cf457838901359a8b11610cf4573660248c86010111610cf457610ba160ff7f0000000000000000000000000000000000000000000000000000000000000000541615611b66565b81610bad61026a611df4565b95818c5195635f0e519160e11b8752888d8801521660248601521695866044850152606484015260848301528160a48160209d8e947f0000000000000000000000000000000000000000000000000000000000000000165af1908115610cea578a610c658897969593946001600160801b038996610c73958891610ccd575b508d51968795860199635ee305c360e01b8b5260248701526044860152169c8d606485015260806084850152602460a485019201611ba4565b03601f198101835282611ab4565b51925af1610c7f611cf0565b5015610c8c575051908152f35b83606492519162461bcd60e51b8352820152601a60248201527f5374726174656779207769746864726177616c206661696c65640000000000006044820152fd5b610ce49150853d8711610848576108398183611ab4565b5f610c2c565b88513d88823e3d90fd5b8780fd5b5050346101735781600319360112610173575f8051602061220c8339815191525490516001600160a01b039091168152602090f35b50503461017357602036600319011261017357602090610d4b611a44565b60018060a01b03915191807f0000000000000000000000000000000000000000000000000000000000000000169116148152f35b90508234610566578060031936011261056657507f00000000000000000000000000000000000000000000000000000000000000006001600160a01b03163003610dd957602082515f8051602061220c8339815191528152f35b6020608492519162461bcd60e51b8352820152603860248201527f555550535570677261646561626c653a206d757374206e6f742062652063616c60448201527f6c6564207468726f7567682064656c656761746563616c6c00000000000000006064820152fd5b918091506003193601126103d557610e57611a44565b906024359067ffffffffffffffff821161081a573660238301121561081a5781840135610e8381611ad6565b610e8f83519182611ab4565b818152866020948583019336602482840101116103d5578060248893018637830101526001600160a01b037f0000000000000000000000000000000000000000000000000000000000000000811690610eea30831415611bc4565b610f065f8051602061220c833981519152928284541614611c25565b610f21815f805160206121ec83398151915254163314611b23565b7f4910fdfa16fed3260ed0e7147f7cc6da11a60208b5b9406d12a635614ffd91435460ff1615610f5e57505050505050610f5b9150611fc5565b80f35b8693949596169085516352d1902d60e01b815287818a81865afa5f91816110f7575b50610fdf57865162461bcd60e51b8152808a01899052602e60248201527f45524331393637557067726164653a206e657720696d706c656d656e7461746960448201526d6f6e206973206e6f74205555505360901b6064820152608490fd5b9791929497959395036110a25750610ff684611fc5565b7fbc7cd75a20ee27fd9adebab32041f755214dbc6bffa90cc0225b39da2e5c2d3b5f80a281511580159061109a575b611032575b505050505080f35b61108f945f92660819985a5b195960ca1b837f416464726573733a206c6f772d6c6576656c2064656c65676174652063616c6c869551986110728a611a98565b60278a528901528701525190845af4611089611cf0565b91612119565b505f8080808061102a565b506001611025565b825162461bcd60e51b8152908101869052602960248201527f45524331393637557067726164653a20756e737570706f727465642070726f786044820152681a58589b195555525160ba1b6064820152608490fd5b9091508881813d831161111f575b61110f8183611ab4565b8101031261045e5751905f610f80565b503d611105565b505034610173576020366003190112610173576020906111856001600160a01b0361114f611a44565b165f90815260027f0000000000000000000000000000000000000000000000000000000000000000016020526040902054151590565b90519015158152f35b919050346103d557826003193601126103d5575f805160206121ec833981519152546001600160a01b031633148015611262575b6111cb90611c86565b7f00000000000000000000000000000000000000000000000000000000000000009182549160ff83161561122957505060ff19169055337f5db9ee0a495bf2e6ff9c91a7834c1ba4fdd244a5e8aa4e537bd38aeae4b073aa8280a280f35b906020606492519162461bcd60e51b8352820152601360248201527210dbdb9d1c9858dd081b9bdd081c185d5cd959606a1b6044820152fd5b50335f9081527f0000000000000000000000000000000000000000000000000000000000000000600201602052604090205415156111c2565b919050346103d5576020806003193601126103e3576112b8611a44565b916001600160a01b037f000000000000000000000000000000000000000000000000000000000000000081166112f030821415611bc4565b61130c5f8051602061220c833981519152918383541614611c25565b611327825f805160206121ec83398151915254163314611b23565b8251908482019282841067ffffffffffffffff851117611489578385528883527f4910fdfa16fed3260ed0e7147f7cc6da11a60208b5b9406d12a635614ffd91435460ff161561138157505050505050610f5b9150611fc5565b8693949596169085516352d1902d60e01b815287818a81865afa5f918161145a575b5061140257865162461bcd60e51b8152808a01899052602e60248201527f45524331393637557067726164653a206e657720696d706c656d656e7461746960448201526d6f6e206973206e6f74205555505360901b6064820152608490fd5b9791929497959395036110a2575061141984611fc5565b7fbc7cd75a20ee27fd9adebab32041f755214dbc6bffa90cc0225b39da2e5c2d3b5f80a28151158015906114535761103257505050505080f35b505f611025565b9091508881813d8311611482575b6114728183611ab4565b8101031261045e5751905f6113a3565b503d611468565b604188634e487b7160e01b5f525260245ffd5b50503461017357816003193601126101735760037f0000000000000000000000000000000000000000000000000000000000000000015490516001600160a01b039091168152602090f35b5050346101735760203660031901126101735760209061150861026a611a44565b9051908152f35b809184346116085760603660031901126116085761152b611a5a565b91604435906001600160801b0382168083036116045761156f60ff7f0000000000000000000000000000000000000000000000000000000000000000541615611b66565b61157a61026a611df4565b92816115f4575b506001600160a01b037f000000000000000000000000000000000000000000000000000000000000000081169390843b15610cf457879460849386928851998a978896630d9e010760e41b88528188015235602487015216604485015260648401525af190811561056957506105565750f35b6115fe9086611e61565b87611581565b8580fd5b5050fd5b9190503461045e5760208060031936011261045e5782359067ffffffffffffffff9081831161045e573660238401121561045e578285013582811161045e576024918160051b366024828801011161045e5761168c60ff7f0000000000000000000000000000000000000000000000000000000000000000541615611b66565b7f00000000000000000000000000000000000000000000000000000000000000006001600160a01b0316956116c261026a611df4565b95873b1561045e57949290849996949289519a8b98636961025760e01b8a5260449760448b01918b01528b60248b0152526064808901918901019660248301965f93606219813603015b878610611748578f8c8f8f828f91815f81819503925af190811561173f5750611733575080f35b61173d9150611a70565b005b513d5f823e3d90fd5b919395979990929496989a6063199082030186528a358281121561045e5783018a8101358252848101356042198236030181121561045e5701848101908b013586811161045e57803603821361045e576117b18f928b9392838686958660019901520191611ba4565b9c019601960193918d9a9997959896939161170c565b823461045e575f36600319011261045e577f000000000000000000000000000000000000000000000000000000000000000060030180546001600160a01b0393909290338585160361186b57507f7e644d79422f17c01e4894b5f4f588d331ebfa28653d42ae832dc59e38c9798f905f805160206121ec833981519152948554168151908152336020820152a16001600160a01b0319918216905581541633179055005b6020606492519162461bcd60e51b8352820152601d60248201527f43616c6c6572206e6f74207468652070726f706f7365642061646d696e0000006044820152fd5b823461045e575f36600319011261045e5760019060017f00000000000000000000000000000000000000000000000000000000000000000191815180845480835260208093019081965f52835f20905f5b8181106119515750505081611914910382611ab4565b8351938285019183865251809252840194915f5b8281106119355785870386f35b83516001600160a01b0316875295810195928101928401611928565b82548452928501929186019186016118fe565b90503461045e57602036600319011261045e5761197f611a44565b5f805160206121ec833981519152546001600160a01b0391906119a59083163314611b23565b16916119d48360017f000000000000000000000000000000000000000000000000000000000000000001611d86565b15611a015733837fbb7fff487ca65a5841fe463ac801812d2aeb3c2059f6e44b2b3cdab8ee7c3db05f80a3005b906020606492519162461bcd60e51b8352820152601b60248201527f4164647265737320616c726561647920697320612070617573657200000000006044820152fd5b600435906001600160a01b038216820361045e57565b602435906001600160a01b038216820361045e57565b67ffffffffffffffff8111611a8457604052565b634e487b7160e01b5f52604160045260245ffd5b6060810190811067ffffffffffffffff821117611a8457604052565b90601f8019910116810190811067ffffffffffffffff821117611a8457604052565b67ffffffffffffffff8111611a8457601f01601f191660200190565b9181601f8401121561045e5782359167ffffffffffffffff831161045e576020808501948460061b01011161045e57565b15611b2a57565b60405162461bcd60e51b815260206004820152601460248201527321b0b63632b9103737ba103a34329030b236b4b760611b6044820152606490fd5b15611b6d57565b60405162461bcd60e51b815260206004820152600f60248201526e10dbdb9d1c9858dd081c185d5cd959608a1b6044820152606490fd5b908060209392818452848401375f828201840152601f01601f1916010190565b15611bcb57565b60405162461bcd60e51b815260206004820152602c60248201527f46756e6374696f6e206d7573742062652063616c6c6564207468726f7567682060448201526b19195b1959d85d1958d85b1b60a21b6064820152608490fd5b15611c2c57565b60405162461bcd60e51b815260206004820152602c60248201527f46756e6374696f6e206d7573742062652063616c6c6564207468726f7567682060448201526b6163746976652070726f787960a01b6064820152608490fd5b15611c8d57565b606460405162461bcd60e51b815260206004820152602060248201527f43616c6c6572206e6f74207468652061646d696e206f722061207061757365726044820152fd5b9081602091031261045e57516001600160801b038116810361045e5790565b3d15611d1a573d90611d0182611ad6565b91611d0f6040519384611ab4565b82523d5f602084013e565b606090565b9190808252602080920192915f905b828210611d3c575050505090565b83358552838101358582015260409485019490930192600190910190611d2e565b8054821015611d72575f5260205f2001905f90565b634e487b7160e01b5f52603260045260245ffd5b5f828152600182016020526040902054611dee5780549068010000000000000000821015611a845782611dd9611dc3846001809601855584611d5d565b819391549060031b91821b915f19901b19161790565b90558054925f520160205260405f2055600190565b50505f90565b337f00000000000000000000000000000000000000000000000000000000000000006001600160a01b03161480611e56575b15611e52576013193601368111611e3e573560601c90565b634e487b7160e01b5f52601160045260245ffd5b3390565b506014361015611e26565b90611e6a611df4565b9160018060a01b03916001600160801b03604051918460208401966323b872dd60e01b8852166024840152847f00000000000000000000000000000000000000000000000000000000000000001660448401521660648201526064815260a081019267ffffffffffffffff9282851084861117611a8457169160e0820190811184821017611a8457604052602083527f5361666545524332303a206c6f772d6c6576656c2063616c6c206661696c656460c082015251611f34935f91829182855af1611089611cf0565b8051908115918215611fa2575b505015611f4a57565b60405162461bcd60e51b815260206004820152602a60248201527f5361666545524332303a204552433230206f7065726174696f6e20646964206e6044820152691bdd081cdd58d8d9595960b21b6064820152608490fd5b819250906020918101031261045e5760200151801515810361045e575f80611f41565b803b15611ff9575f8051602061220c83398151915280546001600160a01b0319166001600160a01b03909216919091179055565b60405162461bcd60e51b815260206004820152602d60248201527f455243313936373a206e657720696d706c656d656e746174696f6e206973206e60448201526c1bdd08184818dbdb9d1c9858dd609a1b6064820152608490fd5b906001820191815f528260205260405f2054908115155f14612111575f1991808301818111611e3e57825490848201918211611e3e578082036120dc575b505050805480156120c8578201916120aa8383611d5d565b909182549160031b1b19169055555f526020525f6040812055600190565b634e487b7160e01b5f52603160045260245ffd5b6120fc6120ec611dc39386611d5d565b90549060031b1c92839286611d5d565b90555f528460205260405f20555f8080612092565b505050505f90565b9192901561217b575081511561212d575090565b3b156121365790565b60405162461bcd60e51b815260206004820152601d60248201527f416464726573733a2063616c6c20746f206e6f6e2d636f6e74726163740000006044820152606490fd5b82519091501561218e5750805190602001fd5b6040519062461bcd60e51b82528160208060048301528251908160248401525f935b8285106121d2575050604492505f838284010152601f80199101168101030190fd5b84810182015186860160440152938101938593506121b056feb53127684a568b3173ae13b9f8a6016e243e63b6e8ee1178d6a717850b5d6103360894a13ba1a3210667c828492db98dca3e2076cc3735a920a3ca505d382bbca2646970667358221220692298e8858c6d1c2330901bf4371fdd4d3125596bb46070a214d80ad67fca1c64736f6c63430008180033","linkReferences":{}},"methodIdentifiers":{"acceptAdmin()":"0e18b681","admin()":"f851a440","allPausers()":"09d48a94","calcAccountId(address)":"28c2813c","collect(address,address)":"a12ef25e","drips()":"7c435d29","driverId()":"a1694a77","emitAccountMetadata((bytes32,bytes)[])":"0e64589d","forceCollect(address,address,address,address,bytes)":"6d2befc7","give(uint256,address,uint128)":"21164d3f","grantPauser(address)":"09c1d95f","implementation()":"5c60da1b","isPaused()":"b187bd26","isPauser(address)":"46fbf68e","isTrustedForwarder(address)":"572b6c05","pause()":"8456cb59","proposeNewAdmin(address)":"a6376746","proposedAdmin()":"32f751ec","proxiableUUID()":"52d1902d","renounceAdmin()":"8bad0c0a","revokePauser(address)":"7fe76df0","setSplits((uint256,uint32)[])":"d30df037","setStreams(address,(uint256,uint256)[],int128,(uint256,uint256)[],uint32,uint32,address)":"dde554c6","unpause()":"3f4ba83a","upgradeTo(address)":"3659cfe6","upgradeToAndCall(address,bytes)":"4f1ef286"},"id":122}