{"abi":[{"type":"constructor","inputs":[{"name":"cycleSecs_","type":"uint32","internalType":"uint32"}],"stateMutability":"nonpayable"},{"type":"function","name":"AMT_PER_SEC_EXTRA_DECIMALS","inputs":[],"outputs":[{"name":"","type":"uint8","internalType":"uint8"}],"stateMutability":"view"},{"type":"function","name":"AMT_PER_SEC_MULTIPLIER","inputs":[],"outputs":[{"name":"","type":"uint160","internalType":"uint160"}],"stateMutability":"view"},{"type":"function","name":"DRIVER_ID_OFFSET","inputs":[],"outputs":[{"name":"","type":"uint8","internalType":"uint8"}],"stateMutability":"view"},{"type":"function","name":"MAX_SPLITS_RECEIVERS","inputs":[],"outputs":[{"name":"","type":"uint256","internalType":"uint256"}],"stateMutability":"view"},{"type":"function","name":"MAX_STREAMS_RECEIVERS","inputs":[],"outputs":[{"name":"","type":"uint256","internalType":"uint256"}],"stateMutability":"view"},{"type":"function","name":"MAX_TOTAL_BALANCE","inputs":[],"outputs":[{"name":"","type":"uint128","internalType":"uint128"}],"stateMutability":"view"},{"type":"function","name":"TOTAL_SPLITS_WEIGHT","inputs":[],"outputs":[{"name":"","type":"uint32","internalType":"uint32"}],"stateMutability":"view"},{"type":"function","name":"acceptAdmin","inputs":[],"outputs":[],"stateMutability":"nonpayable"},{"type":"function","name":"admin","inputs":[],"outputs":[{"name":"","type":"address","internalType":"address"}],"stateMutability":"view"},{"type":"function","name":"allPausers","inputs":[],"outputs":[{"name":"pausersList","type":"address[]","internalType":"address[]"}],"stateMutability":"view"},{"type":"function","name":"balanceAt","inputs":[{"name":"accountId","type":"uint256","internalType":"uint256"},{"name":"erc20","type":"address","internalType":"contract IERC20"},{"name":"currReceivers","type":"tuple[]","internalType":"struct StreamReceiver[]","components":[{"name":"accountId","type":"uint256","internalType":"uint256"},{"name":"config","type":"uint256","internalType":"StreamConfig"}]},{"name":"timestamp","type":"uint32","internalType":"uint32"}],"outputs":[{"name":"balance","type":"uint128","internalType":"uint128"}],"stateMutability":"view"},{"type":"function","name":"balances","inputs":[{"name":"erc20","type":"address","internalType":"contract IERC20"}],"outputs":[{"name":"streamsBalance","type":"uint128","internalType":"uint128"},{"name":"splitsBalance","type":"uint128","internalType":"uint128"}],"stateMutability":"view"},{"type":"function","name":"collect","inputs":[{"name":"accountId","type":"uint256","internalType":"uint256"},{"name":"erc20","type":"address","internalType":"contract IERC20"}],"outputs":[{"name":"amt","type":"uint128","internalType":"uint128"}],"stateMutability":"nonpayable"},{"type":"function","name":"collectable","inputs":[{"name":"accountId","type":"uint256","internalType":"uint256"},{"name":"erc20","type":"address","internalType":"contract IERC20"}],"outputs":[{"name":"amt","type":"uint128","internalType":"uint128"}],"stateMutability":"view"},{"type":"function","name":"cycleSecs","inputs":[],"outputs":[{"name":"","type":"uint32","internalType":"uint32"}],"stateMutability":"view"},{"type":"function","name":"driverAddress","inputs":[{"name":"driverId","type":"uint32","internalType":"uint32"}],"outputs":[{"name":"driverAddr","type":"address","internalType":"address"}],"stateMutability":"view"},{"type":"function","name":"emitAccountMetadata","inputs":[{"name":"accountId","type":"uint256","internalType":"uint256"},{"name":"accountMetadata","type":"tuple[]","internalType":"struct AccountMetadata[]","components":[{"name":"key","type":"bytes32","internalType":"bytes32"},{"name":"value","type":"bytes","internalType":"bytes"}]}],"outputs":[],"stateMutability":"nonpayable"},{"type":"function","name":"forceCollect","inputs":[{"name":"accountId","type":"uint256","internalType":"uint256"},{"name":"erc20","type":"address","internalType":"contract IERC20"},{"name":"yieldManager","type":"address","internalType":"address"},{"name":"strategy","type":"address","internalType":"address"},{"name":"transferTo","type":"address","internalType":"address"}],"outputs":[{"name":"amt","type":"uint128","internalType":"uint128"}],"stateMutability":"nonpayable"},{"type":"function","name":"give","inputs":[{"name":"accountId","type":"uint256","internalType":"uint256"},{"name":"receiver","type":"uint256","internalType":"uint256"},{"name":"erc20","type":"address","internalType":"contract IERC20"},{"name":"amt","type":"uint128","internalType":"uint128"}],"outputs":[],"stateMutability":"nonpayable"},{"type":"function","name":"grantPauser","inputs":[{"name":"pauser","type":"address","internalType":"address"}],"outputs":[],"stateMutability":"nonpayable"},{"type":"function","name":"hashSplits","inputs":[{"name":"receivers","type":"tuple[]","internalType":"struct SplitsReceiver[]","components":[{"name":"accountId","type":"uint256","internalType":"uint256"},{"name":"weight","type":"uint32","internalType":"uint32"}]}],"outputs":[{"name":"receiversHash","type":"bytes32","internalType":"bytes32"}],"stateMutability":"pure"},{"type":"function","name":"hashStreams","inputs":[{"name":"receivers","type":"tuple[]","internalType":"struct StreamReceiver[]","components":[{"name":"accountId","type":"uint256","internalType":"uint256"},{"name":"config","type":"uint256","internalType":"StreamConfig"}]}],"outputs":[{"name":"streamsHash","type":"bytes32","internalType":"bytes32"}],"stateMutability":"pure"},{"type":"function","name":"hashStreamsHistory","inputs":[{"name":"oldStreamsHistoryHash","type":"bytes32","internalType":"bytes32"},{"name":"streamsHash","type":"bytes32","internalType":"bytes32"},{"name":"updateTime","type":"uint32","internalType":"uint32"},{"name":"maxEnd","type":"uint32","internalType":"uint32"}],"outputs":[{"name":"streamsHistoryHash","type":"bytes32","internalType":"bytes32"}],"stateMutability":"pure"},{"type":"function","name":"implementation","inputs":[],"outputs":[{"name":"","type":"address","internalType":"address"}],"stateMutability":"view"},{"type":"function","name":"isPaused","inputs":[],"outputs":[{"name":"","type":"bool","internalType":"bool"}],"stateMutability":"view"},{"type":"function","name":"isPauser","inputs":[{"name":"pauser","type":"address","internalType":"address"}],"outputs":[{"name":"isAddrPauser","type":"bool","internalType":"bool"}],"stateMutability":"view"},{"type":"function","name":"minAmtPerSec","inputs":[],"outputs":[{"name":"","type":"uint160","internalType":"uint160"}],"stateMutability":"view"},{"type":"function","name":"nextDriverId","inputs":[],"outputs":[{"name":"driverId","type":"uint32","internalType":"uint32"}],"stateMutability":"view"},{"type":"function","name":"pause","inputs":[],"outputs":[],"stateMutability":"nonpayable"},{"type":"function","name":"proposeNewAdmin","inputs":[{"name":"newAdmin","type":"address","internalType":"address"}],"outputs":[],"stateMutability":"nonpayable"},{"type":"function","name":"proposedAdmin","inputs":[],"outputs":[{"name":"","type":"address","internalType":"address"}],"stateMutability":"view"},{"type":"function","name":"proxiableUUID","inputs":[],"outputs":[{"name":"","type":"bytes32","internalType":"bytes32"}],"stateMutability":"view"},{"type":"function","name":"receivableStreamsCycles","inputs":[{"name":"accountId","type":"uint256","internalType":"uint256"},{"name":"erc20","type":"address","internalType":"contract IERC20"}],"outputs":[{"name":"cycles","type":"uint32","internalType":"uint32"}],"stateMutability":"view"},{"type":"function","name":"receiveStreams","inputs":[{"name":"accountId","type":"uint256","internalType":"uint256"},{"name":"erc20","type":"address","internalType":"contract IERC20"},{"name":"maxCycles","type":"uint32","internalType":"uint32"}],"outputs":[{"name":"receivedAmt","type":"uint128","internalType":"uint128"}],"stateMutability":"nonpayable"},{"type":"function","name":"receiveStreamsResult","inputs":[{"name":"accountId","type":"uint256","internalType":"uint256"},{"name":"erc20","type":"address","internalType":"contract IERC20"},{"name":"maxCycles","type":"uint32","internalType":"uint32"}],"outputs":[{"name":"receivableAmt","type":"uint128","internalType":"uint128"}],"stateMutability":"view"},{"type":"function","name":"registerDriver","inputs":[{"name":"driverAddr","type":"address","internalType":"address"}],"outputs":[{"name":"driverId","type":"uint32","internalType":"uint32"}],"stateMutability":"nonpayable"},{"type":"function","name":"renounceAdmin","inputs":[],"outputs":[],"stateMutability":"nonpayable"},{"type":"function","name":"revokePauser","inputs":[{"name":"pauser","type":"address","internalType":"address"}],"outputs":[],"stateMutability":"nonpayable"},{"type":"function","name":"setSplits","inputs":[{"name":"accountId","type":"uint256","internalType":"uint256"},{"name":"receivers","type":"tuple[]","internalType":"struct SplitsReceiver[]","components":[{"name":"accountId","type":"uint256","internalType":"uint256"},{"name":"weight","type":"uint32","internalType":"uint32"}]}],"outputs":[],"stateMutability":"nonpayable"},{"type":"function","name":"setStreams","inputs":[{"name":"accountId","type":"uint256","internalType":"uint256"},{"name":"erc20","type":"address","internalType":"contract IERC20"},{"name":"currReceivers","type":"tuple[]","internalType":"struct StreamReceiver[]","components":[{"name":"accountId","type":"uint256","internalType":"uint256"},{"name":"config","type":"uint256","internalType":"StreamConfig"}]},{"name":"balanceDelta","type":"int128","internalType":"int128"},{"name":"newReceivers","type":"tuple[]","internalType":"struct StreamReceiver[]","components":[{"name":"accountId","type":"uint256","internalType":"uint256"},{"name":"config","type":"uint256","internalType":"StreamConfig"}]},{"name":"maxEndHint1","type":"uint32","internalType":"uint32"},{"name":"maxEndHint2","type":"uint32","internalType":"uint32"}],"outputs":[{"name":"realBalanceDelta","type":"int128","internalType":"int128"}],"stateMutability":"nonpayable"},{"type":"function","name":"split","inputs":[{"name":"accountId","type":"uint256","internalType":"uint256"},{"name":"erc20","type":"address","internalType":"contract IERC20"},{"name":"currReceivers","type":"tuple[]","internalType":"struct SplitsReceiver[]","components":[{"name":"accountId","type":"uint256","internalType":"uint256"},{"name":"weight","type":"uint32","internalType":"uint32"}]}],"outputs":[{"name":"collectableAmt","type":"uint128","internalType":"uint128"},{"name":"splitAmt","type":"uint128","internalType":"uint128"}],"stateMutability":"nonpayable"},{"type":"function","name":"splitResult","inputs":[{"name":"accountId","type":"uint256","internalType":"uint256"},{"name":"currReceivers","type":"tuple[]","internalType":"struct SplitsReceiver[]","components":[{"name":"accountId","type":"uint256","internalType":"uint256"},{"name":"weight","type":"uint32","internalType":"uint32"}]},{"name":"amount","type":"uint128","internalType":"uint128"}],"outputs":[{"name":"collectableAmt","type":"uint128","internalType":"uint128"},{"name":"splitAmt","type":"uint128","internalType":"uint128"}],"stateMutability":"view"},{"type":"function","name":"splitsHash","inputs":[{"name":"accountId","type":"uint256","internalType":"uint256"}],"outputs":[{"name":"currSplitsHash","type":"bytes32","internalType":"bytes32"}],"stateMutability":"view"},{"type":"function","name":"splittable","inputs":[{"name":"accountId","type":"uint256","internalType":"uint256"},{"name":"erc20","type":"address","internalType":"contract IERC20"}],"outputs":[{"name":"amt","type":"uint128","internalType":"uint128"}],"stateMutability":"view"},{"type":"function","name":"squeezeStreams","inputs":[{"name":"accountId","type":"uint256","internalType":"uint256"},{"name":"erc20","type":"address","internalType":"contract IERC20"},{"name":"senderId","type":"uint256","internalType":"uint256"},{"name":"historyHash","type":"bytes32","internalType":"bytes32"},{"name":"streamsHistory","type":"tuple[]","internalType":"struct StreamsHistory[]","components":[{"name":"streamsHash","type":"bytes32","internalType":"bytes32"},{"name":"receivers","type":"tuple[]","internalType":"struct StreamReceiver[]","components":[{"name":"accountId","type":"uint256","internalType":"uint256"},{"name":"config","type":"uint256","internalType":"StreamConfig"}]},{"name":"updateTime","type":"uint32","internalType":"uint32"},{"name":"maxEnd","type":"uint32","internalType":"uint32"}]}],"outputs":[{"name":"amt","type":"uint128","internalType":"uint128"}],"stateMutability":"nonpayable"},{"type":"function","name":"squeezeStreamsResult","inputs":[{"name":"accountId","type":"uint256","internalType":"uint256"},{"name":"erc20","type":"address","internalType":"contract IERC20"},{"name":"senderId","type":"uint256","internalType":"uint256"},{"name":"historyHash","type":"bytes32","internalType":"bytes32"},{"name":"streamsHistory","type":"tuple[]","internalType":"struct StreamsHistory[]","components":[{"name":"streamsHash","type":"bytes32","internalType":"bytes32"},{"name":"receivers","type":"tuple[]","internalType":"struct StreamReceiver[]","components":[{"name":"accountId","type":"uint256","internalType":"uint256"},{"name":"config","type":"uint256","internalType":"StreamConfig"}]},{"name":"updateTime","type":"uint32","internalType":"uint32"},{"name":"maxEnd","type":"uint32","internalType":"uint32"}]}],"outputs":[{"name":"amt","type":"uint128","internalType":"uint128"}],"stateMutability":"view"},{"type":"function","name":"streamsState","inputs":[{"name":"accountId","type":"uint256","internalType":"uint256"},{"name":"erc20","type":"address","internalType":"contract IERC20"}],"outputs":[{"name":"streamsHash","type":"bytes32","internalType":"bytes32"},{"name":"streamsHistoryHash","type":"bytes32","internalType":"bytes32"},{"name":"updateTime","type":"uint32","internalType":"uint32"},{"name":"balance","type":"uint128","internalType":"uint128"},{"name":"maxEnd","type":"uint32","internalType":"uint32"}],"stateMutability":"view"},{"type":"function","name":"unpause","inputs":[],"outputs":[],"stateMutability":"nonpayable"},{"type":"function","name":"updateDriverAddress","inputs":[{"name":"driverId","type":"uint32","internalType":"uint32"},{"name":"newDriverAddr","type":"address","internalType":"address"}],"outputs":[],"stateMutability":"nonpayable"},{"type":"function","name":"upgradeTo","inputs":[{"name":"newImplementation","type":"address","internalType":"address"}],"outputs":[],"stateMutability":"nonpayable"},{"type":"function","name":"upgradeToAndCall","inputs":[{"name":"newImplementation","type":"address","internalType":"address"},{"name":"data","type":"bytes","internalType":"bytes"}],"outputs":[],"stateMutability":"payable"},{"type":"function","name":"withdraw","inputs":[{"name":"erc20","type":"address","internalType":"contract IERC20"},{"name":"receiver","type":"address","internalType":"address"},{"name":"amt","type":"uint256","internalType":"uint256"}],"outputs":[],"stateMutability":"nonpayable"},{"type":"event","name":"AccountMetadataEmitted","inputs":[{"name":"accountId","type":"uint256","indexed":true,"internalType":"uint256"},{"name":"key","type":"bytes32","indexed":true,"internalType":"bytes32"},{"name":"value","type":"bytes","indexed":false,"internalType":"bytes"}],"anonymous":false},{"type":"event","name":"AdminChanged","inputs":[{"name":"previousAdmin","type":"address","indexed":false,"internalType":"address"},{"name":"newAdmin","type":"address","indexed":false,"internalType":"address"}],"anonymous":false},{"type":"event","name":"BeaconUpgraded","inputs":[{"name":"beacon","type":"address","indexed":true,"internalType":"address"}],"anonymous":false},{"type":"event","name":"Collectable","inputs":[{"name":"accountId","type":"uint256","indexed":true,"internalType":"uint256"},{"name":"erc20","type":"address","indexed":true,"internalType":"contract IERC20"},{"name":"amt","type":"uint128","indexed":false,"internalType":"uint128"}],"anonymous":false},{"type":"event","name":"Collected","inputs":[{"name":"accountId","type":"uint256","indexed":true,"internalType":"uint256"},{"name":"erc20","type":"address","indexed":true,"internalType":"contract IERC20"},{"name":"collected","type":"uint128","indexed":false,"internalType":"uint128"}],"anonymous":false},{"type":"event","name":"DriverAddressUpdated","inputs":[{"name":"driverId","type":"uint32","indexed":true,"internalType":"uint32"},{"name":"oldDriverAddr","type":"address","indexed":true,"internalType":"address"},{"name":"newDriverAddr","type":"address","indexed":true,"internalType":"address"}],"anonymous":false},{"type":"event","name":"DriverRegistered","inputs":[{"name":"driverId","type":"uint32","indexed":true,"internalType":"uint32"},{"name":"driverAddr","type":"address","indexed":true,"internalType":"address"}],"anonymous":false},{"type":"event","name":"Given","inputs":[{"name":"accountId","type":"uint256","indexed":true,"internalType":"uint256"},{"name":"receiver","type":"uint256","indexed":true,"internalType":"uint256"},{"name":"erc20","type":"address","indexed":true,"internalType":"contract IERC20"},{"name":"amt","type":"uint128","indexed":false,"internalType":"uint128"}],"anonymous":false},{"type":"event","name":"NewAdminProposed","inputs":[{"name":"currentAdmin","type":"address","indexed":true,"internalType":"address"},{"name":"newAdmin","type":"address","indexed":true,"internalType":"address"}],"anonymous":false},{"type":"event","name":"Paused","inputs":[{"name":"pauser","type":"address","indexed":true,"internalType":"address"}],"anonymous":false},{"type":"event","name":"PauserGranted","inputs":[{"name":"pauser","type":"address","indexed":true,"internalType":"address"},{"name":"admin","type":"address","indexed":true,"internalType":"address"}],"anonymous":false},{"type":"event","name":"PauserRevoked","inputs":[{"name":"pauser","type":"address","indexed":true,"internalType":"address"},{"name":"admin","type":"address","indexed":true,"internalType":"address"}],"anonymous":false},{"type":"event","name":"ReceivedStreams","inputs":[{"name":"accountId","type":"uint256","indexed":true,"internalType":"uint256"},{"name":"erc20","type":"address","indexed":true,"internalType":"contract IERC20"},{"name":"amt","type":"uint128","indexed":false,"internalType":"uint128"},{"name":"receivableCycles","type":"uint32","indexed":false,"internalType":"uint32"}],"anonymous":false},{"type":"event","name":"Split","inputs":[{"name":"accountId","type":"uint256","indexed":true,"internalType":"uint256"},{"name":"receiver","type":"uint256","indexed":true,"internalType":"uint256"},{"name":"erc20","type":"address","indexed":true,"internalType":"contract IERC20"},{"name":"amt","type":"uint128","indexed":false,"internalType":"uint128"}],"anonymous":false},{"type":"event","name":"SplitsReceiverSeen","inputs":[{"name":"receiversHash","type":"bytes32","indexed":true,"internalType":"bytes32"},{"name":"accountId","type":"uint256","indexed":true,"internalType":"uint256"},{"name":"weight","type":"uint32","indexed":false,"internalType":"uint32"}],"anonymous":false},{"type":"event","name":"SplitsSet","inputs":[{"name":"accountId","type":"uint256","indexed":true,"internalType":"uint256"},{"name":"receiversHash","type":"bytes32","indexed":true,"internalType":"bytes32"}],"anonymous":false},{"type":"event","name":"SqueezedStreams","inputs":[{"name":"accountId","type":"uint256","indexed":true,"internalType":"uint256"},{"name":"erc20","type":"address","indexed":true,"internalType":"contract IERC20"},{"name":"senderId","type":"uint256","indexed":true,"internalType":"uint256"},{"name":"amt","type":"uint128","indexed":false,"internalType":"uint128"},{"name":"streamsHistoryHashes","type":"bytes32[]","indexed":false,"internalType":"bytes32[]"}],"anonymous":false},{"type":"event","name":"StreamReceiverSeen","inputs":[{"name":"receiversHash","type":"bytes32","indexed":true,"internalType":"bytes32"},{"name":"accountId","type":"uint256","indexed":true,"internalType":"uint256"},{"name":"config","type":"uint256","indexed":false,"internalType":"StreamConfig"}],"anonymous":false},{"type":"event","name":"StreamsSet","inputs":[{"name":"accountId","type":"uint256","indexed":true,"internalType":"uint256"},{"name":"erc20","type":"address","indexed":true,"internalType":"contract IERC20"},{"name":"receiversHash","type":"bytes32","indexed":true,"internalType":"bytes32"},{"name":"streamsHistoryHash","type":"bytes32","indexed":false,"internalType":"bytes32"},{"name":"balance","type":"uint128","indexed":false,"internalType":"uint128"},{"name":"maxEnd","type":"uint32","indexed":false,"internalType":"uint32"}],"anonymous":false},{"type":"event","name":"Unpaused","inputs":[{"name":"pauser","type":"address","indexed":true,"internalType":"address"}],"anonymous":false},{"type":"event","name":"Upgraded","inputs":[{"name":"implementation","type":"address","indexed":true,"internalType":"address"}],"anonymous":false},{"type":"event","name":"Withdrawn","inputs":[{"name":"erc20","type":"address","indexed":true,"internalType":"contract IERC20"},{"name":"receiver","type":"address","indexed":true,"internalType":"address"},{"name":"amt","type":"uint256","indexed":false,"internalType":"uint256"}],"anonymous":false}],"bytecode":{"object":"0x6101a0346200041757620050a438819003601f8101601f191683016001600160401b038111848210176200041b578392829160405283396020928391810103126200041757519063ffffffff80831691828403620004175762000094620000656200042f565b601681527f656970313936372e73706c6974732e73746f7261676500000000000000000000838201526200044f565b92620000d2620000a36200042f565b601781527f656970313936372e73747265616d732e73746f72616765000000000000000000848201526200044f565b943060805262000114620000e56200042f565b601781527f656970313936372e6d616e616765642e73746f72616765000000000000000000858201526200044f565b8060a052600160ff198254161790556001821115620003d25760c0526001600160a01b0391633b9aca008201838111620003be5783165f190191838311620003be578015620003aa5783620001ad93160460e0526101009586526101209485527f656970313936372e64726970732e73746f7261676500000000000000000000006200019f6200042f565b91601583528201526200044f565b9161018092835260c051169061014091825260e051169061016091825260405193614c3c9586620004688739608051868181611d8701528181611eb201526122ce015260a051868181610291015281816105b20152818161073e01528181610aad01528181610ca7015281816113b8015281816114110152818161153b015281816115f001528181611803015281816119190152818161197f015281816119f801528181611bcc0152818161212d015281816121c10152818161225b0152818161249d015281816124ef0152818161288b015281816128cc015281816129b401528181612aa00152612b74015260c05186818161406f015281816145c30152818161477201526148ec015260e051866149b10152518581816102e601528181610cf601528181610db401528181611863015281816125a7015281816126cc015281816135dc0152818161373c01528181613db00152613ff801525184818161048901528181610ae50152818161162801528181611b41015281816127c701528181612bae015281816133fb01528181613aa301528181613cae0152613f7901525183611cc801525182610a000152518181816105ea015281816107aa0152818161116201528181611358015281816114480152818161158901528181611ab4015281816131d20152818161333f01528181613a3e0152613d3a0152f35b634e487b7160e01b5f52601260045260245ffd5b634e487b7160e01b5f52601160045260245ffd5b60405162461bcd60e51b815260048101849052601460248201527f4379636c65206c656e67746820746f6f206c6f770000000000000000000000006044820152606490fd5b5f80fd5b634e487b7160e01b5f52604160045260245ffd5b60408051919082016001600160401b038111838210176200041b57604052565b602081519101206103ff198101908111620003be579056fe6101006040526004361015610012575f80fd5b5f3560e01c806302cfc75314612b3757806309c1d95f14612a5857806309d48a941461299f5780630e18b681146128ba5780630ea2063a1461284757806319af3267146128105780631ec026c8146127a7578063202bbca11461278b5780632776f94c1461267c57806327e235e31461265b578063302dea39146124d357806332f751ec146124895780633659cfe6146122aa578063387d2a2f1461228c5780633f4ba83a14612185578063444e249f1461216457806346fbf68e146120fe5780634f1ef28614611e3757806352d1902d14611d755780635429f17514611d5a578063577e012c14611d205780635c60da1b14611cec578063631d669c14611cac5780636961025714611b7257806374dd056514611b295780637dd3f81c14611aee5780637e5b5a8314611a8f5780637fe76df0146119b05780638456cb59146118dd578063879db4831461183d5780638bad0c0a1461179c5780638cd771801461175a5780638d3c100a146115cd5780638e48a7e5146115b257806398aba1cf14611570578063a6376746146114d3578063a69aff3c146114b6578063aeefca1c146113e3578063b187bd26146113a2578063b3a3a57314610c1a578063be1ca32214610a5d578063c1a96fe214610a2f578063c82051dd146109eb578063d9caed1214610806578063d9e01070146106d9578063f0f4fd5e14610592578063f11d513914610577578063f4e45f2d1461050c578063f851a440146104d8578063f98e7e1d14610469578063fa93c0a2146102755763ff27d01914610256575f80fd5b34610271575f36600319011261027157602060405160648152f35b5f80fd5b34610271576102c061028636612fd1565b849395916102b860ff7f0000000000000000000000000000000000000000000000000000000000000000541615613143565b8387866135c7565b97939492916102d183989298613575565b9060018060a01b039889871694855f5260209b7f00000000000000000000000000000000000000000000000000000000000000008d5260405f20865f528d5260405f2092885f528d60018501905260405f20915f9563ffffffff965b858110610404575050505050509061036e91610347614064565b6001600160801b038a169b633b9aca008d021660130b5f0360130b926001820116916145f4565b604051906040820189835260408b84015281518091528a606084019201905f5b8c8282106103ed575050505090807fa02343a8d410763ab5aa692d1838108ac9ceaadf187c5071fa7dbbd10d20c295920390a4836103d2575b505050604051908152f35b6103e5926103e08383613a2f565b613a9f565b8280806103c7565b835185528b9650938401939092019160010161038e565b6001919293949596979899506104456104225f19838a0301856133bf565b518b61043c84610435848b51038b6133bf565b51926133bf565b528503876135a7565b81549060031b908b804216831b921b191617905501908d989796959493929161032d565b3461027157604036600319011261027157610482612f22565b6004355f527f0000000000000000000000000000000000000000000000000000000000000000602052600160405f20019060018060a01b03165f5260205260206001600160801b0360405f205416604051908152f35b34610271575f366003190112610271575f80516020614bc7833981519152546040516001600160a01b039091168152602090f35b34610271576060366003190112610271576024356001600160401b0381116102715761053c903690600401612e82565b6044356001600160801b03811681036102715761055b91600435613e67565b604080516001600160801b039384168152919092166020820152f35b34610271575f36600319011261027157602060405160c88152f35b34610271576020366003190112610271576105ab612f0c565b6105d960ff7f0000000000000000000000000000000000000000000000000000000000000000541615613143565b6001600160a01b03168015610694577f00000000000000000000000000000000000000000000000000000000000000009081549163ffffffff8084169181831461068057602094600192838501169063ffffffff1916178155825f5201835260405f20826bffffffffffffffffffffffff60a01b82541617905560405191817f749894a8ffc45e1d212322a05461004c7bc358b4d36325766b63526b1ccf8bdf5f80a38152f35b634e487b7160e01b5f52601160045260245ffd5b60405162461bcd60e51b815260206004820152601f60248201527f447269766572207265676973746572656420666f7220302061646472657373006044820152606490fd5b34610271576080366003190112610271576004356024356106f8612f38565b91606435926001600160801b03841693848103610271577f30e2797f85108749fb58c0e7da3e229828df7b148755f420c96d565c7ab6d8329161077e60209261076560ff7f0000000000000000000000000000000000000000000000000000000000000000541615613143565b6107718660e01c613333565b87610791575b8287613a9f565b6040519586526001600160a01b031694a4005b61079b81846142d0565b60018060a01b0383165f5260027f000000000000000000000000000000000000000000000000000000000000000001845261080160405f206107e183825460801c613a14565b81546001600160801b031660809190911b6001600160801b031916179055565b610777565b346102715760603660031901126102715761081f612f0c565b610827612f22565b9060443561085d610837836131c4565b9061085561084486613c3e565b6001600160801b0380931690613326565b911690613326565b81116109a6576109179160018060a01b038091169316925f806040519584875280847fd1c19fbcd4551a5edfb66d43d2e337c04837afda3482b42bdf569a8fccdae5fb6020809aa3604051948786019163a9059cbb60e01b835260248701526044860152604485526108ce85612ddd565b604051946108db86612dc2565b8786527f5361666545524332303a206c6f772d6c6576656c2063616c6c206661696c656488870152519082855af1610911614970565b91614af4565b8051828115918215610986575b505090501561092f57005b6084906040519062461bcd60e51b82526004820152602a60248201527f5361666545524332303a204552433230206f7065726174696f6e20646964206e6044820152691bdd081cdd58d8d9595960b21b6064820152fd5b838092935001031261027157810151801515810361027157808284610924565b60405162461bcd60e51b815260206004820152601a60248201527f5769746864726177616c20616d6f756e7420746f6f20686967680000000000006044820152606490fd5b34610271575f366003190112610271576040517f00000000000000000000000000000000000000000000000000000000000000006001600160a01b03168152602090f35b34610271576020610a48610a42366130f1565b91613d75565b505050506001600160801b0360405191168152f35b346102715760a036600319011261027157600435610a79612f22565b610a81612f38565b916064356001600160a01b0381811691829003610271576084359481861680960361027157610ad460ff7f0000000000000000000000000000000000000000000000000000000000000000541615613143565b610ae08460e01c613333565b835f527f0000000000000000000000000000000000000000000000000000000000000000602052600160405f20018286165f5260205260405f205460801c610b2786613c3e565b1015610be057610b378585613ca7565b946001600160801b0386169586610bd0575b505016803b15610271575f92836084926040519788958694633ed1682160e01b86526004860152602485015287604485015260648401525af18015610bc557610b98575b602090604051908152f35b6001600160401b038211610bb157602091604052610b8d565b634e487b7160e01b5f52604160045260245ffd5b6040513d5f823e3d90fd5b610bd991613d2b565b8680610b49565b60405162461bcd60e51b8152602060048201526012602482015271155cd9481b9bdc9b585b0818dbdb1b1958dd60721b6044820152606490fd5b346102715760e036600319011261027157610c33612f22565b6001600160401b039060443582811161027157610c54903690600401612f4e565b91606435600f0b606435036102715760843590811161027157610c7b903690600401612f4e565b60a05263ffffffff60a4351660a435036102715763ffffffff60c4351660c4350361027157610cce60ff7f0000000000000000000000000000000000000000000000000000000000000000541615613143565b610cdc60043560e01c613333565b5f606435600f0b13611332575b60018060a01b0381165f527f000000000000000000000000000000000000000000000000000000000000000060205260405f206004355f5260205260405f2091610d3383826140b1565b60038301546001600160801b03610d6a63ffffffff42168463ffffffff8560401c1663ffffffff8660201c16858760601c1661410b565b16600f0b9060643592825f03600f0b80606435600f0b1261132a575b50610da760c49594953560a43560a0518887016001600160801b0316614398565b60018060a01b0385165f527f000000000000000000000000000000000000000000000000000000000000000060205260405f20935f955f6080525b8351871080604051610df381612dc2565b5f81525f602082015291611317575b848760a05151608051109384604051610e1a81612dc2565b5f81525f602082015290611302575b84806112fb575b6112ab575b8b85806112a4575b15610f2e57610ebe63ffffffff95610eb98794610ec49487515f52602052610e8c610e7c60405f20998842169089808260401c169160201c168b61462e565b929094884216918942169061462e565b9097602060018060a01b0391015160401c1691610eb3610eab846145aa565b8a878d6145f4565b896145f4565b6145ba565b926145ba565b16928391161180610f1b575b610f04575b50505b610efa575b978798610eec575b9750610de2565b600160805101608052610ee5565b9660010196610edd565b6003019063ffffffff198254161790558b80610ed5565b508163ffffffff60038301541611610ed0565b50925090508215610f9557610f90915080515f5289602052610f8a60405f2091610f6f63ffffffff42168c63ffffffff808260401c169160201c168461462e565b6020909201519192909160401c6001600160a01b03166145aa565b926145f4565b610ed8565b5082156110315780515f52886020526003610fe360405f2092610eb9610fc963ffffffff42168b63ffffffff42168561462e565b9092602060018060a01b0391015160401c169083876145f4565b91019081549063ffffffff82168015908115611021575b50611008575b505050610ed8565b63ffffffff169063ffffffff19161790558b8080611000565b905063ffffffff8216108f610ffa565b838b8060028f898d63ffffffff8d60038501546001600160801b0360601b88860160601b1667ffffffff000000004260201b16848060e01b0183161763ffffffff60401b8460401b1617176003870155855493841515908161127d575b501561121657506003850180546001600160e01b0316600160e11b1790555b6001600160801b036110c060a051613bd0565b9788956110d1848642168989613b86565b88556040519586520116602084015216604082015260018060a01b038716907f8b23331305d892ba8ae0d5ad747051e5d007302b8b0eba8f45ebdc5f82962f6d606060043592a401805482036111b6575b5050600f0b5f811261113957602090604051908152f35b6f7fffffffffffffffffffffffffffffff1981146106805760209160018060a01b03165f5260027f000000000000000000000000000000000000000000000000000000000000000001825260405f2080546001600160801b036111a2845f0382168284166139fb565b16906001600160801b031916179055610b8d565b8190555f5b60a0515181101561120d57806111d560019260a0516133bf565b51837f68f8694c2f9c9f45540d88ae439aaf8a7c84d05392f23a12e2ebdc75ed31ad1e6020808451940151604051908152a3016111bb565b50508280611122565b600160e084811b8501831667ffffffff000000004260201b1690811763ffffffff60401b604087901b169081176fffffffffffffffffffffffffffffffff60601b8d8b0160601b16908117841c94909401871690921b9386161717171760038601556110ad565b61128c915060201c84166145ba565b83806112998142166145ba565b16911614158b61108e565b5086610e3d565b81518151148015906112d4575b15610e3557945092506112cb84846148bf565b92831594610e35565b5060208281015190820151604090811c6001600160a01b039081169290911c1614156112b8565b5085610e30565b5061131160805160a0516133bf565b51610e29565b905061132388866133bf565b5190610e02565b935086610d86565b6001600160801b03606435811661134981846142d0565b60018060a01b0383165f5260027f00000000000000000000000000000000000000000000000000000000000000000160205260405f209161138e835492828416613a14565b16906001600160801b031916179055610ce9565b34610271575f36600319011261027157602060ff7f000000000000000000000000000000000000000000000000000000000000000054166040519015158152f35b34610271576040366003190112610271576113fc612e5e565b63ffffffff611409612f22565b9161143860ff7f0000000000000000000000000000000000000000000000000000000000000000541615613143565b61144181613333565b165f8181527f00000000000000000000000000000000000000000000000000000000000000006001016020526040812080546001600160a01b0319166001600160a01b0390941693841790553391907f5a2904d4b2f1a05120ab193be9a140a7ad8d310e3bb91af232d47f2f55fa38829080a4005b34610271575f366003190112610271576020604051620f42408152f35b34610271576020366003190112610271576114ec612f0c565b5f80516020614bc7833981519152546001600160a01b0391906115129083163314613181565b1680337fed2d93e7985747cd1a4a093c2cc3bb73d0f177b81bdfd26020e8f20a97e8112e5f80a37f000000000000000000000000000000000000000000000000000000000000000060030180546001600160a01b0319169091179055005b34610271575f36600319011261027157602063ffffffff7f00000000000000000000000000000000000000000000000000000000000000005416604051908152f35b34610271575f36600319011261027157602060405160e08152f35b34610271576040366003190112610271576004356115e9612f22565b61161760ff7f0000000000000000000000000000000000000000000000000000000000000000541615613143565b6116238260e01c613333565b815f527f0000000000000000000000000000000000000000000000000000000000000000602052600160405f200160018060a01b0382165f5260205260405f205460801c806116a6575b5061167a81602093613ca7565b906001600160801b0382169182611696575b5050604051908152f35b61169f91613d2b565b828061168c565b6116d06116b2836131c4565b91906116bd85613c3e565b926001600160801b038091169116613319565b50106116dc578261166d565b60405162461bcd60e51b815260206004820152604a60248201527f496e73756666696369656e74207661756c742062616c616e63652e205573652060448201527f666f726365436f6c6c65637420746f2077697468647261772066726f6d20596960648201526932b63226b0b730b3b2b960b11b608482015260a490fd5b34610271576020366003190112610271576004356001600160401b0381116102715761179461178f6020923690600401612f4e565b613bd0565b604051908152f35b34610271575f366003190112610271575f80516020614bc783398151915280547f7e644d79422f17c01e4894b5f4f588d331ebfa28653d42ae832dc59e38c9798f906040906001600160a01b03166117f5338214613181565b81519081525f6020820152a17f000000000000000000000000000000000000000000000000000000000000000060030180546001600160a01b03199081169091558154169055005b34610271576040366003190112610271576001600160a01b0361185e612f22565b165f527f000000000000000000000000000000000000000000000000000000000000000060205260405f206004355f5260205260a060405f206002810154906003815491015463ffffffff916040519384526020840152818160201c1660408401526001600160801b038160601c16606084015260401c166080820152f35b34610271575f366003190112610271575f80516020614bc7833981519152546001600160a01b031633148015611977575b611917906132ce565b7f00000000000000000000000000000000000000000000000000000000000000006001815461194960ff821615613143565b60ff1916179055337f62e78cea01bee320cd4e420270b5ea74000d11b0c9f74754ebdbfc544b05a2585f80a2005b50335f9081527f00000000000000000000000000000000000000000000000000000000000000006002016020526040902054151561190e565b34610271576020366003190112610271576119c9612f0c565b5f80516020614bc7833981519152546001600160a01b0391906119ef9083163314613181565b16611a1d8160017f00000000000000000000000000000000000000000000000000000000000000000161420b565b15611a4a5733907ffd55549bcbafb9531a61db3cfb88d1cca64e215b12def56e6ea913fe1ac91fd25f80a3005b60405162461bcd60e51b815260206004820152601760248201527f41646472657373206973206e6f742061207061757365720000000000000000006044820152606490fd5b346102715760203660031901126102715763ffffffff611aad612e5e565b165f5260017f000000000000000000000000000000000000000000000000000000000000000001602052602060018060a01b0360405f205416604051908152f35b346102715760803660031901126102715760443563ffffffff8116810361027157611794602091611b1d612e4b565b90602435600435613b86565b34610271576020366003190112610271576004355f527f0000000000000000000000000000000000000000000000000000000000000000602052602060405f2054604051908152f35b3461027157604036600319011261027157602480356001600160401b036004358183116102715736602384011215610271578260040135828111610271576005933660248360051b8301011161027157611bf360ff9592957f0000000000000000000000000000000000000000000000000000000000000000541615613143565b611bff8360e01c613333565b3681900360621901915f5b868110611c1357005b8781831b84010135848112156102715783019060448083013560421984360301811215610271578301908a8201359189831161027157018136038113610271577f104963f2a5dc192f8154d2714d24eff1983117445036fb4dc408713d73b36aa58260408a938e6001988351948593816020808752860152858501375f838901850152013595601f01601f19168101030190a301611c0a565b34610271575f36600319011261027157602060405163ffffffff7f0000000000000000000000000000000000000000000000000000000000000000168152f35b34610271575f366003190112610271575f80516020614be7833981519152546040516001600160a01b039091168152602090f35b34610271576020366003190112610271576004356001600160401b03811161027157611794611d556020923690600401612e82565b613b07565b34610271575f36600319011261027157602060405160098152f35b34610271575f366003190112610271577f00000000000000000000000000000000000000000000000000000000000000006001600160a01b03163003611dcc5760206040515f80516020614be78339815191528152f35b60405162461bcd60e51b815260206004820152603860248201527f555550535570677261646561626c653a206d757374206e6f742062652063616c60448201527f6c6564207468726f7567682064656c656761746563616c6c00000000000000006064820152608490fd5b604036600319011261027157611e4b612f0c565b602435906001600160401b0382116102715736602383011215610271578160040135611e7681613128565b92611e846040519485612e13565b81845260209182850191366024838301011161027157815f9260248693018537860101526001600160a01b037f0000000000000000000000000000000000000000000000000000000000000000811690611ee03083141561320c565b611efc5f80516020614be783398151915292828454161461326d565b611f17815f80516020614bc783398151915254163314613181565b7f4910fdfa16fed3260ed0e7147f7cc6da11a60208b5b9406d12a635614ffd91435460ff1615611f515750505050611f4f915061417c565b005b84939416906040516352d1902d60e01b81528581600481865afa5f91816120cf575b50611fd45760405162461bcd60e51b815260048101879052602e60248201527f45524331393637557067726164653a206e657720696d706c656d656e7461746960448201526d6f6e206973206e6f74205555505360901b6064820152608490fd5b0361207857611fe28361417c565b7fbc7cd75a20ee27fd9adebab32041f755214dbc6bffa90cc0225b39da2e5c2d3b5f80a2835115801590612070575b61201757005b5f8091611f4f957f416464726573733a206c6f772d6c6576656c2064656c65676174652063616c6c6040519661204c88612df8565b60278852870152660819985a5b195960ca1b60408701525190845af4610911614970565b506001612011565b60405162461bcd60e51b815260048101859052602960248201527f45524331393637557067726164653a20756e737570706f727465642070726f786044820152681a58589b195555525160ba1b6064820152608490fd5b9091508681813d83116120f7575b6120e78183612e13565b8101031261027157519088611f73565b503d6120dd565b3461027157602036600319011261027157602061215a6001600160a01b03612124612f0c565b165f90815260027f0000000000000000000000000000000000000000000000000000000000000000016020526040902054151590565b6040519015158152f35b34610271575f36600319011261027157602060405160016001607f1b038152f35b34610271575f366003190112610271575f80516020614bc7833981519152546001600160a01b031633148015612253575b6121bf906132ce565b7f0000000000000000000000000000000000000000000000000000000000000000805460ff8116156122185760ff19169055337f5db9ee0a495bf2e6ff9c91a7834c1ba4fdd244a5e8aa4e537bd38aeae4b073aa5f80a2005b60405162461bcd60e51b815260206004820152601360248201527210dbdb9d1c9858dd081b9bdd081c185d5cd959606a1b6044820152606490fd5b50335f9081527f0000000000000000000000000000000000000000000000000000000000000000600201602052604090205415156121b6565b34610271575f366003190112610271576020604051633b9aca008152f35b3461027157602080600319360112610271576122c4612f0c565b6001600160a01b037f0000000000000000000000000000000000000000000000000000000000000000811692906122fd3085141561320c565b6123195f80516020614be783398151915294828654161461326d565b612334815f80516020614bc783398151915254163314613181565b60405193828501918583106001600160401b03841117610bb157826040525f865260ff7f4910fdfa16fed3260ed0e7147f7cc6da11a60208b5b9406d12a635614ffd914354165f1461238e5750505050611f4f915061417c565b84939416906040516352d1902d60e01b81528581600481865afa5f918161245a575b506124115760405162461bcd60e51b815260048101879052602e60248201527f45524331393637557067726164653a206e657720696d706c656d656e7461746960448201526d6f6e206973206e6f74205555505360901b6064820152608490fd5b036120785761241f8361417c565b7fbc7cd75a20ee27fd9adebab32041f755214dbc6bffa90cc0225b39da2e5c2d3b5f80a28351158015906124535761201757005b505f612011565b9091508681813d8311612482575b6124728183612e13565b81010312610271575190886123b0565b503d612468565b34610271575f3660031901126102715760037f000000000000000000000000000000000000000000000000000000000000000001546040516001600160a01b039091168152602090f35b346102715761251d6124e4366130f1565b61251660ff949293947f0000000000000000000000000000000000000000000000000000000000000000541615613143565b8284613d75565b959392949163ffffffff809216968783831603612591575b505060209550604051906001600160801b038416958683521686820152837f6c91d10ec47151439d4dc2df77dbc3a78e8502b9176aeb4d6ab0b1823d95d34c604060018060a01b03851693a3836103d257505050604051908152f35b91959093929460018060a01b0386165f526020937f000000000000000000000000000000000000000000000000000000000000000060205260405f20825f52602052600460405f20600381018b63ffffffff1982541617905501955b8881168a81101561260e575f908152878752604081205560010188166125ed565b505094909593506020979692919682600f0b61262b575b50612535565b5f52875260405f209081549081600f0b016001600160801b0316906001600160801b031916179055868080612625565b346102715760203660031901126102715761055b612677612f0c565b6131c4565b3461027157608036600319011261027157612695612f22565b6044356001600160401b038111610271576126b4903690600401612f4e565b6126bc612e4b565b9160018060a01b03165f526020907f0000000000000000000000000000000000000000000000000000000000000000825260405f206004355f52825260405f209260038401549163ffffffff928381861c1680858516106127485761272661273f959697846140b1565b6001600160801b0380968360401c169260601c1661410b565b60405191168152f35b6064866040519062461bcd60e51b825280600483015260248201527f54696d657374616d70206265666f726520746865206c617374207570646174656044820152fd5b34610271576020610a4861279e36612fd1565b939290926135c7565b34610271576040366003190112610271576127c0612f22565b6004355f527f0000000000000000000000000000000000000000000000000000000000000000602052600160405f20019060018060a01b03165f52602052602060405f205460801c604051908152f35b3461027157604036600319011261027157602063ffffffff61283b612833612f22565b600435613feb565b91906040519203168152f35b3461027157606036600319011261027157612860612f22565b604435906001600160401b0382116102715761288361055b923690600401612e82565b906128b260ff7f0000000000000000000000000000000000000000000000000000000000000000541615613143565b6004356133e7565b34610271575f366003190112610271577f000000000000000000000000000000000000000000000000000000000000000060030180546001600160a01b0391338383160361295a577f7e644d79422f17c01e4894b5f4f588d331ebfa28653d42ae832dc59e38c9798f60405f80516020614bc7833981519152948554168151908152336020820152a16001600160a01b0319918216905581541633179055005b60405162461bcd60e51b815260206004820152601d60248201527f43616c6c6572206e6f74207468652070726f706f7365642061646d696e0000006044820152606490fd5b34610271575f366003190112610271576001807f000000000000000000000000000000000000000000000000000000000000000001906040519081835480825260208092019081955f52825f20905f5b818110612a455750505083612a05910384612e13565b6040519281840190828552518091526040840194915f5b828110612a295785870386f35b83516001600160a01b0316875295810195928101928401612a1c565b82548452928401929185019185016129ef565b3461027157602036600319011261027157612a71612f0c565b5f80516020614bc7833981519152546001600160a01b039190612a979083163314613181565b16612ac58160017f000000000000000000000000000000000000000000000000000000000000000001613efc565b15612af25733907fbb7fff487ca65a5841fe463ac801812d2aeb3c2059f6e44b2b3cdab8ee7c3db05f80a3005b60405162461bcd60e51b815260206004820152601b60248201527f4164647265737320616c726561647920697320612070617573657200000000006044820152606490fd5b346102715760403660031901126102715760246001600160401b03600435823582811161027157612b6c903690600401612e82565b90612b9b60ff7f0000000000000000000000000000000000000000000000000000000000000000541615613143565b612ba78160e01c613333565b805f5260207f0000000000000000000000000000000000000000000000000000000000000000815260405f2093612bdd84613b07565b9283604051917f8af909ffa127c333d18602940f67f3fd57368f15b6860033919818daa60c16845f80a385548403612c1157005b60c8855111612d805750925f935f915f5b8151811015612d2557612c3581836133bf565b519363ffffffff8686015116978815612ce157888591011694519082612c90575b509081877feb9ab17f5929fcbcb68f4adf670d54c00ab00934512a4c92938d59b43a0463ea886001959b604051908152a301959295612c22565b811115612c9d578a612c56565b60405162461bcd60e51b815260048101879052601b818c01527f53706c69747320726563656976657273206e6f7420736f7274656400000000006044820152606490fd5b60405162461bcd60e51b815260048101889052601e818d01527f53706c69747320726563656976657220776569676874206973207a65726f00006044820152606490fd5b505091939050620f42409295501611612d3c575055005b6064906040519062461bcd60e51b82526004820152601b60248201527f53706c69747320776569676874732073756d20746f6f206869676800000000006044820152fd5b62461bcd60e51b815260048101839052601960248201527f546f6f206d616e792073706c69747320726563656976657273000000000000006044820152606490fd5b604081019081106001600160401b03821117610bb157604052565b608081019081106001600160401b03821117610bb157604052565b606081019081106001600160401b03821117610bb157604052565b90601f801991011681019081106001600160401b03821117610bb157604052565b6001600160401b038111610bb15760051b60200190565b6064359063ffffffff8216820361027157565b6004359063ffffffff8216820361027157565b359063ffffffff8216820361027157565b9080601f83011215610271578135916020612e9c84612e34565b93604093612ead6040519687612e13565b818652828087019260061b85010193818511610271578301915b848310612ed75750505050505090565b8583830312610271578386918251612eee81612dc2565b85358152612efd838701612e71565b83820152815201920191612ec7565b600435906001600160a01b038216820361027157565b602435906001600160a01b038216820361027157565b604435906001600160a01b038216820361027157565b9080601f83011215610271578135916020612f6884612e34565b93604093612f796040519687612e13565b818652828087019260061b85010193818511610271578301915b848310612fa35750505050505090565b8583830312610271578386918251612fba81612dc2565b853581528286013583820152815201920191612f93565b9060a0600319830112610271576004359160249081356001600160a01b0381168103610271579260448035936064916064359460848035926001600160401b039283851161027157806023860112156102715784600401359261303384612e34565b9760406130436040519a8b612e13565b858a52602098602460208c019760051b8a010198858a116102715760248101975b8a891061307a5750505050505050505050505090565b88358a81116102715782019060808289036023190112610271578451906130a082612ddd565b84830135825289830135918c8311610271576130e18f94806130c88d8a89988f950101612f4e565b868501526130d78b8201612e71565b8a85015201612e71565b6060820152815201980197613064565b606090600319011261027157600435906024356001600160a01b0381168103610271579060443563ffffffff811681036102715790565b6001600160401b038111610bb157601f01601f191660200190565b1561314a57565b60405162461bcd60e51b815260206004820152600f60248201526e10dbdb9d1c9858dd081c185d5cd959608a1b6044820152606490fd5b1561318857565b60405162461bcd60e51b815260206004820152601460248201527321b0b63632b9103737ba103a34329030b236b4b760611b6044820152606490fd5b60018060a01b03165f5260027f00000000000000000000000000000000000000000000000000000000000000000160205260405f2054906001600160801b0382169160801c90565b1561321357565b60405162461bcd60e51b815260206004820152602c60248201527f46756e6374696f6e206d7573742062652063616c6c6564207468726f7567682060448201526b19195b1959d85d1958d85b1b60a21b6064820152608490fd5b1561327457565b60405162461bcd60e51b815260206004820152602c60248201527f46756e6374696f6e206d7573742062652063616c6c6564207468726f7567682060448201526b6163746976652070726f787960a01b6064820152608490fd5b156132d557565b606460405162461bcd60e51b815260206004820152602060248201527f43616c6c6572206e6f74207468652061646d696e206f722061207061757365726044820152fd5b9190820180921161068057565b9190820391821161068057565b63ffffffff165f9081527f000000000000000000000000000000000000000000000000000000000000000060010160205260409020546001600160a01b0316330361337a57565b60405162461bcd60e51b815260206004820152601b60248201527f43616c6c61626c65206f6e6c79206279207468652064726976657200000000006044820152606490fd5b80518210156133d35760209160051b010190565b634e487b7160e01b5f52603260045260245ffd5b905f916133f48482613f6a565b805f5260207f0000000000000000000000000000000000000000000000000000000000000000602052600160405f200160018060a01b0384165f5260205260405f209485546001600160801b0397888216918215613565576001600160801b03191688555f90815b8a85518410156134f857506001906001600160a01b039063ffffffff88613483878a6133bf565b510151160116928b808b81620f4240868060a01b0389838c16021604160316809b0116996134b182886133bf565b51516134be828c83613a9f565b604051918252897f0f5c5377da15431a8fe400f76e6631e1d39a8c4b98de9e11d3386a181af86b8e8a8d878060a01b031694a4019161345c565b9391989994505061352b945088915003169687825460801c01166001600160801b0382549181199060801b169116179055565b6040518581526001600160a01b03909216917fe21d6055950f21e524e22827c40bf5a9358c4a24a90b110fae69fb3011a2a9d990602090a3565b509750505050505050505f905f90565b9061357f82612e34565b61358c6040519182612e13565b828152809261359d601f1991612e34565b0190602036910137565b9190916401000000008310156133d357601c908360031c019260021b1690565b929391905f935f9660018060a01b0383165f527f000000000000000000000000000000000000000000000000000000000000000060205260405f20845f5260205260405f20928354979661361b8751613575565b995f985b88518a10156136e9576136328a8a6133bf565b518c8b825191602084015151613677575b918461365661366f9593600197956133bf565b5263ffffffff6060816040850151169301511692613b86565b99019861361f565b50506136a45781818e6001946136568f613697602061366f980151613bd0565b9550939550509450613643565b60405162461bcd60e51b815260206004820152601d60248201527f456e7472792077697468206861736820616e64207265636569766572730000006044820152606490fd5b909498509991959998909498969296036139b657976003600198015463ffffffff613712614064565b1663ffffffff8260201c1610156139ab575b5061372f8251613575565b9460018060a01b03165f527f000000000000000000000000000000000000000000000000000000000000000060205260405f20875f52602052600160405f2001905f5260205260405f209063ffffffff4216956001965b825180891115806139a1575b1561399357886137a39103846133bf565b51906020820151516137c6575b5063ffffffff6040600192015116970196613786565b63ffffffff6137d78a8d03876135a7565b90549060031b1c1663ffffffff6137ec614064565b168110613985575b63ffffffff6040840151168063ffffffff83161061397d575b5063ffffffff821663ffffffff821610613828575b506137b0565b97909894969a919395856138436001959e95830192846133bf565b52602085015160e0525f9760e051515b808a10613932575063ffffffff6040870151169763ffffffff606088015116995f60c0525b60e05151811015613914578d6138908260e0516133bf565b51908151036138e157906138d4828f8f8f8f9263ffffffff93926138b892859460019a6146cd565b9290936020888060a01b0391015160401c16921692169061476a565b60c0510160c05201613878565b5050959850959950955096509863ffffffff60406001929c939c5b6001600160801b03908160c051160116979250613822565b50959850959950955096509863ffffffff60406001929c939c6138fc565b9d988e819992939495969798990160011c908d6139518360e0516133bf565b5151101561397457506001019d808f5b50509d989d979695949392919097613853565b9e50808f613961565b90505f61380d565b5061398e614064565b6137f4565b505093989550505094919350565b508a891115613792565b60e01c97505f613724565b60405162461bcd60e51b815260206004820152601760248201527f496e76616c69642073747265616d7320686973746f72790000000000000000006044820152606490fd5b6001600160801b03918216908216039190821161068057565b9190916001600160801b038080941691160191821161068057565b6001600160a01b03165f9081527f0000000000000000000000000000000000000000000000000000000000000000600201602052604090208054613a9d926107e1916001600160801b03613a85838284166139fb565b16906001600160801b0319161780845560801c613a14565b565b5f527f0000000000000000000000000000000000000000000000000000000000000000602052600160405f20019060018060a01b03165f5260205260405f2090815490613af66001600160801b0391828416613a14565b16906001600160801b031916179055565b805115613b8157604080519081602093848201946040830190808752825180925280606085019301945f905b838210613b575750505050613b51925003601f198101835282612e13565b51902090565b86518051865283015163ffffffff1685840152958201958795509384019360019190910190613b33565b505f90565b929190916040519260208401948552604084015263ffffffff80921660608401521660808201526080815260a081018181106001600160401b03821117610bb15760405251902090565b805115613b8157604080519081602093848201946040830190808752825180925280606085019301945f905b838210613c1a5750505050613b51925003601f198101835282612e13565b86518051865283015185840152958201958795509384019360019190910190613bfc565b6040516370a0823160e01b815230600482015290602090829060249082906001600160a01b03165afa908115610bc5575f91613c78575090565b90506020813d602011613c9f575b81613c9360209383612e13565b81010312610271575190565b3d9150613c86565b9190825f527f0000000000000000000000000000000000000000000000000000000000000000602052600160405f20019060018060a01b031690815f5260205260405f20928354936001600160801b038560801c951690557fda8ee04f8f2a5164dfc0b6c5ba78ebe975683b40c2500950b514e7444d3f541b6020604051868152a3565b6001600160a01b03165f9081527f0000000000000000000000000000000000000000000000000000000000000000600201602052604090208054613a9d926107e19160801c6139fb565b5f805f613d828585613feb565b958690829763ffffffff809a81868403168282168111613e52575b5050505060018060a01b03165f526020947f000000000000000000000000000000000000000000000000000000000000000060205260409660405f20905f52602052600460405f200192935b8985168a8416811015613e46578a916001915f52858952888a5f20918b5192613e1184612dc2565b5490600f9382850b9283825260801d850b938491015201986001600160801b03908a8216011698820b01900b95011693613de9565b50955097509450505094565b0381169750908790031691505f898180613d9d565b81613e7191613f6a565b6001600160801b03808316928315613edd575f91825b8451841015613ebb576001906001600160a01b039063ffffffff6020613ead888a6133bf565b510151160116930192613e87565b620f424095026001600160a01b03169490940484169081900390931693915050565b505050505f905f90565b80548210156133d3575f5260205f2001905f90565b5f828152600182016020526040902054613f645780549068010000000000000000821015610bb15782613f4f613f39846001809601855584613ee7565b819391549060031b91821b915f19901b19161790565b90558054925f520160205260405f2055600190565b50505f90565b90613f7490613b07565b905f527f000000000000000000000000000000000000000000000000000000000000000060205260405f205403613fa757565b606460405162461bcd60e51b815260206004820152602060248201527f496e76616c69642063757272656e742073706c697473207265636569766572736044820152fd5b9060018060a01b03165f527f000000000000000000000000000000000000000000000000000000000000000060205260405f20905f5260205263ffffffff80600360405f200154169161403f8242166145ba565b91838015918215614058575b505061405357565b829150565b8416109050835f61404b565b63ffffffff804216817f000000000000000000000000000000000000000000000000000000000000000016801561409d57810690031690565b634e487b7160e01b5f52601260045260245ffd5b6140bc600291613bd0565b910154036140c657565b60405162461bcd60e51b815260206004820152601e60248201527f496e76616c69642073747265616d7320726563656976657273206c69737400006044820152606490fd5b949391925f955b81518710156141745760019061412888846133bf565b519061416861413a87878a81876146cd565b9190936020868060a01b0391015160401c169363ffffffff94856001600160801b039687951692169061476a565b16900316960195614112565b955050505050565b803b156141b0575f80516020614be783398151915280546001600160a01b0319166001600160a01b03909216919091179055565b60405162461bcd60e51b815260206004820152602d60248201527f455243313936373a206e657720696d706c656d656e746174696f6e206973206e60448201526c1bdd08184818dbdb9d1c9858dd609a1b6064820152608490fd5b906001820191815f528260205260405f2054908115155f146142c8575f19918083018181116106805782549084820191821161068057808203614293575b5050508054801561427f578201916142618383613ee7565b909182549160031b1b19169055555f526020525f6040812055600190565b634e487b7160e01b5f52603160045260245ffd5b6142b36142a3613f399386613ee7565b90549060031b1c92839286613ee7565b90555f528460205260405f20555f8080614249565b505050505f90565b906142fe906142f66142e1846131c4565b91906001600160801b03808094169116613319565b911690613319565b9060016001607f1b03821161435a5761431690613c3e565b1061431d57565b60405162461bcd60e51b8152602060048201526015602482015274546f6b656e2062616c616e636520746f6f206c6f7760581b6044820152606490fd5b60405162461bcd60e51b81526020600482015260166024820152750a8dee8c2d840c4c2d8c2dcc6ca40e8dede40d0d2ced60531b6044820152606490fd5b92919390935f926064916064875111614565576143b58751613575565b935f955b8851871015614448576143cc878a6133bf565b5190876143e9575b6001916143e1918861499f565b9601956143b9565b614400826143fa5f198b018d6133bf565b516148bf565b6143d45760405162461bcd60e51b815260206004820152601c60248201527f53747265616d7320726563656976657273206e6f7420736f727465640000000060448201528690fd5b96929750925092935063ffffffff908142169686158015614554575b61454a576001600160801b038392169461447f8888886147b8565b61453e57831688811180614535575b61450c575b50821687811180614503575b6144e0575b50955b86810160011c908082146144d6576144c18288888861483c565b156144cf5750955b956144a7565b96506144c9565b5016945092505050565b90966144ee8288888861483c565b156144fc5750955b5f6144a4565b96506144f6565b5081811061449f565b909761451a8289898961483c565b1561452a57508290975b90614493565b979150829091614524565b5083811061448e565b50505093509350505090565b5091945050505050565b506001600160801b03821615614464565b60405162461bcd60e51b815260206004820152601a60248201527f546f6f206d616e792073747265616d73207265636569766572730000000000006044820152606490fd5b600160ff1b8114610680575f0390565b63ffffffff90817f000000000000000000000000000000000000000000000000000000000000000016801561409d57826001921604011690565b9163ffffffff809116911691818314614628578361461d613a9d956004614622940195866148e1565b6145aa565b916148e1565b50505050565b60209094939294015163ffffffff928184809360201c169384156146c5575b508284169064ffffffffff938491168201169681881480156146ba575b6146b0575b50848216116146a8575b50828186161161469f575b8282168091861610614697575b50921690565b93505f614691565b93508193614684565b91505f614679565b851696505f61466f565b50858116881161466a565b93505f61464d565b602090959491929501519063ffffffff938285809460201c16948515614762575b508385169064ffffffffff94859116820116978189148015614757575b61474d575b509085929183821611614745575b5016808287161161473d575b5082821680918616106146975750921690565b94505f61472a565b93505f61471e565b8616975085614710565b50868116891161470b565b94505f6146ee565b9063ffffffff7f00000000000000000000000000000000000000000000000000000000000000001692633b9aca00938085858286060204958086838606020495820204930491040302010390565b905f90815b8483106147ce575050505050600190565b60208360051b8301810151809163ffffffff9283911c1690828116928281111561482f57908184939261480a9511614827575b5060401c61476a565b019183831161481e576001905b01916147bd565b50505050505f90565b92505f614801565b5050505091600190614817565b91925f91825b85841061485457505050505050600190565b60208460051b8301810151809163ffffffff9182911c1690821691818611156148b3579082918661488d94116148ab575b60401c61476a565b01928484116148a1576001905b0192614842565b5050505050505f90565b869250614885565b5050509260019061489a565b80518251908181036148da5750506020809101519101511190565b1092915050565b91909163ffffffff807f00000000000000000000000000000000000000000000000000000000000000001691633b9aca0091831561409d5761492b818487878a06020597166145ba565b165f5260205260405f2093808554926001600160801b0319958695020503600f0b82600f0b016001600160801b0316938491600f0b92161760801d0160801b16179055565b3d1561499a573d9061498182613128565b9161498f6040519384612e13565b82523d5f602084013e565b606090565b916020019182519260018060a01b03807f000000000000000000000000000000000000000000000000000000000000000016908560401c1610614aa5575163ffffffff90819081602082901c81164282168115614a9d575b8282169364ffffffffff96879116850116938085148015614a94575b614a8a575b8111614a82575b508185841611614a79575b168093821610614a72575b1693848214614a6a57600194602091821c640100000000600160c01b0316909217901b1790614a659083906133bf565b520190565b505050905090565b5081614a35565b91508091614a2a565b90505f614a1f565b9293508392614a18565b50838511614a13565b9050806149f7565b60405162461bcd60e51b815260206004820152602160248201527f53747265616d20726563656976657220616d7450657253656320746f6f206c6f6044820152607760f81b6064820152608490fd5b91929015614b565750815115614b08575090565b3b15614b115790565b60405162461bcd60e51b815260206004820152601d60248201527f416464726573733a2063616c6c20746f206e6f6e2d636f6e74726163740000006044820152606490fd5b825190915015614b695750805190602001fd5b6040519062461bcd60e51b82528160208060048301528251908160248401525f935b828510614bad575050604492505f838284010152601f80199101168101030190fd5b8481018201518686016044015293810193859350614b8b56feb53127684a568b3173ae13b9f8a6016e243e63b6e8ee1178d6a717850b5d6103360894a13ba1a3210667c828492db98dca3e2076cc3735a920a3ca505d382bbca2646970667358221220dfd78415664c34e513cdab88e5d150e99d862e27febed818b399cb14549354d764736f6c63430008180033","linkReferences":{}},"methodIdentifiers":{"AMT_PER_SEC_EXTRA_DECIMALS()":"5429f175","AMT_PER_SEC_MULTIPLIER()":"387d2a2f","DRIVER_ID_OFFSET()":"8e48a7e5","MAX_SPLITS_RECEIVERS()":"f11d5139","MAX_STREAMS_RECEIVERS()":"ff27d019","MAX_TOTAL_BALANCE()":"444e249f","TOTAL_SPLITS_WEIGHT()":"a69aff3c","acceptAdmin()":"0e18b681","admin()":"f851a440","allPausers()":"09d48a94","balanceAt(uint256,address,(uint256,uint256)[],uint32)":"2776f94c","balances(address)":"27e235e3","collect(uint256,address)":"8d3c100a","collectable(uint256,address)":"1ec026c8","cycleSecs()":"631d669c","driverAddress(uint32)":"7e5b5a83","emitAccountMetadata(uint256,(bytes32,bytes)[])":"69610257","forceCollect(uint256,address,address,address,address)":"be1ca322","give(uint256,uint256,address,uint128)":"d9e01070","grantPauser(address)":"09c1d95f","hashSplits((uint256,uint32)[])":"577e012c","hashStreams((uint256,uint256)[])":"8cd77180","hashStreamsHistory(bytes32,bytes32,uint32,uint32)":"7dd3f81c","implementation()":"5c60da1b","isPaused()":"b187bd26","isPauser(address)":"46fbf68e","minAmtPerSec()":"c82051dd","nextDriverId()":"98aba1cf","pause()":"8456cb59","proposeNewAdmin(address)":"a6376746","proposedAdmin()":"32f751ec","proxiableUUID()":"52d1902d","receivableStreamsCycles(uint256,address)":"19af3267","receiveStreams(uint256,address,uint32)":"302dea39","receiveStreamsResult(uint256,address,uint32)":"c1a96fe2","registerDriver(address)":"f0f4fd5e","renounceAdmin()":"8bad0c0a","revokePauser(address)":"7fe76df0","setSplits(uint256,(uint256,uint32)[])":"02cfc753","setStreams(uint256,address,(uint256,uint256)[],int128,(uint256,uint256)[],uint32,uint32)":"b3a3a573","split(uint256,address,(uint256,uint32)[])":"0ea2063a","splitResult(uint256,(uint256,uint32)[],uint128)":"f4e45f2d","splitsHash(uint256)":"74dd0565","splittable(uint256,address)":"f98e7e1d","squeezeStreams(uint256,address,uint256,bytes32,(bytes32,(uint256,uint256)[],uint32,uint32)[])":"fa93c0a2","squeezeStreamsResult(uint256,address,uint256,bytes32,(bytes32,(uint256,uint256)[],uint32,uint32)[])":"202bbca1","streamsState(uint256,address)":"879db483","unpause()":"3f4ba83a","updateDriverAddress(uint32,address)":"aeefca1c","upgradeTo(address)":"3659cfe6","upgradeToAndCall(address,bytes)":"4f1ef286","withdraw(address,address,uint256)":"d9caed12"},"id":124}