{"abi":[{"type":"constructor","inputs":[{"name":"_yieldManager","type":"address","internalType":"address"},{"name":"_poolManager","type":"address","internalType":"address"},{"name":"_positionManager","type":"address","internalType":"address"},{"name":"","type":"address","internalType":"address"}],"stateMutability":"nonpayable"},{"type":"function","name":"forceWithdraw","inputs":[{"name":"yieldManagerAddr","type":"address","internalType":"address"},{"name":"accountId","type":"uint256","internalType":"uint256"},{"name":"amount","type":"uint128","internalType":"uint128"},{"name":"","type":"bytes","internalType":"bytes"}],"outputs":[],"stateMutability":"nonpayable"},{"type":"function","name":"getPositionDetails","inputs":[{"name":"positionData","type":"bytes","internalType":"bytes"}],"outputs":[{"name":"tokenId","type":"uint256","internalType":"uint256"},{"name":"poolId","type":"bytes32","internalType":"bytes32"},{"name":"token0","type":"address","internalType":"address"},{"name":"token1","type":"address","internalType":"address"},{"name":"depositToken","type":"address","internalType":"address"},{"name":"liquidity","type":"uint128","internalType":"uint128"},{"name":"tickLower","type":"int24","internalType":"int24"},{"name":"tickUpper","type":"int24","internalType":"int24"},{"name":"amount0","type":"uint256","internalType":"uint256"},{"name":"amount1","type":"uint256","internalType":"uint256"}],"stateMutability":"pure"},{"type":"function","name":"invest","inputs":[{"name":"amount","type":"uint256","internalType":"uint256"},{"name":"strategyData","type":"bytes","internalType":"bytes"}],"outputs":[{"name":"positionData","type":"bytes","internalType":"bytes"}],"stateMutability":"nonpayable"},{"type":"function","name":"poolManager","inputs":[],"outputs":[{"name":"","type":"address","internalType":"contract IPoolManager"}],"stateMutability":"view"},{"type":"function","name":"positionManager","inputs":[],"outputs":[{"name":"","type":"address","internalType":"contract IPositionManager"}],"stateMutability":"view"},{"type":"function","name":"withdraw","inputs":[{"name":"positionData","type":"bytes","internalType":"bytes"},{"name":"amount","type":"uint256","internalType":"uint256"},{"name":"","type":"bytes","internalType":"bytes"}],"outputs":[{"name":"withdrawn","type":"uint256","internalType":"uint256"}],"stateMutability":"nonpayable"},{"type":"function","name":"yieldManager","inputs":[],"outputs":[{"name":"","type":"address","internalType":"address"}],"stateMutability":"view"},{"type":"event","name":"PositionCreated","inputs":[{"name":"tokenId","type":"uint256","indexed":true,"internalType":"uint256"},{"name":"poolId","type":"bytes32","indexed":true,"internalType":"bytes32"},{"name":"liquidity","type":"uint128","indexed":false,"internalType":"uint128"},{"name":"tickLower","type":"int24","indexed":false,"internalType":"int24"},{"name":"tickUpper","type":"int24","indexed":false,"internalType":"int24"}],"anonymous":false},{"type":"event","name":"PositionWithdrawn","inputs":[{"name":"tokenId","type":"uint256","indexed":true,"internalType":"uint256"},{"name":"liquidityRemoved","type":"uint128","indexed":false,"internalType":"uint128"},{"name":"amount0","type":"uint256","indexed":false,"internalType":"uint256"},{"name":"amount1","type":"uint256","indexed":false,"internalType":"uint256"}],"anonymous":false},{"type":"error","name":"InsufficientBalance","inputs":[]},{"type":"error","name":"InvalidPosition","inputs":[]},{"type":"error","name":"PositionMintFailed","inputs":[]},{"type":"error","name":"SlippageExceeded","inputs":[]},{"type":"error","name":"SwapFailed","inputs":[]},{"type":"error","name":"TokensNotReceived","inputs":[]},{"type":"error","name":"WrongPool","inputs":[]}],"bytecode":{"object":"0x60e0346200010057601f620022fd38819003918201601f19168301916001600160401b03831184841017620001045780849260809460405283398101031262000100576200004d8162000118565b906200005c6020820162000118565b91620000796060620000716040850162000118565b930162000118565b506080526001600160a01b0391821660a0521660c0526040516121cf90816200012e82396080518181816101b201528181610a6401528181610e95015261132c015260a051818181610145015261033f015260c0518181816103fd015281816105c6015281816106290152818161084e0152818161088701528181610aa801526117890152f35b5f80fd5b634e487b7160e01b5f52604160045260245ffd5b51906001600160a01b0382168203620001005756fe60806040526004361015610011575f80fd5b5f3560e01c806320fb958e14610e3b5780635ee305c314610ad7578063791b98bc14610a9357806380b7af1814610a4f5780639dc21d4714610174578063dc4c90d3146101305763ee2636d914610066575f80fd5b3461012c57602036600319011261012c576004356001600160401b03811161012c576100996100a1913690600401610ed4565b81019061105a565b8051602082015160018060a01b0392836040820151169380606083015116906080830151166001600160801b0360a08401511660c08401519160e085015160020b93610140986101608a88015197015197604051998a5260208a015260408901526060880152608087015260a086015260020b60c085015260e0840152610100830152610120820152f35b5f80fd5b3461012c575f36600319011261012c576040517f00000000000000000000000000000000000000000000000000000000000000006001600160a01b03168152602090f35b3461012c57604036600319011261012c576024356001600160401b03811161012c576101a7610100913690600401610ed4565b90919082906101e0337f00000000000000000000000000000000000000000000000000000000000000006001600160a01b031614610f5b565b8101031261012c576101f460208201610f01565b61020060408301610f01565b61020c6060840161103c565b906102196080850161103c565b9360a0810135801515900361012c5761023460c0820161104a565b9461024160e0830161103c565b9060a083013515610a3f576001600160a01b038616965b6040516370a0823160e01b81523060048201526020816024816001600160a01b038d165afa908115610829575f91610a0d575b50600435116109fb575f60806040516102a381610f9b565b8281528260208201528260408201528260608201520152604051916102c783610f9b565b60018060a01b038816835260018060a01b038616602084015262ffffff821660408401528360020b60608401525f608084015260a08320966040516020810190898252600660408201526040815261031e81610fe5565b519020604051631e2eaeaf60e01b81526004810191909152956020876024817f00000000000000000000000000000000000000000000000000000000000000006001600160a01b03165afa968715610829575f976109c6575b5060a09087821c60020b8360020b135f1461097b57013515610969576004359687965f9889915b6103a785611ae5565b6103b087611ae5565b9182826001600160a01b038083169082161161095e575b50506001600160a01b03828116908216116108ee57506103e79350611f62565b604051631d5e528f60e21b81529b60208d6004817f00000000000000000000000000000000000000000000000000000000000000006001600160a01b03165afa9c8d15610829575f9d6108ba575b50865160208801516001600160a01b039182169891168a610881575b8b610848575b604051600160f91b6020820152600d60f81b60218201526002815261047b81611000565b6104836115be565b996040519360018060a01b03815116602086015260018060a01b03602082015116604086015262ffffff6040820151166060860152606081015160020b6080860152608060018060a01b039101511660a08501528760020b60c08501528860020b60e08501526001600160801b0386166101008501528c6101208501528d61014085015230610160850152610180808501525f6101a08501526101a08452836101c08101106001600160401b036101c08601111761080657836101c06105ba95016040526105508c6115f2565b5261055a8b6115f2565b50604080516001600160a01b03928316602082015293909116838201528252601f199161058860608261101b565b6105918b611613565b5261059b8a611613565b506105ae6040519a8b9260208401611623565b0390810189528861101b565b603c42014211610834577f00000000000000000000000000000000000000000000000000000000000000006001600160a01b03163b1561012c575f61061b976040518099819263dd46508f60e01b8352604060048401526044830190610f36565b42603c0160248301520381837f00000000000000000000000000000000000000000000000000000000000000006001600160a01b03165af1928315610829576101609c8c8f9d8e62ffffff9b6001600160801b039861081a575b507f06ed97117c57425752bf8750f6d93f43dd006eb5c76152fed595c82e89496b3d60606040518a8a1681528b60020b60208201528c60020b6040820152a360206040519e8f906106c582610fc9565b8152015260018060a01b031660408d015260018060a01b031660608c015260018060a01b031660808b01521660a089015260020b60c088015260020b60e08701521661010085015260020b610120840152610140830152828201526040519260208401526020810151604084015260018060a01b03604082015116606084015260018060a01b03606082015116608084015260018060a01b0360808201511660a08401526001600160801b0360a08201511660c084015260c081015160020b60e084015260e081015160020b61010084015262ffffff6101008201511661012084015261012081015160020b61014084015261014081015182840152015161018082015261018081526101a08101908082106001600160401b0383111761080657816040526020825261019f19906108016101c0820182610f36565b030190f35b634e487b7160e01b5f52604160045260245ffd5b61082390610fb6565b5f610675565b6040513d5f823e3d90fd5b634e487b7160e01b5f52601160045260245ffd5b61087c8c7f00000000000000000000000000000000000000000000000000000000000000006001600160a01b0316836119b6565b610457565b6108b58b7f00000000000000000000000000000000000000000000000000000000000000006001600160a01b03168b6119b6565b610451565b909c506020813d6020116108e6575b816108d66020938361101b565b8101031261012c57519b8d610435565b3d91506108c9565b9293916001600160a01b03808216908516101561095157929361092f9361091f91906001600160a01b038716611f62565b936001600160a01b031690611f2d565b6001600160801b03818116908316101561094a57505b6103e7565b90506103e7565b9192506109459350611f2d565b935091505f806103c7565b60405163673f032f60e11b8152600490fd5b87821c60020b8460020b125f146109a1570135610969575f96879660043598899161039e565b0135156109b7576004359687965f98899161039e565b5f96879660043598899161039e565b9096506020813d6020116109f3575b816109e26020938361101b565b8101031261012c57519560a0610377565b3d91506109d5565b6040516346b5c54160e11b8152600490fd5b90506020813d602011610a37575b81610a286020938361101b565b8101031261012c57518961028b565b3d9150610a1b565b6001600160a01b03841696610258565b3461012c575f36600319011261012c576040517f00000000000000000000000000000000000000000000000000000000000000006001600160a01b03168152602090f35b3461012c575f36600319011261012c576040517f00000000000000000000000000000000000000000000000000000000000000006001600160a01b03168152602090f35b3461012c57608036600319011261012c576001600160a01b036004358181169182820361012c57602492833591604435906001600160801b039182811680910361012c576001600160401b0360643581811161012c57610b3b903690600401610ed4565b50506040516369aa90d760e01b8152600481018790529660c0888a81895afa978815610829575f98610d83575b50828560608a01511603610d4d576020978489820151163003610d1857604001928484511660405190630b33dc1960e41b82526004820152308b8201525f816044818b5afa938415610829575f94610c5e575b5050935f93610bf8846084989484610bed60809f9c989a8f9e9b8f80610be792518801019087016114ef565b94611815565b9e8f930151166119b6565b511698604051998a978896630418065160e51b88526004880152309087015260448601521660648401525af1801561082957610c3057005b81813d8311610c57575b610c44818361101b565b8101031261012c57610c55906114a5565b005b503d610c3a565b9096929895919a9793503d805f893e610c77818961101b565b87019660608189031261012c57610c8d81611491565b50610c998b82016114a5565b50604081015191821161012c57019386601f8601121561012c5784519a610cbf8c6114c6565b97610ccd604051998a61101b565b8c89528b8d8801011161012c578a809a84610bed60809f94610be78d610d0060849f985f9e8980610bf89c019101610f15565b9a9e9f5050965050989b9d5094985050819550610bbb565b60405162461bcd60e51b8152600481018a9052600e818c01526d57726f6e6720737472617465677960901b6044820152606490fd5b60405162461bcd60e51b815260206004820152600f818b01526e082dadeeadce840dad2e6dac2e8c6d608b1b6044820152606490fd5b90975060c0813d60c011610e33575b81610d9f60c0938361101b565b8101031261012c576040519060c0820182811084821117610e205760405280518252610dcd60208201611491565b60208301526040810151858116810361012c57610e149160a0916040850152610df8606082016114a5565b6060850152610e0960808201611491565b6080850152016114b9565b60a08201529689610b68565b8a634e487b7160e01b5f5260416004525ffd5b3d9150610d92565b3461012c57606036600319011261012c576001600160401b0360043581811161012c57610e6c903690600401610ed4565b919060443591821161012c57602092610e8c610ecc933690600401610ed4565b50610ec39050337f00000000000000000000000000000000000000000000000000000000000000006001600160a01b031614610f5b565b60243591611178565b604051908152f35b9181601f8401121561012c578235916001600160401b03831161012c576020838186019501011161012c57565b35906001600160a01b038216820361012c57565b5f5b838110610f265750505f910152565b8181015183820152602001610f17565b90602091610f4f81518092818552858086019101610f15565b601f01601f1916010190565b15610f6257565b60405162461bcd60e51b815260206004820152601160248201527027b7363c902cb4b2b63226b0b730b3b2b960791b6044820152606490fd5b60a081019081106001600160401b0382111761080657604052565b6001600160401b03811161080657604052565b61018081019081106001600160401b0382111761080657604052565b606081019081106001600160401b0382111761080657604052565b604081019081106001600160401b0382111761080657604052565b90601f801991011681019081106001600160401b0382111761080657604052565b35908160020b820361012c57565b359062ffffff8216820361012c57565b908161018091031261012c576040519061107382610fc9565b803582526020810135602083015261108d60408201610f01565b604083015261109e60608201610f01565b60608301526110af60808201610f01565b608083015260a08101356001600160801b038116810361012c5760a08301526110da60c0820161103c565b60c08301526110eb60e0820161103c565b60e08301526101006110fe81830161104a565b9083015261012061111081830161103c565b908301526101408082013590830152610160809101359082015290565b9190820180921161083457565b8181029291811591840414171561083457565b8115611157570490565b634e487b7160e01b5f52601260045260245ffd5b9190820391821161083457565b6111849181019061105a565b6111996101408201516101608301519061112d565b801561148a576111c060a08301936111c56001600160801b0393849384938489511661113a565b61114d565b16935116808411611482575b506040918281019360018060a01b03808651169285519485946370a0823160e01b908187523060048801528660246020998a935afa958615611478575f96611442575b509082916060602494019688868951168b51968780928682523060048301525afa948515611438575f95611409575b5061124f878551611698565b602489878d51168c51928380928782523060048301525afa9081156113ff579187918b935f916113c8575b50906112859161116b565b9851169160248b518094819382523060048301525afa9081156113be5790859392915f91611388575b5060606112df608095967fa2b30603b2f11fa8fdf9c3f2b5123f448bc777a832f1941ee271d41a3005778e9361116b565b978451938c5191168152898b820152888c820152a201511695511685145f146113805750925b83611311575b50505090565b915163a9059cbb60e01b918101919091526001600160a01b037f0000000000000000000000000000000000000000000000000000000000000000166024820152604481018390526113789161137382606481015b03601f19810184528361101b565b611e0a565b5f808061130b565b905092611305565b80959450898092503d83116113b7575b6113a2818361101b565b8101031261012c5792519192849260606112ae565b503d611398565b89513d5f823e3d90fd5b93809293508491503d83116113f8575b6113e2818361101b565b8101031261012c5790518991879161128561127a565b503d6113d8565b8b513d5f823e3d90fd5b9094508881813d8311611431575b611421818361101b565b8101031261012c5751935f611243565b503d611417565b8a513d5f823e3d90fd5b92919095508683813d8311611471575b61145c818361101b565b8101031261012c576024925195909192611214565b503d611452565b88513d5f823e3d90fd5b92505f6111d1565b5050505f90565b51906001600160a01b038216820361012c57565b51906001600160801b038216820361012c57565b5190811515820361012c57565b6001600160401b03811161080657601f01601f191660200190565b51908160020b820361012c57565b908161018091031261012c576040519061150882610fc9565b805182526020810151602083015261152260408201611491565b604083015261153360608201611491565b606083015261154460808201611491565b608083015261155560a082016114a5565b60a083015261156660c082016114e1565b60c083015261157760e082016114e1565b60e0830152610100808201519062ffffff8216820361012c578301526101206115a18183016114e1565b908301526101408082015190830152610160809101519082015290565b604090604051916115ce83610fe5565b60028352825f5b8281106115e157505050565b8060606020809385010152016115d5565b8051156115ff5760200190565b634e487b7160e01b5f52603260045260245ffd5b8051600110156115ff5760400190565b9061163690604083526040830190610f36565b90602090818184039101528251908183528083019281808460051b8301019501935f915b84831061166a5750505050505090565b9091929394958480611688600193601f198682030187528a51610f36565b980193019301919493929061165a565b60408051600160f81b6020820152601160f81b6021820152600281529091906116c081611000565b6001600160801b036116d06115be565b94845193602085015216838301525f60608301525f608083015260a0808301525f60c083015260c0825260e08201918083106001600160401b0384111761080657611781928452611720856115f2565b5261172a846115f2565b50825130602082018190526040808301919091528152601f19919061175060608261101b565b61175986611613565b5261176385611613565b50611775845195869260208401611623565b0390810184528361101b565b42603c8101927f00000000000000000000000000000000000000000000000000000000000000006001600160a01b031691841061083457813b1561012c575f916117e89183855180978195829463dd46508f60e01b84528960048501526044840190610f36565b90602483015203925af190811561180c57506118015750565b61180a90610fb6565b565b513d5f823e3d90fd5b919061182c835193602080809683010191016114ef565b926118426101408501516101608601519061112d565b9182156119ae576111c060a086019161186a6001600160801b0395869384938487511661113a565b169151168082116119a6575b50608085019160018060a01b03908184511660409283519583876024816370a0823160e01b968782523060048301525afa96871561199c575f9761196b575b509083916118c4878c51611698565b511691602485518094819382523060048301525afa908115611961575f9161192c575b50915f809261191a7fa2b30603b2f11fa8fdf9c3f2b5123f448bc777a832f1941ee271d41a3005778e976060979661116b565b995197835195168552840152820152a2565b91809493915082813d831161195a575b611946818361101b565b8101031261012c579051919290915f6118e7565b503d61193c565b83513d5f823e3d90fd5b919096508382813d8311611995575b611984818361101b565b8101031261012c57905195836118b5565b503d61197a565b85513d5f823e3d90fd5b90505f611876565b505f93505050565b91909181158015611a65575b15611a015760405163095ea7b360e01b60208201526001600160a01b039093166024840152604483019190915261180a91906113738260648101611365565b60405162461bcd60e51b815260206004820152603660248201527f5361666545524332303a20617070726f76652066726f6d206e6f6e2d7a65726f60448201527520746f206e6f6e2d7a65726f20616c6c6f77616e636560501b6064820152608490fd5b50604051636eb1769f60e11b81523060048201526001600160a01b0384166024820152602081806044810103816001600160a01b0386165afa908115610829575f91611ab3575b50156119c2565b90506020813d602011611add575b81611ace6020938361101b565b8101031261012c57515f611aac565b3d9150611ac1565b60020b908160ff1d82810118620d89e88111611df75763ffffffff9192600182167001fffcb933bd6fad37aa2d162d1a59400102600160801b189160028116611ddb575b60048116611dbf575b60088116611da3575b60108116611d87575b60208116611d6b575b60408116611d4f575b608090818116611d34575b6101008116611d19575b6102008116611cfe575b6104008116611ce3575b6108008116611cc8575b6110008116611cad575b6120008116611c92575b6140008116611c77575b6180008116611c5c575b620100008116611c41575b620200008116611c27575b620400008116611c0d575b6208000016611bf3575b505f12611beb575b0160201c90565b5f1904611be4565b6b048a170391f7dc42444e8fa25f929302901c9190611bdc565b6d2216e584f5fa1ea926041bedfe98909302811c92611bd2565b926e5d6af8dedb81196699c329225ee60402811c92611bc7565b926f09aa508b5b7a84e1c677de54f3e99bc902811c92611bbc565b926f31be135f97d08fd981231505542fcfa602811c92611bb1565b926f70d869a156d2a1b890bb3df62baf32f702811c92611ba7565b926fa9f746462d870fdf8a65dc1f90e061e502811c92611b9d565b926fd097f3bdfd2022b8845ad8f792aa582502811c92611b93565b926fe7159475a2c29b7443b29c7fa6e889d902811c92611b89565b926ff3392b0822b70005940c7a398e4b70f302811c92611b7f565b926ff987a7253ac413176f2b074cf7815e5402811c92611b75565b926ffcbe86c7900a88aedcffc83b479aa3a402811c92611b6b565b926ffe5dee046a99a2a811c461f1969c305302811c92611b61565b916fff2ea16466c96a3843ec78b326b528610260801c91611b56565b916fff973b41fa98c081472e6896dfb254c00260801c91611b4d565b916fffcb9843d60f6159c9db58835c9266440260801c91611b44565b916fffe5caca7e10e4e61c3624eaa0941cd00260801c91611b3b565b916ffff2e50f5f656932ef12357cf3c7fdcc0260801c91611b32565b916ffff97272373d413259a46990580e213a0260801c91611b29565b826345c3193d60e11b5f5260045260245ffd5b60408051908101916001600160a01b03166001600160401b0383118284101761080657611e96926040525f806020958685527f5361666545524332303a206c6f772d6c6576656c2063616c6c206661696c656487860152868151910182855af13d15611f25573d91611e7b836114c6565b92611e89604051948561101b565b83523d5f8785013e6120fc565b8051828115918215611f06575b5050905015611eaf5750565b6084906040519062461bcd60e51b82526004820152602a60248201527f5361666545524332303a204552433230206f7065726174696f6e20646964206e6044820152691bdd081cdd58d8d9595960b21b6064820152fd5b838092935001031261012c5781611f1d91016114b9565b80825f611ea3565b6060916120fc565b611f5992611f549290916001600160a01b039182811683831611611f5c575b031690611f9e565b6120d9565b90565b90611f4c565b611f5992611f549290916001600160a01b039081831682821611611f98575b611f8f828416838316612020565b92031691612066565b91611f81565b90606082901b90600160601b5f198185099383808610950394808603958685111561012c5714612018579082910981805f0316809204600280826003021880830282030280830282030280830282030280830282030280830282030280920290030293600183805f03040190848311900302920304170290565b505091500490565b81810291905f19828209918380841093039183830393600160601b938585111561012c571461205c570990828211900360a01b910360601c1790565b5050505060601c90565b91818302915f198185099383808610950394808603958685111561012c5714612018579082910981805f0316809204600280826003021880830282030280830282030280830282030280830282030280830282030280920290030293600183805f03040190848311900302920304170290565b906001600160801b0382168092036120ed57565b6393dafdf160e01b5f5260045ffd5b9192901561215e5750815115612110575090565b3b156121195790565b60405162461bcd60e51b815260206004820152601d60248201527f416464726573733a2063616c6c20746f206e6f6e2d636f6e74726163740000006044820152606490fd5b8251909150156121715750805190602001fd5b60405162461bcd60e51b815260206004820152908190612195906024830190610f36565b0390fdfea264697066735822122063201d0e02754c9ed0d774d815c2c5a1befbd062cf792ad4251b0b44ff8ce94364736f6c63430008180033","linkReferences":{}},"methodIdentifiers":{"forceWithdraw(address,uint256,uint128,bytes)":"5ee305c3","getPositionDetails(bytes)":"ee2636d9","invest(uint256,bytes)":"9dc21d47","poolManager()":"dc4c90d3","positionManager()":"791b98bc","withdraw(bytes,uint256,bytes)":"20fb958e","yieldManager()":"80b7af18"},"id":131}