{"abi":[{"type":"constructor","inputs":[{"name":"_dripsContract","type":"address","internalType":"address"}],"stateMutability":"nonpayable"},{"type":"function","name":"accounts","inputs":[{"name":"","type":"address","internalType":"contract IERC20"}],"outputs":[{"name":"principal","type":"uint128","internalType":"uint128"},{"name":"liquidBalance","type":"uint128","internalType":"uint128"},{"name":"investedBalance","type":"uint128","internalType":"uint128"}],"stateMutability":"view"},{"type":"function","name":"calculateYield","inputs":[{"name":"token","type":"address","internalType":"contract IERC20"}],"outputs":[{"name":"","type":"uint256","internalType":"uint256"}],"stateMutability":"view"},{"type":"function","name":"completeForceWithdrawal","inputs":[{"name":"accountId","type":"uint256","internalType":"uint256"},{"name":"strategy","type":"address","internalType":"address"},{"name":"token","type":"address","internalType":"contract IERC20"},{"name":"amount","type":"uint128","internalType":"uint128"}],"outputs":[{"name":"principalWithdrawn","type":"uint128","internalType":"uint128"}],"stateMutability":"nonpayable"},{"type":"function","name":"dripsContract","inputs":[],"outputs":[{"name":"","type":"address","internalType":"address"}],"stateMutability":"view"},{"type":"function","name":"dripsDeposit","inputs":[{"name":"token","type":"address","internalType":"contract IERC20"},{"name":"amount","type":"uint256","internalType":"uint256"}],"outputs":[],"stateMutability":"nonpayable"},{"type":"function","name":"dripsForceWithdraw","inputs":[{"name":"accountId","type":"uint256","internalType":"uint256"},{"name":"token","type":"address","internalType":"contract IERC20"},{"name":"strategy","type":"address","internalType":"address"},{"name":"amount","type":"uint128","internalType":"uint128"},{"name":"transferTo","type":"address","internalType":"address"}],"outputs":[],"stateMutability":"nonpayable"},{"type":"function","name":"dripsReturn","inputs":[{"name":"token","type":"address","internalType":"contract IERC20"},{"name":"amount","type":"uint256","internalType":"uint256"}],"outputs":[],"stateMutability":"nonpayable"},{"type":"function","name":"getBalances","inputs":[{"name":"token","type":"address","internalType":"contract IERC20"}],"outputs":[{"name":"principal","type":"uint128","internalType":"uint128"},{"name":"liquidBalance","type":"uint128","internalType":"uint128"},{"name":"investedBalance","type":"uint128","internalType":"uint128"}],"stateMutability":"view"},{"type":"function","name":"getPosition","inputs":[{"name":"token","type":"address","internalType":"contract IERC20"},{"name":"strategy","type":"address","internalType":"address"}],"outputs":[{"name":"strategyAddr","type":"address","internalType":"address"},{"name":"amount","type":"uint128","internalType":"uint128"},{"name":"positionData","type":"bytes","internalType":"bytes"}],"stateMutability":"view"},{"type":"function","name":"getWithdrawalState","inputs":[{"name":"accountId","type":"uint256","internalType":"uint256"}],"outputs":[{"name":"","type":"tuple","internalType":"struct YieldManager.WithdrawalState","components":[{"name":"accountId","type":"uint256","internalType":"uint256"},{"name":"strategy","type":"address","internalType":"address"},{"name":"token","type":"address","internalType":"contract IERC20"},{"name":"amount","type":"uint128","internalType":"uint128"},{"name":"transferTo","type":"address","internalType":"address"},{"name":"consumed","type":"bool","internalType":"bool"}]}],"stateMutability":"view"},{"type":"function","name":"owner","inputs":[],"outputs":[{"name":"","type":"address","internalType":"address"}],"stateMutability":"view"},{"type":"function","name":"ownerDeposit","inputs":[{"name":"token","type":"address","internalType":"contract IERC20"},{"name":"amount","type":"uint256","internalType":"uint256"}],"outputs":[],"stateMutability":"nonpayable"},{"type":"function","name":"pendingWithdrawals","inputs":[{"name":"","type":"uint256","internalType":"uint256"}],"outputs":[{"name":"accountId","type":"uint256","internalType":"uint256"},{"name":"strategy","type":"address","internalType":"address"},{"name":"token","type":"address","internalType":"contract IERC20"},{"name":"amount","type":"uint128","internalType":"uint128"},{"name":"transferTo","type":"address","internalType":"address"},{"name":"consumed","type":"bool","internalType":"bool"}],"stateMutability":"view"},{"type":"function","name":"positionClose","inputs":[{"name":"token","type":"address","internalType":"contract IERC20"},{"name":"strategy","type":"address","internalType":"address"},{"name":"strategyData","type":"bytes","internalType":"bytes"}],"outputs":[],"stateMutability":"nonpayable"},{"type":"function","name":"positionOpen","inputs":[{"name":"token","type":"address","internalType":"contract IERC20"},{"name":"strategy","type":"address","internalType":"address"},{"name":"amount","type":"uint256","internalType":"uint256"},{"name":"strategyData","type":"bytes","internalType":"bytes"}],"outputs":[],"stateMutability":"nonpayable"},{"type":"function","name":"positions","inputs":[{"name":"","type":"address","internalType":"contract IERC20"},{"name":"","type":"address","internalType":"address"}],"outputs":[{"name":"strategy","type":"address","internalType":"address"},{"name":"token","type":"address","internalType":"contract IERC20"},{"name":"amount","type":"uint128","internalType":"uint128"},{"name":"positionData","type":"bytes","internalType":"bytes"}],"stateMutability":"view"},{"type":"function","name":"yieldClaim","inputs":[{"name":"token","type":"address","internalType":"contract IERC20"},{"name":"recipient","type":"address","internalType":"address"}],"outputs":[],"stateMutability":"nonpayable"},{"type":"event","name":"DepositedFromDrips","inputs":[{"name":"token","type":"address","indexed":true,"internalType":"contract IERC20"},{"name":"amount","type":"uint256","indexed":false,"internalType":"uint256"}],"anonymous":false},{"type":"event","name":"ForcedWithdrawForRecipient","inputs":[{"name":"accountId","type":"uint256","indexed":true,"internalType":"uint256"},{"name":"token","type":"address","indexed":true,"internalType":"contract IERC20"},{"name":"strategy","type":"address","indexed":true,"internalType":"address"},{"name":"amount","type":"uint256","indexed":false,"internalType":"uint256"}],"anonymous":false},{"type":"event","name":"PositionClosed","inputs":[{"name":"token","type":"address","indexed":true,"internalType":"contract IERC20"},{"name":"strategy","type":"address","indexed":true,"internalType":"address"},{"name":"amount","type":"uint256","indexed":false,"internalType":"uint256"},{"name":"withdrawn","type":"uint256","indexed":false,"internalType":"uint256"}],"anonymous":false},{"type":"event","name":"PositionOpened","inputs":[{"name":"token","type":"address","indexed":true,"internalType":"contract IERC20"},{"name":"strategy","type":"address","indexed":true,"internalType":"address"},{"name":"amount","type":"uint256","indexed":false,"internalType":"uint256"}],"anonymous":false},{"type":"event","name":"ReturnedPrincipalToDrips","inputs":[{"name":"token","type":"address","indexed":true,"internalType":"contract IERC20"},{"name":"amount","type":"uint256","indexed":false,"internalType":"uint256"}],"anonymous":false},{"type":"event","name":"YieldClaimed","inputs":[{"name":"token","type":"address","indexed":true,"internalType":"contract IERC20"},{"name":"amount","type":"uint256","indexed":false,"internalType":"uint256"}],"anonymous":false},{"type":"error","name":"AlreadyConsumed","inputs":[]},{"type":"error","name":"AmountMismatch","inputs":[]},{"type":"error","name":"ExceedsPrincipal","inputs":[]},{"type":"error","name":"InsufficientLiquid","inputs":[]},{"type":"error","name":"NoYield","inputs":[]},{"type":"error","name":"NotAuthorized","inputs":[]},{"type":"error","name":"OnlyDrips","inputs":[]},{"type":"error","name":"PositionNotFound","inputs":[]},{"type":"error","name":"WithdrawalNotFound","inputs":[]},{"type":"error","name":"WithdrawalPending","inputs":[]},{"type":"error","name":"WrongStrategy","inputs":[]},{"type":"error","name":"WrongToken","inputs":[]}],"bytecode":{"object":"0x60c0346100a857601f61189b38819003918201601f19168301916001600160401b038311848410176100ac578084926020946040528339810103126100a857516001600160a01b03811681036100a8576080523360a0526040516117da90816100c1823960805181818161016c015281816109bc01528181610b090152610f30015260a0518181816101ee0152818161053f01528181610bc80152818161105101526111e40152f35b5f80fd5b634e487b7160e01b5f52604160045260245ffdfe60808060405260049081361015610014575f80fd5b5f3560e01c9081630ef55763146111ba575080634bd214451461112a5780634fe3e7ca146110245780635041964614610f14578063567add6414610ee95780635e5c06e21461048757806369aa90d714610deb5780638300ca2014610bf75780638da5cb5b14610bb35780639144472414610adf5780639730ea3614610975578063b33dc190146108f4578063bbce33bf146104ed578063c84aae1714610487578063d089b2cc1461019b578063d2debf77146101575763e6150400146100d9575f80fd5b34610153576020366003190112610153578060c091355f52600260205260ff60405f209182549260018060a01b0390816001820154169282600283015416906001600160801b03600384015416920154936040519687526020870152604086015260608501528116608084015260a01c16151560a0820152f35b5f80fd5b34610153575f366003190112610153576040517f00000000000000000000000000000000000000000000000000000000000000006001600160a01b03168152602090f35b50346101535760031990606036830112610153576101b76112b8565b906101c06112e4565b9260443567ffffffffffffffff8111610153576101e09036908401611482565b9390926001600160a01b03917f00000000000000000000000000000000000000000000000000000000000000008316330361047757821694855f52600190602095600187528460405f20991698895f52875260405f2094855416156104665791849391879360026003606098019601976001600160801b0396878a541690604051998a9763107dcac760e11b89528801525f95815461027e816112fa565b928360648b01526084918a6001821691825f146104395750506001146103f2575b50505050602486015284840301604485015283926102be92909161157a565b03815f8a5af19182156103e7575f92610396575b50907fd4c9b0490ba05aa750675b65fe1802b11692a700574310d45b4feae11f529eef9361038084936103606040965491808316968787105f1461038b578161031f81895b16809a6114f9565b166001600160801b0319809516179055895f525f8552875f209260018401908154908361034e8b8285166114f9565b1691161790558516825460801c6114b0565b81546001600160801b031660809190911b6001600160801b031916179055565b8351928352820152a3005b8161031f818a610317565b9291508383813d83116103e0575b6103ae8183611362565b8101031261015357915190917fd4c9b0490ba05aa750675b65fe1802b11692a700574310d45b4feae11f529eef6102d2565b503d6103a4565b6040513d5f823e3d90fd5b5f9081528a8120949a999850935b83851061042057509798969750505085016084019381866102be5f61029f565b80549885018201989098528d988c989401938201610400565b60ff191660848083019190915295151560051b81019095019950869493506102be92505f915061029f9050565b604051636ec9be1160e01b81528490fd5b5060405163ea8e4eb560e01b8152fd5b34610153576020366003190112610153576001600160a01b036104a86112b8565b165f9081526020818152604091829020805460019091015483516001600160801b03808416825260809390931c938101939093521691810191909152606090f35b0390f35b5034610153576080366003190112610153576105076112b8565b906105106112e4565b9067ffffffffffffffff606435818111610153576105319036908401611482565b6001600160a01b03939092917f000000000000000000000000000000000000000000000000000000000000000085163303610477578487165f525f60205260405f2093845460801c604435116108e3576105c09392915f916105966044358a8c61159a565b6040519586928392639dc21d4760e01b84526044358785015260406024850152604484019161157a565b038183898b165af19283156103e7575f93610870575b5060405192608084018481108482111761085d57604052858716845260208401868916815260408501906001600160801b0360443516825260608601928352878a165f52600160205260405f20888a165f526020528760405f209651166bffffffffffffffffffffffff60a01b90818854161787558860018801925116908254161790556001600160801b03600286019151166001600160801b03198254161790555190815192831161084a575061069160038401546112fa565b601f8111610802575b50602090601f83116001146107725792600383600194602097947fe01e9ad0238c189207821b84bca068519343d9e9cd923f04184eba2575c110a399975f92610767575b50505f1982841b1c191690851b179101555b61072c61070c6001600160801b0360443516835460801c6114f9565b82546001600160801b031660809190911b6001600160801b031916178255565b0180546001600160801b0361074781604435168284166114b0565b16906001600160801b0319161790558060405194604435865216941692a3005b015190505f806106de565b90601f19831691600385015f5260205f20925f5b8181106107ea575084602097947fe01e9ad0238c189207821b84bca068519343d9e9cd923f04184eba2575c110a39997946003946001988995106107d3575b505050811b019101556106f0565b01515f1983861b60f8161c191690555f80806107c5565b92936020600181928786015181550195019301610786565b600384015f5260205f20601f840160051c81019160208510610840575b601f0160051c01905b818110610835575061069a565b5f8155600101610828565b909150819061081f565b604190634e487b7160e01b5f525260245ffd5b604183634e487b7160e01b5f525260245ffd5b9092503d805f833e6108828183611362565b81019060208183031261015357805190838211610153570181601f820112156101535780516108b08161155e565b926108be6040519485611362565b81845260208284010111610153576108dc9160208085019101611426565b915f6105d6565b60405163ac77922160e01b81528390fd5b346101535760403660031901126101535761090d6112b8565b6109156112e4565b60018060a01b038092165f5260016020528160405f2091165f5260205260405f20908154166104e961095760036001600160801b036002860154169401611384565b60405193849384526020840152606060408401526060830190611447565b50346101535760a03660031901126101535780356109916112e4565b6109996112ce565b926109a261146c565b936084359460018060a01b039384871680970361015357847f0000000000000000000000000000000000000000000000000000000000000000163303610ace57855f5260026020526001600160801b039081600360405f20015416610abd5760405193610a0e85611332565b8785528660208601911681528660408601921682528260608601941684526080850198895260a08501975f89525f52600260205260405f20945185558660018601915116906bffffffffffffffffffffffff60a01b9182825416179055866002860192511690825416179055600383019151166001600160801b03198254161790550192511682549160ff60a01b9051151560a01b16916affffffffffffffffffffff60a81b16171790555f80f35b604051632cd3d71b60e21b81528590fd5b604051636a429e1160e11b81528490fd5b503461015357604036600319011261015357610af96112b8565b602435916001600160a01b0391907f000000000000000000000000000000000000000000000000000000000000000083163303610ba457507f8652f6ac3dffc2eddf5d65044893e630d4a4eda75f89898f5c1f1e34b84dc10f916020911692835f525f8252610b9b60405f206103606001600160801b0380851690835490610b83838284166114b0565b16906001600160801b0319161780845560801c6114b0565b604051908152a2005b604051636a429e1160e11b8152fd5b34610153575f366003190112610153576040517f00000000000000000000000000000000000000000000000000000000000000006001600160a01b03168152602090f35b5034610153576080366003190112610153578035610c136112e4565b610c1b6112ce565b91610c2461146c565b90805f526020946002865260405f20946001600160801b039586600382015416908115610dda578381019560ff875460a01c16610dc9578816809203610db85760018101546001600160a01b039788169791908216889003610da7576002829101541695818416809703610d9657865f5260018a5260405f20885f528a5260405f208281541615610d85576002018054808b169a90918b861015610d7d578180875b169c8d610cd2916114f9565b166001600160801b0319809416179055885f525f8c5260405f20600101918254918c81841690610d01916114f9565b169116179055805490600160a01b60ff60a01b19831617905516610d249261159a565b815f526002865260405f205f8155600181015f9055600281015f9055600381015f9055015f9055604051858582527f1aa643458c310b2f3d17ad8431608ca07714a09673c0815d23a733adce155f3b91a4604051908152f35b81808d610cc6565b604051636ec9be1160e01b81528690fd5b604051635079ff7560e11b81528590fd5b6040516338604a5760e21b81528590fd5b6040516355e97b0d60e01b81528490fd5b604051636f47ab5f60e01b81528590fd5b604051638d0fc1dd60e01b81528490fd5b503461015357602080600319360112610153578135905f60a0604051610e1081611332565b82815282848201528260408201528260608201528260808201520152815f52600281526001600160801b039182600360405f2001541615610dda579260c0935f526002825260405f209260405190610e6782611332565b84549485835260018060a01b03809481600184015416968086019788528280600286015416926040880193845286600387015416956060890196875201549860ff60a060808a0199848d168b52019a60a01c1615158a526040519a8b5251169089015251166040870152511660608501525116608083015251151560a0820152f35b34610153576020366003190112610153576020610f0c610f076112b8565b611512565b604051908152f35b503461015357604036600319011261015357610f2e6112b8565b7f00000000000000000000000000000000000000000000000000000000000000009160243591906001600160a01b03808516330361101457821693845f525f60205260405f20928354926001600160801b039384811687116110045760801c8611610ff55750926103608593610fcb7fc93b9d0f145c506fe4052b6ac70836552abe868c061de1f9cc934a797042bff597610b9b9560209861159a565b825485821691610fdd838383166114f9565b16906001600160801b0319161780845560801c6114f9565b60405163ac77922160e01b8152fd5b5060405163cb5b144160e01b8152fd5b50604051636a429e1160e11b8152fd5b50346101535760403660031901126101535761103e6112b8565b906110476112e4565b6001600160a01b037f00000000000000000000000000000000000000000000000000000000000000008116330361111957831692835f525f60205260405f20918254918260801c946001600160801b0393846110a981600189015416896114df565b91169081811061110857906110bd916114ec565b958611610ff557509261036085936110fc7fc04825ba3f383b602255d2a13065a68e325c65c9e0ed5d031ea2b06f641873af97610b9b9560209861159a565b8416825460801c6114f9565b60405163bbd783bd60e01b81528390fd5b60405163ea8e4eb560e01b81528390fd5b34610153576040366003190112610153576111436112b8565b61114b6112e4565b60018060a01b038092165f5260016020528160405f2091165f5260205260405f20906104e981835416916001840154169261119660036001600160801b036002840154169201611384565b90604051948594855260208501526040840152608060608401526080830190611447565b905034610153576040366003190112610153576111d56112b8565b602435926001600160a01b03927f0000000000000000000000000000000000000000000000000000000000000000841633036112ac57506040516323b872dd60e01b6020820152336024820152306044820152606480820186905281529060a082019067ffffffffffffffff82118383101761084a57509161127f7f8652f6ac3dffc2eddf5d65044893e630d4a4eda75f89898f5c1f1e34b84dc10f9492602094604052826115e6565b1692835f525f8252610b9b60405f206103606001600160801b0380851690835490610b83838284166114b0565b63ea8e4eb560e01b8152fd5b600435906001600160a01b038216820361015357565b604435906001600160a01b038216820361015357565b602435906001600160a01b038216820361015357565b90600182811c92168015611328575b602083101461131457565b634e487b7160e01b5f52602260045260245ffd5b91607f1691611309565b60c0810190811067ffffffffffffffff82111761134e57604052565b634e487b7160e01b5f52604160045260245ffd5b90601f8019910116810190811067ffffffffffffffff82111761134e57604052565b9060405191825f8254611396816112fa565b908184526020946001916001811690815f1461140457506001146113c6575b5050506113c492500383611362565b565b5f90815285812095935091905b8183106113ec5750506113c493508201015f80806113b5565b855488840185015294850194879450918301916113d3565b925050506113c494925060ff191682840152151560051b8201015f80806113b5565b5f5b8381106114375750505f910152565b8181015183820152602001611428565b9060209161146081518092818552858086019101611426565b601f01601f1916010190565b606435906001600160801b038216820361015357565b9181601f840112156101535782359167ffffffffffffffff8311610153576020838186019501011161015357565b9190916001600160801b03808094169116019182116114cb57565b634e487b7160e01b5f52601160045260245ffd5b919082018092116114cb57565b919082039182116114cb57565b6001600160801b0391821690821603919082116114cb57565b60018060a01b03165f525f60205260405f2060016115438254926001600160801b039283910154168360801c6114df565b911680821061155857611555916114ec565b90565b50505f90565b67ffffffffffffffff811161134e57601f01601f191660200190565b908060209392818452848401375f828201840152601f01601f1916010190565b60405163a9059cbb60e01b60208201526001600160a01b039092166024830152604480830193909352918152608081019167ffffffffffffffff83118284101761134e576113c4926040525b60408051908101916001600160a01b031667ffffffffffffffff83118284101761134e57611673926040525f806020958685527f5361666545524332303a206c6f772d6c6576656c2063616c6c206661696c656487860152868151910182855af13d15611703573d916116588361155e565b926116666040519485611362565b83523d5f8785013e611707565b80518281159182156116e3575b505090501561168c5750565b6084906040519062461bcd60e51b82526004820152602a60248201527f5361666545524332303a204552433230206f7065726174696f6e20646964206e6044820152691bdd081cdd58d8d9595960b21b6064820152fd5b83809293500103126101535781015180151581036101535780825f611680565b6060915b91929015611769575081511561171b575090565b3b156117245790565b60405162461bcd60e51b815260206004820152601d60248201527f416464726573733a2063616c6c20746f206e6f6e2d636f6e74726163740000006044820152606490fd5b82519091501561177c5750805190602001fd5b60405162461bcd60e51b8152602060048201529081906117a0906024830190611447565b0390fdfea264697066735822122098d2dee5ce2773abd9fb352249c58cbbffda9bbe46d743fa999b0816dda6357f64736f6c63430008180033","linkReferences":{}},"methodIdentifiers":{"accounts(address)":"5e5c06e2","calculateYield(address)":"567add64","completeForceWithdrawal(uint256,address,address,uint128)":"8300ca20","dripsContract()":"d2debf77","dripsDeposit(address,uint256)":"91444724","dripsForceWithdraw(uint256,address,address,uint128,address)":"9730ea36","dripsReturn(address,uint256)":"50419646","getBalances(address)":"c84aae17","getPosition(address,address)":"b33dc190","getWithdrawalState(uint256)":"69aa90d7","owner()":"8da5cb5b","ownerDeposit(address,uint256)":"0ef55763","pendingWithdrawals(uint256)":"e6150400","positionClose(address,address,bytes)":"d089b2cc","positionOpen(address,address,uint256,bytes)":"bbce33bf","positions(address,address)":"4bd21445","yieldClaim(address,address)":"4fe3e7ca"},"id":130}