{"abi":[{"type":"constructor","inputs":[{"name":"facetA_","type":"address","internalType":"address"},{"name":"facetB_","type":"address","internalType":"address"}],"stateMutability":"nonpayable"},{"type":"fallback","stateMutability":"payable"},{"type":"receive","stateMutability":"payable"},{"type":"function","name":"facetA","inputs":[],"outputs":[{"name":"","type":"address","internalType":"address"}],"stateMutability":"view"},{"type":"function","name":"facetB","inputs":[],"outputs":[{"name":"","type":"address","internalType":"address"}],"stateMutability":"view"}],"bytecode":{"object":"0x60c03461008657601f61031538819003918201601f19168301916001600160401b0383118484101761008a57808492604094855283398101031261008657610052602061004b8361009e565b920161009e565b9060805260a05260405161026290816100b382396080518181816090015261014d015260a051818181604b01526101710152f35b5f80fd5b634e487b7160e01b5f52604160045260245ffd5b51906001600160a01b03821682036100865756fe60806040526004361015610015575b366100c257005b5f803560e01c80635822024d1461007d5763612f7e3e14610036575061000e565b3461007a578060031936011261007a576040517f00000000000000000000000000000000000000000000000000000000000000006001600160a01b03168152602090f35b80fd5b503461007a578060031936011261007a577f00000000000000000000000000000000000000000000000000000000000000006001600160a01b03166080908152602090f35b5f80806100d981356001600160e01b0319166100f3565b368280378136915af43d82803e156100ef573d90f35b3d90fd5b63ffffffff60e01b1663f98e7e1d60e01b811490811561021b575b811561020a575b81156101f9575b81156101e8575b81156101d7575b81156101c6575b81156101b5575b81156101a4575b8115610193575b5061016f577f000000000000000000000000000000000000000000000000000000000000000090565b7f000000000000000000000000000000000000000000000000000000000000000090565b6329a6bfcf60e21b1490505f610146565b63f11d513960e01b8114915061013f565b636961025760e01b81149150610138565b6302cfc75360e01b81149150610131565b630d9e010760e41b8114915061012a565b635f0e519160e11b81149150610123565b63469e080560e11b8114915061011c565b6303d804d960e31b81149150610115565b630751031d60e11b8114915061010e56fea2646970667358221220d209aac2a771752de0e67d2a4f63306db9968fdc278bbc0d8585263f3fa61c2564736f6c63430008140033","linkReferences":{}},"methodIdentifiers":{"facetA()":"5822024d","facetB()":"612f7e3e"},"id":52}