{"abi":[{"type":"constructor","inputs":[{"name":"cycleSecs_","type":"uint32","internalType":"uint32"}],"stateMutability":"nonpayable"},{"type":"function","name":"AMT_PER_SEC_EXTRA_DECIMALS","inputs":[],"outputs":[{"name":"","type":"uint8","internalType":"uint8"}],"stateMutability":"view"},{"type":"function","name":"AMT_PER_SEC_MULTIPLIER","inputs":[],"outputs":[{"name":"","type":"uint160","internalType":"uint160"}],"stateMutability":"view"},{"type":"function","name":"DRIVER_ID_OFFSET","inputs":[],"outputs":[{"name":"","type":"uint8","internalType":"uint8"}],"stateMutability":"view"},{"type":"function","name":"MAX_STREAMS_RECEIVERS","inputs":[],"outputs":[{"name":"","type":"uint256","internalType":"uint256"}],"stateMutability":"view"},{"type":"function","name":"MAX_TOTAL_BALANCE","inputs":[],"outputs":[{"name":"","type":"uint128","internalType":"uint128"}],"stateMutability":"view"},{"type":"function","name":"acceptAdmin","inputs":[],"outputs":[],"stateMutability":"nonpayable"},{"type":"function","name":"admin","inputs":[],"outputs":[{"name":"","type":"address","internalType":"address"}],"stateMutability":"view"},{"type":"function","name":"allPausers","inputs":[],"outputs":[{"name":"pausersList","type":"address[]","internalType":"address[]"}],"stateMutability":"view"},{"type":"function","name":"balances","inputs":[{"name":"erc20","type":"address","internalType":"contract IERC20"}],"outputs":[{"name":"streamsBalance","type":"uint128","internalType":"uint128"},{"name":"splitsBalance","type":"uint128","internalType":"uint128"}],"stateMutability":"view"},{"type":"function","name":"cycleSecs","inputs":[],"outputs":[{"name":"","type":"uint32","internalType":"uint32"}],"stateMutability":"view"},{"type":"function","name":"driverAddress","inputs":[{"name":"driverId","type":"uint32","internalType":"uint32"}],"outputs":[{"name":"driverAddr","type":"address","internalType":"address"}],"stateMutability":"view"},{"type":"function","name":"grantPauser","inputs":[{"name":"pauser","type":"address","internalType":"address"}],"outputs":[],"stateMutability":"nonpayable"},{"type":"function","name":"implementation","inputs":[],"outputs":[{"name":"","type":"address","internalType":"address"}],"stateMutability":"view"},{"type":"function","name":"isPaused","inputs":[],"outputs":[{"name":"","type":"bool","internalType":"bool"}],"stateMutability":"view"},{"type":"function","name":"isPauser","inputs":[{"name":"pauser","type":"address","internalType":"address"}],"outputs":[{"name":"isAddrPauser","type":"bool","internalType":"bool"}],"stateMutability":"view"},{"type":"function","name":"minAmtPerSec","inputs":[],"outputs":[{"name":"","type":"uint160","internalType":"uint160"}],"stateMutability":"view"},{"type":"function","name":"nextDriverId","inputs":[],"outputs":[{"name":"driverId","type":"uint32","internalType":"uint32"}],"stateMutability":"view"},{"type":"function","name":"pause","inputs":[],"outputs":[],"stateMutability":"nonpayable"},{"type":"function","name":"proposeNewAdmin","inputs":[{"name":"newAdmin","type":"address","internalType":"address"}],"outputs":[],"stateMutability":"nonpayable"},{"type":"function","name":"proposedAdmin","inputs":[],"outputs":[{"name":"","type":"address","internalType":"address"}],"stateMutability":"view"},{"type":"function","name":"proxiableUUID","inputs":[],"outputs":[{"name":"","type":"bytes32","internalType":"bytes32"}],"stateMutability":"view"},{"type":"function","name":"receiveStreams","inputs":[{"name":"accountId","type":"uint256","internalType":"uint256"},{"name":"erc20","type":"address","internalType":"contract IERC20"},{"name":"maxCycles","type":"uint32","internalType":"uint32"}],"outputs":[{"name":"receivedAmt","type":"uint128","internalType":"uint128"}],"stateMutability":"nonpayable"},{"type":"function","name":"registerDriver","inputs":[{"name":"driverAddr","type":"address","internalType":"address"}],"outputs":[{"name":"driverId","type":"uint32","internalType":"uint32"}],"stateMutability":"nonpayable"},{"type":"function","name":"renounceAdmin","inputs":[],"outputs":[],"stateMutability":"nonpayable"},{"type":"function","name":"revokePauser","inputs":[{"name":"pauser","type":"address","internalType":"address"}],"outputs":[],"stateMutability":"nonpayable"},{"type":"function","name":"setStreams","inputs":[{"name":"accountId","type":"uint256","internalType":"uint256"},{"name":"erc20","type":"address","internalType":"contract IERC20"},{"name":"currReceivers","type":"tuple[]","internalType":"struct StreamReceiver[]","components":[{"name":"accountId","type":"uint256","internalType":"uint256"},{"name":"config","type":"uint256","internalType":"StreamConfig"}]},{"name":"balanceDelta","type":"int128","internalType":"int128"},{"name":"newReceivers","type":"tuple[]","internalType":"struct StreamReceiver[]","components":[{"name":"accountId","type":"uint256","internalType":"uint256"},{"name":"config","type":"uint256","internalType":"StreamConfig"}]},{"name":"maxEndHint1","type":"uint32","internalType":"uint32"},{"name":"maxEndHint2","type":"uint32","internalType":"uint32"}],"outputs":[{"name":"realBalanceDelta","type":"int128","internalType":"int128"}],"stateMutability":"nonpayable"},{"type":"function","name":"streamsState","inputs":[{"name":"accountId","type":"uint256","internalType":"uint256"},{"name":"erc20","type":"address","internalType":"contract IERC20"}],"outputs":[{"name":"streamsHash","type":"bytes32","internalType":"bytes32"},{"name":"streamsHistoryHash","type":"bytes32","internalType":"bytes32"},{"name":"updateTime","type":"uint32","internalType":"uint32"},{"name":"balance","type":"uint128","internalType":"uint128"},{"name":"maxEnd","type":"uint32","internalType":"uint32"}],"stateMutability":"view"},{"type":"function","name":"unpause","inputs":[],"outputs":[],"stateMutability":"nonpayable"},{"type":"function","name":"updateDriverAddress","inputs":[{"name":"driverId","type":"uint32","internalType":"uint32"},{"name":"newDriverAddr","type":"address","internalType":"address"}],"outputs":[],"stateMutability":"nonpayable"},{"type":"function","name":"upgradeTo","inputs":[{"name":"newImplementation","type":"address","internalType":"address"}],"outputs":[],"stateMutability":"nonpayable"},{"type":"function","name":"upgradeToAndCall","inputs":[{"name":"newImplementation","type":"address","internalType":"address"},{"name":"data","type":"bytes","internalType":"bytes"}],"outputs":[],"stateMutability":"payable"},{"type":"function","name":"withdraw","inputs":[{"name":"erc20","type":"address","internalType":"contract IERC20"},{"name":"receiver","type":"address","internalType":"address"},{"name":"amt","type":"uint256","internalType":"uint256"}],"outputs":[],"stateMutability":"nonpayable"},{"type":"event","name":"AdminChanged","inputs":[{"name":"previousAdmin","type":"address","indexed":false,"internalType":"address"},{"name":"newAdmin","type":"address","indexed":false,"internalType":"address"}],"anonymous":false},{"type":"event","name":"BeaconUpgraded","inputs":[{"name":"beacon","type":"address","indexed":true,"internalType":"address"}],"anonymous":false},{"type":"event","name":"Collectable","inputs":[{"name":"accountId","type":"uint256","indexed":true,"internalType":"uint256"},{"name":"erc20","type":"address","indexed":true,"internalType":"contract IERC20"},{"name":"amt","type":"uint128","indexed":false,"internalType":"uint128"}],"anonymous":false},{"type":"event","name":"Collected","inputs":[{"name":"accountId","type":"uint256","indexed":true,"internalType":"uint256"},{"name":"erc20","type":"address","indexed":true,"internalType":"contract IERC20"},{"name":"collected","type":"uint128","indexed":false,"internalType":"uint128"}],"anonymous":false},{"type":"event","name":"DriverAddressUpdated","inputs":[{"name":"driverId","type":"uint32","indexed":true,"internalType":"uint32"},{"name":"oldDriverAddr","type":"address","indexed":true,"internalType":"address"},{"name":"newDriverAddr","type":"address","indexed":true,"internalType":"address"}],"anonymous":false},{"type":"event","name":"DriverRegistered","inputs":[{"name":"driverId","type":"uint32","indexed":true,"internalType":"uint32"},{"name":"driverAddr","type":"address","indexed":true,"internalType":"address"}],"anonymous":false},{"type":"event","name":"Given","inputs":[{"name":"accountId","type":"uint256","indexed":true,"internalType":"uint256"},{"name":"receiver","type":"uint256","indexed":true,"internalType":"uint256"},{"name":"erc20","type":"address","indexed":true,"internalType":"contract IERC20"},{"name":"amt","type":"uint128","indexed":false,"internalType":"uint128"}],"anonymous":false},{"type":"event","name":"NewAdminProposed","inputs":[{"name":"currentAdmin","type":"address","indexed":true,"internalType":"address"},{"name":"newAdmin","type":"address","indexed":true,"internalType":"address"}],"anonymous":false},{"type":"event","name":"Paused","inputs":[{"name":"pauser","type":"address","indexed":true,"internalType":"address"}],"anonymous":false},{"type":"event","name":"PauserGranted","inputs":[{"name":"pauser","type":"address","indexed":true,"internalType":"address"},{"name":"admin","type":"address","indexed":true,"internalType":"address"}],"anonymous":false},{"type":"event","name":"PauserRevoked","inputs":[{"name":"pauser","type":"address","indexed":true,"internalType":"address"},{"name":"admin","type":"address","indexed":true,"internalType":"address"}],"anonymous":false},{"type":"event","name":"ReceivedStreams","inputs":[{"name":"accountId","type":"uint256","indexed":true,"internalType":"uint256"},{"name":"erc20","type":"address","indexed":true,"internalType":"contract IERC20"},{"name":"amt","type":"uint128","indexed":false,"internalType":"uint128"},{"name":"receivableCycles","type":"uint32","indexed":false,"internalType":"uint32"}],"anonymous":false},{"type":"event","name":"Split","inputs":[{"name":"accountId","type":"uint256","indexed":true,"internalType":"uint256"},{"name":"receiver","type":"uint256","indexed":true,"internalType":"uint256"},{"name":"erc20","type":"address","indexed":true,"internalType":"contract IERC20"},{"name":"amt","type":"uint128","indexed":false,"internalType":"uint128"}],"anonymous":false},{"type":"event","name":"SplitsReceiverSeen","inputs":[{"name":"receiversHash","type":"bytes32","indexed":true,"internalType":"bytes32"},{"name":"accountId","type":"uint256","indexed":true,"internalType":"uint256"},{"name":"weight","type":"uint32","indexed":false,"internalType":"uint32"}],"anonymous":false},{"type":"event","name":"SplitsSet","inputs":[{"name":"accountId","type":"uint256","indexed":true,"internalType":"uint256"},{"name":"receiversHash","type":"bytes32","indexed":true,"internalType":"bytes32"}],"anonymous":false},{"type":"event","name":"SqueezedStreams","inputs":[{"name":"accountId","type":"uint256","indexed":true,"internalType":"uint256"},{"name":"erc20","type":"address","indexed":true,"internalType":"contract IERC20"},{"name":"senderId","type":"uint256","indexed":true,"internalType":"uint256"},{"name":"amt","type":"uint128","indexed":false,"internalType":"uint128"},{"name":"streamsHistoryHashes","type":"bytes32[]","indexed":false,"internalType":"bytes32[]"}],"anonymous":false},{"type":"event","name":"StreamReceiverSeen","inputs":[{"name":"receiversHash","type":"bytes32","indexed":true,"internalType":"bytes32"},{"name":"accountId","type":"uint256","indexed":true,"internalType":"uint256"},{"name":"config","type":"uint256","indexed":false,"internalType":"StreamConfig"}],"anonymous":false},{"type":"event","name":"StreamsSet","inputs":[{"name":"accountId","type":"uint256","indexed":true,"internalType":"uint256"},{"name":"erc20","type":"address","indexed":true,"internalType":"contract IERC20"},{"name":"receiversHash","type":"bytes32","indexed":true,"internalType":"bytes32"},{"name":"streamsHistoryHash","type":"bytes32","indexed":false,"internalType":"bytes32"},{"name":"balance","type":"uint128","indexed":false,"internalType":"uint128"},{"name":"maxEnd","type":"uint32","indexed":false,"internalType":"uint32"}],"anonymous":false},{"type":"event","name":"Unpaused","inputs":[{"name":"pauser","type":"address","indexed":true,"internalType":"address"}],"anonymous":false},{"type":"event","name":"Upgraded","inputs":[{"name":"implementation","type":"address","indexed":true,"internalType":"address"}],"anonymous":false},{"type":"event","name":"Withdrawn","inputs":[{"name":"erc20","type":"address","indexed":true,"internalType":"contract IERC20"},{"name":"receiver","type":"address","indexed":true,"internalType":"address"},{"name":"amt","type":"uint256","indexed":false,"internalType":"uint256"}],"anonymous":false}],"bytecode":{"object":"0x6101a0346200036f576200364338819003601f8101601f191683016001600160401b0381118482101762000373578392829160405283396020928391810103126200036f57519063ffffffff808316918284036200036f57620000946200006562000387565b601681527f656970313936372e73706c6974732e73746f726167650000000000000000000083820152620003a7565b92620000d2620000a362000387565b601781527f656970313936372e73747265616d732e73746f7261676500000000000000000084820152620003a7565b943060805262000114620000e562000387565b601781527f656970313936372e6d616e616765642e73746f7261676500000000000000000085820152620003a7565b8060a052600160ff1982541617905560018211156200032a5760c0526001600160a01b0391633b9aca008201838111620003165783165f19019183831162000316578015620003025783620001ad93160460e0526101009586526101209485527f656970313936372e64726970732e73746f7261676500000000000000000000006200019f62000387565b9160158352820152620003a7565b9161018092835260c051169061014091825260e0511690610160918252604051936132839586620003c0873960805186818161167b015281816117a10152611b78015260a0518681816101ec0152818161064a015281816110aa0152818161110301528181611210015281816112f60152818161140c01528181611476015281816114ea015281816119df01528181611a6c01528181611b0a01528181611d0e01528181611d7b015281816120c60152818161219b0152612287015260c05186818161302e015281816130ed015261313c015260e05186612d7f0152518581816106990152818161087b015281816113560152611da801525184611f60015251836115f60152518261058901525181818161022401528181610c8701528181610edc01528181610f8c0152818161113a0152818161125e015281816115a001528181611efd015281816126de015261276b0152f35b634e487b7160e01b5f52601260045260245ffd5b634e487b7160e01b5f52601160045260245ffd5b60405162461bcd60e51b815260048101849052601460248201527f4379636c65206c656e67746820746f6f206c6f770000000000000000000000006044820152606490fd5b5f80fd5b634e487b7160e01b5f52604160045260245ffd5b60408051919082016001600160401b038111838210176200037357604052565b602081519101206103ff19810190811162000316579056fe60c06040526004361015610011575f80fd5b5f3560e01c806309c1d95f1461223f57806309d48a94146121865780630e18b681146120b457806327e235e314612079578063302dea3914611d4457806332f751ec14611cfa5780633659cfe614611b54578063387d2a2f14611b365780633f4ba83a14611a30578063444e249f14611a0e57806346fbf68e146119b45780634f1ef2861461172657806352d1902d146116695780635429f1751461164e5780635c60da1b1461161a578063631d669c146115da5780637e5b5a831461157b5780637fe76df0146114a25780638456cb59146113d0578063879db483146113305780638bad0c0a146112a25780638e48a7e51461128757806398aba1cf14611245578063a6376746146111a8578063aeefca1c146110d5578063b187bd2614611094578063b3a3a573146105b8578063c82051dd14610574578063d9caed121461030b578063f0f4fd5e146101cc578063f851a440146101985763ff27d01914610179575f80fd5b34610194575f36600319011261019457602060405160648152f35b5f80fd5b34610194575f366003190112610194575f805160206131ae833981519152546040516001600160a01b039091168152602090f35b34610194576020366003190112610194576101e561231c565b61021360ff7f0000000000000000000000000000000000000000000000000000000000000000541615612694565b6001600160a01b031680156102c6577f00000000000000000000000000000000000000000000000000000000000000009081549163ffffffff808416918183146102b257602094600192838501169063ffffffff1916178155825f5201835260405f208260018060a01b031982541617905560405191817f749894a8ffc45e1d212322a05461004c7bc358b4d36325766b63526b1ccf8bdf5f80a38152f35b634e487b7160e01b5f52601160045260245ffd5b60405162461bcd60e51b815260206004820152601f60248201527f447269766572207265676973746572656420666f7220302061646472657373006044820152606490fd5b346101945760603660031901126101945761032461231c565b61032c612332565b906044359061033a8161275c565b6040516370a0823160e01b81523060048201526020956001600160a01b0394851694939092908783602481895afa928315610569575f93610538575b50610399926001600160801b039161039191908316906127a9565b9116906127a9565b84116104f657169081817fd1c19fbcd4551a5edfb66d43d2e337c04837afda3482b42bdf569a8fccdae5fb86604051878152a3604051928484019263a9059cbb60e01b84526024850152604484015260448352608083019183831060018060401b038411176104e2575f809161045395856040526104168661235b565b8786527f5361666545524332303a206c6f772d6c6576656c2063616c6c206661696c656460a0820152519082855af161044d612593565b916125c2565b80518281159182156104c2575b505090501561046b57005b6084906040519062461bcd60e51b82526004820152602a60248201527f5361666545524332303a204552433230206f7065726174696f6e20646964206e6044820152691bdd081cdd58d8d9595960b21b6064820152fd5b838092935001031261019457810151801515810361019457808284610460565b634e487b7160e01b5f52604160045260245ffd5b60405162461bcd60e51b815260048101869052601a6024820152790aed2e8d0c8e4c2eec2d840c2dadeeadce840e8dede40d0d2ced60331b6044820152606490fd5b92508783813d8311610562575b61054f8183612391565b8101031261019457915191610391610376565b503d610545565b6040513d5f823e3d90fd5b34610194575f366003190112610194576040517f00000000000000000000000000000000000000000000000000000000000000006001600160a01b03168152602090f35b346101945760e0366003190112610194576105d1612332565b6044356001600160401b038111610194576105f09036906004016123e6565b90606435600f0b60643503610194576084356001600160401b0381116101945761061e9036906004016123e6565b60805263ffffffff60a4351660a435036101945763ffffffff60c4351660c435036101945761067160ff7f0000000000000000000000000000000000000000000000000000000000000000541615612694565b61067f60043560e01c6126d2565b5f606435600f0b13610ecc575b60018060a01b0381165f527f000000000000000000000000000000000000000000000000000000000000000060205260405f206004355f5260205260405f206106d483612ec1565b600282015403610e87576003810154905f90606083901c6001600160801b03165b855183101561081f57600190602061070d8589612a0f565b5101519063ffffffff8260201c16801561080f575b64ffffffffff63ffffffff841663ffffffff831601169063ffffffff8116821480156107fd575b6107eb575b63ffffffff8860201c1663ffffffff8216106107db575b63ffffffff421664ffffffffff8316116107cd575b63ffffffff16928364ffffffffff8316106107c5575b6107b990858060801b039463ffffffff878060801b03941691878060a01b039060401c166130e5565b169003169201916106f5565b839150610790565b4263ffffffff16915061077a565b5063ffffffff8760201c16610765565b905063ffffffff8760401c169061074e565b5063ffffffff8860401c168211610749565b5063ffffffff8660201c16610722565b60643590859085886001600160801b038316600f90810b5f03810b9086900b8113610e7f575b5060805193949361086e9060c4359060a435906001600160801b03878116600f0b890116612a23565b60018060a01b0386165f527f000000000000000000000000000000000000000000000000000000000000000060205260405f20935f955f60a0525b83518710806040516108ba8161235b565b5f81525f602082015291610e6c575b84876080515160a0511093846040516108e18161235b565b5f81525f602082015290610e57575b8480610e50575b610e00575b8b8580610df9575b156109f55761098563ffffffff95610980879461098b9487515f5260205261095361094360405f20998842169089808260401c169160201c168b612f49565b9290948842169189421690612f49565b9097602060018060a01b0391015160401c169161097a61097284612f39565b8a878d612fe8565b89612fe8565b613133565b92613133565b169283911611806109e2575b6109cb575b50505b6109c1575b9787986109b3575b97506108a9565b600160a0510160a0526109ac565b96600101966109a4565b6003019063ffffffff198254161790558b8061099c565b508163ffffffff60038301541611610997565b50925090508215610a5c57610a57915080515f5289602052610a5160405f2091610a3663ffffffff42168c63ffffffff808260401c169160201c1684612f49565b6020909201519192909160401c6001600160a01b0316612f39565b92612fe8565b61099f565b508215610af85780515f52886020526003610aaa60405f2092610980610a9063ffffffff42168b63ffffffff421685612f49565b9092602060018060a01b0391015160401c16908387612fe8565b91019081549063ffffffff82168015908115610ae8575b50610acf575b50505061099f565b63ffffffff169063ffffffff19161790558b8080610ac7565b905063ffffffff8216108f610ac1565b60038c018054604088901b63ffffffff60401b16600160201b600160e01b031982164260201b63ffffffff60201b1617176001600160801b038816600f0b870160601b600160601b600160e01b0316179091558c5485918d91908f9089908b908415158f81610dca575b5015610d4d57506003830180546001600160e01b0316600160e11b1790555b610b8c608051612ec1565b936040519181602084015285604084015263ffffffff4216606084015263ffffffff81166080840152608083528260a081011060018060401b0360a0850111176104e25760a0830160408190528351602085012086559182526001600160801b03938416600f0b880190931660c083015263ffffffff90921660e09091015282906001600160a01b03851690600435907f8b23331305d892ba8ae0d5ad747051e5d007302b8b0eba8f45ebdc5f82962f6d90606090a460028101548203610cea575b505090600f0b5f8112610c67575b602090604051908152f35b60016001607f1b031981146102b2576001600160a01b039091165f9081527f000000000000000000000000000000000000000000000000000000000000000060020160209081526040822080549193929091906001600160801b0390610cd49085900382168284166127b6565b6001600160801b03199092169116179055610c5c565b6002829101555f5b6080518051821015610d435790610d0b81600193612a0f565b51837f68f8694c2f9c9f45540d88ae439aaf8a7c84d05392f23a12e2ebdc75ed31ad1e6020808451940151604051908152a301610cf2565b5050508280610c4e565b63ffffffff81164260201b63ffffffff60201b16908117604084901b63ffffffff60401b169081176001600160801b038616600f0b8a0160601b600160601b600160e01b0316908117600160201b600160e01b031994909416909217171760e090811c600101901b6001600160e01b031916176003840155610b81565b610ddd915060201c63ffffffff16613133565b63ffffffff80610dee814216613133565b169116141588610b62565b5086610904565b8151815114801590610e29575b156108fc5794509250610e2084846130c3565b928315946108fc565b5060208281015190820151604090811c6001600160a01b039081169290911c161415610e0d565b50856108f7565b50610e6660a051608051612a0f565b516108f0565b9050610e788886612a0f565b51906108c9565b945086610845565b60405162461bcd60e51b815260206004820152601e60248201527f496e76616c69642073747265616d7320726563656976657273206c69737400006044820152606490fd5b6001600160a01b0381165f9081527f00000000000000000000000000000000000000000000000000000000000000006002016020526040902054610f3490610f2290608081901c906001600160801b03166127e8565b6064356001600160801b0316906127e8565b60016001607f1b038111611056576040516370a0823160e01b8152306004820152906020826024816001600160a01b0387165afa918215610569575f92611022575b5011610fe5576001600160a01b0381165f9081527f00000000000000000000000000000000000000000000000000000000000000006002016020526040902080546001600160801b03610fcf60643582168284166127cf565b6001600160801b0319909216911617905561068c565b60405162461bcd60e51b8152602060048201526015602482015274546f6b656e2062616c616e636520746f6f206c6f7760581b6044820152606490fd5b9091506020813d60201161104e575b8161103e60209383612391565b8101031261019457519084610f76565b3d9150611031565b60405162461bcd60e51b81526020600482015260166024820152750a8dee8c2d840c4c2d8c2dcc6ca40e8dede40d0d2ced60531b6044820152606490fd5b34610194575f36600319011261019457602060ff7f000000000000000000000000000000000000000000000000000000000000000054166040519015158152f35b34610194576040366003190112610194576110ee612348565b63ffffffff6110fb612332565b9161112a60ff7f0000000000000000000000000000000000000000000000000000000000000000541615612694565b611133816126d2565b165f8181527f00000000000000000000000000000000000000000000000000000000000000006001016020526040812080546001600160a01b0319166001600160a01b0390941693841790553391907f5a2904d4b2f1a05120ab193be9a140a7ad8d310e3bb91af232d47f2f55fa38829080a4005b34610194576020366003190112610194576111c161231c565b5f805160206131ae833981519152546001600160a01b0391906111e790831633146127f5565b1680337fed2d93e7985747cd1a4a093c2cc3bb73d0f177b81bdfd26020e8f20a97e8112e5f80a37f000000000000000000000000000000000000000000000000000000000000000060030180546001600160a01b0319169091179055005b34610194575f36600319011261019457602063ffffffff7f00000000000000000000000000000000000000000000000000000000000000005416604051908152f35b34610194575f36600319011261019457602060405160e08152f35b34610194575f366003190112610194575f805160206131ae83398151915280545f8051602061316e833981519152906040906001600160a01b03166112e83382146127f5565b81519081525f6020820152a17f000000000000000000000000000000000000000000000000000000000000000060030180546001600160a01b03199081169091558154169055005b34610194576040366003190112610194576001600160a01b03611351612332565b165f527f000000000000000000000000000000000000000000000000000000000000000060205260405f206004355f5260205260a060405f206002810154906003815491015490604051928352602083015263ffffffff90818160201c16604084015260018060801b038160601c16606084015260401c166080820152f35b34610194575f366003190112610194575f805160206131ae833981519152546001600160a01b03163314801561146a575b61140a906129c4565b7f00000000000000000000000000000000000000000000000000000000000000006001815461143c60ff821615612694565b60ff1916179055337f62e78cea01bee320cd4e420270b5ea74000d11b0c9f74754ebdbfc544b05a2585f80a2005b5061140a61149b3360017f0000000000000000000000000000000000000000000000000000000000000000016128c4565b9050611401565b34610194576020366003190112610194576114bb61231c565b5f805160206131ae833981519152546001600160a01b0391906114e190831633146127f5565b1661150f8160017f0000000000000000000000000000000000000000000000000000000000000000016128d7565b1561153c5733907ffd55549bcbafb9531a61db3cfb88d1cca64e215b12def56e6ea913fe1ac91fd25f80a3005b60405162461bcd60e51b815260206004820152601760248201527620b2323932b9b99034b9903737ba1030903830bab9b2b960491b6044820152606490fd5b346101945760203660031901126101945763ffffffff611599612348565b165f5260017f000000000000000000000000000000000000000000000000000000000000000001602052602060018060a01b0360405f205416604051908152f35b34610194575f36600319011261019457602060405163ffffffff7f0000000000000000000000000000000000000000000000000000000000000000168152f35b34610194575f366003190112610194575f805160206131ee833981519152546040516001600160a01b039091168152602090f35b34610194575f36600319011261019457602060405160098152f35b34610194575f366003190112610194577f00000000000000000000000000000000000000000000000000000000000000006001600160a01b031630036116c05760206040515f805160206131ee8339815191528152f35b60405162461bcd60e51b815260206004820152603860248201527f555550535570677261646561626c653a206d757374206e6f742062652063616c6044820152771b1959081d1a1c9bdd59da0819195b1959d85d1958d85b1b60421b6064820152608490fd5b60403660031901126101945761173a61231c565b602435906001600160401b0382116101945736602383011215610194578160040135611765816123b4565b926117736040519485612391565b81845260209182850191366024838301011161019457815f9260248693018537860101526001600160a01b037f00000000000000000000000000000000000000000000000000000000000000008116906117cf30831415612468565b6117eb5f805160206131ee8339815191529282845416146124b6565b611806815f805160206131ae833981519152541633146127f5565b5f8051602061318e8339815191525460ff161561182d575050505061182b9150612504565b005b84939416906040516352d1902d60e01b81528581600481865afa5f9181611985575b5061189d5760405162461bcd60e51b815260048101879052602e60248201525f8051602061322e83398151915260448201526d6f6e206973206e6f74205555505360901b6064820152608490fd5b0361192e576118ab83612504565b5f8051602061320e8339815191525f80a2835115801590611926575b6118cd57005b5f809161182b957f416464726573733a206c6f772d6c6576656c2064656c65676174652063616c6c6040519661190288612376565b60278852870152660819985a5b195960ca1b60408701525190845af461044d612593565b5060016118c7565b60405162461bcd60e51b815260048101859052602960248201527f45524331393637557067726164653a20756e737570706f727465642070726f786044820152681a58589b195555525160ba1b6064820152608490fd5b9091508681813d83116119ad575b61199d8183612391565b810103126101945751908861184f565b503d611993565b34610194576020366003190112610194576020611a046001600160a01b036119da61231c565b1660017f0000000000000000000000000000000000000000000000000000000000000000016128c4565b6040519015158152f35b34610194575f3660031901126101945760405160016001607f1b038152602090f35b34610194575f366003190112610194575f805160206131ae833981519152546001600160a01b031633148015611afe575b611a6a906129c4565b7f0000000000000000000000000000000000000000000000000000000000000000805460ff811615611ac35760ff19169055337f5db9ee0a495bf2e6ff9c91a7834c1ba4fdd244a5e8aa4e537bd38aeae4b073aa5f80a2005b60405162461bcd60e51b815260206004820152601360248201527210dbdb9d1c9858dd081b9bdd081c185d5cd959606a1b6044820152606490fd5b50611a6a611b2f3360017f0000000000000000000000000000000000000000000000000000000000000000016128c4565b9050611a61565b34610194575f366003190112610194576020604051633b9aca008152f35b346101945760208060031936011261019457611b6e61231c565b6001600160a01b037f000000000000000000000000000000000000000000000000000000000000000081169290611ba730851415612468565b611bc35f805160206131ee8339815191529482865416146124b6565b611bde815f805160206131ae833981519152541633146127f5565b60405193828501916001600160401b038311868410176104e257826040525f865260ff5f8051602061318e83398151915254165f14611c25575050505061182b9150612504565b84939416906040516352d1902d60e01b81528581600481865afa5f9181611ccb575b50611c955760405162461bcd60e51b815260048101879052602e60248201525f8051602061322e83398151915260448201526d6f6e206973206e6f74205555505360901b6064820152608490fd5b0361192e57611ca383612504565b5f8051602061320e8339815191525f80a2835115801590611cc4576118cd57005b505f6118c7565b9091508681813d8311611cf3575b611ce38183612391565b8101031261019457519088611c47565b503d611cd9565b34610194575f3660031901126101945760037f000000000000000000000000000000000000000000000000000000000000000001546040516001600160a01b039091168152602090f35b3461019457606036600319011261019457600435611d60612332565b60443563ffffffff918282169384830361019457611da260ff7f0000000000000000000000000000000000000000000000000000000000000000541615612694565b5f805f937f00000000000000000000000000000000000000000000000000000000000000009060018060a01b031691825f5260209482865260405f20815f52865288600360405f2001541697611df98a4216613133565b908915801561206e575b612066575b819b8b8b840316908111612051575b505050835f5282865260405f20815f528652600460405f20019388975b8a89168b8d16811015611e91578b916001915f52878a528960405f209160405192611e5e8461235b565b5490600f9382850b9283825260801d850b93849101520199838060801b03908b8216011699820b01900b99011697611e34565b508796939550898b95868e1690818303611faf575b5050505080827f6c91d10ec47151439d4dc2df77dbc3a78e8502b9176aeb4d6ab0b1823d95d34c6040805160018060801b03988989169a8b8352168b820152a384611ef6575b8585604051908152f35b805f5260027f000000000000000000000000000000000000000000000000000000000000000001865260405f209182549285611f34868287166127b6565b6001600160801b0319959116908590611f559088908316841760801c6127cf565b60801b161790555f527f00000000000000000000000000000000000000000000000000000000000000008652600160405f2001905f52855260405f2092611fa08454938285166127cf565b16911617905582808080611eec565b845f99959296939794989952895260405f20825f528952600460405f20600381018763ffffffff1982541617905501955b88811686811015612001575f908152878b5260408120556001018816611fe0565b50509296959194909382600f0b612019575b80611ea6565b5f9081529088526040902080546001600160801b031981166001600160801b03600f9290920b90930116919091179055868080612013565b038a16908190038a169a5091508a8080611e17565b899150611e08565b50898b831610611e03565b3461019457602036600319011261019457604061209c61209761231c565b61275c565b82516001600160801b03928316815291166020820152f35b34610194575f366003190112610194577f000000000000000000000000000000000000000000000000000000000000000060030180546001600160a01b03913383831603612141575f8051602061316e83398151915260405f805160206131ae833981519152948554168151908152336020820152a16001600160a01b0319918216905581541633179055005b60405162461bcd60e51b815260206004820152601d60248201527f43616c6c6572206e6f74207468652070726f706f7365642061646d696e0000006044820152606490fd5b34610194575f366003190112610194576001807f000000000000000000000000000000000000000000000000000000000000000001906040519081835480825260208092019081955f52825f20905f5b81811061222c57505050836121ec910384612391565b6040519281840190828552518091526040840194915f5b8281106122105785870386f35b83516001600160a01b0316875295810195928101928401612203565b82548452928401929185019185016121d6565b346101945760203660031901126101945761225861231c565b5f805160206131ae833981519152546001600160a01b03919061227e90831633146127f5565b166122ac8160017f000000000000000000000000000000000000000000000000000000000000000001612861565b156122d95733907fbb7fff487ca65a5841fe463ac801812d2aeb3c2059f6e44b2b3cdab8ee7c3db05f80a3005b60405162461bcd60e51b815260206004820152601b60248201527a20b2323932b9b99030b63932b0b23c9034b99030903830bab9b2b960291b6044820152606490fd5b600435906001600160a01b038216820361019457565b602435906001600160a01b038216820361019457565b6004359063ffffffff8216820361019457565b604081019081106001600160401b038211176104e257604052565b606081019081106001600160401b038211176104e257604052565b601f909101601f19168101906001600160401b038211908210176104e257604052565b6001600160401b0381116104e257601f01601f191660200190565b6001600160401b0381116104e25760051b60200190565b81601f82011215610194578035906123fd826123cf565b9260409261240d84519586612391565b808552602091828087019260061b85010193818511610194578301915b84831061243a5750505050505090565b85838303126101945783869182516124518161235b565b85358152828601358382015281520192019161242a565b1561246f57565b60405162461bcd60e51b815260206004820152602c60248201525f805160206131ce83398151915260448201526b19195b1959d85d1958d85b1b60a21b6064820152608490fd5b156124bd57565b60405162461bcd60e51b815260206004820152602c60248201525f805160206131ce83398151915260448201526b6163746976652070726f787960a01b6064820152608490fd5b803b15612538575f805160206131ee83398151915280546001600160a01b0319166001600160a01b03909216919091179055565b60405162461bcd60e51b815260206004820152602d60248201527f455243313936373a206e657720696d706c656d656e746174696f6e206973206e60448201526c1bdd08184818dbdb9d1c9858dd609a1b6064820152608490fd5b3d156125bd573d906125a4826123b4565b916125b26040519384612391565b82523d5f602084013e565b606090565b9192901561262457508151156125d6575090565b3b156125df5790565b60405162461bcd60e51b815260206004820152601d60248201527f416464726573733a2063616c6c20746f206e6f6e2d636f6e74726163740000006044820152606490fd5b8251909150156126375750805190602001fd5b6040519062461bcd60e51b82528160208060048301528251908160248401525f935b82851061267b575050604492505f838284010152601f80199101168101030190fd5b8481018201518686016044015293810193859350612659565b1561269b57565b60405162461bcd60e51b815260206004820152600f60248201526e10dbdb9d1c9858dd081c185d5cd959608a1b6044820152606490fd5b63ffffffff165f9081527f000000000000000000000000000000000000000000000000000000000000000060010160205260409020546001600160a01b0316330361271957565b60405162461bcd60e51b815260206004820152601b60248201527a21b0b63630b136329037b7363c90313c903a343290323934bb32b960291b6044820152606490fd5b6001600160a01b03165f9081527f000000000000000000000000000000000000000000000000000000000000000060020160205260409020546001600160801b0381169160809190911c90565b919082039182116102b257565b6001600160801b0391821690821603919082116102b257565b6001600160801b0391821690821601919082116102b257565b919082018092116102b257565b156127fc57565b60405162461bcd60e51b815260206004820152601460248201527321b0b63632b9103737ba103a34329030b236b4b760611b6044820152606490fd5b805482101561284d575f5260205f2001905f90565b634e487b7160e01b5f52603260045260245ffd5b61286b82826128c4565b6128be57805490600160401b8210156104e257826128a9612893846001809601855584612838565b819391549060031b91821b915f19901b19161790565b90558054925f520160205260405f2055600190565b50505f90565b6001915f520160205260405f2054151590565b9060018201905f92818452826020526040842054908115155f146129bd575f19918083018181116129a95782549084820191821161299557808203612960575b5050508054801561294c5782019161292f8383612838565b909182549160031b1b191690555582526020526040812055600190565b634e487b7160e01b86526031600452602486fd5b6129806129706128939386612838565b90549060031b1c92839286612838565b905586528460205260408620555f8080612917565b634e487b7160e01b88526011600452602488fd5b634e487b7160e01b87526011600452602487fd5b5050505090565b156129cb57565b606460405162461bcd60e51b815260206004820152602060248201527f43616c6c6572206e6f74207468652061646d696e206f722061207061757365726044820152fd5b805182101561284d5760209160051b010190565b92939190935f9260649182875111612c2557865190612a41826123cf565b94604092612a5184519788612391565b808752612a60601f19916123cf565b01936020943686890137875b8a51891015612b0357612a7f898c612a0f565b51908b8a612a9e575b50600191612a96918a612d6d565b980197612a6c565b82612ab0612ab6928d5f190190612a0f565b516130c3565b15612ac1578b612a88565b855162461bcd60e51b815260048101889052601c60248201527b14dd1c99585b5cc81c9958d95a5d995c9cc81b9bdd081cdbdc9d195960221b60448201528890fd5b989450945094955096505063ffffffff908142169686158015612c14575b612c0a576001600160801b0390911693829190612b3f888888612c66565b612bfe57831688811180612bf5575b612bcc575b50821687811180612bc3575b612ba0575b50955b86810160011c90808214612b9657612b8182888888612cea565b15612b8f5750955b95612b67565b9650612b89565b5016945092505050565b9096612bae82888888612cea565b15612bbc5750955b5f612b64565b9650612bb6565b50818110612b5f565b9097612bda82898989612cea565b15612bea57508290975b90612b53565b979150829091612be4565b50838110612b4e565b50505093509350505090565b5091945050505050565b506001600160801b03821615612b21565b60405162461bcd60e51b815260206004820152601a602482015279546f6f206d616e792073747265616d732072656365697665727360301b60448201528390fd5b905f90815b848310612c7c575050505050600190565b60208360051b8301810151809163ffffffff9283911c16908281169282811115612cdd579081849392612cb89511612cd5575b5060401c6130e5565b0191838311612ccc576001905b0191612c6b565b50505050505f90565b92505f612caf565b5050505091600190612cc5565b91925f91825b858410612d0257505050505050600190565b60208460051b8301810151809163ffffffff9182911c169082169181861115612d615790829186612d3b9411612d59575b60401c6130e5565b0192848411612d4f576001905b0192612cf0565b5050505050505f90565b869250612d33565b50505092600190612d48565b916020019182519260018060a01b03807f000000000000000000000000000000000000000000000000000000000000000016908560401c1610612e72575163ffffffff90819081602082901c81164282168115612e6a575b8282169364ffffffffff96879116850116938085148015612e61575b612e57575b8111612e4f575b508185841611612e46575b168093821610612e3f575b1693848214612e3757600194602091821c600160201b600160c01b0316909217901b1790612e32908390612a0f565b520190565b505050905090565b5081612e03565b91508091612df8565b90505f612ded565b9293508392612de6565b50838511612de1565b905080612dc5565b60405162461bcd60e51b815260206004820152602160248201527f53747265616d20726563656976657220616d7450657253656320746f6f206c6f6044820152607760f81b6064820152608490fd5b805115612f34576040805190816020938482019483830190808752825180925280606085019301945f905b838210612f105750505050612f0a925003601f198101835282612391565b51902090565b86518051865283015185840152958201958795509384019360019190910190612eec565b505f90565b600160ff1b81146102b2575f0390565b60209094939294015163ffffffff928184809360201c16938415612fe0575b508284169064ffffffffff93849116820116968188148015612fd5575b612fcb575b5084821611612fc3575b508281861611612fba575b8282168091861610612fb2575b50921690565b93505f612fac565b93508193612f9f565b91505f612f94565b851696505f612f8a565b508581168811612f85565b93505f612f68565b9163ffffffff80911691169181831461301e578361301161301c95600461301694019586613024565b612f39565b91613024565b565b50505050565b9063ffffffff90817f0000000000000000000000000000000000000000000000000000000000000000169283156130af57633b9aca00908361306f8388888706020595869516613133565b165f5260205260405f2094855494020503600f0b82600f0b0160018060801b0316918260018060801b03198093600f0b92161760801d0160801b16179055565b634e487b7160e01b5f52601260045260245ffd5b80518251908181036130de5750506020809101519101511190565b1092915050565b9063ffffffff7f00000000000000000000000000000000000000000000000000000000000000001692633b9aca00938085858286060204958086838606020495820204930491040302010390565b63ffffffff90817f00000000000000000000000000000000000000000000000000000000000000001680156130af5782600192160401169056fe7e644d79422f17c01e4894b5f4f588d331ebfa28653d42ae832dc59e38c9798f4910fdfa16fed3260ed0e7147f7cc6da11a60208b5b9406d12a635614ffd9143b53127684a568b3173ae13b9f8a6016e243e63b6e8ee1178d6a717850b5d610346756e6374696f6e206d7573742062652063616c6c6564207468726f75676820360894a13ba1a3210667c828492db98dca3e2076cc3735a920a3ca505d382bbcbc7cd75a20ee27fd9adebab32041f755214dbc6bffa90cc0225b39da2e5c2d3b45524331393637557067726164653a206e657720696d706c656d656e74617469a264697066735822122039fdec77b12391c823c46a3f6c816dd3fe7c383a95dd10cca2a336c3fcd8b99964736f6c63430008140033","linkReferences":{}},"methodIdentifiers":{"AMT_PER_SEC_EXTRA_DECIMALS()":"5429f175","AMT_PER_SEC_MULTIPLIER()":"387d2a2f","DRIVER_ID_OFFSET()":"8e48a7e5","MAX_STREAMS_RECEIVERS()":"ff27d019","MAX_TOTAL_BALANCE()":"444e249f","acceptAdmin()":"0e18b681","admin()":"f851a440","allPausers()":"09d48a94","balances(address)":"27e235e3","cycleSecs()":"631d669c","driverAddress(uint32)":"7e5b5a83","grantPauser(address)":"09c1d95f","implementation()":"5c60da1b","isPaused()":"b187bd26","isPauser(address)":"46fbf68e","minAmtPerSec()":"c82051dd","nextDriverId()":"98aba1cf","pause()":"8456cb59","proposeNewAdmin(address)":"a6376746","proposedAdmin()":"32f751ec","proxiableUUID()":"52d1902d","receiveStreams(uint256,address,uint32)":"302dea39","registerDriver(address)":"f0f4fd5e","renounceAdmin()":"8bad0c0a","revokePauser(address)":"7fe76df0","setStreams(uint256,address,(uint256,uint256)[],int128,(uint256,uint256)[],uint32,uint32)":"b3a3a573","streamsState(uint256,address)":"879db483","unpause()":"3f4ba83a","updateDriverAddress(uint32,address)":"aeefca1c","upgradeTo(address)":"3659cfe6","upgradeToAndCall(address,bytes)":"4f1ef286","withdraw(address,address,uint256)":"d9caed12"},"id":50}