{"abi":[{"type":"constructor","inputs":[{"name":"cycleSecs_","type":"uint32","internalType":"uint32"}],"stateMutability":"nonpayable"},{"type":"function","name":"AMT_PER_SEC_EXTRA_DECIMALS","inputs":[],"outputs":[{"name":"","type":"uint8","internalType":"uint8"}],"stateMutability":"view"},{"type":"function","name":"AMT_PER_SEC_MULTIPLIER","inputs":[],"outputs":[{"name":"","type":"uint160","internalType":"uint160"}],"stateMutability":"view"},{"type":"function","name":"DRIVER_ID_OFFSET","inputs":[],"outputs":[{"name":"","type":"uint8","internalType":"uint8"}],"stateMutability":"view"},{"type":"function","name":"MAX_SPLITS_RECEIVERS","inputs":[],"outputs":[{"name":"","type":"uint256","internalType":"uint256"}],"stateMutability":"view"},{"type":"function","name":"MAX_STREAMS_RECEIVERS","inputs":[],"outputs":[{"name":"","type":"uint256","internalType":"uint256"}],"stateMutability":"view"},{"type":"function","name":"MAX_TOTAL_BALANCE","inputs":[],"outputs":[{"name":"","type":"uint128","internalType":"uint128"}],"stateMutability":"view"},{"type":"function","name":"TOTAL_SPLITS_WEIGHT","inputs":[],"outputs":[{"name":"","type":"uint32","internalType":"uint32"}],"stateMutability":"view"},{"type":"function","name":"acceptAdmin","inputs":[],"outputs":[],"stateMutability":"nonpayable"},{"type":"function","name":"admin","inputs":[],"outputs":[{"name":"","type":"address","internalType":"address"}],"stateMutability":"view"},{"type":"function","name":"allPausers","inputs":[],"outputs":[{"name":"pausersList","type":"address[]","internalType":"address[]"}],"stateMutability":"view"},{"type":"function","name":"balances","inputs":[{"name":"erc20","type":"address","internalType":"contract IERC20"}],"outputs":[{"name":"streamsBalance","type":"uint128","internalType":"uint128"},{"name":"splitsBalance","type":"uint128","internalType":"uint128"}],"stateMutability":"view"},{"type":"function","name":"collect","inputs":[{"name":"accountId","type":"uint256","internalType":"uint256"},{"name":"erc20","type":"address","internalType":"contract IERC20"}],"outputs":[{"name":"amt","type":"uint128","internalType":"uint128"}],"stateMutability":"nonpayable"},{"type":"function","name":"collectable","inputs":[{"name":"accountId","type":"uint256","internalType":"uint256"},{"name":"erc20","type":"address","internalType":"contract IERC20"}],"outputs":[{"name":"amt","type":"uint128","internalType":"uint128"}],"stateMutability":"view"},{"type":"function","name":"cycleSecs","inputs":[],"outputs":[{"name":"","type":"uint32","internalType":"uint32"}],"stateMutability":"view"},{"type":"function","name":"driverAddress","inputs":[{"name":"driverId","type":"uint32","internalType":"uint32"}],"outputs":[{"name":"driverAddr","type":"address","internalType":"address"}],"stateMutability":"view"},{"type":"function","name":"emitAccountMetadata","inputs":[{"name":"accountId","type":"uint256","internalType":"uint256"},{"name":"accountMetadata","type":"tuple[]","internalType":"struct AccountMetadata[]","components":[{"name":"key","type":"bytes32","internalType":"bytes32"},{"name":"value","type":"bytes","internalType":"bytes"}]}],"outputs":[],"stateMutability":"nonpayable"},{"type":"function","name":"forceCollect","inputs":[{"name":"accountId","type":"uint256","internalType":"uint256"},{"name":"erc20","type":"address","internalType":"contract IERC20"},{"name":"yieldManager","type":"address","internalType":"address"},{"name":"strategy","type":"address","internalType":"address"},{"name":"transferTo","type":"address","internalType":"address"}],"outputs":[{"name":"amt","type":"uint128","internalType":"uint128"}],"stateMutability":"nonpayable"},{"type":"function","name":"give","inputs":[{"name":"accountId","type":"uint256","internalType":"uint256"},{"name":"receiver","type":"uint256","internalType":"uint256"},{"name":"erc20","type":"address","internalType":"contract IERC20"},{"name":"amt","type":"uint128","internalType":"uint128"}],"outputs":[],"stateMutability":"nonpayable"},{"type":"function","name":"grantPauser","inputs":[{"name":"pauser","type":"address","internalType":"address"}],"outputs":[],"stateMutability":"nonpayable"},{"type":"function","name":"implementation","inputs":[],"outputs":[{"name":"","type":"address","internalType":"address"}],"stateMutability":"view"},{"type":"function","name":"isPaused","inputs":[],"outputs":[{"name":"","type":"bool","internalType":"bool"}],"stateMutability":"view"},{"type":"function","name":"isPauser","inputs":[{"name":"pauser","type":"address","internalType":"address"}],"outputs":[{"name":"isAddrPauser","type":"bool","internalType":"bool"}],"stateMutability":"view"},{"type":"function","name":"minAmtPerSec","inputs":[],"outputs":[{"name":"","type":"uint160","internalType":"uint160"}],"stateMutability":"view"},{"type":"function","name":"nextDriverId","inputs":[],"outputs":[{"name":"driverId","type":"uint32","internalType":"uint32"}],"stateMutability":"view"},{"type":"function","name":"pause","inputs":[],"outputs":[],"stateMutability":"nonpayable"},{"type":"function","name":"proposeNewAdmin","inputs":[{"name":"newAdmin","type":"address","internalType":"address"}],"outputs":[],"stateMutability":"nonpayable"},{"type":"function","name":"proposedAdmin","inputs":[],"outputs":[{"name":"","type":"address","internalType":"address"}],"stateMutability":"view"},{"type":"function","name":"proxiableUUID","inputs":[],"outputs":[{"name":"","type":"bytes32","internalType":"bytes32"}],"stateMutability":"view"},{"type":"function","name":"receiveStreams","inputs":[{"name":"accountId","type":"uint256","internalType":"uint256"},{"name":"erc20","type":"address","internalType":"contract IERC20"},{"name":"maxCycles","type":"uint32","internalType":"uint32"}],"outputs":[{"name":"receivedAmt","type":"uint128","internalType":"uint128"}],"stateMutability":"nonpayable"},{"type":"function","name":"registerDriver","inputs":[{"name":"driverAddr","type":"address","internalType":"address"}],"outputs":[{"name":"driverId","type":"uint32","internalType":"uint32"}],"stateMutability":"nonpayable"},{"type":"function","name":"renounceAdmin","inputs":[],"outputs":[],"stateMutability":"nonpayable"},{"type":"function","name":"revokePauser","inputs":[{"name":"pauser","type":"address","internalType":"address"}],"outputs":[],"stateMutability":"nonpayable"},{"type":"function","name":"setSplits","inputs":[{"name":"accountId","type":"uint256","internalType":"uint256"},{"name":"receivers","type":"tuple[]","internalType":"struct SplitsReceiver[]","components":[{"name":"accountId","type":"uint256","internalType":"uint256"},{"name":"weight","type":"uint32","internalType":"uint32"}]}],"outputs":[],"stateMutability":"nonpayable"},{"type":"function","name":"setStreams","inputs":[{"name":"accountId","type":"uint256","internalType":"uint256"},{"name":"erc20","type":"address","internalType":"contract IERC20"},{"name":"currReceivers","type":"tuple[]","internalType":"struct StreamReceiver[]","components":[{"name":"accountId","type":"uint256","internalType":"uint256"},{"name":"config","type":"uint256","internalType":"StreamConfig"}]},{"name":"balanceDelta","type":"int128","internalType":"int128"},{"name":"newReceivers","type":"tuple[]","internalType":"struct StreamReceiver[]","components":[{"name":"accountId","type":"uint256","internalType":"uint256"},{"name":"config","type":"uint256","internalType":"StreamConfig"}]},{"name":"maxEndHint1","type":"uint32","internalType":"uint32"},{"name":"maxEndHint2","type":"uint32","internalType":"uint32"}],"outputs":[{"name":"realBalanceDelta","type":"int128","internalType":"int128"}],"stateMutability":"nonpayable"},{"type":"function","name":"split","inputs":[{"name":"accountId","type":"uint256","internalType":"uint256"},{"name":"erc20","type":"address","internalType":"contract IERC20"},{"name":"currReceivers","type":"tuple[]","internalType":"struct SplitsReceiver[]","components":[{"name":"accountId","type":"uint256","internalType":"uint256"},{"name":"weight","type":"uint32","internalType":"uint32"}]}],"outputs":[{"name":"collectableAmt","type":"uint128","internalType":"uint128"},{"name":"splitAmt","type":"uint128","internalType":"uint128"}],"stateMutability":"nonpayable"},{"type":"function","name":"splittable","inputs":[{"name":"accountId","type":"uint256","internalType":"uint256"},{"name":"erc20","type":"address","internalType":"contract IERC20"}],"outputs":[{"name":"amt","type":"uint128","internalType":"uint128"}],"stateMutability":"view"},{"type":"function","name":"streamsState","inputs":[{"name":"accountId","type":"uint256","internalType":"uint256"},{"name":"erc20","type":"address","internalType":"contract IERC20"}],"outputs":[{"name":"streamsHash","type":"bytes32","internalType":"bytes32"},{"name":"streamsHistoryHash","type":"bytes32","internalType":"bytes32"},{"name":"updateTime","type":"uint32","internalType":"uint32"},{"name":"balance","type":"uint128","internalType":"uint128"},{"name":"maxEnd","type":"uint32","internalType":"uint32"}],"stateMutability":"view"},{"type":"function","name":"unpause","inputs":[],"outputs":[],"stateMutability":"nonpayable"},{"type":"function","name":"updateDriverAddress","inputs":[{"name":"driverId","type":"uint32","internalType":"uint32"},{"name":"newDriverAddr","type":"address","internalType":"address"}],"outputs":[],"stateMutability":"nonpayable"},{"type":"function","name":"upgradeTo","inputs":[{"name":"newImplementation","type":"address","internalType":"address"}],"outputs":[],"stateMutability":"nonpayable"},{"type":"function","name":"upgradeToAndCall","inputs":[{"name":"newImplementation","type":"address","internalType":"address"},{"name":"data","type":"bytes","internalType":"bytes"}],"outputs":[],"stateMutability":"payable"},{"type":"function","name":"withdraw","inputs":[{"name":"erc20","type":"address","internalType":"contract IERC20"},{"name":"receiver","type":"address","internalType":"address"},{"name":"amt","type":"uint256","internalType":"uint256"}],"outputs":[],"stateMutability":"nonpayable"},{"type":"event","name":"AccountMetadataEmitted","inputs":[{"name":"accountId","type":"uint256","indexed":true,"internalType":"uint256"},{"name":"key","type":"bytes32","indexed":true,"internalType":"bytes32"},{"name":"value","type":"bytes","indexed":false,"internalType":"bytes"}],"anonymous":false},{"type":"event","name":"AdminChanged","inputs":[{"name":"previousAdmin","type":"address","indexed":false,"internalType":"address"},{"name":"newAdmin","type":"address","indexed":false,"internalType":"address"}],"anonymous":false},{"type":"event","name":"BeaconUpgraded","inputs":[{"name":"beacon","type":"address","indexed":true,"internalType":"address"}],"anonymous":false},{"type":"event","name":"Collectable","inputs":[{"name":"accountId","type":"uint256","indexed":true,"internalType":"uint256"},{"name":"erc20","type":"address","indexed":true,"internalType":"contract IERC20"},{"name":"amt","type":"uint128","indexed":false,"internalType":"uint128"}],"anonymous":false},{"type":"event","name":"Collected","inputs":[{"name":"accountId","type":"uint256","indexed":true,"internalType":"uint256"},{"name":"erc20","type":"address","indexed":true,"internalType":"contract IERC20"},{"name":"collected","type":"uint128","indexed":false,"internalType":"uint128"}],"anonymous":false},{"type":"event","name":"DriverAddressUpdated","inputs":[{"name":"driverId","type":"uint32","indexed":true,"internalType":"uint32"},{"name":"oldDriverAddr","type":"address","indexed":true,"internalType":"address"},{"name":"newDriverAddr","type":"address","indexed":true,"internalType":"address"}],"anonymous":false},{"type":"event","name":"DriverRegistered","inputs":[{"name":"driverId","type":"uint32","indexed":true,"internalType":"uint32"},{"name":"driverAddr","type":"address","indexed":true,"internalType":"address"}],"anonymous":false},{"type":"event","name":"Given","inputs":[{"name":"accountId","type":"uint256","indexed":true,"internalType":"uint256"},{"name":"receiver","type":"uint256","indexed":true,"internalType":"uint256"},{"name":"erc20","type":"address","indexed":true,"internalType":"contract IERC20"},{"name":"amt","type":"uint128","indexed":false,"internalType":"uint128"}],"anonymous":false},{"type":"event","name":"NewAdminProposed","inputs":[{"name":"currentAdmin","type":"address","indexed":true,"internalType":"address"},{"name":"newAdmin","type":"address","indexed":true,"internalType":"address"}],"anonymous":false},{"type":"event","name":"Paused","inputs":[{"name":"pauser","type":"address","indexed":true,"internalType":"address"}],"anonymous":false},{"type":"event","name":"PauserGranted","inputs":[{"name":"pauser","type":"address","indexed":true,"internalType":"address"},{"name":"admin","type":"address","indexed":true,"internalType":"address"}],"anonymous":false},{"type":"event","name":"PauserRevoked","inputs":[{"name":"pauser","type":"address","indexed":true,"internalType":"address"},{"name":"admin","type":"address","indexed":true,"internalType":"address"}],"anonymous":false},{"type":"event","name":"ReceivedStreams","inputs":[{"name":"accountId","type":"uint256","indexed":true,"internalType":"uint256"},{"name":"erc20","type":"address","indexed":true,"internalType":"contract IERC20"},{"name":"amt","type":"uint128","indexed":false,"internalType":"uint128"},{"name":"receivableCycles","type":"uint32","indexed":false,"internalType":"uint32"}],"anonymous":false},{"type":"event","name":"Split","inputs":[{"name":"accountId","type":"uint256","indexed":true,"internalType":"uint256"},{"name":"receiver","type":"uint256","indexed":true,"internalType":"uint256"},{"name":"erc20","type":"address","indexed":true,"internalType":"contract IERC20"},{"name":"amt","type":"uint128","indexed":false,"internalType":"uint128"}],"anonymous":false},{"type":"event","name":"SplitsReceiverSeen","inputs":[{"name":"receiversHash","type":"bytes32","indexed":true,"internalType":"bytes32"},{"name":"accountId","type":"uint256","indexed":true,"internalType":"uint256"},{"name":"weight","type":"uint32","indexed":false,"internalType":"uint32"}],"anonymous":false},{"type":"event","name":"SplitsSet","inputs":[{"name":"accountId","type":"uint256","indexed":true,"internalType":"uint256"},{"name":"receiversHash","type":"bytes32","indexed":true,"internalType":"bytes32"}],"anonymous":false},{"type":"event","name":"SqueezedStreams","inputs":[{"name":"accountId","type":"uint256","indexed":true,"internalType":"uint256"},{"name":"erc20","type":"address","indexed":true,"internalType":"contract IERC20"},{"name":"senderId","type":"uint256","indexed":true,"internalType":"uint256"},{"name":"amt","type":"uint128","indexed":false,"internalType":"uint128"},{"name":"streamsHistoryHashes","type":"bytes32[]","indexed":false,"internalType":"bytes32[]"}],"anonymous":false},{"type":"event","name":"StreamReceiverSeen","inputs":[{"name":"receiversHash","type":"bytes32","indexed":true,"internalType":"bytes32"},{"name":"accountId","type":"uint256","indexed":true,"internalType":"uint256"},{"name":"config","type":"uint256","indexed":false,"internalType":"StreamConfig"}],"anonymous":false},{"type":"event","name":"StreamsSet","inputs":[{"name":"accountId","type":"uint256","indexed":true,"internalType":"uint256"},{"name":"erc20","type":"address","indexed":true,"internalType":"contract IERC20"},{"name":"receiversHash","type":"bytes32","indexed":true,"internalType":"bytes32"},{"name":"streamsHistoryHash","type":"bytes32","indexed":false,"internalType":"bytes32"},{"name":"balance","type":"uint128","indexed":false,"internalType":"uint128"},{"name":"maxEnd","type":"uint32","indexed":false,"internalType":"uint32"}],"anonymous":false},{"type":"event","name":"Unpaused","inputs":[{"name":"pauser","type":"address","indexed":true,"internalType":"address"}],"anonymous":false},{"type":"event","name":"Upgraded","inputs":[{"name":"implementation","type":"address","indexed":true,"internalType":"address"}],"anonymous":false},{"type":"event","name":"Withdrawn","inputs":[{"name":"erc20","type":"address","indexed":true,"internalType":"contract IERC20"},{"name":"receiver","type":"address","indexed":true,"internalType":"address"},{"name":"amt","type":"uint256","indexed":false,"internalType":"uint256"}],"anonymous":false}],"bytecode":{"object":"0x6101a034620003df576200449638819003601f8101601f191683016001600160401b03811184821017620003e357839282916040528339602092839181010312620003df57519063ffffffff80831691828403620003df576200009462000065620003f7565b601681527f656970313936372e73706c6974732e73746f72616765000000000000000000008382015262000417565b92620000d2620000a3620003f7565b601781527f656970313936372e73747265616d732e73746f726167650000000000000000008482015262000417565b943060805262000114620000e5620003f7565b601781527f656970313936372e6d616e616765642e73746f726167650000000000000000008582015262000417565b8060a052600160ff1982541617905560018211156200039a5760c0526001600160a01b0391633b9aca008201838111620003865783165f19019183831162000386578015620003725783620001ad93160460e0526101009586526101209485527f656970313936372e64726970732e73746f7261676500000000000000000000006200019f620003f7565b916015835282015262000417565b9161018092835260c051169061014091825260e0511690610160918252604051936140669586620004308739608051868181611b3e01528181611c64015261203b015260a0518681816102e301528181610467015281816107b0015281816109a4015281816112ad0152818161130601528181611430015281816114e501528181611681015281816117970152818161180101528181611875015281816119bd01528181611ea201528181611f2f01528181611fcd015281816121d10152818161223901528181612680015281816126c101528181612796015281816128820152612954015260c051868181613e1101528181613ed00152613f1f015260e05186613b6f0152518581816109f301528181610bd5015281816116e101528181612272015281816122f001526124a1015251848181610226015281816107e80152818161151d015281816125f30152818161298e015281816134da01528181613563015261371901525183611ab90152518261072f01525181818161031b015281816104d301528181610fe00152818161124b0152818161133d0152818161147e0152818161192b0152818161242c015281816130030152818161309001526131aa0152f35b634e487b7160e01b5f52601260045260245ffd5b634e487b7160e01b5f52601160045260245ffd5b60405162461bcd60e51b815260048101849052601460248201527f4379636c65206c656e67746820746f6f206c6f770000000000000000000000006044820152606490fd5b5f80fd5b634e487b7160e01b5f52604160045260245ffd5b60408051919082016001600160401b03811183821017620003e357604052565b602081519101206103ff19810190811162000386579056fe60c06040526004361015610011575f80fd5b5f3560e01c806302cfc7531461291757806309c1d95f1461283a57806309d48a94146127815780630e18b681146126af5780630ea2063a1461263c5780631ec026c8146125d357806327e235e314612596578063302dea391461220757806332f751ec146121bd5780633659cfe614612017578063387d2a2f14611ff95780633f4ba83a14611ef3578063444e249f14611ed157806346fbf68e14611e775780634f1ef28614611be957806352d1902d14611b2c5780635429f17514611b115780635c60da1b14611add578063631d669c14611a9d57806369610257146119655780637e5b5a83146119065780637fe76df01461182d5780638456cb591461175b578063879db483146116bb5780638bad0c0a1461162d5780638d3c100a146114c25780638e48a7e5146114a757806398aba1cf14611465578063a6376746146113c8578063a69aff3c146113ab578063aeefca1c146112d8578063b187bd2614611297578063b3a3a57314610912578063be1ca3221461075e578063c82051dd1461071a578063d9caed1214610515578063d9e0107014610402578063f0f4fd5e146102c3578063f11d5139146102a8578063f851a44014610274578063f98e7e1d146102065763ff27d019146101e7575f80fd5b34610202575f36600319011261020257602060405160648152f35b5f80fd5b346102025760403660031901126102025761021f612cc4565b6004355f527f0000000000000000000000000000000000000000000000000000000000000000602052600160405f20019060018060a01b03165f52602052602060018060801b0360405f205416604051908152f35b34610202575f366003190112610202575f80516020613f91833981519152546040516001600160a01b039091168152602090f35b34610202575f36600319011261020257602060405160c88152f35b34610202576020366003190112610202576102dc612cae565b61030a60ff7f0000000000000000000000000000000000000000000000000000000000000000541615612fb9565b6001600160a01b031680156103bd577f00000000000000000000000000000000000000000000000000000000000000009081549163ffffffff808416918183146103a957602094600192838501169063ffffffff1916178155825f5201835260405f208260018060a01b031982541617905560405191817f749894a8ffc45e1d212322a05461004c7bc358b4d36325766b63526b1ccf8bdf5f80a38152f35b634e487b7160e01b5f52601160045260245ffd5b60405162461bcd60e51b815260206004820152601f60248201527f447269766572207265676973746572656420666f7220302061646472657373006044820152606490fd5b3461020257608036600319011261020257600435602435610421612cda565b6064356001600160801b038116939190848103610202577f30e2797f85108749fb58c0e7da3e229828df7b148755f420c96d565c7ab6d832916104a760209261048e60ff7f0000000000000000000000000000000000000000000000000000000000000000541615612fb9565b61049a8660e01c612ff7565b876104ba575b82876134d6565b6040519586526001600160a01b031694a4005b6104c481846131f4565b60018060a01b0383165f5260027f000000000000000000000000000000000000000000000000000000000000000001845261051060405f2061050a83825460801c61315f565b90613178565b6104a0565b346102025760603660031901126102025761052e612cae565b610536612cc4565b906044359061056d61054782613081565b90610565610554856130db565b6001600160801b03928316906130ce565b9116906130ce565b82116106d85760018060a01b0380911692166040519282845281817fd1c19fbcd4551a5edfb66d43d2e337c04837afda3482b42bdf569a8fccdae5fb60208097a3604051928484019263a9059cbb60e01b84526024850152604484015260448352608083019183831060018060401b038411176106c4575f809161063595856040526105f886612b99565b8786527f5361666545524332303a206c6f772d6c6576656c2063616c6c206661696c656460a0820152519082855af161062f612eb8565b91612ee7565b80518281159182156106a4575b505090501561064d57005b6084906040519062461bcd60e51b82526004820152602a60248201527f5361666545524332303a204552433230206f7065726174696f6e20646964206e6044820152691bdd081cdd58d8d9595960b21b6064820152fd5b838092935001031261020257810151801515810361020257808284610642565b634e487b7160e01b5f52604160045260245ffd5b60405162461bcd60e51b815260206004820152601a6024820152790aed2e8d0c8e4c2eec2d840c2dadeeadce840e8dede40d0d2ced60331b6044820152606490fd5b34610202575f366003190112610202576040517f00000000000000000000000000000000000000000000000000000000000000006001600160a01b03168152602090f35b346102025760a03660031901126102025760043561077a612cc4565b610782612cda565b6064356001600160a01b03818116949092918590036102025760843592808416809403610202576107d760ff7f0000000000000000000000000000000000000000000000000000000000000000541615612fb9565b6107e38260e01c612ff7565b815f527f0000000000000000000000000000000000000000000000000000000000000000602052600160405f20019281861693845f5260205260405f205460801c61082d876130db565b10156108d85761083d8684613712565b6001600160801b0381169690876108c8575b50501690813b15610202575f60a49281956040519889968795634b98751b60e11b875260048701526024860152604485015287606485015260848401525af180156108bd576108a4575b602090604051908152f35b6001600160401b0382116106c457602091604052610899565b6040513d5f823e3d90fd5b6108d19161319b565b878061084f565b60405162461bcd60e51b8152602060048201526012602482015271155cd9481b9bdc9b585b0818dbdb1b1958dd60721b6044820152606490fd5b346102025760e03660031901126102025761092b612cc4565b6044356001600160401b0381116102025761094a903690600401612d0b565b90606435600f0b60643503610202576084356001600160401b03811161020257610978903690600401612d0b565b60a05263ffffffff60a4351660a435036102025763ffffffff60c4351660c43503610202576109cb60ff7f0000000000000000000000000000000000000000000000000000000000000000541615612fb9565b6109d960043560e01c612ff7565b5f606435600f0b13611225575b60018060a01b0381165f527f000000000000000000000000000000000000000000000000000000000000000060205260405f206004355f5260205260405f20610a2e83613cb1565b6002820154036111e0576003810154905f90606083901c6001600160801b03165b8551831015610b79576001906020610a67858961353f565b5101519063ffffffff8260201c168015610b69575b64ffffffffff63ffffffff841663ffffffff831601169063ffffffff811682148015610b57575b610b45575b63ffffffff8860201c1663ffffffff821610610b35575b63ffffffff421664ffffffffff831611610b27575b63ffffffff16928364ffffffffff831610610b1f575b610b1390858060801b039463ffffffff878060801b03941691878060a01b039060401c16613ec8565b16900316920191610a4f565b839150610aea565b4263ffffffff169150610ad4565b5063ffffffff8760201c16610abf565b905063ffffffff8760401c1690610aa8565b5063ffffffff8860401c168211610aa3565b5063ffffffff8660201c16610a7c565b60643590859085886001600160801b038316600f90810b5f03810b9086900b81136111d8575b5060a051939493610bc89060c4359060a435906001600160801b03878116600f0b890116613813565b60018060a01b0386165f527f000000000000000000000000000000000000000000000000000000000000000060205260405f20935f955f6080525b8351871080604051610c1481612b99565b5f81525f6020820152916111c5575b848760a05151608051109384604051610c3b81612b99565b5f81525f6020820152906111b0575b84806111a9575b611159575b8b8580611152575b15610d4f57610cdf63ffffffff95610cda8794610ce59487515f52602052610cad610c9d60405f20998842169089808260401c169160201c168b613d2e565b9290948842169189421690613d2e565b9097602060018060a01b0391015160401c1691610cd4610ccc84613d1e565b8a878d613dcd565b89613dcd565b613f16565b92613f16565b16928391161180610d3c575b610d25575b50505b610d1b575b978798610d0d575b9750610c03565b600160805101608052610d06565b9660010196610cfe565b6003019063ffffffff198254161790558b80610cf6565b508163ffffffff60038301541611610cf1565b50925090508215610db657610db1915080515f5289602052610dab60405f2091610d9063ffffffff42168c63ffffffff808260401c169160201c1684613d2e565b6020909201519192909160401c6001600160a01b0316613d1e565b92613dcd565b610cf9565b508215610e525780515f52886020526003610e0460405f2092610cda610dea63ffffffff42168b63ffffffff421685613d2e565b9092602060018060a01b0391015160401c16908387613dcd565b91019081549063ffffffff82168015908115610e42575b50610e29575b505050610cf9565b63ffffffff169063ffffffff19161790558b8080610e21565b905063ffffffff8216108f610e1b565b60038c018054604088901b63ffffffff60401b16600160201b600160e01b031982164260201b63ffffffff60201b1617176001600160801b038816600f0b870160601b600160601b600160e01b0316179091558c5485918d91908f9089908b908415158f81611123575b50156110a657506003830180546001600160e01b0316600160e11b1790555b610ee660a051613cb1565b936040519181602084015285604084015263ffffffff4216606084015263ffffffff81166080840152608083528260a081011060018060401b0360a0850111176106c45760a0830160408190528351602085012086559182526001600160801b03938416600f0b880190931660c083015263ffffffff90921660e09091015282906001600160a01b03851690600435907f8b23331305d892ba8ae0d5ad747051e5d007302b8b0eba8f45ebdc5f82962f6d90606090a460028101548203611043575b505090600f0b5f8112610fc057602090604051908152f35b60016001607f1b031981146103a9576001600160a01b039091165f9081527f000000000000000000000000000000000000000000000000000000000000000060020160209081526040822080549193929091906001600160801b039061102d908590038216828416613146565b6001600160801b03199092169116179055610899565b6002829101555f5b60a051805182101561109c57906110648160019361353f565b51837f68f8694c2f9c9f45540d88ae439aaf8a7c84d05392f23a12e2ebdc75ed31ad1e6020808451940151604051908152a30161104b565b5050508280610fa8565b63ffffffff81164260201b63ffffffff60201b16908117604084901b63ffffffff60401b169081176001600160801b038616600f0b8a0160601b600160601b600160e01b0316908117600160201b600160e01b031994909416909217171760e090811c600101901b6001600160e01b031916176003840155610edb565b611136915060201c63ffffffff16613f16565b63ffffffff80611147814216613f16565b169116141588610ebc565b5086610c5e565b8151815114801590611182575b15610c5657945092506111798484613ea6565b92831594610c56565b5060208281015190820151604090811c6001600160a01b039081169290911c161415611166565b5085610c51565b506111bf60805160a05161353f565b51610c4a565b90506111d1888661353f565b5190610c23565b945086610b9f565b60405162461bcd60e51b815260206004820152601e60248201527f496e76616c69642073747265616d7320726563656976657273206c69737400006044820152606490fd5b6001600160801b03606435811661123c81846131f4565b60018060a01b0383165f5260027f00000000000000000000000000000000000000000000000000000000000000000160205260405f209161128183549282841661315f565b6001600160801b031990921691161790556109e6565b34610202575f36600319011261020257602060ff7f000000000000000000000000000000000000000000000000000000000000000054166040519015158152f35b34610202576040366003190112610202576112f1612c09565b63ffffffff6112fe612cc4565b9161132d60ff7f0000000000000000000000000000000000000000000000000000000000000000541615612fb9565b61133681612ff7565b165f8181527f00000000000000000000000000000000000000000000000000000000000000006001016020526040812080546001600160a01b0319166001600160a01b0390941693841790553391907f5a2904d4b2f1a05120ab193be9a140a7ad8d310e3bb91af232d47f2f55fa38829080a4005b34610202575f366003190112610202576020604051620f42408152f35b34610202576020366003190112610202576113e1612cae565b5f80516020613f91833981519152546001600160a01b03919061140790831633146132bc565b1680337fed2d93e7985747cd1a4a093c2cc3bb73d0f177b81bdfd26020e8f20a97e8112e5f80a37f000000000000000000000000000000000000000000000000000000000000000060030180546001600160a01b0319169091179055005b34610202575f36600319011261020257602063ffffffff7f00000000000000000000000000000000000000000000000000000000000000005416604051908152f35b34610202575f36600319011261020257602060405160e08152f35b34610202576040366003190112610202576004356114de612cc4565b61150c60ff7f0000000000000000000000000000000000000000000000000000000000000000541615612fb9565b6115188260e01c612ff7565b815f527f0000000000000000000000000000000000000000000000000000000000000000602052600160405f200160018060a01b0382165f5260205260405f205460801c8061159b575b5061156f81602093613712565b6001600160801b03811691908261158b575b5050604051908152f35b6115949161319b565b8280611581565b6115a4826130db565b106115af5782611562565b60405162461bcd60e51b815260206004820152604a60248201527f496e73756666696369656e74207661756c742062616c616e63652e205573652060448201527f666f726365436f6c6c65637420746f2077697468647261772066726f6d20596960648201526932b63226b0b730b3b2b960b11b608482015260a490fd5b34610202575f366003190112610202575f80516020613f9183398151915280545f80516020613f51833981519152906040906001600160a01b03166116733382146132bc565b81519081525f6020820152a17f000000000000000000000000000000000000000000000000000000000000000060030180546001600160a01b03199081169091558154169055005b34610202576040366003190112610202576001600160a01b036116dc612cc4565b165f527f000000000000000000000000000000000000000000000000000000000000000060205260405f206004355f5260205260a060405f206002810154906003815491015490604051928352602083015263ffffffff90818160201c16604084015260018060801b038160601c16606084015260401c166080820152f35b34610202575f366003190112610202575f80516020613f91833981519152546001600160a01b0316331480156117f5575b6117959061348b565b7f0000000000000000000000000000000000000000000000000000000000000000600181546117c760ff821615612fb9565b60ff1916179055337f62e78cea01bee320cd4e420270b5ea74000d11b0c9f74754ebdbfc544b05a2585f80a2005b506117956118263360017f00000000000000000000000000000000000000000000000000000000000000000161338b565b905061178c565b3461020257602036600319011261020257611846612cae565b5f80516020613f91833981519152546001600160a01b03919061186c90831633146132bc565b1661189a8160017f00000000000000000000000000000000000000000000000000000000000000000161339e565b156118c75733907ffd55549bcbafb9531a61db3cfb88d1cca64e215b12def56e6ea913fe1ac91fd25f80a3005b60405162461bcd60e51b815260206004820152601760248201527620b2323932b9b99034b9903737ba1030903830bab9b2b960491b6044820152606490fd5b346102025760203660031901126102025763ffffffff611924612c09565b165f5260017f000000000000000000000000000000000000000000000000000000000000000001602052602060018060a01b0360405f205416604051908152f35b3461020257604036600319011261020257602480356001600160401b03600435818311610202573660238401121561020257826004013582811161020257600593368683871b83010111610202576119e460ff9592957f0000000000000000000000000000000000000000000000000000000000000000541615612fb9565b6119f08360e01c612ff7565b3681900360621901915f5b868110611a0457005b8781831b84010135848112156102025783019060448083013560421984360301811215610202578301908a8201359189831161020257018136038113610202577f104963f2a5dc192f8154d2714d24eff1983117445036fb4dc408713d73b36aa58260408a938e6001988351948593816020808752860152858501375f838901850152013595601f01601f19168101030190a3016119fb565b34610202575f36600319011261020257602060405163ffffffff7f0000000000000000000000000000000000000000000000000000000000000000168152f35b34610202575f366003190112610202575f80516020613fd1833981519152546040516001600160a01b039091168152602090f35b34610202575f36600319011261020257602060405160098152f35b34610202575f366003190112610202577f00000000000000000000000000000000000000000000000000000000000000006001600160a01b03163003611b835760206040515f80516020613fd18339815191528152f35b60405162461bcd60e51b815260206004820152603860248201527f555550535570677261646561626c653a206d757374206e6f742062652063616c6044820152771b1959081d1a1c9bdd59da0819195b1959d85d1958d85b1b60421b6064820152608490fd5b604036600319011261020257611bfd612cae565b602435906001600160401b0382116102025736602383011215610202578160040135611c2881612cf0565b92611c366040519485612bcf565b81845260209182850191366024838301011161020257815f9260248693018537860101526001600160a01b037f0000000000000000000000000000000000000000000000000000000000000000811690611c9230831415612d8d565b611cae5f80516020613fd1833981519152928284541614612ddb565b611cc9815f80516020613f91833981519152541633146132bc565b5f80516020613f718339815191525460ff1615611cf05750505050611cee9150612e29565b005b84939416906040516352d1902d60e01b81528581600481865afa5f9181611e48575b50611d605760405162461bcd60e51b815260048101879052602e60248201525f8051602061401183398151915260448201526d6f6e206973206e6f74205555505360901b6064820152608490fd5b03611df157611d6e83612e29565b5f80516020613ff18339815191525f80a2835115801590611de9575b611d9057005b5f8091611cee957f416464726573733a206c6f772d6c6576656c2064656c65676174652063616c6c60405196611dc588612bb4565b60278852870152660819985a5b195960ca1b60408701525190845af461062f612eb8565b506001611d8a565b60405162461bcd60e51b815260048101859052602960248201527f45524331393637557067726164653a20756e737570706f727465642070726f786044820152681a58589b195555525160ba1b6064820152608490fd5b9091508681813d8311611e70575b611e608183612bcf565b8101031261020257519088611d12565b503d611e56565b34610202576020366003190112610202576020611ec76001600160a01b03611e9d612cae565b1660017f00000000000000000000000000000000000000000000000000000000000000000161338b565b6040519015158152f35b34610202575f3660031901126102025760405160016001607f1b038152602090f35b34610202575f366003190112610202575f80516020613f91833981519152546001600160a01b031633148015611fc1575b611f2d9061348b565b7f0000000000000000000000000000000000000000000000000000000000000000805460ff811615611f865760ff19169055337f5db9ee0a495bf2e6ff9c91a7834c1ba4fdd244a5e8aa4e537bd38aeae4b073aa5f80a2005b60405162461bcd60e51b815260206004820152601360248201527210dbdb9d1c9858dd081b9bdd081c185d5cd959606a1b6044820152606490fd5b50611f2d611ff23360017f00000000000000000000000000000000000000000000000000000000000000000161338b565b9050611f24565b34610202575f366003190112610202576020604051633b9aca008152f35b346102025760208060031936011261020257612031612cae565b6001600160a01b037f00000000000000000000000000000000000000000000000000000000000000008116929061206a30851415612d8d565b6120865f80516020613fd1833981519152948286541614612ddb565b6120a1815f80516020613f91833981519152541633146132bc565b60405193828501916001600160401b038311868410176106c457826040525f865260ff5f80516020613f7183398151915254165f146120e85750505050611cee9150612e29565b84939416906040516352d1902d60e01b81528581600481865afa5f918161218e575b506121585760405162461bcd60e51b815260048101879052602e60248201525f8051602061401183398151915260448201526d6f6e206973206e6f74205555505360901b6064820152608490fd5b03611df15761216683612e29565b5f80516020613ff18339815191525f80a283511580159061218757611d9057005b505f611d8a565b9091508681813d83116121b6575b6121a68183612bcf565b810103126102025751908861210a565b503d61219c565b34610202575f3660031901126102025760037f000000000000000000000000000000000000000000000000000000000000000001546040516001600160a01b039091168152602090f35b3461020257606036600319011261020257612220612cc4565b60443563ffffffff8116908181036102025761226060ff7f0000000000000000000000000000000000000000000000000000000000000000541615612fb9565b5f905f809460018060a01b0381165f527f000000000000000000000000000000000000000000000000000000000000000060205260405f206004355f5260205263ffffffff600360405f20015416926122be63ffffffff4216613f16565b9084158015612587575b61257f575b819663ffffffff86840316908111612565575b50505060018060a01b0381165f527f000000000000000000000000000000000000000000000000000000000000000060205260405f206004355f52602052600460405f20019280965b63ffffffff871663ffffffff8916101561239557600163ffffffff91828a165f5286602052602060405f20916040519261236284612b99565b5490600f9382850b9283825260801d850b93849101520198838060801b03908a8216011698820b01900b98011696612329565b9350849063ffffffff871694858203612490575b5050604080516001600160801b0383811680835263ffffffff96909616602083810191909152965093916001600160a01b03831691600435917f6c91d10ec47151439d4dc2df77dbc3a78e8502b9176aeb4d6ab0b1823d95d34c91a383612416575b505050604051908152f35b6124806124889360018060a01b0383165f5260027f000000000000000000000000000000000000000000000000000000000000000001875261050a8460405f209283549061246683828416613146565b6001600160801b031990921691161780845560801c61315f565b6004356134d6565b82808061240b565b9193909260018060a01b0381165f527f000000000000000000000000000000000000000000000000000000000000000060205260405f206004355f52602052600460405f20600381018863ffffffff1982541617905501935b63ffffffff8116878110156125145763ffffffff916001915f52866020525f604081205501166124e9565b5050926020959492919482600f0b61252d575b506123a9565b5f9081529086526040902080546001600160801b031981166001600160801b03600f9290920b90930116919091179055848080612527565b0363ffffffff9081169182900316955091508680806122e0565b8491506122cd565b508463ffffffff8316106122c8565b34610202576020366003190112610202576125b76125b2612cae565b613081565b604080516001600160801b039384168152919092166020820152f35b34610202576040366003190112610202576125ec612cc4565b6004355f527f0000000000000000000000000000000000000000000000000000000000000000602052600160405f20019060018060a01b03165f52602052602060405f205460801c604051908152f35b3461020257606036600319011261020257612655612cc4565b604435906001600160401b038211610202576126786125b7923690600401612c1c565b906126a760ff7f0000000000000000000000000000000000000000000000000000000000000000541615612fb9565b600435613553565b34610202575f366003190112610202577f000000000000000000000000000000000000000000000000000000000000000060030180546001600160a01b0391338383160361273c575f80516020613f5183398151915260405f80516020613f91833981519152948554168151908152336020820152a16001600160a01b0319918216905581541633179055005b60405162461bcd60e51b815260206004820152601d60248201527f43616c6c6572206e6f74207468652070726f706f7365642061646d696e0000006044820152606490fd5b34610202575f366003190112610202576001807f000000000000000000000000000000000000000000000000000000000000000001906040519081835480825260208092019081955f52825f20905f5b81811061282757505050836127e7910384612bcf565b6040519281840190828552518091526040840194915f5b82811061280b5785870386f35b83516001600160a01b03168752958101959281019284016127fe565b82548452928401929185019185016127d1565b3461020257602036600319011261020257612853612cae565b5f80516020613f91833981519152546001600160a01b03919061287990831633146132bc565b166128a78160017f000000000000000000000000000000000000000000000000000000000000000001613328565b156128d45733907fbb7fff487ca65a5841fe463ac801812d2aeb3c2059f6e44b2b3cdab8ee7c3db05f80a3005b60405162461bcd60e51b815260206004820152601b60248201527a20b2323932b9b99030b63932b0b23c9034b99030903830bab9b2b960291b6044820152606490fd5b346102025760403660031901126102025760246001600160401b0360043582358281116102025761294c903690600401612c1c565b9061297b60ff7f0000000000000000000000000000000000000000000000000000000000000000541615612fb9565b6129878160e01c612ff7565b805f5260207f0000000000000000000000000000000000000000000000000000000000000000815260405f20936129bd84613795565b9283604051917f8af909ffa127c333d18602940f67f3fd57368f15b6860033919818daa60c16845f80a3855484036129f157005b60c8855111612b5c5750925f935f915f5b8151811015612b0357612a15818361353f565b519363ffffffff8686015116978815612abf57888591011694519082612a70575b509081877feb9ab17f5929fcbcb68f4adf670d54c00ab00934512a4c92938d59b43a0463ea886001959b604051908152a301959295612a02565b811115612a7d578a612a36565b60405162461bcd60e51b815260048101879052601b818c01527a14dc1b1a5d1cc81c9958d95a5d995c9cc81b9bdd081cdbdc9d1959602a1b6044820152606490fd5b60405162461bcd60e51b815260048101889052601e818d01527f53706c69747320726563656976657220776569676874206973207a65726f00006044820152606490fd5b50509050620f424091939592951611612b1b57505055005b90601b6064926040519262461bcd60e51b845260048401528201527a0a6e0d8d2e8e640eecad2ced0e8e640e6eada40e8dede40d0d2ced602b1b6044820152fd5b62461bcd60e51b81526004810183905260198782015278546f6f206d616e792073706c6974732072656365697665727360381b6044820152606490fd5b604081019081106001600160401b038211176106c457604052565b606081019081106001600160401b038211176106c457604052565b601f909101601f19168101906001600160401b038211908210176106c457604052565b6001600160401b0381116106c45760051b60200190565b6004359063ffffffff8216820361020257565b81601f8201121561020257803590612c3382612bf2565b92604092612c4384519586612bcf565b808552602091828087019260061b85010193818511610202578301915b848310612c705750505050505090565b858383031261020257855190612c8582612b99565b83358252848401359063ffffffff8216820361020257828692838a950152815201920191612c60565b600435906001600160a01b038216820361020257565b602435906001600160a01b038216820361020257565b604435906001600160a01b038216820361020257565b6001600160401b0381116106c457601f01601f191660200190565b81601f8201121561020257803590612d2282612bf2565b92604092612d3284519586612bcf565b808552602091828087019260061b85010193818511610202578301915b848310612d5f5750505050505090565b8583830312610202578386918251612d7681612b99565b853581528286013583820152815201920191612d4f565b15612d9457565b60405162461bcd60e51b815260206004820152602c60248201525f80516020613fb183398151915260448201526b19195b1959d85d1958d85b1b60a21b6064820152608490fd5b15612de257565b60405162461bcd60e51b815260206004820152602c60248201525f80516020613fb183398151915260448201526b6163746976652070726f787960a01b6064820152608490fd5b803b15612e5d575f80516020613fd183398151915280546001600160a01b0319166001600160a01b03909216919091179055565b60405162461bcd60e51b815260206004820152602d60248201527f455243313936373a206e657720696d706c656d656e746174696f6e206973206e60448201526c1bdd08184818dbdb9d1c9858dd609a1b6064820152608490fd5b3d15612ee2573d90612ec982612cf0565b91612ed76040519384612bcf565b82523d5f602084013e565b606090565b91929015612f495750815115612efb575090565b3b15612f045790565b60405162461bcd60e51b815260206004820152601d60248201527f416464726573733a2063616c6c20746f206e6f6e2d636f6e74726163740000006044820152606490fd5b825190915015612f5c5750805190602001fd5b6040519062461bcd60e51b82528160208060048301528251908160248401525f935b828510612fa0575050604492505f838284010152601f80199101168101030190fd5b8481018201518686016044015293810193859350612f7e565b15612fc057565b60405162461bcd60e51b815260206004820152600f60248201526e10dbdb9d1c9858dd081c185d5cd959608a1b6044820152606490fd5b63ffffffff165f9081527f000000000000000000000000000000000000000000000000000000000000000060010160205260409020546001600160a01b0316330361303e57565b60405162461bcd60e51b815260206004820152601b60248201527a21b0b63630b136329037b7363c90313c903a343290323934bb32b960291b6044820152606490fd5b6001600160a01b03165f9081527f000000000000000000000000000000000000000000000000000000000000000060020160205260409020546001600160801b0381169160809190911c90565b919082039182116103a957565b6040516370a0823160e01b815230600482015290602090829060249082906001600160a01b03165afa9081156108bd575f91613115575090565b906020823d821161313e575b8161312e60209383612bcf565b8101031261313b57505190565b80fd5b3d9150613121565b6001600160801b0391821690821603919082116103a957565b6001600160801b0391821690821601919082116103a957565b80546001600160801b031660809290921b6001600160801b031916919091179055565b6001600160a01b03165f9081527f00000000000000000000000000000000000000000000000000000000000000006002016020526040902080546131e59261050a9160801c613146565b565b919082018092116103a957565b906132229061321a61320584613081565b6001600160801b0392919083169083166131e7565b9116906131e7565b9060016001607f1b03821161327e5761323a906130db565b1061324157565b60405162461bcd60e51b8152602060048201526015602482015274546f6b656e2062616c616e636520746f6f206c6f7760581b6044820152606490fd5b60405162461bcd60e51b81526020600482015260166024820152750a8dee8c2d840c4c2d8c2dcc6ca40e8dede40d0d2ced60531b6044820152606490fd5b156132c357565b60405162461bcd60e51b815260206004820152601460248201527321b0b63632b9103737ba103a34329030b236b4b760611b6044820152606490fd5b8054821015613314575f5260205f2001905f90565b634e487b7160e01b5f52603260045260245ffd5b613332828261338b565b61338557805490600160401b8210156106c4578261337061335a8460018096018555846132ff565b819391549060031b91821b915f19901b19161790565b90558054925f520160205260405f2055600190565b50505f90565b6001915f520160205260405f2054151590565b9060018201905f92818452826020526040842054908115155f14613484575f19918083018181116134705782549084820191821161345c57808203613427575b50505080548015613413578201916133f683836132ff565b909182549160031b1b191690555582526020526040812055600190565b634e487b7160e01b86526031600452602486fd5b61344761343761335a93866132ff565b90549060031b1c928392866132ff565b905586528460205260408620555f80806133de565b634e487b7160e01b88526011600452602488fd5b634e487b7160e01b87526011600452602487fd5b5050505090565b1561349257565b606460405162461bcd60e51b815260206004820152602060248201527f43616c6c6572206e6f74207468652061646d696e206f722061207061757365726044820152fd5b5f527f0000000000000000000000000000000000000000000000000000000000000000602052600160405f20019060018060a01b03165f5260205260405f209081549061352c60018060801b039182841661315f565b6001600160801b03199092169116179055565b80518210156133145760209160051b010190565b905f915f9361356181613795565b7f000000000000000000000000000000000000000000000000000000000000000090838752816020526040872054036136ce57828652602090815260408087206001600160a01b038681168952600190910190925286208054919790966001600160801b0392838116929083156136bf576001600160801b031916895590805b8551821015613670579084808a818e8097966135fd878d61353f565b516020015163ffffffff1601169687828a160216620f42409004160316809a011698613629828861353f565b5151613636828b836134d6565b604051918252888d8b169260207f0f5c5377da15431a8fe400f76e6631e1d39a8c4b98de9e11d3386a181af86b8e91a460010190916135e1565b505095967fe21d6055950f21e524e22827c40bf5a9358c4a24a90b110fae69fb3011a2a9d993506136b39083896020959b940316998a825460801c011690613178565b604051948886521693a3565b50975097505050505050508190565b606460405162461bcd60e51b815260206004820152602060248201527f496e76616c69642063757272656e742073706c697473207265636569766572736044820152fd5b9190825f527f0000000000000000000000000000000000000000000000000000000000000000602052600160405f20019060018060a01b031690815f5260205260405f20928354938460801c9460018060801b031690557fda8ee04f8f2a5164dfc0b6c5ba78ebe975683b40c2500950b514e7444d3f541b6020604051868152a3565b80511561380e576040805190816020938482019483830190808752825180925280606085019301945f905b8382106137e457505050506137de925003601f198101835282612bcf565b51902090565b86518051865283015163ffffffff16858401529582019587955093840193600191909101906137c0565b505f90565b92939190935f9260649182875111613a155786519061383182612bf2565b9460409261384184519788612bcf565b808752613850601f1991612bf2565b01936020943686890137875b8a518910156138f35761386f898c61353f565b51908b8a61388e575b50600191613886918a613b5d565b98019761385c565b826138a06138a6928d5f19019061353f565b51613ea6565b156138b1578b613878565b855162461bcd60e51b815260048101889052601c60248201527b14dd1c99585b5cc81c9958d95a5d995c9cc81b9bdd081cdbdc9d195960221b60448201528890fd5b989450945094955096505063ffffffff908142169686158015613a04575b6139fa576001600160801b039091169382919061392f888888613a56565b6139ee578316888111806139e5575b6139bc575b508216878111806139b3575b613990575b50955b86810160011c908082146139865761397182888888613ada565b1561397f5750955b95613957565b9650613979565b5016945092505050565b909661399e82888888613ada565b156139ac5750955b5f613954565b96506139a6565b5081811061394f565b90976139ca82898989613ada565b156139da57508290975b90613943565b9791508290916139d4565b5083811061393e565b50505093509350505090565b5091945050505050565b506001600160801b03821615613911565b60405162461bcd60e51b815260206004820152601a602482015279546f6f206d616e792073747265616d732072656365697665727360301b60448201528390fd5b905f90815b848310613a6c575050505050600190565b60208360051b8301810151809163ffffffff9283911c16908281169282811115613acd579081849392613aa89511613ac5575b5060401c613ec8565b0191838311613abc576001905b0191613a5b565b50505050505f90565b92505f613a9f565b5050505091600190613ab5565b91925f91825b858410613af257505050505050600190565b60208460051b8301810151809163ffffffff9182911c169082169181861115613b515790829186613b2b9411613b49575b60401c613ec8565b0192848411613b3f576001905b0192613ae0565b5050505050505f90565b869250613b23565b50505092600190613b38565b916020019182519260018060a01b03807f000000000000000000000000000000000000000000000000000000000000000016908560401c1610613c62575163ffffffff90819081602082901c81164282168115613c5a575b8282169364ffffffffff96879116850116938085148015613c51575b613c47575b8111613c3f575b508185841611613c36575b168093821610613c2f575b1693848214613c2757600194602091821c600160201b600160c01b0316909217901b1790613c2290839061353f565b520190565b505050905090565b5081613bf3565b91508091613be8565b90505f613bdd565b9293508392613bd6565b50838511613bd1565b905080613bb5565b60405162461bcd60e51b815260206004820152602160248201527f53747265616d20726563656976657220616d7450657253656320746f6f206c6f6044820152607760f81b6064820152608490fd5b80511561380e576040805190816020938482019483830190808752825180925280606085019301945f905b838210613cfa57505050506137de925003601f198101835282612bcf565b86518051865283015185840152958201958795509384019360019190910190613cdc565b600160ff1b81146103a9575f0390565b60209094939294015163ffffffff928184809360201c16938415613dc5575b508284169064ffffffffff93849116820116968188148015613dba575b613db0575b5084821611613da8575b508281861611613d9f575b8282168091861610613d97575b50921690565b93505f613d91565b93508193613d84565b91505f613d79565b851696505f613d6f565b508581168811613d6a565b93505f613d4d565b9163ffffffff809116911691818314613e015783613df66131e5956004613dfb94019586613e07565b613d1e565b91613e07565b50505050565b9063ffffffff90817f000000000000000000000000000000000000000000000000000000000000000016928315613e9257633b9aca009083613e528388888706020595869516613f16565b165f5260205260405f2094855494020503600f0b82600f0b0160018060801b0316918260018060801b03198093600f0b92161760801d0160801b16179055565b634e487b7160e01b5f52601260045260245ffd5b8051825190818103613ec15750506020809101519101511190565b1092915050565b9063ffffffff7f00000000000000000000000000000000000000000000000000000000000000001692633b9aca00938085858286060204958086838606020495820204930491040302010390565b63ffffffff90817f0000000000000000000000000000000000000000000000000000000000000000168015613e925782600192160401169056fe7e644d79422f17c01e4894b5f4f588d331ebfa28653d42ae832dc59e38c9798f4910fdfa16fed3260ed0e7147f7cc6da11a60208b5b9406d12a635614ffd9143b53127684a568b3173ae13b9f8a6016e243e63b6e8ee1178d6a717850b5d610346756e6374696f6e206d7573742062652063616c6c6564207468726f75676820360894a13ba1a3210667c828492db98dca3e2076cc3735a920a3ca505d382bbcbc7cd75a20ee27fd9adebab32041f755214dbc6bffa90cc0225b39da2e5c2d3b45524331393637557067726164653a206e657720696d706c656d656e74617469a26469706673582212203b4bd41f2a9bc5a4c7de14c81e680ecf15e7df93dea22ece6504d022eaa42fbb64736f6c63430008140033","linkReferences":{}},"methodIdentifiers":{"AMT_PER_SEC_EXTRA_DECIMALS()":"5429f175","AMT_PER_SEC_MULTIPLIER()":"387d2a2f","DRIVER_ID_OFFSET()":"8e48a7e5","MAX_SPLITS_RECEIVERS()":"f11d5139","MAX_STREAMS_RECEIVERS()":"ff27d019","MAX_TOTAL_BALANCE()":"444e249f","TOTAL_SPLITS_WEIGHT()":"a69aff3c","acceptAdmin()":"0e18b681","admin()":"f851a440","allPausers()":"09d48a94","balances(address)":"27e235e3","collect(uint256,address)":"8d3c100a","collectable(uint256,address)":"1ec026c8","cycleSecs()":"631d669c","driverAddress(uint32)":"7e5b5a83","emitAccountMetadata(uint256,(bytes32,bytes)[])":"69610257","forceCollect(uint256,address,address,address,address)":"be1ca322","give(uint256,uint256,address,uint128)":"d9e01070","grantPauser(address)":"09c1d95f","implementation()":"5c60da1b","isPaused()":"b187bd26","isPauser(address)":"46fbf68e","minAmtPerSec()":"c82051dd","nextDriverId()":"98aba1cf","pause()":"8456cb59","proposeNewAdmin(address)":"a6376746","proposedAdmin()":"32f751ec","proxiableUUID()":"52d1902d","receiveStreams(uint256,address,uint32)":"302dea39","registerDriver(address)":"f0f4fd5e","renounceAdmin()":"8bad0c0a","revokePauser(address)":"7fe76df0","setSplits(uint256,(uint256,uint32)[])":"02cfc753","setStreams(uint256,address,(uint256,uint256)[],int128,(uint256,uint256)[],uint32,uint32)":"b3a3a573","split(uint256,address,(uint256,uint32)[])":"0ea2063a","splittable(uint256,address)":"f98e7e1d","streamsState(uint256,address)":"879db483","unpause()":"3f4ba83a","updateDriverAddress(uint32,address)":"aeefca1c","upgradeTo(address)":"3659cfe6","upgradeToAndCall(address,bytes)":"4f1ef286","withdraw(address,address,uint256)":"d9caed12"},"id":49}