{"abi":[{"type":"constructor","inputs":[{"name":"cycleSecs_","type":"uint32","internalType":"uint32"}],"stateMutability":"nonpayable"},{"type":"function","name":"AMT_PER_SEC_EXTRA_DECIMALS","inputs":[],"outputs":[{"name":"","type":"uint8","internalType":"uint8"}],"stateMutability":"view"},{"type":"function","name":"AMT_PER_SEC_MULTIPLIER","inputs":[],"outputs":[{"name":"","type":"uint160","internalType":"uint160"}],"stateMutability":"view"},{"type":"function","name":"DRIVER_ID_OFFSET","inputs":[],"outputs":[{"name":"","type":"uint8","internalType":"uint8"}],"stateMutability":"view"},{"type":"function","name":"MAX_SPLITS_RECEIVERS","inputs":[],"outputs":[{"name":"","type":"uint256","internalType":"uint256"}],"stateMutability":"view"},{"type":"function","name":"MAX_STREAMS_RECEIVERS","inputs":[],"outputs":[{"name":"","type":"uint256","internalType":"uint256"}],"stateMutability":"view"},{"type":"function","name":"MAX_TOTAL_BALANCE","inputs":[],"outputs":[{"name":"","type":"uint128","internalType":"uint128"}],"stateMutability":"view"},{"type":"function","name":"TOTAL_SPLITS_WEIGHT","inputs":[],"outputs":[{"name":"","type":"uint32","internalType":"uint32"}],"stateMutability":"view"},{"type":"function","name":"acceptAdmin","inputs":[],"outputs":[],"stateMutability":"nonpayable"},{"type":"function","name":"admin","inputs":[],"outputs":[{"name":"","type":"address","internalType":"address"}],"stateMutability":"view"},{"type":"function","name":"allPausers","inputs":[],"outputs":[{"name":"pausersList","type":"address[]","internalType":"address[]"}],"stateMutability":"view"},{"type":"function","name":"balanceAt","inputs":[{"name":"accountId","type":"uint256","internalType":"uint256"},{"name":"erc20","type":"address","internalType":"contract IERC20"},{"name":"currReceivers","type":"tuple[]","internalType":"struct StreamReceiver[]","components":[{"name":"accountId","type":"uint256","internalType":"uint256"},{"name":"config","type":"uint256","internalType":"StreamConfig"}]},{"name":"timestamp","type":"uint32","internalType":"uint32"}],"outputs":[{"name":"balance","type":"uint128","internalType":"uint128"}],"stateMutability":"view"},{"type":"function","name":"balances","inputs":[{"name":"erc20","type":"address","internalType":"contract IERC20"}],"outputs":[{"name":"streamsBalance","type":"uint128","internalType":"uint128"},{"name":"splitsBalance","type":"uint128","internalType":"uint128"}],"stateMutability":"view"},{"type":"function","name":"collect","inputs":[{"name":"accountId","type":"uint256","internalType":"uint256"},{"name":"erc20","type":"address","internalType":"contract IERC20"}],"outputs":[{"name":"amt","type":"uint128","internalType":"uint128"}],"stateMutability":"nonpayable"},{"type":"function","name":"collectable","inputs":[{"name":"accountId","type":"uint256","internalType":"uint256"},{"name":"erc20","type":"address","internalType":"contract IERC20"}],"outputs":[{"name":"amt","type":"uint128","internalType":"uint128"}],"stateMutability":"view"},{"type":"function","name":"cycleSecs","inputs":[],"outputs":[{"name":"","type":"uint32","internalType":"uint32"}],"stateMutability":"view"},{"type":"function","name":"driverAddress","inputs":[{"name":"driverId","type":"uint32","internalType":"uint32"}],"outputs":[{"name":"driverAddr","type":"address","internalType":"address"}],"stateMutability":"view"},{"type":"function","name":"emitAccountMetadata","inputs":[{"name":"accountId","type":"uint256","internalType":"uint256"},{"name":"accountMetadata","type":"tuple[]","internalType":"struct AccountMetadata[]","components":[{"name":"key","type":"bytes32","internalType":"bytes32"},{"name":"value","type":"bytes","internalType":"bytes"}]}],"outputs":[],"stateMutability":"nonpayable"},{"type":"function","name":"forceCollect","inputs":[{"name":"accountId","type":"uint256","internalType":"uint256"},{"name":"erc20","type":"address","internalType":"contract IERC20"},{"name":"yieldManager","type":"address","internalType":"address"},{"name":"strategy","type":"address","internalType":"address"},{"name":"transferTo","type":"address","internalType":"address"}],"outputs":[{"name":"amt","type":"uint128","internalType":"uint128"}],"stateMutability":"nonpayable"},{"type":"function","name":"give","inputs":[{"name":"accountId","type":"uint256","internalType":"uint256"},{"name":"receiver","type":"uint256","internalType":"uint256"},{"name":"erc20","type":"address","internalType":"contract IERC20"},{"name":"amt","type":"uint128","internalType":"uint128"}],"outputs":[],"stateMutability":"nonpayable"},{"type":"function","name":"grantPauser","inputs":[{"name":"pauser","type":"address","internalType":"address"}],"outputs":[],"stateMutability":"nonpayable"},{"type":"function","name":"hashSplits","inputs":[{"name":"receivers","type":"tuple[]","internalType":"struct SplitsReceiver[]","components":[{"name":"accountId","type":"uint256","internalType":"uint256"},{"name":"weight","type":"uint32","internalType":"uint32"}]}],"outputs":[{"name":"receiversHash","type":"bytes32","internalType":"bytes32"}],"stateMutability":"pure"},{"type":"function","name":"hashStreams","inputs":[{"name":"receivers","type":"tuple[]","internalType":"struct StreamReceiver[]","components":[{"name":"accountId","type":"uint256","internalType":"uint256"},{"name":"config","type":"uint256","internalType":"StreamConfig"}]}],"outputs":[{"name":"streamsHash","type":"bytes32","internalType":"bytes32"}],"stateMutability":"pure"},{"type":"function","name":"hashStreamsHistory","inputs":[{"name":"oldStreamsHistoryHash","type":"bytes32","internalType":"bytes32"},{"name":"streamsHash","type":"bytes32","internalType":"bytes32"},{"name":"updateTime","type":"uint32","internalType":"uint32"},{"name":"maxEnd","type":"uint32","internalType":"uint32"}],"outputs":[{"name":"streamsHistoryHash","type":"bytes32","internalType":"bytes32"}],"stateMutability":"pure"},{"type":"function","name":"implementation","inputs":[],"outputs":[{"name":"","type":"address","internalType":"address"}],"stateMutability":"view"},{"type":"function","name":"isPaused","inputs":[],"outputs":[{"name":"","type":"bool","internalType":"bool"}],"stateMutability":"view"},{"type":"function","name":"isPauser","inputs":[{"name":"pauser","type":"address","internalType":"address"}],"outputs":[{"name":"isAddrPauser","type":"bool","internalType":"bool"}],"stateMutability":"view"},{"type":"function","name":"minAmtPerSec","inputs":[],"outputs":[{"name":"","type":"uint160","internalType":"uint160"}],"stateMutability":"view"},{"type":"function","name":"nextDriverId","inputs":[],"outputs":[{"name":"driverId","type":"uint32","internalType":"uint32"}],"stateMutability":"view"},{"type":"function","name":"pause","inputs":[],"outputs":[],"stateMutability":"nonpayable"},{"type":"function","name":"proposeNewAdmin","inputs":[{"name":"newAdmin","type":"address","internalType":"address"}],"outputs":[],"stateMutability":"nonpayable"},{"type":"function","name":"proposedAdmin","inputs":[],"outputs":[{"name":"","type":"address","internalType":"address"}],"stateMutability":"view"},{"type":"function","name":"proxiableUUID","inputs":[],"outputs":[{"name":"","type":"bytes32","internalType":"bytes32"}],"stateMutability":"view"},{"type":"function","name":"receivableStreamsCycles","inputs":[{"name":"accountId","type":"uint256","internalType":"uint256"},{"name":"erc20","type":"address","internalType":"contract IERC20"}],"outputs":[{"name":"cycles","type":"uint32","internalType":"uint32"}],"stateMutability":"view"},{"type":"function","name":"receiveStreams","inputs":[{"name":"accountId","type":"uint256","internalType":"uint256"},{"name":"erc20","type":"address","internalType":"contract IERC20"},{"name":"maxCycles","type":"uint32","internalType":"uint32"}],"outputs":[{"name":"receivedAmt","type":"uint128","internalType":"uint128"}],"stateMutability":"nonpayable"},{"type":"function","name":"receiveStreamsResult","inputs":[{"name":"accountId","type":"uint256","internalType":"uint256"},{"name":"erc20","type":"address","internalType":"contract IERC20"},{"name":"maxCycles","type":"uint32","internalType":"uint32"}],"outputs":[{"name":"receivableAmt","type":"uint128","internalType":"uint128"}],"stateMutability":"view"},{"type":"function","name":"registerDriver","inputs":[{"name":"driverAddr","type":"address","internalType":"address"}],"outputs":[{"name":"driverId","type":"uint32","internalType":"uint32"}],"stateMutability":"nonpayable"},{"type":"function","name":"renounceAdmin","inputs":[],"outputs":[],"stateMutability":"nonpayable"},{"type":"function","name":"revokePauser","inputs":[{"name":"pauser","type":"address","internalType":"address"}],"outputs":[],"stateMutability":"nonpayable"},{"type":"function","name":"setSplits","inputs":[{"name":"accountId","type":"uint256","internalType":"uint256"},{"name":"receivers","type":"tuple[]","internalType":"struct SplitsReceiver[]","components":[{"name":"accountId","type":"uint256","internalType":"uint256"},{"name":"weight","type":"uint32","internalType":"uint32"}]}],"outputs":[],"stateMutability":"nonpayable"},{"type":"function","name":"setStreams","inputs":[{"name":"accountId","type":"uint256","internalType":"uint256"},{"name":"erc20","type":"address","internalType":"contract IERC20"},{"name":"currReceivers","type":"tuple[]","internalType":"struct StreamReceiver[]","components":[{"name":"accountId","type":"uint256","internalType":"uint256"},{"name":"config","type":"uint256","internalType":"StreamConfig"}]},{"name":"balanceDelta","type":"int128","internalType":"int128"},{"name":"newReceivers","type":"tuple[]","internalType":"struct StreamReceiver[]","components":[{"name":"accountId","type":"uint256","internalType":"uint256"},{"name":"config","type":"uint256","internalType":"StreamConfig"}]},{"name":"maxEndHint1","type":"uint32","internalType":"uint32"},{"name":"maxEndHint2","type":"uint32","internalType":"uint32"}],"outputs":[{"name":"realBalanceDelta","type":"int128","internalType":"int128"}],"stateMutability":"nonpayable"},{"type":"function","name":"split","inputs":[{"name":"accountId","type":"uint256","internalType":"uint256"},{"name":"erc20","type":"address","internalType":"contract IERC20"},{"name":"currReceivers","type":"tuple[]","internalType":"struct SplitsReceiver[]","components":[{"name":"accountId","type":"uint256","internalType":"uint256"},{"name":"weight","type":"uint32","internalType":"uint32"}]}],"outputs":[{"name":"collectableAmt","type":"uint128","internalType":"uint128"},{"name":"splitAmt","type":"uint128","internalType":"uint128"}],"stateMutability":"nonpayable"},{"type":"function","name":"splitResult","inputs":[{"name":"accountId","type":"uint256","internalType":"uint256"},{"name":"currReceivers","type":"tuple[]","internalType":"struct SplitsReceiver[]","components":[{"name":"accountId","type":"uint256","internalType":"uint256"},{"name":"weight","type":"uint32","internalType":"uint32"}]},{"name":"amount","type":"uint128","internalType":"uint128"}],"outputs":[{"name":"collectableAmt","type":"uint128","internalType":"uint128"},{"name":"splitAmt","type":"uint128","internalType":"uint128"}],"stateMutability":"view"},{"type":"function","name":"splitsHash","inputs":[{"name":"accountId","type":"uint256","internalType":"uint256"}],"outputs":[{"name":"currSplitsHash","type":"bytes32","internalType":"bytes32"}],"stateMutability":"view"},{"type":"function","name":"splittable","inputs":[{"name":"accountId","type":"uint256","internalType":"uint256"},{"name":"erc20","type":"address","internalType":"contract IERC20"}],"outputs":[{"name":"amt","type":"uint128","internalType":"uint128"}],"stateMutability":"view"},{"type":"function","name":"squeezeStreams","inputs":[{"name":"accountId","type":"uint256","internalType":"uint256"},{"name":"erc20","type":"address","internalType":"contract IERC20"},{"name":"senderId","type":"uint256","internalType":"uint256"},{"name":"historyHash","type":"bytes32","internalType":"bytes32"},{"name":"streamsHistory","type":"tuple[]","internalType":"struct StreamsHistory[]","components":[{"name":"streamsHash","type":"bytes32","internalType":"bytes32"},{"name":"receivers","type":"tuple[]","internalType":"struct StreamReceiver[]","components":[{"name":"accountId","type":"uint256","internalType":"uint256"},{"name":"config","type":"uint256","internalType":"StreamConfig"}]},{"name":"updateTime","type":"uint32","internalType":"uint32"},{"name":"maxEnd","type":"uint32","internalType":"uint32"}]}],"outputs":[{"name":"amt","type":"uint128","internalType":"uint128"}],"stateMutability":"nonpayable"},{"type":"function","name":"squeezeStreamsResult","inputs":[{"name":"accountId","type":"uint256","internalType":"uint256"},{"name":"erc20","type":"address","internalType":"contract IERC20"},{"name":"senderId","type":"uint256","internalType":"uint256"},{"name":"historyHash","type":"bytes32","internalType":"bytes32"},{"name":"streamsHistory","type":"tuple[]","internalType":"struct StreamsHistory[]","components":[{"name":"streamsHash","type":"bytes32","internalType":"bytes32"},{"name":"receivers","type":"tuple[]","internalType":"struct StreamReceiver[]","components":[{"name":"accountId","type":"uint256","internalType":"uint256"},{"name":"config","type":"uint256","internalType":"StreamConfig"}]},{"name":"updateTime","type":"uint32","internalType":"uint32"},{"name":"maxEnd","type":"uint32","internalType":"uint32"}]}],"outputs":[{"name":"amt","type":"uint128","internalType":"uint128"}],"stateMutability":"view"},{"type":"function","name":"streamsState","inputs":[{"name":"accountId","type":"uint256","internalType":"uint256"},{"name":"erc20","type":"address","internalType":"contract IERC20"}],"outputs":[{"name":"streamsHash","type":"bytes32","internalType":"bytes32"},{"name":"streamsHistoryHash","type":"bytes32","internalType":"bytes32"},{"name":"updateTime","type":"uint32","internalType":"uint32"},{"name":"balance","type":"uint128","internalType":"uint128"},{"name":"maxEnd","type":"uint32","internalType":"uint32"}],"stateMutability":"view"},{"type":"function","name":"unpause","inputs":[],"outputs":[],"stateMutability":"nonpayable"},{"type":"function","name":"updateDriverAddress","inputs":[{"name":"driverId","type":"uint32","internalType":"uint32"},{"name":"newDriverAddr","type":"address","internalType":"address"}],"outputs":[],"stateMutability":"nonpayable"},{"type":"function","name":"upgradeTo","inputs":[{"name":"newImplementation","type":"address","internalType":"address"}],"outputs":[],"stateMutability":"nonpayable"},{"type":"function","name":"upgradeToAndCall","inputs":[{"name":"newImplementation","type":"address","internalType":"address"},{"name":"data","type":"bytes","internalType":"bytes"}],"outputs":[],"stateMutability":"payable"},{"type":"function","name":"withdraw","inputs":[{"name":"erc20","type":"address","internalType":"contract IERC20"},{"name":"receiver","type":"address","internalType":"address"},{"name":"amt","type":"uint256","internalType":"uint256"}],"outputs":[],"stateMutability":"nonpayable"},{"type":"event","name":"AccountMetadataEmitted","inputs":[{"name":"accountId","type":"uint256","indexed":true,"internalType":"uint256"},{"name":"key","type":"bytes32","indexed":true,"internalType":"bytes32"},{"name":"value","type":"bytes","indexed":false,"internalType":"bytes"}],"anonymous":false},{"type":"event","name":"AdminChanged","inputs":[{"name":"previousAdmin","type":"address","indexed":false,"internalType":"address"},{"name":"newAdmin","type":"address","indexed":false,"internalType":"address"}],"anonymous":false},{"type":"event","name":"BeaconUpgraded","inputs":[{"name":"beacon","type":"address","indexed":true,"internalType":"address"}],"anonymous":false},{"type":"event","name":"Collectable","inputs":[{"name":"accountId","type":"uint256","indexed":true,"internalType":"uint256"},{"name":"erc20","type":"address","indexed":true,"internalType":"contract IERC20"},{"name":"amt","type":"uint128","indexed":false,"internalType":"uint128"}],"anonymous":false},{"type":"event","name":"Collected","inputs":[{"name":"accountId","type":"uint256","indexed":true,"internalType":"uint256"},{"name":"erc20","type":"address","indexed":true,"internalType":"contract IERC20"},{"name":"collected","type":"uint128","indexed":false,"internalType":"uint128"}],"anonymous":false},{"type":"event","name":"DriverAddressUpdated","inputs":[{"name":"driverId","type":"uint32","indexed":true,"internalType":"uint32"},{"name":"oldDriverAddr","type":"address","indexed":true,"internalType":"address"},{"name":"newDriverAddr","type":"address","indexed":true,"internalType":"address"}],"anonymous":false},{"type":"event","name":"DriverRegistered","inputs":[{"name":"driverId","type":"uint32","indexed":true,"internalType":"uint32"},{"name":"driverAddr","type":"address","indexed":true,"internalType":"address"}],"anonymous":false},{"type":"event","name":"Given","inputs":[{"name":"accountId","type":"uint256","indexed":true,"internalType":"uint256"},{"name":"receiver","type":"uint256","indexed":true,"internalType":"uint256"},{"name":"erc20","type":"address","indexed":true,"internalType":"contract IERC20"},{"name":"amt","type":"uint128","indexed":false,"internalType":"uint128"}],"anonymous":false},{"type":"event","name":"NewAdminProposed","inputs":[{"name":"currentAdmin","type":"address","indexed":true,"internalType":"address"},{"name":"newAdmin","type":"address","indexed":true,"internalType":"address"}],"anonymous":false},{"type":"event","name":"Paused","inputs":[{"name":"pauser","type":"address","indexed":true,"internalType":"address"}],"anonymous":false},{"type":"event","name":"PauserGranted","inputs":[{"name":"pauser","type":"address","indexed":true,"internalType":"address"},{"name":"admin","type":"address","indexed":true,"internalType":"address"}],"anonymous":false},{"type":"event","name":"PauserRevoked","inputs":[{"name":"pauser","type":"address","indexed":true,"internalType":"address"},{"name":"admin","type":"address","indexed":true,"internalType":"address"}],"anonymous":false},{"type":"event","name":"ReceivedStreams","inputs":[{"name":"accountId","type":"uint256","indexed":true,"internalType":"uint256"},{"name":"erc20","type":"address","indexed":true,"internalType":"contract IERC20"},{"name":"amt","type":"uint128","indexed":false,"internalType":"uint128"},{"name":"receivableCycles","type":"uint32","indexed":false,"internalType":"uint32"}],"anonymous":false},{"type":"event","name":"Split","inputs":[{"name":"accountId","type":"uint256","indexed":true,"internalType":"uint256"},{"name":"receiver","type":"uint256","indexed":true,"internalType":"uint256"},{"name":"erc20","type":"address","indexed":true,"internalType":"contract IERC20"},{"name":"amt","type":"uint128","indexed":false,"internalType":"uint128"}],"anonymous":false},{"type":"event","name":"SplitsReceiverSeen","inputs":[{"name":"receiversHash","type":"bytes32","indexed":true,"internalType":"bytes32"},{"name":"accountId","type":"uint256","indexed":true,"internalType":"uint256"},{"name":"weight","type":"uint32","indexed":false,"internalType":"uint32"}],"anonymous":false},{"type":"event","name":"SplitsSet","inputs":[{"name":"accountId","type":"uint256","indexed":true,"internalType":"uint256"},{"name":"receiversHash","type":"bytes32","indexed":true,"internalType":"bytes32"}],"anonymous":false},{"type":"event","name":"SqueezedStreams","inputs":[{"name":"accountId","type":"uint256","indexed":true,"internalType":"uint256"},{"name":"erc20","type":"address","indexed":true,"internalType":"contract IERC20"},{"name":"senderId","type":"uint256","indexed":true,"internalType":"uint256"},{"name":"amt","type":"uint128","indexed":false,"internalType":"uint128"},{"name":"streamsHistoryHashes","type":"bytes32[]","indexed":false,"internalType":"bytes32[]"}],"anonymous":false},{"type":"event","name":"StreamReceiverSeen","inputs":[{"name":"receiversHash","type":"bytes32","indexed":true,"internalType":"bytes32"},{"name":"accountId","type":"uint256","indexed":true,"internalType":"uint256"},{"name":"config","type":"uint256","indexed":false,"internalType":"StreamConfig"}],"anonymous":false},{"type":"event","name":"StreamsSet","inputs":[{"name":"accountId","type":"uint256","indexed":true,"internalType":"uint256"},{"name":"erc20","type":"address","indexed":true,"internalType":"contract IERC20"},{"name":"receiversHash","type":"bytes32","indexed":true,"internalType":"bytes32"},{"name":"streamsHistoryHash","type":"bytes32","indexed":false,"internalType":"bytes32"},{"name":"balance","type":"uint128","indexed":false,"internalType":"uint128"},{"name":"maxEnd","type":"uint32","indexed":false,"internalType":"uint32"}],"anonymous":false},{"type":"event","name":"Unpaused","inputs":[{"name":"pauser","type":"address","indexed":true,"internalType":"address"}],"anonymous":false},{"type":"event","name":"Upgraded","inputs":[{"name":"implementation","type":"address","indexed":true,"internalType":"address"}],"anonymous":false},{"type":"event","name":"Withdrawn","inputs":[{"name":"erc20","type":"address","indexed":true,"internalType":"contract IERC20"},{"name":"receiver","type":"address","indexed":true,"internalType":"address"},{"name":"amt","type":"uint256","indexed":false,"internalType":"uint256"}],"anonymous":false}],"bytecode":{"object":"0x6101a03462000417576200508e38819003601f8101601f191683016001600160401b038111848210176200041b578392829160405283396020928391810103126200041757519063ffffffff80831691828403620004175762000094620000656200042f565b601681527f656970313936372e73706c6974732e73746f7261676500000000000000000000838201526200044f565b92620000d2620000a36200042f565b601781527f656970313936372e73747265616d732e73746f72616765000000000000000000848201526200044f565b943060805262000114620000e56200042f565b601781527f656970313936372e6d616e616765642e73746f72616765000000000000000000858201526200044f565b8060a052600160ff198254161790556001821115620003d25760c0526001600160a01b0391633b9aca008201838111620003be5783165f190191838311620003be578015620003aa5783620001ad93160460e0526101009586526101209485527f656970313936372e64726970732e73746f7261676500000000000000000000006200019f6200042f565b91601583528201526200044f565b9161018092835260c051169061014091825260e051169061016091825260405193614c269586620004688739608051868181611d7701528181611e9d0152612274015260a051868181610294015281816105b20152818161073601528181610a8b01528181610c8d015281816113c40152818161141d01528181611547015281816115fc015281816117fc015281816119120152818161197c015281816119f001528181611bbc015281816120db01528181612168015281816122060152818161240a0152818161245c015281816127fb0152818161283c01528181612911015281816129fd0152612acf015260c05186818161499801528181614a5701528181614aa60152614ae2015260e051866146100152518581816102df01528181610cdc01528181610d9b0152818161185c0152818161251a0152818161263b01528181613c7301528181613d3401528181613e070152613f6901525184818161048a01528181610ac30152818161163401528181611b330152818161273701528181612b090152818161384f0152818161395c01528181613ab90152613b4401525183611cb8015251826109db0152518181816105ea015281816107a20152818161114b01528181611362015281816114540152818161159501528181611aa60152818161330801528181613395015281816134af015261352e0152f35b634e487b7160e01b5f52601260045260245ffd5b634e487b7160e01b5f52601160045260245ffd5b60405162461bcd60e51b815260048101849052601460248201527f4379636c65206c656e67746820746f6f206c6f770000000000000000000000006044820152606490fd5b5f80fd5b634e487b7160e01b5f52604160045260245ffd5b60408051919082016001600160401b038111838210176200041b57604052565b602081519101206103ff198101908111620003be579056fe6101006040526004361015610012575f80fd5b5f3560e01c806302cfc75314612a9257806309c1d95f146129b557806309d48a94146128fc5780630e18b6811461282a5780630ea2063a146127b757806319af3267146127805780631ec026c814612717578063202bbca1146126fb5780632776f94c146125eb57806327e235e3146125ca578063302dea391461244057806332f751ec146123f65780633659cfe614612250578063387d2a2f146122325780633f4ba83a1461212c578063444e249f1461210a57806346fbf68e146120b05780634f1ef28614611e2257806352d1902d14611d655780635429f17514611d4a578063577e012c14611d105780635c60da1b14611cdc578063631d669c14611c9c5780636961025714611b6457806374dd056514611b1b5780637dd3f81c14611ae05780637e5b5a8314611a815780637fe76df0146119a85780638456cb59146118d6578063879db483146118365780638bad0c0a146117a85780638cd77180146117665780638d3c100a146115d95780638e48a7e5146115be57806398aba1cf1461157c578063a6376746146114df578063a69aff3c146114c2578063aeefca1c146113ef578063b187bd26146113ae578063b3a3a57314610c01578063be1ca32214610a39578063c1a96fe214610a0a578063c82051dd146109c6578063d9caed12146107e4578063d9e01070146106d1578063f0f4fd5e14610592578063f11d513914610577578063f4e45f2d1461050c578063f851a440146104d8578063f98e7e1d1461046a578063fa93c0a2146102755763ff27d01914610256575f80fd5b34610271575f36600319011261027157602060405160648152f35b5f80fd5b34610271576102c361028636612f23565b906102bb60ff9693969594957f00000000000000000000000000000000000000000000000000000000000000005416156132be565b858585613df1565b95929096916102d182613da0565b9760018060a01b0385165f527f000000000000000000000000000000000000000000000000000000000000000060205260405f20875f5260205260405f2097845f526001890160205260405f20925f5b8581106104135750505050505061036e610339614ad7565b6001600160801b03851696633b9aca0088026001600160a01b0316601390810b5f03900b916001810163ffffffff1691614954565b604051604081018682526040602083015287518091526020606083019801905f5b8181106103fd57506020986001600160a01b038616938893507fa02343a8d410763ab5aa692d1838108ac9ceaadf187c5071fa7dbbd10d20c29592509081900390a4836103e2575b505050604051908152f35b6103f5926103f083836134a0565b61384b565b8280806103d7565b82518a526020998a01999092019160010161038f565b60019061044c8d610429838a035f1901866138b4565b51906104438461043c848b51038b6138b4565b51926138b4565b52850387613dd2565b81549060031b9063ffffffff804216831b921b191617905501610321565b3461027157604036600319011261027157610483612e75565b6004355f527f0000000000000000000000000000000000000000000000000000000000000000602052600160405f20019060018060a01b03165f52602052602060018060801b0360405f205416604051908152f35b34610271575f366003190112610271575f80516020614b51833981519152546040516001600160a01b039091168152602090f35b34610271576060366003190112610271576024356001600160401b0381116102715761053c903690600401612dd6565b6044356001600160801b03811681036102715761055b916004356138c8565b604080516001600160801b039384168152919092166020820152f35b34610271575f36600319011261027157602060405160c88152f35b34610271576020366003190112610271576105ab612e5f565b6105d960ff7f00000000000000000000000000000000000000000000000000000000000000005416156132be565b6001600160a01b0316801561068c577f00000000000000000000000000000000000000000000000000000000000000009081549163ffffffff8084169181831461067857602094600192838501169063ffffffff1916178155825f5201835260405f208260018060a01b031982541617905560405191817f749894a8ffc45e1d212322a05461004c7bc358b4d36325766b63526b1ccf8bdf5f80a38152f35b634e487b7160e01b5f52601160045260245ffd5b60405162461bcd60e51b815260206004820152601f60248201527f447269766572207265676973746572656420666f7220302061646472657373006044820152606490fd5b34610271576080366003190112610271576004356024356106f0612e8b565b6064356001600160801b038116939190848103610271577f30e2797f85108749fb58c0e7da3e229828df7b148755f420c96d565c7ab6d8329161077660209261075d60ff7f00000000000000000000000000000000000000000000000000000000000000005416156132be565b6107698660e01c6132fc565b87610789575b828761384b565b6040519586526001600160a01b031694a4005b6107938184613569565b60018060a01b0383165f5260027f00000000000000000000000000000000000000000000000000000000000000000184526107df60405f206107d983825460801c613464565b9061347d565b61076f565b34610271576060366003190112610271576107fd612e5f565b610805612e75565b9060443561083b61081583613386565b90610833610822866133e0565b6001600160801b03928316906133d3565b9116906133d3565b8111610984576108f59160018060a01b038091169316925f806040519584875280847fd1c19fbcd4551a5edfb66d43d2e337c04837afda3482b42bdf569a8fccdae5fb6020809aa3604051948786019163a9059cbb60e01b835260248701526044860152604485526108ac85612d2f565b604051946108b986612d14565b8786527f5361666545524332303a206c6f772d6c6576656c2063616c6c206661696c656488870152519082855af16108ef6131bd565b916131ec565b8051828115918215610964575b505090501561090d57005b6084906040519062461bcd60e51b82526004820152602a60248201527f5361666545524332303a204552433230206f7065726174696f6e20646964206e6044820152691bdd081cdd58d8d9595960b21b6064820152fd5b838092935001031261027157810151801515810361027157808284610902565b60405162461bcd60e51b815260206004820152601a6024820152790aed2e8d0c8e4c2eec2d840c2dadeeadce840e8dede40d0d2ced60331b6044820152606490fd5b34610271575f366003190112610271576040517f00000000000000000000000000000000000000000000000000000000000000006001600160a01b03168152602090f35b34610271576020610a23610a1d36613040565b91613c34565b50506040516001600160801b0390931683525050f35b346102715760a036600319011261027157600435610a55612e75565b610a5d612e8b565b6064356001600160a01b0381811694909291859003610271576084359280841680940361027157610ab260ff7f00000000000000000000000000000000000000000000000000000000000000005416156132be565b610abe8260e01c6132fc565b815f527f0000000000000000000000000000000000000000000000000000000000000000602052600160405f20019281861693845f5260205260405f205460801c610b08876133e0565b1015610bc757610b188684613ab2565b6001600160801b038116969087610bb7575b50501690813b15610271575f60a49281956040519889968795634b98751b60e11b875260048701526024860152604485015287606485015260848401525af18015610bac57610b7f575b602090604051908152f35b6001600160401b038211610b9857602091604052610b74565b634e487b7160e01b5f52604160045260245ffd5b6040513d5f823e3d90fd5b610bc09161351f565b8780610b2a565b60405162461bcd60e51b8152602060048201526012602482015271155cd9481b9bdc9b585b0818dbdb1b1958dd60721b6044820152606490fd5b346102715760e036600319011261027157610c1a612e75565b6001600160401b0360443581811161027157610c3a903690600401612ea1565b90606435600f0b606435036102715760843590811161027157610c61903690600401612ea1565b60805263ffffffff60a4351660a435036102715763ffffffff60c4351660c4350361027157610cb460ff7f00000000000000000000000000000000000000000000000000000000000000005416156132be565b610cc260043560e01c6132fc565b5f606435600f0b1361133c575b60018060a01b0382165f527f000000000000000000000000000000000000000000000000000000000000000060205260405f206004355f5260205260405f2091610d19838361428f565b60038301546001600160801b03610d4e63ffffffff428116908690604086901c811690602087901c16606087901c8616614220565b16600f0b9060643593825f03600f0b80606435600f0b12611334575b50608051939493610d8e9060c4359060a435906001600160801b03878901166142e9565b60018060a01b0386165f527f000000000000000000000000000000000000000000000000000000000000000060205260405f20935f955f60a0525b8351871080604051610dda81612d14565b5f81525f602082015291611321575b84876080515160a051109384604051610e0181612d14565b5f81525f60208201529061130c575b8480611305575b6112b5575b8b85806112ae575b15610f1557610ea563ffffffff95610ea08794610eab9487515f52602052610e73610e6360405f20998842169089808260401c169160201c168b614818565b9290948842169189421690614818565b9097602060018060a01b0391015160401c1691610e9a610e9284614808565b8a878d614954565b89614954565b614a9d565b92614a9d565b16928391161180610f02575b610eeb575b50505b610ee1575b978798610ed3575b9750610dc9565b600160a0510160a052610ecc565b9660010196610ec4565b6003019063ffffffff198254161790558b80610ebc565b508163ffffffff60038301541611610eb7565b50925090508215610f7c57610f77915080515f5289602052610f7160405f2091610f5663ffffffff42168c63ffffffff808260401c169160201c1684614818565b6020909201519192909160401c6001600160a01b0316614808565b92614954565b610ebf565b5082156110185780515f52886020526003610fca60405f2092610ea0610fb063ffffffff42168b63ffffffff421685614818565b9092602060018060a01b0391015160401c16908387614954565b91019081549063ffffffff82168015908115611008575b50610fef575b505050610ebf565b63ffffffff169063ffffffff19161790558b8080610fe7565b905063ffffffff8216108f610fe1565b838b8760028f898d6003830154600160601b600160e01b0388840160601b1663ffffffff60201b4260201b16600160201b600160e01b031983161763ffffffff60401b8860401b1617176003850155835491821515908161127f575b501561120e57506003830180546001600160e01b0316600160e11b1790555b63ffffffff6110a3608051614752565b9586936110b48284421687876147bf565b865560408051948552908a016001600160801b031660208501529116908201526001600160a01b03861690600435907f8b23331305d892ba8ae0d5ad747051e5d007302b8b0eba8f45ebdc5f82962f6d90606090a401805482036111ae575b505090600f0b5f811261112b57602090604051908152f35b60016001607f1b03198114610678576001600160a01b039091165f9081527f000000000000000000000000000000000000000000000000000000000000000060020160209081526040822080549193929091906001600160801b039061119890859003821682841661344b565b6001600160801b03199092169116179055610b74565b8190555f5b608051805182101561120457906111cc816001936138b4565b51837f68f8694c2f9c9f45540d88ae439aaf8a7c84d05392f23a12e2ebdc75ed31ad1e6020808451940151604051908152a3016111b3565b5050508280611113565b63ffffffff81164260201b63ffffffff60201b16908117604088901b63ffffffff60401b16908117858b0160601b600160601b600160e01b0316908117600160201b600160e01b031994909416909217171760e090811c600101901b6001600160e01b031916176003840155611093565b611292915060201c63ffffffff16614a9d565b63ffffffff806112a3814216614a9d565b169116141589611074565b5086610e24565b81518151148015906112de575b15610e1c57945092506112d58484614a2d565b92831594610e1c565b5060208281015190820151604090811c6001600160a01b039081169290911c1614156112c2565b5085610e17565b5061131b60a0516080516138b4565b51610e10565b905061132d88866138b4565b5190610de9565b945086610d6a565b6001600160801b0360643581166113538185613569565b60018060a01b0384165f5260027f00000000000000000000000000000000000000000000000000000000000000000160205260405f2091611398835492828416613464565b6001600160801b03199092169116179055610ccf565b34610271575f36600319011261027157602060ff7f000000000000000000000000000000000000000000000000000000000000000054166040519015158152f35b3461027157604036600319011261027157611408612db2565b63ffffffff611415612e75565b9161144460ff7f00000000000000000000000000000000000000000000000000000000000000005416156132be565b61144d816132fc565b165f8181527f00000000000000000000000000000000000000000000000000000000000000006001016020526040812080546001600160a01b0319166001600160a01b0390941693841790553391907f5a2904d4b2f1a05120ab193be9a140a7ad8d310e3bb91af232d47f2f55fa38829080a4005b34610271575f366003190112610271576020604051620f42408152f35b34610271576020366003190112610271576114f8612e5f565b5f80516020614b51833981519152546001600160a01b03919061151e9083163314613631565b1680337fed2d93e7985747cd1a4a093c2cc3bb73d0f177b81bdfd26020e8f20a97e8112e5f80a37f000000000000000000000000000000000000000000000000000000000000000060030180546001600160a01b0319169091179055005b34610271575f36600319011261027157602063ffffffff7f00000000000000000000000000000000000000000000000000000000000000005416604051908152f35b34610271575f36600319011261027157602060405160e08152f35b34610271576040366003190112610271576004356115f5612e75565b61162360ff7f00000000000000000000000000000000000000000000000000000000000000005416156132be565b61162f8260e01c6132fc565b815f527f0000000000000000000000000000000000000000000000000000000000000000602052600160405f200160018060a01b0382165f5260205260405f205460801c806116b2575b5061168681602093613ab2565b6001600160801b0381169190826116a2575b5050604051908152f35b6116ab9161351f565b8280611698565b6116dc6116be83613386565b91906116c9856133e0565b926001600160801b039081169116613512565b50106116e85782611679565b60405162461bcd60e51b815260206004820152604a60248201527f496e73756666696369656e74207661756c742062616c616e63652e205573652060448201527f666f726365436f6c6c65637420746f2077697468647261772066726f6d20596960648201526932b63226b0b730b3b2b960b11b608482015260a490fd5b34610271576020366003190112610271576004356001600160401b038111610271576117a061179b6020923690600401612ea1565b614752565b604051908152f35b34610271575f366003190112610271575f80516020614b5183398151915280545f80516020614b11833981519152906040906001600160a01b03166117ee338214613631565b81519081525f6020820152a17f000000000000000000000000000000000000000000000000000000000000000060030180546001600160a01b03199081169091558154169055005b34610271576040366003190112610271576001600160a01b03611857612e75565b165f527f000000000000000000000000000000000000000000000000000000000000000060205260405f206004355f5260205260a060405f206002810154906003815491015490604051928352602083015263ffffffff90818160201c16604084015260018060801b038160601c16606084015260401c166080820152f35b34610271575f366003190112610271575f80516020614b51833981519152546001600160a01b031633148015611970575b61191090613800565b7f00000000000000000000000000000000000000000000000000000000000000006001815461194260ff8216156132be565b60ff1916179055337f62e78cea01bee320cd4e420270b5ea74000d11b0c9f74754ebdbfc544b05a2585f80a2005b506119106119a13360017f000000000000000000000000000000000000000000000000000000000000000001613700565b9050611907565b34610271576020366003190112610271576119c1612e5f565b5f80516020614b51833981519152546001600160a01b0391906119e79083163314613631565b16611a158160017f000000000000000000000000000000000000000000000000000000000000000001613713565b15611a425733907ffd55549bcbafb9531a61db3cfb88d1cca64e215b12def56e6ea913fe1ac91fd25f80a3005b60405162461bcd60e51b815260206004820152601760248201527620b2323932b9b99034b9903737ba1030903830bab9b2b960491b6044820152606490fd5b346102715760203660031901126102715763ffffffff611a9f612db2565b165f5260017f000000000000000000000000000000000000000000000000000000000000000001602052602060018060a01b0360405f205416604051908152f35b346102715760803660031901126102715760443563ffffffff81168103610271576117a0602091611b0f612d9f565b906024356004356147bf565b34610271576020366003190112610271576004355f527f0000000000000000000000000000000000000000000000000000000000000000602052602060405f2054604051908152f35b3461027157604036600319011261027157602480356001600160401b03600435818311610271573660238401121561027157826004013582811161027157600593368683871b8301011161027157611be360ff9592957f00000000000000000000000000000000000000000000000000000000000000005416156132be565b611bef8360e01c6132fc565b3681900360621901915f5b868110611c0357005b8781831b84010135848112156102715783019060448083013560421984360301811215610271578301908a8201359189831161027157018136038113610271577f104963f2a5dc192f8154d2714d24eff1983117445036fb4dc408713d73b36aa58260408a938e6001988351948593816020808752860152858501375f838901850152013595601f01601f19168101030190a301611bfa565b34610271575f36600319011261027157602060405163ffffffff7f0000000000000000000000000000000000000000000000000000000000000000168152f35b34610271575f366003190112610271575f80516020614b91833981519152546040516001600160a01b039091168152602090f35b34610271576020366003190112610271576004356001600160401b038111610271576117a0611d456020923690600401612dd6565b613bb6565b34610271575f36600319011261027157602060405160098152f35b34610271575f366003190112610271577f00000000000000000000000000000000000000000000000000000000000000006001600160a01b03163003611dbc5760206040515f80516020614b918339815191528152f35b60405162461bcd60e51b815260206004820152603860248201527f555550535570677261646561626c653a206d757374206e6f742062652063616c6044820152771b1959081d1a1c9bdd59da0819195b1959d85d1958d85b1b60421b6064820152608490fd5b604036600319011261027157611e36612e5f565b602435906001600160401b0382116102715736602383011215610271578160040135611e6181613077565b92611e6f6040519485612d65565b81845260209182850191366024838301011161027157815f9260248693018537860101526001600160a01b037f0000000000000000000000000000000000000000000000000000000000000000811690611ecb30831415613092565b611ee75f80516020614b918339815191529282845416146130e0565b611f02815f80516020614b5183398151915254163314613631565b5f80516020614b318339815191525460ff1615611f295750505050611f27915061312e565b005b84939416906040516352d1902d60e01b81528581600481865afa5f9181612081575b50611f995760405162461bcd60e51b815260048101879052602e60248201525f80516020614bd183398151915260448201526d6f6e206973206e6f74205555505360901b6064820152608490fd5b0361202a57611fa78361312e565b5f80516020614bb18339815191525f80a2835115801590612022575b611fc957005b5f8091611f27957f416464726573733a206c6f772d6c6576656c2064656c65676174652063616c6c60405196611ffe88612d4a565b60278852870152660819985a5b195960ca1b60408701525190845af46108ef6131bd565b506001611fc3565b60405162461bcd60e51b815260048101859052602960248201527f45524331393637557067726164653a20756e737570706f727465642070726f786044820152681a58589b195555525160ba1b6064820152608490fd5b9091508681813d83116120a9575b6120998183612d65565b8101031261027157519088611f4b565b503d61208f565b346102715760203660031901126102715760206121006001600160a01b036120d6612e5f565b1660017f000000000000000000000000000000000000000000000000000000000000000001613700565b6040519015158152f35b34610271575f3660031901126102715760405160016001607f1b038152602090f35b34610271575f366003190112610271575f80516020614b51833981519152546001600160a01b0316331480156121fa575b61216690613800565b7f0000000000000000000000000000000000000000000000000000000000000000805460ff8116156121bf5760ff19169055337f5db9ee0a495bf2e6ff9c91a7834c1ba4fdd244a5e8aa4e537bd38aeae4b073aa5f80a2005b60405162461bcd60e51b815260206004820152601360248201527210dbdb9d1c9858dd081b9bdd081c185d5cd959606a1b6044820152606490fd5b5061216661222b3360017f000000000000000000000000000000000000000000000000000000000000000001613700565b905061215d565b34610271575f366003190112610271576020604051633b9aca008152f35b34610271576020806003193601126102715761226a612e5f565b6001600160a01b037f0000000000000000000000000000000000000000000000000000000000000000811692906122a330851415613092565b6122bf5f80516020614b918339815191529482865416146130e0565b6122da815f80516020614b5183398151915254163314613631565b60405193828501916001600160401b03831186841017610b9857826040525f865260ff5f80516020614b3183398151915254165f146123215750505050611f27915061312e565b84939416906040516352d1902d60e01b81528581600481865afa5f91816123c7575b506123915760405162461bcd60e51b815260048101879052602e60248201525f80516020614bd183398151915260448201526d6f6e206973206e6f74205555505360901b6064820152608490fd5b0361202a5761239f8361312e565b5f80516020614bb18339815191525f80a28351158015906123c057611fc957005b505f611fc3565b9091508681813d83116123ef575b6123df8183612d65565b8101031261027157519088612343565b503d6123d5565b34610271575f3660031901126102715760037f000000000000000000000000000000000000000000000000000000000000000001546040516001600160a01b039091168152602090f35b346102715761248a61245136613040565b61248360ff949293947f00000000000000000000000000000000000000000000000000000000000000005416156132be565b8284613c34565b959392949163ffffffff809216968783831603612504575b5050604080516001600160801b0385168082529690921660208381019190915296506001600160a01b0383169185917f6c91d10ec47151439d4dc2df77dbc3a78e8502b9176aeb4d6ab0b1823d95d34c91a3836103e257505050604051908152f35b91959093929460018060a01b0386165f526020937f0000000000000000000000000000000000000000000000000000000000000000855260405f20825f528552600460405f20600381018b63ffffffff1982541617905501955b8881168a81101561257f575f9081528787526040812055600101881661255e565b5050949095936020989793929783600f0b61259c575b50506124a2565b5f525260405f209081549081600f0b0160018060801b03169060018060801b03191617905586808080612595565b346102715760203660031901126102715761055b6125e6612e5f565b613386565b3461027157608036600319011261027157612604612e75565b6044356001600160401b03811161027157612623903690600401612ea1565b61262b612d9f565b9160018060a01b03165f526020907f0000000000000000000000000000000000000000000000000000000000000000825260405f206004355f52825260405f209260038401549163ffffffff928381861c1680858516106126b8576126956126af9596978461428f565b6001600160801b0395604083901c169160601c8616614220565b60405191168152f35b6064866040519062461bcd60e51b825280600483015260248201527f54696d657374616d70206265666f726520746865206c617374207570646174656044820152fd5b34610271576020610a2361270e36612f23565b93929092613df1565b3461027157604036600319011261027157612730612e75565b6004355f527f0000000000000000000000000000000000000000000000000000000000000000602052600160405f20019060018060a01b03165f52602052602060405f205460801c604051908152f35b3461027157604036600319011261027157602063ffffffff6127ab6127a3612e75565b600435613d27565b91906040519203168152f35b34610271576060366003190112610271576127d0612e75565b604435906001600160401b038211610271576127f361055b923690600401612dd6565b9061282260ff7f00000000000000000000000000000000000000000000000000000000000000005416156132be565b600435613948565b34610271575f366003190112610271577f000000000000000000000000000000000000000000000000000000000000000060030180546001600160a01b039133838316036128b7575f80516020614b1183398151915260405f80516020614b51833981519152948554168151908152336020820152a16001600160a01b0319918216905581541633179055005b60405162461bcd60e51b815260206004820152601d60248201527f43616c6c6572206e6f74207468652070726f706f7365642061646d696e0000006044820152606490fd5b34610271575f366003190112610271576001807f000000000000000000000000000000000000000000000000000000000000000001906040519081835480825260208092019081955f52825f20905f5b8181106129a25750505083612962910384612d65565b6040519281840190828552518091526040840194915f5b8281106129865785870386f35b83516001600160a01b0316875295810195928101928401612979565b825484529284019291850191850161294c565b34610271576020366003190112610271576129ce612e5f565b5f80516020614b51833981519152546001600160a01b0391906129f49083163314613631565b16612a228160017f00000000000000000000000000000000000000000000000000000000000000000161369d565b15612a4f5733907fbb7fff487ca65a5841fe463ac801812d2aeb3c2059f6e44b2b3cdab8ee7c3db05f80a3005b60405162461bcd60e51b815260206004820152601b60248201527a20b2323932b9b99030b63932b0b23c9034b99030903830bab9b2b960291b6044820152606490fd5b346102715760403660031901126102715760246001600160401b03600435823582811161027157612ac7903690600401612dd6565b90612af660ff7f00000000000000000000000000000000000000000000000000000000000000005416156132be565b612b028160e01c6132fc565b805f5260207f0000000000000000000000000000000000000000000000000000000000000000815260405f2093612b3884613bb6565b9283604051917f8af909ffa127c333d18602940f67f3fd57368f15b6860033919818daa60c16845f80a385548403612b6c57005b60c8855111612cd75750925f935f915f5b8151811015612c7e57612b9081836138b4565b519363ffffffff8686015116978815612c3a57888591011694519082612beb575b509081877feb9ab17f5929fcbcb68f4adf670d54c00ab00934512a4c92938d59b43a0463ea886001959b604051908152a301959295612b7d565b811115612bf8578a612bb1565b60405162461bcd60e51b815260048101879052601b818c01527a14dc1b1a5d1cc81c9958d95a5d995c9cc81b9bdd081cdbdc9d1959602a1b6044820152606490fd5b60405162461bcd60e51b815260048101889052601e818d01527f53706c69747320726563656976657220776569676874206973207a65726f00006044820152606490fd5b50509050620f424091939592951611612c9657505055005b90601b6064926040519262461bcd60e51b845260048401528201527a0a6e0d8d2e8e640eecad2ced0e8e640e6eada40e8dede40d0d2ced602b1b6044820152fd5b62461bcd60e51b81526004810183905260198782015278546f6f206d616e792073706c6974732072656365697665727360381b6044820152606490fd5b604081019081106001600160401b03821117610b9857604052565b608081019081106001600160401b03821117610b9857604052565b606081019081106001600160401b03821117610b9857604052565b601f909101601f19168101906001600160401b03821190821017610b9857604052565b6001600160401b038111610b985760051b60200190565b6064359063ffffffff8216820361027157565b6004359063ffffffff8216820361027157565b359063ffffffff8216820361027157565b81601f8201121561027157803590612ded82612d88565b92604092612dfd84519586612d65565b808552602091828087019260061b85010193818511610271578301915b848310612e2a5750505050505090565b8583830312610271578386918251612e4181612d14565b85358152612e50838701612dc5565b83820152815201920191612e1a565b600435906001600160a01b038216820361027157565b602435906001600160a01b038216820361027157565b604435906001600160a01b038216820361027157565b81601f8201121561027157803590612eb882612d88565b92604092612ec884519586612d65565b808552602091828087019260061b85010193818511610271578301915b848310612ef55750505050505090565b8583830312610271578386918251612f0c81612d14565b853581528286013583820152815201920191612ee5565b9060a0600319830112610271576004359160249081356001600160a01b0381168103610271579260448035936064803594909260848035926001600160401b039290838511610271578060238601121561027157846004013592612f8684612d88565b976040612f9581519a8b612d65565b858a52602098808a8c019760051b8a010198858a1161027157818101975b8a8910612fc95750505050505050505050505090565b88358a8111610271578201906080828903602319011261027157845190612fef82612d2f565b84830135825289830135918c8311610271576130308f94806130178d8a89988f950101612ea1565b868501526130268b8201612dc5565b8a85015201612dc5565b6060820152815201980197612fb3565b606090600319011261027157600435906024356001600160a01b0381168103610271579060443563ffffffff811681036102715790565b6001600160401b038111610b9857601f01601f191660200190565b1561309957565b60405162461bcd60e51b815260206004820152602c60248201525f80516020614b7183398151915260448201526b19195b1959d85d1958d85b1b60a21b6064820152608490fd5b156130e757565b60405162461bcd60e51b815260206004820152602c60248201525f80516020614b7183398151915260448201526b6163746976652070726f787960a01b6064820152608490fd5b803b15613162575f80516020614b9183398151915280546001600160a01b0319166001600160a01b03909216919091179055565b60405162461bcd60e51b815260206004820152602d60248201527f455243313936373a206e657720696d706c656d656e746174696f6e206973206e60448201526c1bdd08184818dbdb9d1c9858dd609a1b6064820152608490fd5b3d156131e7573d906131ce82613077565b916131dc6040519384612d65565b82523d5f602084013e565b606090565b9192901561324e5750815115613200575090565b3b156132095790565b60405162461bcd60e51b815260206004820152601d60248201527f416464726573733a2063616c6c20746f206e6f6e2d636f6e74726163740000006044820152606490fd5b8251909150156132615750805190602001fd5b6040519062461bcd60e51b82528160208060048301528251908160248401525f935b8285106132a5575050604492505f838284010152601f80199101168101030190fd5b8481018201518686016044015293810193859350613283565b156132c557565b60405162461bcd60e51b815260206004820152600f60248201526e10dbdb9d1c9858dd081c185d5cd959608a1b6044820152606490fd5b63ffffffff165f9081527f000000000000000000000000000000000000000000000000000000000000000060010160205260409020546001600160a01b0316330361334357565b60405162461bcd60e51b815260206004820152601b60248201527a21b0b63630b136329037b7363c90313c903a343290323934bb32b960291b6044820152606490fd5b6001600160a01b03165f9081527f000000000000000000000000000000000000000000000000000000000000000060020160205260409020546001600160801b0381169160809190911c90565b9190820391821161067857565b6040516370a0823160e01b815230600482015290602090829060249082906001600160a01b03165afa908115610bac575f9161341a575090565b906020823d8211613443575b8161343360209383612d65565b8101031261344057505190565b80fd5b3d9150613426565b6001600160801b03918216908216039190821161067857565b6001600160801b03918216908216019190821161067857565b80546001600160801b031660809290921b6001600160801b031916919091179055565b6001600160a01b03165f9081527f0000000000000000000000000000000000000000000000000000000000000000600201602052604090208054613510926107d9916001600160801b036134f68382841661344b565b6001600160801b031990921691161780845560801c613464565b565b9190820180921161067857565b6001600160a01b03165f9081527f0000000000000000000000000000000000000000000000000000000000000000600201602052604090208054613510926107d99160801c61344b565b906135979061358f61357a84613386565b6001600160801b039291908316908316613512565b911690613512565b9060016001607f1b0382116135f3576135af906133e0565b106135b657565b60405162461bcd60e51b8152602060048201526015602482015274546f6b656e2062616c616e636520746f6f206c6f7760581b6044820152606490fd5b60405162461bcd60e51b81526020600482015260166024820152750a8dee8c2d840c4c2d8c2dcc6ca40e8dede40d0d2ced60531b6044820152606490fd5b1561363857565b60405162461bcd60e51b815260206004820152601460248201527321b0b63632b9103737ba103a34329030b236b4b760611b6044820152606490fd5b8054821015613689575f5260205f2001905f90565b634e487b7160e01b5f52603260045260245ffd5b6136a78282613700565b6136fa57805490600160401b821015610b9857826136e56136cf846001809601855584613674565b819391549060031b91821b915f19901b19161790565b90558054925f520160205260405f2055600190565b50505f90565b6001915f520160205260405f2054151590565b9060018201905f92818452826020526040842054908115155f146137f9575f19918083018181116137e5578254908482019182116137d15780820361379c575b505050805480156137885782019161376b8383613674565b909182549160031b1b191690555582526020526040812055600190565b634e487b7160e01b86526031600452602486fd5b6137bc6137ac6136cf9386613674565b90549060031b1c92839286613674565b905586528460205260408620555f8080613753565b634e487b7160e01b88526011600452602488fd5b634e487b7160e01b87526011600452602487fd5b5050505090565b1561380757565b606460405162461bcd60e51b815260206004820152602060248201527f43616c6c6572206e6f74207468652061646d696e206f722061207061757365726044820152fd5b5f527f0000000000000000000000000000000000000000000000000000000000000000602052600160405f20019060018060a01b03165f5260205260405f20908154906138a160018060801b0391828416613464565b6001600160801b03199092169116179055565b80518210156136895760209160051b010190565b816138d291613b35565b6001600160801b0382811692831561393e575f91825b845184101561391c576001906001600160a01b039063ffffffff602061390e888a6138b4565b5101511601169301926138e8565b620f424095026001600160a01b03169490940484169081900390931693915050565b505050505f905f90565b905f915f936139578183613b35565b8185527f0000000000000000000000000000000000000000000000000000000000000000602090815260408087206001600160a01b038681168952600190910190925286208054919790966001600160801b039283811692908315613aa3576001600160801b031916895590805b8551821015613a54579084808a818e8097966139e1878d6138b4565b516020015163ffffffff1601169687828a160216620f42409004160316809a011698613a0d82886138b4565b5151613a1a828b8361384b565b604051918252888d8b169260207f0f5c5377da15431a8fe400f76e6631e1d39a8c4b98de9e11d3386a181af86b8e91a460010190916139c5565b505095967fe21d6055950f21e524e22827c40bf5a9358c4a24a90b110fae69fb3011a2a9d99350613a979083896020959b940316998a825460801c01169061347d565b604051948886521693a3565b50975097505050505050508190565b9190825f527f0000000000000000000000000000000000000000000000000000000000000000602052600160405f20019060018060a01b031690815f5260205260405f20928354938460801c9460018060801b031690557fda8ee04f8f2a5164dfc0b6c5ba78ebe975683b40c2500950b514e7444d3f541b6020604051868152a3565b90613b3f90613bb6565b905f527f000000000000000000000000000000000000000000000000000000000000000060205260405f205403613b7257565b606460405162461bcd60e51b815260206004820152602060248201527f496e76616c69642063757272656e742073706c697473207265636569766572736044820152fd5b805115613c2f576040805190816020938482019483830190808752825180925280606085019301945f905b838210613c055750505050613bff925003601f198101835282612d65565b51902090565b86518051865283015163ffffffff1685840152958201958795509384019360019190910190613be1565b505f90565b5f93848080613c438686613d27565b9490918597839663ffffffff809b81878403168282168111613d12575b5050505060018060a01b03168a526020957f00000000000000000000000000000000000000000000000000000000000000008752604097888c20908c5287526004888c200193945b8a86168b8b16811015613d03578b91898b8f600194815289835220918c5192613cd084612d14565b5490600f9382850b9283825260801d850b93849101520199838060801b03908b8216011699820b01900b96011694613ca8565b50965097965097509297505050565b0381169182900316995091505f8a8180613c60565b9060018060a01b03165f527f000000000000000000000000000000000000000000000000000000000000000060205260405f20905f5260205263ffffffff80600360405f2001541691613d7b824216614a9d565b91838015918215613d94575b5050613d8f57565b829150565b8416109050835f613d87565b90613daa82612d88565b613db76040519182612d65565b8281528092613dc8601f1991612d88565b0190602036910137565b909190600160201b83101561368957601c908360031c019260021b1690565b92949391905f935f9560018060a01b0383165f527f000000000000000000000000000000000000000000000000000000000000000060205260405f20845f5260205260405f209283549896613e468751613da0565b985f985b88518a1015613f1757613e5d8a8a6138b4565b519081518b8d602085015151613ea9575b613e7e613e9795939285926138b4565b5263ffffffff60608160408501511693015116926147bf565b985f1981146106785760010198613e4a565b5050613ed257818c82613e7e8e613ec66020613e97980151614752565b94965092915050613e6e565b60405162461bcd60e51b815260206004820152601d60248201527f456e7472792077697468206861736820616e64207265636569766572730000006044820152606490fd5b9094985099909498919599969296036141e157976003600198015463ffffffff613f3f614ad7565b1663ffffffff8260201c1610156141d6575b50613f5c8251613da0565b9460018060a01b03165f527f000000000000000000000000000000000000000000000000000000000000000060205260405f20875f52602052600160405f2001905f5260205260405f209063ffffffff4216956001965b825180891115806141cc575b156141be5788613fd09103846138b4565b5190602082015151613ff3575b5063ffffffff6040600192015116970196613fb3565b63ffffffff6140048a8d0387613dd2565b90549060031b1c1663ffffffff614019614ad7565b1681106141b0575b63ffffffff6040840151168063ffffffff8316106141a8575b5063ffffffff821663ffffffff821610614055575b50613fdd565b97909894969a919395856140706001959e95830192846138b4565b526020850151978860e0525f98515b808a1061415d575063ffffffff6040870151169763ffffffff606088015116995f60c0525b60e051805182101561413e576140bc8f9183906138b4565b519081510361410d5790614100828f8f8f8f9263ffffffff93926140e492859460019a6148b7565b9290936020888060a01b0391015160401c169216921690614a4f565b60c0510160c052016140a4565b5050959850959950955096509863ffffffff60406001929c939c5b838060801b03908160c05116011697925061404f565b5050959850959950955096509863ffffffff60406001929c939c614128565b9d988e819992939495969798990160011c908d61417c8360e0516138b4565b5151101561419f57506001019d808f5b50509d989d97969594939291909761407f565b9e50808f61418c565b90505f61403a565b506141b9614ad7565b614021565b505093989550505094919350565b508a891115613fbf565b60e01c97505f613f51565b60405162461bcd60e51b8152602060048201526017602482015276496e76616c69642073747265616d7320686973746f727960481b6044820152606490fd5b949391925f955b81518710156142875760019061423d88846138b4565b519061427b61424f87878a81876148b7565b9190936020868060a01b0391015160401c1693858060801b0394859363ffffffff809116921690614a4f565b16900316960195614227565b955050505050565b61429a600291614752565b910154036142a457565b60405162461bcd60e51b815260206004820152601e60248201527f496e76616c69642073747265616d7320726563656976657273206c69737400006044820152606490fd5b92919390935f92606491828751116144b6576143058751613da0565b93855b88518710156143965761431b878a6138b4565b519087614338575b60019161433091886145fe565b960195614308565b61434f826143495f198b018d6138b4565b51614a2d565b6143235760405162461bcd60e51b815260206004820152601c60248201527b14dd1c99585b5cc81c9958d95a5d995c9cc81b9bdd081cdbdc9d195960221b60448201528690fd5b96929750925092935063ffffffff9081421696861580156144a5575b61449b576001600160801b03909116938291906143d08888886144f7565b61448f57831688811180614486575b61445d575b50821687811180614454575b614431575b50955b86810160011c90808214614427576144128288888861457b565b156144205750955b956143f8565b965061441a565b5016945092505050565b909661443f8288888861457b565b1561444d5750955b5f6143f5565b9650614447565b508181106143f0565b909761446b8289898961457b565b1561447b57508290975b906143e4565b979150829091614475565b508381106143df565b50505093509350505090565b5091945050505050565b506001600160801b038216156143b2565b60405162461bcd60e51b815260206004820152601a602482015279546f6f206d616e792073747265616d732072656365697665727360301b60448201528390fd5b905f90815b84831061450d575050505050600190565b60208360051b8301810151809163ffffffff9283911c1690828116928281111561456e5790818493926145499511614566575b5060401c614a4f565b019183831161455d576001905b01916144fc565b50505050505f90565b92505f614540565b5050505091600190614556565b91925f91825b85841061459357505050505050600190565b60208460051b8301810151809163ffffffff9182911c1690821691818611156145f257908291866145cc94116145ea575b60401c614a4f565b01928484116145e0576001905b0192614581565b5050505050505f90565b8692506145c4565b505050926001906145d9565b916020019182519260018060a01b03807f000000000000000000000000000000000000000000000000000000000000000016908560401c1610614703575163ffffffff90819081602082901c811642821681156146fb575b8282169364ffffffffff968791168501169380851480156146f2575b6146e8575b81116146e0575b5081858416116146d7575b1680938216106146d0575b16938482146146c857600194602091821c600160201b600160c01b0316909217901b17906146c39083906138b4565b520190565b505050905090565b5081614694565b91508091614689565b90505f61467e565b9293508392614677565b50838511614672565b905080614656565b60405162461bcd60e51b815260206004820152602160248201527f53747265616d20726563656976657220616d7450657253656320746f6f206c6f6044820152607760f81b6064820152608490fd5b805115613c2f576040805190816020938482019483830190808752825180925280606085019301945f905b83821061479b5750505050613bff925003601f198101835282612d65565b8651805186528301518584015295820195879550938401936001919091019061477d565b929190916040519260208401948552604084015263ffffffff80921660608401521660808201526080815260a0810181811060018060401b03821117610b985760405251902090565b600160ff1b8114610678575f0390565b60209094939294015163ffffffff928184809360201c169384156148af575b508284169064ffffffffff938491168201169681881480156148a4575b61489a575b5084821611614892575b508281861611614889575b8282168091861610614881575b50921690565b93505f61487b565b9350819361486e565b91505f614863565b851696505f614859565b508581168811614854565b93505f614837565b602090959491929501519063ffffffff938285809460201c1694851561494c575b508385169064ffffffffff94859116820116978189148015614941575b614937575b50908592918382161161492f575b50168082871611614927575b5082821680918616106148815750921690565b94505f614914565b93505f614908565b86169750856148fa565b5086811689116148f5565b94505f6148d8565b9163ffffffff809116911691818314614988578361497d6135109560046149829401958661498e565b614808565b9161498e565b50505050565b9063ffffffff90817f000000000000000000000000000000000000000000000000000000000000000016928315614a1957633b9aca0090836149d98388888706020595869516614a9d565b165f5260205260405f2094855494020503600f0b82600f0b0160018060801b0316918260018060801b03198093600f0b92161760801d0160801b16179055565b634e487b7160e01b5f52601260045260245ffd5b8051825190818103614a485750506020809101519101511190565b1092915050565b9063ffffffff7f00000000000000000000000000000000000000000000000000000000000000001692633b9aca00938085858286060204958086838606020495820204930491040302010390565b63ffffffff90817f0000000000000000000000000000000000000000000000000000000000000000168015614a1957826001921604011690565b63ffffffff804216817f0000000000000000000000000000000000000000000000000000000000000000168015614a195781069003169056fe7e644d79422f17c01e4894b5f4f588d331ebfa28653d42ae832dc59e38c9798f4910fdfa16fed3260ed0e7147f7cc6da11a60208b5b9406d12a635614ffd9143b53127684a568b3173ae13b9f8a6016e243e63b6e8ee1178d6a717850b5d610346756e6374696f6e206d7573742062652063616c6c6564207468726f75676820360894a13ba1a3210667c828492db98dca3e2076cc3735a920a3ca505d382bbcbc7cd75a20ee27fd9adebab32041f755214dbc6bffa90cc0225b39da2e5c2d3b45524331393637557067726164653a206e657720696d706c656d656e74617469a2646970667358221220e2836d5da61108b7471b32ed74e2d31779f9ed78d5ff8424915ebd83f13c3d2c64736f6c63430008140033","linkReferences":{}},"methodIdentifiers":{"AMT_PER_SEC_EXTRA_DECIMALS()":"5429f175","AMT_PER_SEC_MULTIPLIER()":"387d2a2f","DRIVER_ID_OFFSET()":"8e48a7e5","MAX_SPLITS_RECEIVERS()":"f11d5139","MAX_STREAMS_RECEIVERS()":"ff27d019","MAX_TOTAL_BALANCE()":"444e249f","TOTAL_SPLITS_WEIGHT()":"a69aff3c","acceptAdmin()":"0e18b681","admin()":"f851a440","allPausers()":"09d48a94","balanceAt(uint256,address,(uint256,uint256)[],uint32)":"2776f94c","balances(address)":"27e235e3","collect(uint256,address)":"8d3c100a","collectable(uint256,address)":"1ec026c8","cycleSecs()":"631d669c","driverAddress(uint32)":"7e5b5a83","emitAccountMetadata(uint256,(bytes32,bytes)[])":"69610257","forceCollect(uint256,address,address,address,address)":"be1ca322","give(uint256,uint256,address,uint128)":"d9e01070","grantPauser(address)":"09c1d95f","hashSplits((uint256,uint32)[])":"577e012c","hashStreams((uint256,uint256)[])":"8cd77180","hashStreamsHistory(bytes32,bytes32,uint32,uint32)":"7dd3f81c","implementation()":"5c60da1b","isPaused()":"b187bd26","isPauser(address)":"46fbf68e","minAmtPerSec()":"c82051dd","nextDriverId()":"98aba1cf","pause()":"8456cb59","proposeNewAdmin(address)":"a6376746","proposedAdmin()":"32f751ec","proxiableUUID()":"52d1902d","receivableStreamsCycles(uint256,address)":"19af3267","receiveStreams(uint256,address,uint32)":"302dea39","receiveStreamsResult(uint256,address,uint32)":"c1a96fe2","registerDriver(address)":"f0f4fd5e","renounceAdmin()":"8bad0c0a","revokePauser(address)":"7fe76df0","setSplits(uint256,(uint256,uint32)[])":"02cfc753","setStreams(uint256,address,(uint256,uint256)[],int128,(uint256,uint256)[],uint32,uint32)":"b3a3a573","split(uint256,address,(uint256,uint32)[])":"0ea2063a","splitResult(uint256,(uint256,uint32)[],uint128)":"f4e45f2d","splitsHash(uint256)":"74dd0565","splittable(uint256,address)":"f98e7e1d","squeezeStreams(uint256,address,uint256,bytes32,(bytes32,(uint256,uint256)[],uint32,uint32)[])":"fa93c0a2","squeezeStreamsResult(uint256,address,uint256,bytes32,(bytes32,(uint256,uint256)[],uint32,uint32)[])":"202bbca1","streamsState(uint256,address)":"879db483","unpause()":"3f4ba83a","updateDriverAddress(uint32,address)":"aeefca1c","upgradeTo(address)":"3659cfe6","upgradeToAndCall(address,bytes)":"4f1ef286","withdraw(address,address,uint256)":"d9caed12"},"id":48}