{"abi":[{"type":"constructor","inputs":[],"stateMutability":"nonpayable"},{"type":"function","name":"DRIVER_ID_OFFSET","inputs":[],"outputs":[{"name":"","type":"uint8","internalType":"uint8"}],"stateMutability":"view"},{"type":"function","name":"MAX_SPLITS_RECEIVERS","inputs":[],"outputs":[{"name":"","type":"uint256","internalType":"uint256"}],"stateMutability":"view"},{"type":"function","name":"MAX_TOTAL_BALANCE","inputs":[],"outputs":[{"name":"","type":"uint128","internalType":"uint128"}],"stateMutability":"view"},{"type":"function","name":"TOTAL_SPLITS_WEIGHT","inputs":[],"outputs":[{"name":"","type":"uint32","internalType":"uint32"}],"stateMutability":"view"},{"type":"function","name":"acceptAdmin","inputs":[],"outputs":[],"stateMutability":"nonpayable"},{"type":"function","name":"admin","inputs":[],"outputs":[{"name":"","type":"address","internalType":"address"}],"stateMutability":"view"},{"type":"function","name":"allPausers","inputs":[],"outputs":[{"name":"pausersList","type":"address[]","internalType":"address[]"}],"stateMutability":"view"},{"type":"function","name":"collect","inputs":[{"name":"accountId","type":"uint256","internalType":"uint256"},{"name":"erc20","type":"address","internalType":"contract IERC20"}],"outputs":[{"name":"amt","type":"uint128","internalType":"uint128"}],"stateMutability":"nonpayable"},{"type":"function","name":"collectable","inputs":[{"name":"accountId","type":"uint256","internalType":"uint256"},{"name":"erc20","type":"address","internalType":"contract IERC20"}],"outputs":[{"name":"amt","type":"uint128","internalType":"uint128"}],"stateMutability":"view"},{"type":"function","name":"emitAccountMetadata","inputs":[{"name":"accountId","type":"uint256","internalType":"uint256"},{"name":"accountMetadata","type":"tuple[]","internalType":"struct AccountMetadata[]","components":[{"name":"key","type":"bytes32","internalType":"bytes32"},{"name":"value","type":"bytes","internalType":"bytes"}]}],"outputs":[],"stateMutability":"nonpayable"},{"type":"function","name":"forceCollect","inputs":[{"name":"accountId","type":"uint256","internalType":"uint256"},{"name":"erc20","type":"address","internalType":"contract IERC20"},{"name":"yieldManager","type":"address","internalType":"address"},{"name":"strategy","type":"address","internalType":"address"},{"name":"transferTo","type":"address","internalType":"address"}],"outputs":[{"name":"amt","type":"uint128","internalType":"uint128"}],"stateMutability":"nonpayable"},{"type":"function","name":"give","inputs":[{"name":"accountId","type":"uint256","internalType":"uint256"},{"name":"receiver","type":"uint256","internalType":"uint256"},{"name":"erc20","type":"address","internalType":"contract IERC20"},{"name":"amt","type":"uint128","internalType":"uint128"}],"outputs":[],"stateMutability":"nonpayable"},{"type":"function","name":"grantPauser","inputs":[{"name":"pauser","type":"address","internalType":"address"}],"outputs":[],"stateMutability":"nonpayable"},{"type":"function","name":"implementation","inputs":[],"outputs":[{"name":"","type":"address","internalType":"address"}],"stateMutability":"view"},{"type":"function","name":"isPaused","inputs":[],"outputs":[{"name":"","type":"bool","internalType":"bool"}],"stateMutability":"view"},{"type":"function","name":"isPauser","inputs":[{"name":"pauser","type":"address","internalType":"address"}],"outputs":[{"name":"isAddrPauser","type":"bool","internalType":"bool"}],"stateMutability":"view"},{"type":"function","name":"pause","inputs":[],"outputs":[],"stateMutability":"nonpayable"},{"type":"function","name":"proposeNewAdmin","inputs":[{"name":"newAdmin","type":"address","internalType":"address"}],"outputs":[],"stateMutability":"nonpayable"},{"type":"function","name":"proposedAdmin","inputs":[],"outputs":[{"name":"","type":"address","internalType":"address"}],"stateMutability":"view"},{"type":"function","name":"proxiableUUID","inputs":[],"outputs":[{"name":"","type":"bytes32","internalType":"bytes32"}],"stateMutability":"view"},{"type":"function","name":"renounceAdmin","inputs":[],"outputs":[],"stateMutability":"nonpayable"},{"type":"function","name":"revokePauser","inputs":[{"name":"pauser","type":"address","internalType":"address"}],"outputs":[],"stateMutability":"nonpayable"},{"type":"function","name":"setSplits","inputs":[{"name":"accountId","type":"uint256","internalType":"uint256"},{"name":"receivers","type":"tuple[]","internalType":"struct SplitsReceiver[]","components":[{"name":"accountId","type":"uint256","internalType":"uint256"},{"name":"weight","type":"uint32","internalType":"uint32"}]}],"outputs":[],"stateMutability":"nonpayable"},{"type":"function","name":"split","inputs":[{"name":"accountId","type":"uint256","internalType":"uint256"},{"name":"erc20","type":"address","internalType":"contract IERC20"},{"name":"currReceivers","type":"tuple[]","internalType":"struct SplitsReceiver[]","components":[{"name":"accountId","type":"uint256","internalType":"uint256"},{"name":"weight","type":"uint32","internalType":"uint32"}]}],"outputs":[{"name":"collectableAmt","type":"uint128","internalType":"uint128"},{"name":"splitAmt","type":"uint128","internalType":"uint128"}],"stateMutability":"nonpayable"},{"type":"function","name":"splittable","inputs":[{"name":"accountId","type":"uint256","internalType":"uint256"},{"name":"erc20","type":"address","internalType":"contract IERC20"}],"outputs":[{"name":"amt","type":"uint128","internalType":"uint128"}],"stateMutability":"view"},{"type":"function","name":"unpause","inputs":[],"outputs":[],"stateMutability":"nonpayable"},{"type":"function","name":"upgradeTo","inputs":[{"name":"newImplementation","type":"address","internalType":"address"}],"outputs":[],"stateMutability":"nonpayable"},{"type":"function","name":"upgradeToAndCall","inputs":[{"name":"newImplementation","type":"address","internalType":"address"},{"name":"data","type":"bytes","internalType":"bytes"}],"outputs":[],"stateMutability":"payable"},{"type":"event","name":"AccountMetadataEmitted","inputs":[{"name":"accountId","type":"uint256","indexed":true,"internalType":"uint256"},{"name":"key","type":"bytes32","indexed":true,"internalType":"bytes32"},{"name":"value","type":"bytes","indexed":false,"internalType":"bytes"}],"anonymous":false},{"type":"event","name":"AdminChanged","inputs":[{"name":"previousAdmin","type":"address","indexed":false,"internalType":"address"},{"name":"newAdmin","type":"address","indexed":false,"internalType":"address"}],"anonymous":false},{"type":"event","name":"BeaconUpgraded","inputs":[{"name":"beacon","type":"address","indexed":true,"internalType":"address"}],"anonymous":false},{"type":"event","name":"Collectable","inputs":[{"name":"accountId","type":"uint256","indexed":true,"internalType":"uint256"},{"name":"erc20","type":"address","indexed":true,"internalType":"contract IERC20"},{"name":"amt","type":"uint128","indexed":false,"internalType":"uint128"}],"anonymous":false},{"type":"event","name":"Collected","inputs":[{"name":"accountId","type":"uint256","indexed":true,"internalType":"uint256"},{"name":"erc20","type":"address","indexed":true,"internalType":"contract IERC20"},{"name":"collected","type":"uint128","indexed":false,"internalType":"uint128"}],"anonymous":false},{"type":"event","name":"Given","inputs":[{"name":"accountId","type":"uint256","indexed":true,"internalType":"uint256"},{"name":"receiver","type":"uint256","indexed":true,"internalType":"uint256"},{"name":"erc20","type":"address","indexed":true,"internalType":"contract IERC20"},{"name":"amt","type":"uint128","indexed":false,"internalType":"uint128"}],"anonymous":false},{"type":"event","name":"NewAdminProposed","inputs":[{"name":"currentAdmin","type":"address","indexed":true,"internalType":"address"},{"name":"newAdmin","type":"address","indexed":true,"internalType":"address"}],"anonymous":false},{"type":"event","name":"Paused","inputs":[{"name":"pauser","type":"address","indexed":true,"internalType":"address"}],"anonymous":false},{"type":"event","name":"PauserGranted","inputs":[{"name":"pauser","type":"address","indexed":true,"internalType":"address"},{"name":"admin","type":"address","indexed":true,"internalType":"address"}],"anonymous":false},{"type":"event","name":"PauserRevoked","inputs":[{"name":"pauser","type":"address","indexed":true,"internalType":"address"},{"name":"admin","type":"address","indexed":true,"internalType":"address"}],"anonymous":false},{"type":"event","name":"Split","inputs":[{"name":"accountId","type":"uint256","indexed":true,"internalType":"uint256"},{"name":"receiver","type":"uint256","indexed":true,"internalType":"uint256"},{"name":"erc20","type":"address","indexed":true,"internalType":"contract IERC20"},{"name":"amt","type":"uint128","indexed":false,"internalType":"uint128"}],"anonymous":false},{"type":"event","name":"SplitsReceiverSeen","inputs":[{"name":"receiversHash","type":"bytes32","indexed":true,"internalType":"bytes32"},{"name":"accountId","type":"uint256","indexed":true,"internalType":"uint256"},{"name":"weight","type":"uint32","indexed":false,"internalType":"uint32"}],"anonymous":false},{"type":"event","name":"SplitsSet","inputs":[{"name":"accountId","type":"uint256","indexed":true,"internalType":"uint256"},{"name":"receiversHash","type":"bytes32","indexed":true,"internalType":"bytes32"}],"anonymous":false},{"type":"event","name":"Unpaused","inputs":[{"name":"pauser","type":"address","indexed":true,"internalType":"address"}],"anonymous":false},{"type":"event","name":"Upgraded","inputs":[{"name":"implementation","type":"address","indexed":true,"internalType":"address"}],"anonymous":false}],"bytecode":{"object":"0x6101003462000225576040906001600160401b0390808301908282118183101762000211576200005b918452601681527f656970313936372e73706c6974732e73746f7261676500000000000000000000602082015262000229565b30608052825183810190808210848311176200021157620000a8918552601781527f656970313936372e6d616e616765642e73746f72616765000000000000000000602082015262000229565b60a0819052805460ff1916600117905560c052815180830191821181831017620002115762000103918352601581527f656970313936372e64726970732e73746f726167650000000000000000000000602082015262000229565b60e052516126789081620002568239608051818181610e1901528181610f3a015261134d015260a051818181610261015281816104c1015281816106f7015281816107a90152818161082101528181610a6101528181610ad901528181610b4401528181610bbb01528181610cac015281816111c801528181611258015281816112f901528181611508015281816115ed01528181611647015281816117200152818161180901526118e2015260c0518181816101770152818161052c01528181610894015281816115620152818161195201528181612229015281816123dc0152612448015260e05181818161028b015281816104eb0152818161084b01528181610cdf01526119150152f35b634e487b7160e01b5f52604160045260245ffd5b5f80fd5b602081519101206103ff198101908111620002415790565b634e487b7160e01b5f52601160045260245ffdfe60406080815260049081361015610014575f80fd5b5f9160e08335811c90816302cfc7531461189f57816309c1d95f146117be57816309d48a94146117085781630e18b681146116325781630ea2063a146115a65781631ec026c81461153d57816332f751ec146114f15781633659cfe6146113255781633f4ba83a14611219578163444e249f146111f657816346fbf68e146111995781634f1ef28614610ec057816352d1902d14610e035781635c60da1b14610dcd5781636961025714610c4d5781637fe76df014610b705781638456cb5914610a9c5781638bad0c0a14610a0b5781638d3c100a146107fc5781638e48a7e5146107df578163a637674614610740578163a69aff3c14610721578163b187bd26146106dd578163be1ca3221461046b578163d9e010701461021b57508063f11d5139146101ff578063f851a440146101c65763f98e7e1d14610155575f80fd5b346101c257816003193601126101c25791602092610171611cbf565b903582527f000000000000000000000000000000000000000000000000000000000000000084528282206001600160a01b03909116825260010183528190205490516001600160801b039091168152f35b8280fd5b5050346101fb57816003193601126101fb575f805160206125838339815191525490516001600160a01b039091168152602090f35b5080fd5b5050346101fb57816003193601126101fb576020905160c88152f35b9192905034610467576080366003190112610467578235906024359261023f611ca9565b6001600160801b036064358181169791949189908983036101fb5761028860ff7f0000000000000000000000000000000000000000000000000000000000000000541615611eed565b877f0000000000000000000000000000000000000000000000000000000000000000961c82528960209760018801895260018060a01b03976102d08988872054163314611f2b565b82610302575b5050505050906102f883925f80516020612603833981519152969594896123d8565b519687521694a480f35b9161032961032e928860028d97960197888d8d1698898352522054908160801c9116611fde565b611fde565b60016001607f1b03811161042b5785516370a0823160e01b815230838201528d91908a81602481885afa92831561042057926103ed575b50116103b25750916102f8915f8051602061260383398151915297969594938c5286526103a2838c2061039c83825460801c611fc5565b90611fa2565b91929394958a9150895f806102d6565b845162461bcd60e51b81529081018890526015602482015274546f6b656e2062616c616e636520746f6f206c6f7760581b6044820152606490fd5b9091508981813d8311610419575b6104058183611bb1565b810103126104155751905f610365565b8d80fd5b503d6103fb565b8851903d90823e3d90fd5b855162461bcd60e51b81528083018a905260166024820152750a8dee8c2d840c4c2d8c2dcc6ca40e8dede40d0d2ced60531b6044820152606490fd5b8380fd5b90508284346106da5760a03660031901126106da5783359061048b611cbf565b94610494611ca9565b956064356001600160a01b0381811695918690036106d65760843590808216809203610639576104e860ff7f0000000000000000000000000000000000000000000000000000000000000000541615611eed565b827f0000000000000000000000000000000000000000000000000000000000000000991c865260209960018a018b52610527828a892054163314611f2b565b8387527f00000000000000000000000000000000000000000000000000000000000000008b5260018988200194828116958689528c52898820548a51906370a0823160e01b825230898301528d826024818b5afa9182156106cc578a92610699575b5060801c11156106615761059d9085612441565b6001600160801b0381169a908b61063d575b50501690813b1561063957918560a4928195948a51998a968795634b98751b60e11b87528a870152602486015260448501528b606485015260848401525af1801561062f57610602575b50505051908152f35b6001600160401b03831161061c57505081528380806105f9565b634e487b7160e01b825260419052602490fd5b84513d84823e3d90fd5b8580fd5b600261065a92888b52018d5261039c8b8a2091825460801c611f75565b8b806105af565b895162461bcd60e51b81528088018d90526012602482015271155cd9481b9bdc9b585b0818dbdb1b1958dd60721b6044820152606490fd5b9091508d81813d83116106c5575b6106b18183611bb1565b810103126106c15751908e610589565b8980fd5b503d6106a7565b8c513d8c823e3d90fd5b8480fd5b80fd5b505050346101fb57816003193601126101fb5760209060ff7f0000000000000000000000000000000000000000000000000000000000000000541690519015158152f35b505050346101fb57816003193601126101fb5760209051620f42408152f35b84346106da5760203660031901126106da5761075a611c93565b5f80516020612583833981519152546001600160a01b0391906107809083163314611feb565b1680337fed2d93e7985747cd1a4a093c2cc3bb73d0f177b81bdfd26020e8f20a97e8112e8480a37f000000000000000000000000000000000000000000000000000000000000000060030180546001600160a01b031916909117905580f35b849084346101c257826003193601126101c2576020925051908152f35b848484346101c257816003193601126101c25780359361081a611cbf565b61084860ff7f0000000000000000000000000000000000000000000000000000000000000000541615611eed565b857f0000000000000000000000000000000000000000000000000000000000000000921c855260209560018301875260018060a01b039361088f8587892054163314611f2b565b8187527f000000000000000000000000000000000000000000000000000000000000000088526001868820019483169485885288528587205460801c80610921575b5050906108dd91612441565b6001600160801b038116949091908490866108fc575b87878351908152f35b600261039c936109179683520188522091825460801c611f75565b83808083816108f3565b86516370a0823160e01b8152308382015289816024818a5afa908115610a015789916109d0575b501061095457806108d1565b855162461bcd60e51b8152908101889052604a60248201527f496e73756666696369656e74207661756c742062616c616e63652e205573652060448201527f666f726365436f6c6c65637420746f2077697468647261772066726f6d20596960648201526932b63226b0b730b3b2b960b11b608482015260a490fd5b90508981813d83116109fa575b6109e78183611bb1565b810103126109f657518a610948565b8880fd5b503d6109dd565b88513d8b823e3d90fd5b505050346101fb57816003193601126101fb575f80516020612583833981519152805490915f80516020612543833981519152916001600160a01b0316610a53338214611feb565b8151908152846020820152a17f000000000000000000000000000000000000000000000000000000000000000060030180546001600160a01b0319908116909155815416905580f35b84346106da57806003193601126106da575f80516020612583833981519152546001600160a01b031633148015610b38575b610ad7906121ba565b7f000000000000000000000000000000000000000000000000000000000000000060018154610b0960ff821615611eed565b60ff1916179055337f62e78cea01bee320cd4e420270b5ea74000d11b0c9f74754ebdbfc544b05a2588280a280f35b50610ad7610b693360017f0000000000000000000000000000000000000000000000000000000000000000016120ba565b9050610ace565b5050346101c25760203660031901126101c257610b8b611c93565b5f80516020612583833981519152546001600160a01b039190610bb19083163314611feb565b1691610be08360017f0000000000000000000000000000000000000000000000000000000000000000016120cd565b15610c1057505033907ffd55549bcbafb9531a61db3cfb88d1cca64e215b12def56e6ea913fe1ac91fd28380a380f35b906020606492519162461bcd60e51b8352820152601760248201527620b2323932b9b99034b9903737ba1030903830bab9b2b960491b6044820152fd5b919050346104675782600319360112610467576024926001600160401b039180359190853590848211610dc95736602383011215610dc95781013595848711610dc957600595368289891b850101116109f6578490610cd360ff9998997f0000000000000000000000000000000000000000000000000000000000000000541615611eed565b1c8852600196602092887f0000000000000000000000000000000000000000000000000000000000000000018452610d1760018060a01b03868c2054163314611f2b565b3681900360621901918a805b8a8110610d2e575080f35b8581841b85010135858112156101c257840160449081810135604219823603018112156106d65781019188830135928d841161063957019382360385136106da57828f958b8b8f958f9395857f104963f2a5dc192f8154d2714d24eff1983117445036fb4dc408713d73b36aa597865197868997885287015286860137838901850152013595601f01601f19168101030190a3018b90610d23565b8780fd5b505050346101fb57816003193601126101fb575f805160206125c38339815191525490516001600160a01b039091168152602090f35b505082346106da57806003193601126106da57507f00000000000000000000000000000000000000000000000000000000000000006001600160a01b03163003610e5d57602082515f805160206125c38339815191528152f35b6020608492519162461bcd60e51b8352820152603860248201527f555550535570677261646561626c653a206d757374206e6f742062652063616c6044820152771b1959081d1a1c9bdd59da0819195b1959d85d1958d85b1b60421b6064820152fd5b505090806003193601126101c257610ed6611c93565b90602435906001600160401b0382116106d657366023830112156106d65781840135610f0181611cd5565b610f0d83519182611bb1565b818152866020948583019336602482840101116101c2578060248893018637830101526001600160a01b037f0000000000000000000000000000000000000000000000000000000000000000811690610f6830831415611cf0565b610f845f805160206125c3833981519152928284541614611d3e565b610f9f815f8051602061258383398151915254163314611feb565b5f805160206125638339815191525460ff1615610fc957505050505050610fc69150611d8c565b80f35b869293949596169085516352d1902d60e01b815287818a81865afa8a9181611166575b5061103857865162461bcd60e51b8152808a01899052602e60248201525f8051602061262383398151915260448201526d6f6e206973206e6f74205555505360901b6064820152608490fd5b979192939695949703611111575061104f82611d8c565b5f805160206125e38339815191528780a285845115801590611109575b61107a575b50505050505080f35b806110f39684519661108b88611b82565b602788527f416464726573733a206c6f772d6c6576656c2064656c65676174652063616c6c87890152660819985a5b195960ca1b868901525190845af4913d156110ff573d6110e56110dc82611cd5565b92519283611bb1565b81528681943d92013e611e1b565b505f8080808085611071565b5060609250611e1b565b50600161106c565b835162461bcd60e51b8152908101859052602960248201527f45524331393637557067726164653a20756e737570706f727465642070726f786044820152681a58589b195555525160ba1b6064820152608490fd5b9091508881813d8311611192575b61117e8183611bb1565b8101031261118e5751905f610fec565b8a80fd5b503d611174565b505050346101fb5760203660031901126101fb576020906111ed6001600160a01b036111c3611c93565b1660017f0000000000000000000000000000000000000000000000000000000000000000016120ba565b90519015158152f35b505050346101fb57816003193601126101fb575160016001607f1b038152602090f35b505090346101c257826003193601126101c2575f80516020612583833981519152546001600160a01b0316331480156112ed575b611256906121ba565b7f00000000000000000000000000000000000000000000000000000000000000009182549160ff8316156112b457505060ff19169055337f5db9ee0a495bf2e6ff9c91a7834c1ba4fdd244a5e8aa4e537bd38aeae4b073aa8280a280f35b906020606492519162461bcd60e51b8352820152601360248201527210dbdb9d1c9858dd081b9bdd081c185d5cd959606a1b6044820152fd5b5061125661131e3360017f0000000000000000000000000000000000000000000000000000000000000000016120ba565b905061124d565b505090346101c25760208060031936011261046757611342611c93565b916001600160a01b037f0000000000000000000000000000000000000000000000000000000000000000811661137a30821415611cf0565b6113965f805160206125c3833981519152918383541614611d3e565b6113b1825f8051602061258383398151915254163314611feb565b8251848101929091906001600160401b038411838510176114de578385528883525f805160206125638339815191525460ff16156113f957505050505050610fc69150611d8c565b869293949596169085516352d1902d60e01b815287818a81865afa8a91816114af575b5061146857865162461bcd60e51b8152808a01899052602e60248201525f8051602061262383398151915260448201526d6f6e206973206e6f74205555505360901b6064820152608490fd5b979192939695949703611111575061147f82611d8c565b5f805160206125e38339815191528780a2858451158015906114a85761107a5750505050505080f35b508061106c565b9091508881813d83116114d7575b6114c78183611bb1565b8101031261118e5751905f61141c565b503d6114bd565b634e487b7160e01b895260418852602489fd5b505050346101fb57816003193601126101fb5760037f0000000000000000000000000000000000000000000000000000000000000000015490516001600160a01b039091168152602090f35b5050346101c257816003193601126101c257602092829161155c611cbf565b903582527f000000000000000000000000000000000000000000000000000000000000000085528282206001600160a01b03909116825260010184522054905160809190911c8152f35b5050346101c25760603660031901126101c2576115c1611cbf565b604435936001600160401b0385116106da57506115e561161a939436908401611bd4565b9161161460ff7f0000000000000000000000000000000000000000000000000000000000000000541615611eed565b35612219565b82516001600160801b03928316815291166020820152f35b505090346101c257826003193601126101c2577f000000000000000000000000000000000000000000000000000000000000000060030180546001600160a01b039390929033858516036116c657505f80516020612543833981519152905f80516020612583833981519152948554168151908152336020820152a16001600160a01b031991821690558154163317905580f35b6020606492519162461bcd60e51b8352820152601d60248201527f43616c6c6572206e6f74207468652070726f706f7365642061646d696e0000006044820152fd5b505050346101fb57816003193601126101fb576001807f0000000000000000000000000000000000000000000000000000000000000000019282518085548082526020809201908197855282852090855b8181106117ab575050508261176f910383611bb1565b8451948186019282875251809352850195925b82811061178f5785870386f35b83516001600160a01b0316875295810195928101928401611782565b8254845292840192918701918701611759565b5050346101c25760203660031901126101c2576117d9611c93565b5f80516020612583833981519152546001600160a01b0391906117ff9083163314611feb565b169161182e8360017f000000000000000000000000000000000000000000000000000000000000000001612057565b1561185e57505033907fbb7fff487ca65a5841fe463ac801812d2aeb3c2059f6e44b2b3cdab8ee7c3db08380a380f35b906020606492519162461bcd60e51b8352820152601b60248201527a20b2323932b9b99030b63932b0b23c9034b99030903830bab9b2b960291b6044820152fd5b92919050346104675781600319360112610467578035926001600160401b0392602491908235858111610dc9576118da879136908701611bd4565b9261190960ff7f0000000000000000000000000000000000000000000000000000000000000000541615611eed565b1c8752600194602092867f000000000000000000000000000000000000000000000000000000000000000001845261194d60018060a01b03848b2054163314611f2b565b8789527f0000000000000000000000000000000000000000000000000000000000000000845282892096611980826124c4565b98898551917f8af909ffa127c333d18602940f67f3fd57368f15b6860033919818daa60c16848d80a388548a036119b5578a80f35b60c8835111611b465750899182919082825b611a2c575b5050505090620f42409116116119ef5750505050555f8080808080808080808a80f35b5162461bcd60e51b815292830152601b908201527a0a6e0d8d2e8e640eecad2ced0e8e640e6eada40e8dede40d0d2ced602b1b6044820152606490fd5b819492939451811015611b3e57611a438183612205565b519463ffffffff8987015116938415611afc57908d88868897969594011697519183611aa2575b50908592917feb9ab17f5929fcbcb68f4adf670d54c00ab00934512a4c92938d59b43a0463ea8c83978d51908152a3019091936119c7565b90508192939495501015611abc5790849392918d5f611a6a565b875162461bcd60e51b8152808c018a9052601b818c01527a14dc1b1a5d1cc81c9958d95a5d995c9cc81b9bdd081cdbdc9d1959602a1b6044820152606490fd5b885162461bcd60e51b8152808d018b9052601e818d01527f53706c69747320726563656976657220776569676874206973207a65726f00006044820152606490fd5b8294506119cc565b62461bcd60e51b815287810186905260198782015278546f6f206d616e792073706c6974732072656365697665727360381b6044820152606490fd5b606081019081106001600160401b03821117611b9d57604052565b634e487b7160e01b5f52604160045260245ffd5b601f909101601f19168101906001600160401b03821190821017611b9d57604052565b81601f82011215611c7b576001600160401b039181359190838311611b9d57604092835194602092611c0b848460051b0188611bb1565b828752838088019360061b86010194818611611c7b578401925b858410611c36575050505050505090565b8684830312611c7b5786519087820182811085821117611c7f57885284358252858501359063ffffffff82168203611c7b57828792838b950152815201930192611c25565b5f80fd5b60245f634e487b7160e01b81526041600452fd5b600435906001600160a01b0382168203611c7b57565b604435906001600160a01b0382168203611c7b57565b602435906001600160a01b0382168203611c7b57565b6001600160401b038111611b9d57601f01601f191660200190565b15611cf757565b60405162461bcd60e51b815260206004820152602c60248201525f805160206125a383398151915260448201526b19195b1959d85d1958d85b1b60a21b6064820152608490fd5b15611d4557565b60405162461bcd60e51b815260206004820152602c60248201525f805160206125a383398151915260448201526b6163746976652070726f787960a01b6064820152608490fd5b803b15611dc0575f805160206125c383398151915280546001600160a01b0319166001600160a01b03909216919091179055565b60405162461bcd60e51b815260206004820152602d60248201527f455243313936373a206e657720696d706c656d656e746174696f6e206973206e60448201526c1bdd08184818dbdb9d1c9858dd609a1b6064820152608490fd5b91929015611e7d5750815115611e2f575090565b3b15611e385790565b60405162461bcd60e51b815260206004820152601d60248201527f416464726573733a2063616c6c20746f206e6f6e2d636f6e74726163740000006044820152606490fd5b825190915015611e905750805190602001fd5b6040519062461bcd60e51b82528160208060048301528251908160248401525f935b828510611ed4575050604492505f838284010152601f80199101168101030190fd5b8481018201518686016044015293810193859350611eb2565b15611ef457565b60405162461bcd60e51b815260206004820152600f60248201526e10dbdb9d1c9858dd081c185d5cd959608a1b6044820152606490fd5b15611f3257565b60405162461bcd60e51b815260206004820152601b60248201527a21b0b63630b136329037b7363c90313c903a343290323934bb32b960291b6044820152606490fd5b6001600160801b039182169082160391908211611f8e57565b634e487b7160e01b5f52601160045260245ffd5b80546001600160801b031660809290921b6001600160801b031916919091179055565b6001600160801b039182169082160191908211611f8e57565b91908201809211611f8e57565b15611ff257565b60405162461bcd60e51b815260206004820152601460248201527321b0b63632b9103737ba103a34329030b236b4b760611b6044820152606490fd5b8054821015612043575f5260205f2001905f90565b634e487b7160e01b5f52603260045260245ffd5b61206182826120ba565b6120b457805490600160401b821015611b9d578261209f61208984600180960185558461202e565b819391549060031b91821b915f19901b19161790565b90558054925f520160205260405f2055600190565b50505f90565b6001915f520160205260405f2054151590565b9060018201905f92818452826020526040842054908115155f146121b3575f199180830181811161219f5782549084820191821161218b57808203612156575b5050508054801561214257820191612125838361202e565b909182549160031b1b191690555582526020526040812055600190565b634e487b7160e01b86526031600452602486fd5b612176612166612089938661202e565b90549060031b1c9283928661202e565b905586528460205260408620555f808061210d565b634e487b7160e01b88526011600452602488fd5b634e487b7160e01b87526011600452602487fd5b5050505090565b156121c157565b606460405162461bcd60e51b815260206004820152602060248201527f43616c6c6572206e6f74207468652061646d696e206f722061207061757365726044820152fd5b80518210156120435760209160051b010190565b905f915f93612227816124c4565b7f0000000000000000000000000000000000000000000000000000000000000000908387528160205260408720540361239457828652602090815260408087206001600160a01b038681168952600190910190925286208054919790966001600160801b039283811692908315612385576001600160801b031916895590805b8551821015612336579084808a818e8097966122c3878d612205565b516020015163ffffffff1601169687828a160216620f42409004160316809a0116986122ef8288612205565b51516122fc828b836123d8565b604051918252888d8b169260207f0f5c5377da15431a8fe400f76e6631e1d39a8c4b98de9e11d3386a181af86b8e91a460010190916122a7565b505095967fe21d6055950f21e524e22827c40bf5a9358c4a24a90b110fae69fb3011a2a9d993506123799083896020959b940316998a825460801c011690611fa2565b604051948886521693a3565b50975097505050505050508190565b606460405162461bcd60e51b815260206004820152602060248201527f496e76616c69642063757272656e742073706c697473207265636569766572736044820152fd5b5f527f0000000000000000000000000000000000000000000000000000000000000000602052600160405f20019060018060a01b03165f5260205260405f209081549061242e60018060801b0391828416611fc5565b6001600160801b03199092169116179055565b9190825f527f0000000000000000000000000000000000000000000000000000000000000000602052600160405f20019060018060a01b031690815f5260205260405f20928354938460801c9460018060801b031690557fda8ee04f8f2a5164dfc0b6c5ba78ebe975683b40c2500950b514e7444d3f541b6020604051868152a3565b80511561253d576040805190816020938482019483830190808752825180925280606085019301945f905b838210612513575050505061250d925003601f198101835282611bb1565b51902090565b86518051865283015163ffffffff16858401529582019587955093840193600191909101906124ef565b505f9056fe7e644d79422f17c01e4894b5f4f588d331ebfa28653d42ae832dc59e38c9798f4910fdfa16fed3260ed0e7147f7cc6da11a60208b5b9406d12a635614ffd9143b53127684a568b3173ae13b9f8a6016e243e63b6e8ee1178d6a717850b5d610346756e6374696f6e206d7573742062652063616c6c6564207468726f75676820360894a13ba1a3210667c828492db98dca3e2076cc3735a920a3ca505d382bbcbc7cd75a20ee27fd9adebab32041f755214dbc6bffa90cc0225b39da2e5c2d3b30e2797f85108749fb58c0e7da3e229828df7b148755f420c96d565c7ab6d83245524331393637557067726164653a206e657720696d706c656d656e74617469a26469706673582212207f8e85d56e7a7f81bef301d85ede92ad0b5f70f61ae5ff1d695a9ab9947e9ff664736f6c63430008140033","linkReferences":{}},"methodIdentifiers":{"DRIVER_ID_OFFSET()":"8e48a7e5","MAX_SPLITS_RECEIVERS()":"f11d5139","MAX_TOTAL_BALANCE()":"444e249f","TOTAL_SPLITS_WEIGHT()":"a69aff3c","acceptAdmin()":"0e18b681","admin()":"f851a440","allPausers()":"09d48a94","collect(uint256,address)":"8d3c100a","collectable(uint256,address)":"1ec026c8","emitAccountMetadata(uint256,(bytes32,bytes)[])":"69610257","forceCollect(uint256,address,address,address,address)":"be1ca322","give(uint256,uint256,address,uint128)":"d9e01070","grantPauser(address)":"09c1d95f","implementation()":"5c60da1b","isPaused()":"b187bd26","isPauser(address)":"46fbf68e","pause()":"8456cb59","proposeNewAdmin(address)":"a6376746","proposedAdmin()":"32f751ec","proxiableUUID()":"52d1902d","renounceAdmin()":"8bad0c0a","revokePauser(address)":"7fe76df0","setSplits(uint256,(uint256,uint32)[])":"02cfc753","split(uint256,address,(uint256,uint32)[])":"0ea2063a","splittable(uint256,address)":"f98e7e1d","unpause()":"3f4ba83a","upgradeTo(address)":"3659cfe6","upgradeToAndCall(address,bytes)":"4f1ef286"},"id":51}