{"abi":[{"type":"constructor","inputs":[{"name":"drips_","type":"address","internalType":"contract IDrips"},{"name":"forwarder","type":"address","internalType":"address"},{"name":"driverId_","type":"uint32","internalType":"uint32"}],"stateMutability":"nonpayable"},{"type":"function","name":"acceptAdmin","inputs":[],"outputs":[],"stateMutability":"nonpayable"},{"type":"function","name":"admin","inputs":[],"outputs":[{"name":"","type":"address","internalType":"address"}],"stateMutability":"view"},{"type":"function","name":"allPausers","inputs":[],"outputs":[{"name":"pausersList","type":"address[]","internalType":"address[]"}],"stateMutability":"view"},{"type":"function","name":"calcAccountId","inputs":[{"name":"addr","type":"address","internalType":"address"}],"outputs":[{"name":"accountId","type":"uint256","internalType":"uint256"}],"stateMutability":"view"},{"type":"function","name":"collect","inputs":[{"name":"erc20","type":"address","internalType":"contract IERC20"},{"name":"transferTo","type":"address","internalType":"address"}],"outputs":[{"name":"amt","type":"uint128","internalType":"uint128"}],"stateMutability":"nonpayable"},{"type":"function","name":"drips","inputs":[],"outputs":[{"name":"","type":"address","internalType":"contract IDrips"}],"stateMutability":"view"},{"type":"function","name":"driverId","inputs":[],"outputs":[{"name":"","type":"uint32","internalType":"uint32"}],"stateMutability":"view"},{"type":"function","name":"emitAccountMetadata","inputs":[{"name":"accountMetadata","type":"tuple[]","internalType":"struct AccountMetadata[]","components":[{"name":"key","type":"bytes32","internalType":"bytes32"},{"name":"value","type":"bytes","internalType":"bytes"}]}],"outputs":[],"stateMutability":"nonpayable"},{"type":"function","name":"forceCollect","inputs":[{"name":"erc20","type":"address","internalType":"contract IERC20"},{"name":"yieldManager","type":"address","internalType":"address"},{"name":"strategy","type":"address","internalType":"address"},{"name":"transferTo","type":"address","internalType":"address"},{"name":"strategyData","type":"bytes","internalType":"bytes"}],"outputs":[{"name":"amt","type":"uint128","internalType":"uint128"}],"stateMutability":"nonpayable"},{"type":"function","name":"give","inputs":[{"name":"receiver","type":"uint256","internalType":"uint256"},{"name":"erc20","type":"address","internalType":"contract IERC20"},{"name":"amt","type":"uint128","internalType":"uint128"}],"outputs":[],"stateMutability":"nonpayable"},{"type":"function","name":"grantPauser","inputs":[{"name":"pauser","type":"address","internalType":"address"}],"outputs":[],"stateMutability":"nonpayable"},{"type":"function","name":"implementation","inputs":[],"outputs":[{"name":"","type":"address","internalType":"address"}],"stateMutability":"view"},{"type":"function","name":"isPaused","inputs":[],"outputs":[{"name":"","type":"bool","internalType":"bool"}],"stateMutability":"view"},{"type":"function","name":"isPauser","inputs":[{"name":"pauser","type":"address","internalType":"address"}],"outputs":[{"name":"isAddrPauser","type":"bool","internalType":"bool"}],"stateMutability":"view"},{"type":"function","name":"isTrustedForwarder","inputs":[{"name":"forwarder","type":"address","internalType":"address"}],"outputs":[{"name":"","type":"bool","internalType":"bool"}],"stateMutability":"view"},{"type":"function","name":"pause","inputs":[],"outputs":[],"stateMutability":"nonpayable"},{"type":"function","name":"proposeNewAdmin","inputs":[{"name":"newAdmin","type":"address","internalType":"address"}],"outputs":[],"stateMutability":"nonpayable"},{"type":"function","name":"proposedAdmin","inputs":[],"outputs":[{"name":"","type":"address","internalType":"address"}],"stateMutability":"view"},{"type":"function","name":"proxiableUUID","inputs":[],"outputs":[{"name":"","type":"bytes32","internalType":"bytes32"}],"stateMutability":"view"},{"type":"function","name":"renounceAdmin","inputs":[],"outputs":[],"stateMutability":"nonpayable"},{"type":"function","name":"revokePauser","inputs":[{"name":"pauser","type":"address","internalType":"address"}],"outputs":[],"stateMutability":"nonpayable"},{"type":"function","name":"setSplits","inputs":[{"name":"receivers","type":"tuple[]","internalType":"struct SplitsReceiver[]","components":[{"name":"accountId","type":"uint256","internalType":"uint256"},{"name":"weight","type":"uint32","internalType":"uint32"}]}],"outputs":[],"stateMutability":"nonpayable"},{"type":"function","name":"setStreams","inputs":[{"name":"erc20","type":"address","internalType":"contract IERC20"},{"name":"currReceivers","type":"tuple[]","internalType":"struct StreamReceiver[]","components":[{"name":"accountId","type":"uint256","internalType":"uint256"},{"name":"config","type":"uint256","internalType":"StreamConfig"}]},{"name":"balanceDelta","type":"int128","internalType":"int128"},{"name":"newReceivers","type":"tuple[]","internalType":"struct StreamReceiver[]","components":[{"name":"accountId","type":"uint256","internalType":"uint256"},{"name":"config","type":"uint256","internalType":"StreamConfig"}]},{"name":"maxEndHint1","type":"uint32","internalType":"uint32"},{"name":"maxEndHint2","type":"uint32","internalType":"uint32"},{"name":"transferTo","type":"address","internalType":"address"}],"outputs":[{"name":"realBalanceDelta","type":"int128","internalType":"int128"}],"stateMutability":"nonpayable"},{"type":"function","name":"unpause","inputs":[],"outputs":[],"stateMutability":"nonpayable"},{"type":"function","name":"upgradeTo","inputs":[{"name":"newImplementation","type":"address","internalType":"address"}],"outputs":[],"stateMutability":"nonpayable"},{"type":"function","name":"upgradeToAndCall","inputs":[{"name":"newImplementation","type":"address","internalType":"address"},{"name":"data","type":"bytes","internalType":"bytes"}],"outputs":[],"stateMutability":"payable"},{"type":"event","name":"AdminChanged","inputs":[{"name":"previousAdmin","type":"address","indexed":false,"internalType":"address"},{"name":"newAdmin","type":"address","indexed":false,"internalType":"address"}],"anonymous":false},{"type":"event","name":"BeaconUpgraded","inputs":[{"name":"beacon","type":"address","indexed":true,"internalType":"address"}],"anonymous":false},{"type":"event","name":"NewAdminProposed","inputs":[{"name":"currentAdmin","type":"address","indexed":true,"internalType":"address"},{"name":"newAdmin","type":"address","indexed":true,"internalType":"address"}],"anonymous":false},{"type":"event","name":"Paused","inputs":[{"name":"pauser","type":"address","indexed":true,"internalType":"address"}],"anonymous":false},{"type":"event","name":"PauserGranted","inputs":[{"name":"pauser","type":"address","indexed":true,"internalType":"address"},{"name":"admin","type":"address","indexed":true,"internalType":"address"}],"anonymous":false},{"type":"event","name":"PauserRevoked","inputs":[{"name":"pauser","type":"address","indexed":true,"internalType":"address"},{"name":"admin","type":"address","indexed":true,"internalType":"address"}],"anonymous":false},{"type":"event","name":"Unpaused","inputs":[{"name":"pauser","type":"address","indexed":true,"internalType":"address"}],"anonymous":false},{"type":"event","name":"Upgraded","inputs":[{"name":"implementation","type":"address","indexed":true,"internalType":"address"}],"anonymous":false}],"bytecode":{"object":"0x610120346200021757601f6200246e38819003918201601f19168301916001600160401b03918284118585101762000203578160609286926040968752833981010312620002175782516001600160a01b0393909190848316830362000217576020810151948516850362000217578301519363ffffffff8516850362000217576080523060a0528251908184019081118282101762000203578352601781527f656970313936372e6d616e616765642e73746f726167650000000000000000006020909101527fe8b5d5c9b680c1fe7b4e140cb3994baa0dd775346136353dbe31ddb68b924fa78060c052600160ff1982541617905560e0526101009182525161225291826200021c8339608051828181610cfb0152611ca2015260a051828181610d3801528181610e59015261121a015260c05182818161023801528181610485015281816105a001528181610633015281816106d401528181610864015281816108dc01528181610947015281816109be01528181610b21015281816110b801528181611125015281816111c6015281816113d1015281816114670152818161158201528181611702015281816117da01526118c3015260e0518281816102b2015281816104ae0152818161072d01528181610a6501528181610b8b015281816114ab015281816115ab0152611ddf01525181818161027e01526106860152f35b634e487b7160e01b5f52604160045260245ffd5b5f80fdfe60406080815260049081361015610014575f80fd5b5f91823560e01c90816309c1d95f1461187857816309d48a94146117c35781630e18b681146116ed5781630e64589d1461152b5783826321164d3f1461142e5750816328c2813c1461140657816332f751ec146113bb5781633659cfe6146111f25781633f4ba83a146110e657816346fbf68e1461108a5781634f1ef28614610ddf57816352d1902d14610d22578163572b6c0514610cd05781635c60da1b14610c9b5781636d2befc714610a945781637c435d2914610a505781637fe76df0146109735781638456cb591461089f5781638bad0c0a1461080f578163a12ef25e146106aa578163a1694a7714610669578163a6376746146105ca578163b187bd2614610587578163d30df0371461044b578163dde554c614610177575063f851a44014610140575f80fd5b346101735781600319360112610173575f8051602061217d8339815191525490516001600160a01b039091168152602090f35b5080fd5b919050346103bb576003199160e0368401126103c957610195611959565b6001600160401b0393909190602435858111610413576101b89036908401611a05565b919060443580600f0b9788820361044757606435908111610447576101e09036908701611a05565b6084959195359063ffffffff908183168093036104435760a4359182168092036104435760c4359b6001600160a01b0391828e168e9003610443578c998f97996102fd60209a8f9c998f9a97610311988f61025f60ff7f0000000000000000000000000000000000000000000000000000000000000000541615611c61565b6102a561026a611c9f565b6001600160a01b03166001600160e01b03197f000000000000000000000000000000000000000000000000000000000000000060e01b161790565b9e8a13610429575b5050807f0000000000000000000000000000000000000000000000000000000000000000169f519e8f9d8e9d8e63b3a3a57360e01b815201521660248c015260e060448c015260e48b0191611d75565b936064890152878403016084880152611d75565b9160a484015260c483015203818a865af190811561041f5787916103e0575b50600f0b94868612610347575b6020868651908152f35b60016001607f1b031986146103cd5790869291813b156103c9578551636ce5768960e11b8152948593849286928492610390926001600160801b038d8703169290918501611d4b565b03925af180156103bf576103a7575b80808061033d565b6103b18491611985565b6103bb578261039f565b8280fd5b82513d86823e3d90fd5b8380fd5b634e487b7160e01b875260118352602487fd5b90506020813d8211610417575b816103fa602093836119c7565b81010312610413575180600f0b8103610413575f610330565b8680fd5b3d91506103ed565b85513d89823e3d90fd5b61043c916001600160801b031690611db3565b5f8f6102ad565b5f80fd5b8980fd5b8391503461017357602092836003193601126103bb5781356001600160401b0381116103c95761047e9036908401611a05565b6104ac60ff7f0000000000000000000000000000000000000000000000000000000000000000541615611c61565b7f00000000000000000000000000000000000000000000000000000000000000006001600160a01b0316956104e261026a611c9f565b94873b1561041357918091928551966302cfc75360e01b885260448801918801528560248801525260648501929186905b8282106105555750505050828495818681819503925af190811561054c57506105395750f35b61054290611985565b6105495780f35b80fd5b513d84823e3d90fd5b9091929384358152818501359063ffffffff821680920361044357828101919091528501938501929160010190610513565b50503461017357816003193601126101735760209060ff7f0000000000000000000000000000000000000000000000000000000000000000541690519015158152f35b8334610549576020366003190112610549576105e4611959565b5f8051602061217d833981519152546001600160a01b03919061060a9083163314611f22565b1680337fed2d93e7985747cd1a4a093c2cc3bb73d0f177b81bdfd26020e8f20a97e8112e8480a37f000000000000000000000000000000000000000000000000000000000000000060030180546001600160a01b031916909117905580f35b5050346101735781600319360112610173576020905163ffffffff7f0000000000000000000000000000000000000000000000000000000000000000168152f35b919050346103bb57806003193601126103bb576106c5611959565b6106cd61196f565b6106fb60ff7f0000000000000000000000000000000000000000000000000000000000000000541615611c61565b61070661026a611c9f565b835163469e080560e11b8152858101919091526001600160a01b03808416602483015290927f0000000000000000000000000000000000000000000000000000000000000000909116906020846044818a865af193841561041f5787946107df575b506001600160801b0384169586610784575b6020878751908152f35b9082918894933b156107db5784906107af885197889687958694636ce5768960e11b86528501611d4b565b03925af180156103bf576107c7575b8080808061077a565b6107d18491611985565b6103bb57826107be565b8480fd5b61080191945060203d8111610808575b6107f981836119c7565b810190611d0c565b925f610768565b503d6107ef565b5050346101735781600319360112610173575f8051602061217d833981519152805490915f8051602061213d833981519152916001600160a01b0316610856338214611f22565b81519081525f6020820152a17f000000000000000000000000000000000000000000000000000000000000000060030180546001600160a01b0319908116909155815416905580f35b83346105495780600319360112610549575f8051602061217d833981519152546001600160a01b03163314801561093b575b6108da906120f1565b7f00000000000000000000000000000000000000000000000000000000000000006001815461090c60ff821615611c61565b60ff1916179055337f62e78cea01bee320cd4e420270b5ea74000d11b0c9f74754ebdbfc544b05a2588280a280f35b506108da61096c3360017f000000000000000000000000000000000000000000000000000000000000000001611ff1565b90506108d1565b9050346103bb5760203660031901126103bb5761098e611959565b5f8051602061217d833981519152546001600160a01b0391906109b49083163314611f22565b16916109e38360017f000000000000000000000000000000000000000000000000000000000000000001612004565b15610a1357505033907ffd55549bcbafb9531a61db3cfb88d1cca64e215b12def56e6ea913fe1ac91fd28380a380f35b906020606492519162461bcd60e51b8352820152601760248201527620b2323932b9b99034b9903737ba1030903830bab9b2b960491b6044820152fd5b505034610173578160031936011261017357517f00000000000000000000000000000000000000000000000000000000000000006001600160a01b03168152602090f35b919050346103bb5760a03660031901126103bb57610ab0611959565b91610ab961196f565b6001600160a01b03939060443590858216908183036104435760643596808816809803610443576001600160401b039789956084359290918a8411610c975736602385011215610c9757838901359a8b11610c97573660248c86010111610c9757610b4860ff7f0000000000000000000000000000000000000000000000000000000000000000541615611c61565b81610b5461026a611c9f565b95818c5195635f0e519160e11b8752888d8801521660248601521695866044850152606484015260848301528160a48160209d8e947f0000000000000000000000000000000000000000000000000000000000000000165af1908115610c8d578a610c0b8897969593948895610c19948791610c70575b508c51958694850198635ee305c360e01b8a526024860152604485015260018060801b03169c8d606485015260806084850152602460a485019201611d2b565b03601f1981018352826119c7565b51925af1610c25611b60565b5015610c32575051908152f35b83606492519162461bcd60e51b8352820152601a60248201527914dd1c985d1959de481dda5d1a191c985dd85b0819985a5b195960321b6044820152fd5b610c879150843d8611610808576107f981836119c7565b5f610bcb565b88513d88823e3d90fd5b8780fd5b5050346101735781600319360112610173575f805160206121bd8339815191525490516001600160a01b039091168152602090f35b50503461017357602036600319011261017357602090610cee611959565b90519060018060a01b03807f0000000000000000000000000000000000000000000000000000000000000000169116148152f35b90508234610549578060031936011261054957507f00000000000000000000000000000000000000000000000000000000000000006001600160a01b03163003610d7c57602082515f805160206121bd8339815191528152f35b6020608492519162461bcd60e51b8352820152603860248201527f555550535570677261646561626c653a206d757374206e6f742062652063616c6044820152771b1959081d1a1c9bdd59da0819195b1959d85d1958d85b1b60421b6064820152fd5b918091506003193601126103bb57610df5611959565b90602435906001600160401b0382116107db57366023830112156107db5781840135610e20816119ea565b610e2c835191826119c7565b818152866020948583019336602482840101116103bb578060248893018637830101526001600160a01b037f0000000000000000000000000000000000000000000000000000000000000000811690610e8730831415611a35565b610ea35f805160206121bd833981519152928284541614611a83565b610ebe815f8051602061217d83398151915254163314611f22565b5f8051602061215d8339815191525460ff1615610ee857505050505050610ee59150611ad1565b80f35b8693949596169085516352d1902d60e01b815287818a81865afa5f918161105b575b50610f5657865162461bcd60e51b8152808a01899052602e60248201525f805160206121fd83398151915260448201526d6f6e206973206e6f74205555505360901b6064820152608490fd5b9791929497959395036110065750610f6d84611ad1565b5f805160206121dd8339815191525f80a2815115801590610ffe575b610f96575b505050505080f35b610ff3945f92660819985a5b195960ca1b837f416464726573733a206c6f772d6c6576656c2064656c65676174652063616c6c86955198610fd68a6119ac565b60278a528901528701525190845af4610fed611b60565b91611b8f565b505f80808080610f8e565b506001610f89565b825162461bcd60e51b8152908101869052602960248201527f45524331393637557067726164653a20756e737570706f727465642070726f786044820152681a58589b195555525160ba1b6064820152608490fd5b90918982813d8311611083575b61107281836119c7565b81010312610549575051905f610f0a565b503d611068565b505034610173576020366003190112610173576020906110dd6001600160a01b036110b3611959565b1660017f000000000000000000000000000000000000000000000000000000000000000001611ff1565b90519015158152f35b919050346103bb57826003193601126103bb575f8051602061217d833981519152546001600160a01b0316331480156111ba575b611123906120f1565b7f00000000000000000000000000000000000000000000000000000000000000009182549160ff83161561118157505060ff19169055337f5db9ee0a495bf2e6ff9c91a7834c1ba4fdd244a5e8aa4e537bd38aeae4b073aa8280a280f35b906020606492519162461bcd60e51b8352820152601360248201527210dbdb9d1c9858dd081b9bdd081c185d5cd959606a1b6044820152fd5b506111236111eb3360017f000000000000000000000000000000000000000000000000000000000000000001611ff1565b905061111a565b919050346103bb576020806003193601126103c95761120f611959565b916001600160a01b037f0000000000000000000000000000000000000000000000000000000000000000811661124730821415611a35565b6112635f805160206121bd833981519152918383541614611a83565b61127e825f8051602061217d83398151915254163314611f22565b8251848101929091906001600160401b038411838510176113a8578385528883525f8051602061215d8339815191525460ff16156112c657505050505050610ee59150611ad1565b8693949596169085516352d1902d60e01b815287818a81865afa5f9181611379575b5061133457865162461bcd60e51b8152808a01899052602e60248201525f805160206121fd83398151915260448201526d6f6e206973206e6f74205555505360901b6064820152608490fd5b979192949795939503611006575061134b84611ad1565b5f805160206121dd8339815191525f80a281511580159061137257610f9657505050505080f35b505f610f89565b90918982813d83116113a1575b61139081836119c7565b81010312610549575051905f6112e8565b503d611386565b604188634e487b7160e01b5f525260245ffd5b50503461017357816003193601126101735760037f0000000000000000000000000000000000000000000000000000000000000000015490516001600160a01b039091168152602090f35b5050346101735760203660031901126101735760209061142761026a611959565b9051908152f35b809184346115275760603660031901126115275761144a61196f565b91604435906001600160801b0382168083036115235761148e60ff7f0000000000000000000000000000000000000000000000000000000000000000541615611c61565b61149961026a611c9f565b9281611513575b506001600160a01b037f000000000000000000000000000000000000000000000000000000000000000081169390843b15610c9757879460849386928851998a978896630d9e010760e41b88528188015235602487015216604485015260648401525af190811561054c57506105395750f35b61151d9086611db3565b876114a0565b8580fd5b5050fd5b919050346103bb576020806003193601126103c9576001600160401b0390833582811161152357366023820112156115235780850135838111610413578060051b92602493368582860101116116e9576115a960ff7f0000000000000000000000000000000000000000000000000000000000000000541615611c61565b7f00000000000000000000000000000000000000000000000000000000000000006001600160a01b0316956115df61026a611c9f565b95873b156116e557939895928a97958a928a519b8c99636961025760e01b8b52604497888c01918c01528c898c0152526064808a01958a010196808301968b93606219813603015b87861061165957505050505050505050508383809203925af190811561054c5750611650575080f35b610ee590611985565b9295989b909396999194979a9c50606319908203018a528a35828112156116e157830185810135825284810135604219823603018112156116dc5701848101908601358781116116dc5780360382136116dc576116c58f928b9392838686958660019901520191611d2b565b9c019a019601928d9a9895928f9c9a989592611627565b508f80fd5b8f80fd5b8a80fd5b8880fd5b919050346103bb57826003193601126103bb577f000000000000000000000000000000000000000000000000000000000000000060030180546001600160a01b0393909290338585160361178157505f8051602061213d833981519152905f8051602061217d833981519152948554168151908152336020820152a16001600160a01b031991821690558154163317905580f35b6020606492519162461bcd60e51b8352820152601d60248201527f43616c6c6572206e6f74207468652070726f706f7365642061646d696e0000006044820152fd5b5050346101735781600319360112610173576001807f0000000000000000000000000000000000000000000000000000000000000000019282518085548082526020809201908197855282852090855b81811061186557505050826118299103836119c7565b8451948186019282875251809352850195925b8281106118495785870386f35b83516001600160a01b031687529581019592810192840161183c565b8254845292840192918701918701611813565b9050346103bb5760203660031901126103bb57611893611959565b5f8051602061217d833981519152546001600160a01b0391906118b99083163314611f22565b16916118e88360017f000000000000000000000000000000000000000000000000000000000000000001611f8e565b1561191857505033907fbb7fff487ca65a5841fe463ac801812d2aeb3c2059f6e44b2b3cdab8ee7c3db08380a380f35b906020606492519162461bcd60e51b8352820152601b60248201527a20b2323932b9b99030b63932b0b23c9034b99030903830bab9b2b960291b6044820152fd5b600435906001600160a01b038216820361044357565b602435906001600160a01b038216820361044357565b6001600160401b03811161199857604052565b634e487b7160e01b5f52604160045260245ffd5b606081019081106001600160401b0382111761199857604052565b601f909101601f19168101906001600160401b0382119082101761199857604052565b6001600160401b03811161199857601f01601f191660200190565b9181601f84011215610443578235916001600160401b038311610443576020808501948460061b01011161044357565b15611a3c57565b60405162461bcd60e51b815260206004820152602c60248201525f8051602061219d83398151915260448201526b19195b1959d85d1958d85b1b60a21b6064820152608490fd5b15611a8a57565b60405162461bcd60e51b815260206004820152602c60248201525f8051602061219d83398151915260448201526b6163746976652070726f787960a01b6064820152608490fd5b803b15611b05575f805160206121bd83398151915280546001600160a01b0319166001600160a01b03909216919091179055565b60405162461bcd60e51b815260206004820152602d60248201527f455243313936373a206e657720696d706c656d656e746174696f6e206973206e60448201526c1bdd08184818dbdb9d1c9858dd609a1b6064820152608490fd5b3d15611b8a573d90611b71826119ea565b91611b7f60405193846119c7565b82523d5f602084013e565b606090565b91929015611bf15750815115611ba3575090565b3b15611bac5790565b60405162461bcd60e51b815260206004820152601d60248201527f416464726573733a2063616c6c20746f206e6f6e2d636f6e74726163740000006044820152606490fd5b825190915015611c045750805190602001fd5b6040519062461bcd60e51b82528160208060048301528251908160248401525f935b828510611c48575050604492505f838284010152601f80199101168101030190fd5b8481018201518686016044015293810193859350611c26565b15611c6857565b60405162461bcd60e51b815260206004820152600f60248201526e10dbdb9d1c9858dd081c185d5cd959608a1b6044820152606490fd5b337f00000000000000000000000000000000000000000000000000000000000000006001600160a01b03161480611d01575b15611cfd576013193601368111611ce9573560601c90565b634e487b7160e01b5f52601160045260245ffd5b3390565b506014361015611cd1565b9081602091031261044357516001600160801b03811681036104435790565b908060209392818452848401375f828201840152601f01601f1916010190565b6001600160a01b039182168152911660208201526001600160801b03909116604082015260600190565b9190808252602080920192915f905b828210611d92575050505090565b83358552838101358582015260409485019490930192600190910190611d84565b611dbb611c9f565b6040516323b872dd60e01b602082019081526001600160a01b0392831660248301527f0000000000000000000000000000000000000000000000000000000000000000831660448301526001600160801b0390941660648083019190915281526001600160401b039260a0820192908484118385101761199857169060e08101938385109085111761199857611e8b93604052602083527f5361666545524332303a206c6f772d6c6576656c2063616c6c206661696c656460c08201525f80958192519082855af1610fed611b60565b908151918215928315611efb575b50505015611ea357565b60405162461bcd60e51b815260206004820152602a60248201527f5361666545524332303a204552433230206f7065726174696f6e20646964206e6044820152691bdd081cdd58d8d9595960b21b6064820152608490fd5b819293509060209181010312610173576020015190811515820361054957505f8080611e99565b15611f2957565b60405162461bcd60e51b815260206004820152601460248201527321b0b63632b9103737ba103a34329030b236b4b760611b6044820152606490fd5b8054821015611f7a575f5260205f2001905f90565b634e487b7160e01b5f52603260045260245ffd5b611f988282611ff1565b611feb57805490600160401b8210156119985782611fd6611fc0846001809601855584611f65565b819391549060031b91821b915f19901b19161790565b90558054925f520160205260405f2055600190565b50505f90565b6001915f520160205260405f2054151590565b9060018201905f92818452826020526040842054908115155f146120ea575f19918083018181116120d6578254908482019182116120c25780820361208d575b505050805480156120795782019161205c8383611f65565b909182549160031b1b191690555582526020526040812055600190565b634e487b7160e01b86526031600452602486fd5b6120ad61209d611fc09386611f65565b90549060031b1c92839286611f65565b905586528460205260408620555f8080612044565b634e487b7160e01b88526011600452602488fd5b634e487b7160e01b87526011600452602487fd5b5050505090565b156120f857565b606460405162461bcd60e51b815260206004820152602060248201527f43616c6c6572206e6f74207468652061646d696e206f722061207061757365726044820152fdfe7e644d79422f17c01e4894b5f4f588d331ebfa28653d42ae832dc59e38c9798f4910fdfa16fed3260ed0e7147f7cc6da11a60208b5b9406d12a635614ffd9143b53127684a568b3173ae13b9f8a6016e243e63b6e8ee1178d6a717850b5d610346756e6374696f6e206d7573742062652063616c6c6564207468726f75676820360894a13ba1a3210667c828492db98dca3e2076cc3735a920a3ca505d382bbcbc7cd75a20ee27fd9adebab32041f755214dbc6bffa90cc0225b39da2e5c2d3b45524331393637557067726164653a206e657720696d706c656d656e74617469a26469706673582212207eba38e56dc9373d1e9538c771b164307ebe9f969f717c06c0b2e9a66468dff164736f6c63430008140033","linkReferences":{}},"methodIdentifiers":{"acceptAdmin()":"0e18b681","admin()":"f851a440","allPausers()":"09d48a94","calcAccountId(address)":"28c2813c","collect(address,address)":"a12ef25e","drips()":"7c435d29","driverId()":"a1694a77","emitAccountMetadata((bytes32,bytes)[])":"0e64589d","forceCollect(address,address,address,address,bytes)":"6d2befc7","give(uint256,address,uint128)":"21164d3f","grantPauser(address)":"09c1d95f","implementation()":"5c60da1b","isPaused()":"b187bd26","isPauser(address)":"46fbf68e","isTrustedForwarder(address)":"572b6c05","pause()":"8456cb59","proposeNewAdmin(address)":"a6376746","proposedAdmin()":"32f751ec","proxiableUUID()":"52d1902d","renounceAdmin()":"8bad0c0a","revokePauser(address)":"7fe76df0","setSplits((uint256,uint32)[])":"d30df037","setStreams(address,(uint256,uint256)[],int128,(uint256,uint256)[],uint32,uint32,address)":"dde554c6","unpause()":"3f4ba83a","upgradeTo(address)":"3659cfe6","upgradeToAndCall(address,bytes)":"4f1ef286"},"id":45}