{"abi":[{"type":"constructor","inputs":[{"name":"_yieldManager","type":"address","internalType":"address"}],"stateMutability":"nonpayable"},{"type":"function","name":"DEX","inputs":[],"outputs":[{"name":"","type":"address","internalType":"address"}],"stateMutability":"view"},{"type":"function","name":"forceWithdraw","inputs":[{"name":"yieldManagerAddr","type":"address","internalType":"address"},{"name":"accountId","type":"uint256","internalType":"uint256"},{"name":"amount","type":"uint128","internalType":"uint128"},{"name":"strategyData","type":"bytes","internalType":"bytes"}],"outputs":[],"stateMutability":"nonpayable"},{"type":"function","name":"getDexBalance","inputs":[{"name":"token","type":"address","internalType":"address"}],"outputs":[{"name":"","type":"uint128","internalType":"uint128"}],"stateMutability":"view"},{"type":"function","name":"getOrderState","inputs":[{"name":"orderId","type":"uint128","internalType":"uint128"}],"outputs":[{"name":"remaining","type":"uint128","internalType":"uint128"},{"name":"originalAmount","type":"uint128","internalType":"uint128"},{"name":"isFilled","type":"bool","internalType":"bool"},{"name":"isFlip","type":"bool","internalType":"bool"},{"name":"tick","type":"int16","internalType":"int16"},{"name":"flipTick","type":"int16","internalType":"int16"}],"stateMutability":"view"},{"type":"function","name":"invest","inputs":[{"name":"amount","type":"uint256","internalType":"uint256"},{"name":"strategyData","type":"bytes","internalType":"bytes"}],"outputs":[{"name":"positionData","type":"bytes","internalType":"bytes"}],"stateMutability":"nonpayable"},{"type":"function","name":"isOrderActive","inputs":[{"name":"orderId","type":"uint128","internalType":"uint128"}],"outputs":[{"name":"","type":"bool","internalType":"bool"}],"stateMutability":"view"},{"type":"function","name":"withdraw","inputs":[{"name":"positionData","type":"bytes","internalType":"bytes"},{"name":"amount","type":"uint256","internalType":"uint256"},{"name":"strategyData","type":"bytes","internalType":"bytes"}],"outputs":[{"name":"withdrawn","type":"uint256","internalType":"uint256"}],"stateMutability":"nonpayable"},{"type":"function","name":"yieldManager","inputs":[],"outputs":[{"name":"","type":"address","internalType":"address"}],"stateMutability":"view"},{"type":"event","name":"FlipOrderPlaced","inputs":[{"name":"orderId","type":"uint128","indexed":true,"internalType":"uint128"},{"name":"token","type":"address","indexed":true,"internalType":"address"},{"name":"amount","type":"uint128","indexed":false,"internalType":"uint128"},{"name":"tick","type":"int16","indexed":false,"internalType":"int16"},{"name":"flipTick","type":"int16","indexed":false,"internalType":"int16"},{"name":"isBid","type":"bool","indexed":false,"internalType":"bool"}],"anonymous":false},{"type":"event","name":"ForceWithdrawal","inputs":[{"name":"accountId","type":"uint256","indexed":true,"internalType":"uint256"},{"name":"amount","type":"uint128","indexed":false,"internalType":"uint128"}],"anonymous":false},{"type":"event","name":"OrderCancelled","inputs":[{"name":"orderId","type":"uint128","indexed":true,"internalType":"uint128"},{"name":"withdrawn","type":"uint256","indexed":false,"internalType":"uint256"}],"anonymous":false},{"type":"error","name":"InsufficientAmount","inputs":[]},{"type":"error","name":"NotYieldManager","inputs":[]},{"type":"error","name":"OrderStillActive","inputs":[]}],"bytecode":{"object":"0x60a03461007857601f6113ee38819003918201601f19168301916001600160401b0383118484101761007c5780849260209460405283398101031261007857516001600160a01b03811681036100785760805260405161135d908161009182396080518181816101640152818161045f0152610b500152f35b5f80fd5b634e487b7160e01b5f52604160045260245ffdfe60806040818152600480361015610014575f80fd5b5f92833560e01c90816320fb958e14610afa5750806331f9a21114610a375780635700d9ff1461098a5780635ee305c3146104ae57806380935aa91461048e57806380b7af181461044a5780639dc21d471461011f5763ccc2579814610078575f80fd5b3461011b57602036600319011261011b57610091610e31565b825163022fa82560e31b81526001600160801b03918216928101929092529061016090818160248161037b60961b5afa918215610111579060c09291602096926100e4575b505001511615159051908152f35b6101039250803d1061010a575b6100fb8183610f05565b8101906111e7565b5f806100d6565b503d6100f1565b84513d87823e3d90fd5b8280fd5b509190346104465780600319360112610446576001600160401b0392803591906024908135868111610442576101589036908301610e04565b6001600160a01b0391907f00000000000000000000000000000000000000000000000000000000000000008316330361043257816080918101031261042e576101a081610eaf565b906020966101af888301610ec3565b936101c760606101c08a8601610ec3565b9401610ed1565b931698811580156103be575b1561037057875163095ea7b360e01b8a82015261037b60961b888201819052604480830185905282529490608081018d81118282101761035e578c60a48a868f94968f9998978f97610227918c5286610f7e565b60018060801b03809916809a51978896879563922828f160e01b875286015284015215159b8c604484015260010b998a606484015260010b9a8b60848401525af1918215610353578092610318575b50501698808a7ff50925b92028b7fbd70aef765f4969b88986aaf402883d7a77ffe33736664ff660808c878d5191888352820152888d820152896060820152a3875199898b0152878a01526060890152608088015260a087015260c086015260c0855260e085019585871090871117610307575050839052825260df1990610302610100820182610e71565b030190f35b604190634e487b7160e01b5f52525ffd5b9091508a82813d831161034c575b6103308183610f05565b81010312610349575061034290610f28565b5f80610276565b80fd5b503d610326565b8a51903d90823e3d90fd5b8960418a634e487b7160e01b5f52525ffd5b875162461bcd60e51b81528087018a90526036818901525f8051602061130883398151915260448201527520746f206e6f6e2d7a65726f20616c6c6f77616e636560501b6064820152608490fd5b508751636eb1769f60e11b8152308782015261037b60961b8882015289816044818e5afa908115610424575f916103f7575b50156101d3565b908a82813d831161041d575b61040d8183610f05565b810103126103495750515f6103f0565b503d610403565b89513d5f823e3d90fd5b8680fd5b8551634f65872f60e11b81528490fd5b8580fd5b5080fd5b505034610446578160031936011261044657517f00000000000000000000000000000000000000000000000000000000000000006001600160a01b03168152602090f35b5050346104465781600319360112610446575161037b60961b8152602090f35b50903461011b57608036600319011261011b576104c9610e5b565b60248035936001600160801b0360443581811694908590036109865787916001600160401b036064358181116106cc576105069036908701610e04565b89516369aa90d760e01b81528781018c90526001600160a01b0396909460c09491939092909185878c818b8d165afa96871561097c57918b93918a9387996108b5575b5050906105589181019061116d565b505050509190911694838d519263022fa82560e31b84521691828b82015261016090818161037b60961b9681885afa9182156108aa579086939291889261088d575b5050015116610845575b508a51633de222bb60e21b815291602083806105c388308e8401610f3c565b0381855afa92831561083b5784936107fb575b50821661079a575b50505086158015610730575b156106e25783838a958a602098956106378f96986084996106328f8f9061062490885195869363095ea7b360e01b60208601528401610f56565b03601f198101845283610f05565b610f7e565b0151168a519889978896630418065160e51b885287015230908601526044850152886064850152165af180156106d857610687575b506020905f805160206112e88339815191529251908152a280f35b906020823d6020116106d0575b816106a160209383610f05565b810103126106cc575f805160206112e8833981519152926106c3602093610f28565b5092509061066c565b8480fd5b3d9150610694565b83513d87823e3d90fd5b875162461bcd60e51b81526020818701526036818801525f8051602061130883398151915260448201527520746f206e6f6e2d7a65726f20616c6c6f77616e636560501b6064820152608490fd5b508751636eb1769f60e11b81526020818061074e87308b8401610f3c565b0381855afa908115610424575f91610768575b50156105ea565b906020823d602011610792575b8161078260209383610f05565b810103126103495750515f610761565b3d9150610775565b803b1561011b576107c491839185838b8f51968795869485936308fab16760e01b855284016112c4565b03925af180156107f1576107d9575b806105de565b6107e290610ede565b6107ed57895f6107d3565b8980fd5b8a513d84823e3d90fd5b9092506020813d602011610833575b8161081760209383610f05565b8101031261082f5761082890610f28565b915f6105d6565b8380fd5b3d915061080a565b8c513d86823e3d90fd5b813b1561082f578b51906340b24e8360e11b82528982015283818b8183865af1801561083b57908491610879575b506105a4565b61088290610ede565b61011b57825f610873565b6108a39250803d1061010a576100fb8183610f05565b5f8061059a565b508e513d88823e3d90fd5b9350949550965091508481813d8311610975575b6108d38183610f05565b81010312610971578b51928584019081118482101761095f578c52805183528d93929190610903602082016111c5565b60208401528c81015191898316830361044257836109518f610558948f979660a0928f98015261093560608201610f28565b6060850152610946608082016111c5565b608085015201610f71565b60a08201529790915f610549565b8a60418b634e487b7160e01b5f52525ffd5b8d80fd5b503d6108c9565b8d513d87823e3d90fd5b5f80fd5b50919034610446576020928360031936011261011b57836109c8916109ad610e5b565b8451633de222bb60e21b815293849283929030908401610f3c565b038161037b60961b5afa928315610a2c5780936109f2575b5050516001600160801b039091168152f35b909192508382813d8311610a25575b610a0b8183610f05565b810103126103495750610a1d90610f28565b905f806109e0565b503d610a01565b8251903d90823e3d90fd5b503461011b57602036600319011261011b57610a51610e31565b825163022fa82560e31b81526001600160801b03918216928101929092529061016090818160248161037b60961b5afa9182156101115760c09592610add575b50508184820151169160a0820151169261012082015115159061014060808401519301519381519581875260208701521590850152606084015260010b608083015260010b60a0820152f35b610af39250803d1061010a576100fb8183610f05565b5f80610a91565b8484843461011b57606036600319011261011b576001600160401b0381358181116106cc57610b2c9036908401610e04565b9160443590811161044257610b449036908501610e04565b506001600160a01b03967f00000000000000000000000000000000000000000000000000000000000000009391508784163303610df6575090610b899181019061116d565b5050865163022fa82560e31b81526001600160801b0394851687820181905294999496939094169361037b60961b925061016091508181602481865afa918215610d7f579160c0918b938b92610dd9575b5050015116610d89575b8551633de222bb60e21b8152602098898280610c038830898401610f3c565b0381865afa918215610d7f578992610d44575b508116610ce7575b50508451906370a0823160e01b825230908201528681602481855afa958615610cdc5795610cad575b50849081610c81575b5050507f16b7a616f3e7c72ec9d656c19e34aa8cd5ac1ae73b80bd9e267d7963a0cf6859848351858152a251908152f35b610632610ca593610624875194859263a9059cbb60e01b8c85015260248401610f56565b848381610c50565b9094508581813d8311610cd5575b610cc58183610f05565b8101031261098657519386610c47565b503d610cbb565b8551903d90823e3d90fd5b813b15610d4057610d108892839289519485809481936308fab16760e01b83528a8a84016112c4565b03925af18015610d365790879115610c1e57610d2b90610ede565b610442578588610c1e565b86513d89823e3d90fd5b8780fd5b9091508981813d8311610d78575b610d5c8183610f05565b81010312610d7457610d6d90610f28565b908a610c16565b8880fd5b503d610d52565b88513d8b823e3d90fd5b803b1561042e5785516340b24e8360e11b8152828101869052878160248183865af18015610dcf57610dbc575b50610be4565b610dc890979197610ede565b9588610db6565b87513d8a823e3d90fd5b610def9250803d1061010a576100fb8183610f05565b8b80610bda565b634f65872f60e11b81528490fd5b9181601f84011215610986578235916001600160401b038311610986576020838186019501011161098657565b600435906001600160801b038216820361098657565b35906001600160801b038216820361098657565b600435906001600160a01b038216820361098657565b91908251928382525f5b848110610e9b575050825f602080949584010152601f8019910116010190565b602081830181015184830182015201610e7b565b35906001600160a01b038216820361098657565b35908160010b820361098657565b3590811515820361098657565b6001600160401b038111610ef157604052565b634e487b7160e01b5f52604160045260245ffd5b601f909101601f19168101906001600160401b03821190821017610ef157604052565b51906001600160801b038216820361098657565b6001600160a01b0391821681529116602082015260400190565b6001600160a01b039091168152602081019190915260400190565b5190811515820361098657565b604080516001600160a01b03929092169291906001600160401b0390820181811183821017610ef1576040526020938483527f5361666545524332303a206c6f772d6c6576656c2063616c6c206661696c6564858401525f808587829751910182855af1903d156110c5573d9283116110b1579061101c9392916040519261100f88601f19601f8401160185610f05565b83523d868885013e6110d0565b9081519083821592831561108f575b5050509050156110385750565b6084906040519062461bcd60e51b82526004820152602a60248201527f5361666545524332303a204552433230206f7065726174696f6e20646964206e6044820152691bdd081cdd58d8d9595960b21b6064820152fd5b8480929394500103126103495750816110a89101610f71565b805f838161102b565b634e487b7160e01b85526041600452602485fd5b9061101c9392506060915b9192901561113257508151156110e4575090565b3b156110ed5790565b60405162461bcd60e51b815260206004820152601d60248201527f416464726573733a2063616c6c20746f206e6f6e2d636f6e74726163740000006044820152606490fd5b8251909150156111455750805190602001fd5b60405162461bcd60e51b815260206004820152908190611169906024830190610e71565b0390fd5b91908260c09103126109865761118282610e47565b9161118f60208201610eaf565b9161119c60408301610e47565b916111a960608201610ec3565b916111c260a06111bb60808501610ec3565b9301610ed1565b90565b51906001600160a01b038216820361098657565b51908160010b820361098657565b80916101609283910312610986576040519182016001600160401b03811183821017610ef15760405261121981610f28565b8252611227602082016111c5565b60208301526040810151604083015261124260608201610f71565b6060830152611253608082016111d9565b608083015261126460a08201610f28565b60a083015261127560c08201610f28565b60c083015261128660e08201610f28565b60e0830152610100611299818301610f28565b908301526101206112ab818301610f71565b908301526112bd6101408092016111d9565b9082015290565b6001600160a01b0390911681526001600160801b0390911660208201526040019056fe8bb94222031d48501c32da434708f4f7117bab5a56c5069ffddf501a8ea933ec5361666545524332303a20617070726f76652066726f6d206e6f6e2d7a65726fa2646970667358221220f06dde1d71cfe33daa0379234162cf885fea45635e7d2c770349febf80b219ef64736f6c63430008140033","linkReferences":{}},"methodIdentifiers":{"DEX()":"80935aa9","forceWithdraw(address,uint256,uint128,bytes)":"5ee305c3","getDexBalance(address)":"5700d9ff","getOrderState(uint128)":"31f9a211","invest(uint256,bytes)":"9dc21d47","isOrderActive(uint128)":"ccc25798","withdraw(bytes,uint256,bytes)":"20fb958e","yieldManager()":"80b7af18"},"id":59}