{"abi":[{"type":"constructor","inputs":[{"name":"_dripsContract","type":"address","internalType":"address"}],"stateMutability":"nonpayable"},{"type":"function","name":"accounts","inputs":[{"name":"","type":"address","internalType":"contract IERC20"}],"outputs":[{"name":"principal","type":"uint128","internalType":"uint128"},{"name":"liquidBalance","type":"uint128","internalType":"uint128"},{"name":"investedBalance","type":"uint128","internalType":"uint128"}],"stateMutability":"view"},{"type":"function","name":"calculateYield","inputs":[{"name":"token","type":"address","internalType":"contract IERC20"}],"outputs":[{"name":"","type":"uint256","internalType":"uint256"}],"stateMutability":"view"},{"type":"function","name":"completeForceWithdrawal","inputs":[{"name":"accountId","type":"uint256","internalType":"uint256"},{"name":"strategy","type":"address","internalType":"address"},{"name":"token","type":"address","internalType":"contract IERC20"},{"name":"amount","type":"uint128","internalType":"uint128"}],"outputs":[{"name":"principalWithdrawn","type":"uint128","internalType":"uint128"}],"stateMutability":"nonpayable"},{"type":"function","name":"dripsContract","inputs":[],"outputs":[{"name":"","type":"address","internalType":"address"}],"stateMutability":"view"},{"type":"function","name":"dripsDeposit","inputs":[{"name":"token","type":"address","internalType":"contract IERC20"},{"name":"amount","type":"uint256","internalType":"uint256"}],"outputs":[],"stateMutability":"nonpayable"},{"type":"function","name":"dripsForceWithdraw","inputs":[{"name":"accountId","type":"uint256","internalType":"uint256"},{"name":"token","type":"address","internalType":"contract IERC20"},{"name":"strategy","type":"address","internalType":"address"},{"name":"amount","type":"uint128","internalType":"uint128"},{"name":"transferTo","type":"address","internalType":"address"}],"outputs":[],"stateMutability":"nonpayable"},{"type":"function","name":"dripsReturn","inputs":[{"name":"token","type":"address","internalType":"contract IERC20"},{"name":"amount","type":"uint256","internalType":"uint256"}],"outputs":[],"stateMutability":"nonpayable"},{"type":"function","name":"getBalances","inputs":[{"name":"token","type":"address","internalType":"contract IERC20"}],"outputs":[{"name":"principal","type":"uint128","internalType":"uint128"},{"name":"liquidBalance","type":"uint128","internalType":"uint128"},{"name":"investedBalance","type":"uint128","internalType":"uint128"}],"stateMutability":"view"},{"type":"function","name":"getPosition","inputs":[{"name":"token","type":"address","internalType":"contract IERC20"},{"name":"strategy","type":"address","internalType":"address"}],"outputs":[{"name":"strategyAddr","type":"address","internalType":"address"},{"name":"amount","type":"uint128","internalType":"uint128"},{"name":"positionData","type":"bytes","internalType":"bytes"}],"stateMutability":"view"},{"type":"function","name":"getWithdrawalState","inputs":[{"name":"accountId","type":"uint256","internalType":"uint256"}],"outputs":[{"name":"","type":"tuple","internalType":"struct YieldManager.WithdrawalState","components":[{"name":"accountId","type":"uint256","internalType":"uint256"},{"name":"strategy","type":"address","internalType":"address"},{"name":"token","type":"address","internalType":"contract IERC20"},{"name":"amount","type":"uint128","internalType":"uint128"},{"name":"transferTo","type":"address","internalType":"address"},{"name":"consumed","type":"bool","internalType":"bool"}]}],"stateMutability":"view"},{"type":"function","name":"owner","inputs":[],"outputs":[{"name":"","type":"address","internalType":"address"}],"stateMutability":"view"},{"type":"function","name":"ownerDeposit","inputs":[{"name":"token","type":"address","internalType":"contract IERC20"},{"name":"amount","type":"uint256","internalType":"uint256"}],"outputs":[],"stateMutability":"nonpayable"},{"type":"function","name":"pendingWithdrawals","inputs":[{"name":"","type":"uint256","internalType":"uint256"}],"outputs":[{"name":"accountId","type":"uint256","internalType":"uint256"},{"name":"strategy","type":"address","internalType":"address"},{"name":"token","type":"address","internalType":"contract IERC20"},{"name":"amount","type":"uint128","internalType":"uint128"},{"name":"transferTo","type":"address","internalType":"address"},{"name":"consumed","type":"bool","internalType":"bool"}],"stateMutability":"view"},{"type":"function","name":"positionClose","inputs":[{"name":"token","type":"address","internalType":"contract IERC20"},{"name":"strategy","type":"address","internalType":"address"},{"name":"strategyData","type":"bytes","internalType":"bytes"}],"outputs":[],"stateMutability":"nonpayable"},{"type":"function","name":"positionOpen","inputs":[{"name":"token","type":"address","internalType":"contract IERC20"},{"name":"strategy","type":"address","internalType":"address"},{"name":"amount","type":"uint256","internalType":"uint256"},{"name":"strategyData","type":"bytes","internalType":"bytes"}],"outputs":[],"stateMutability":"nonpayable"},{"type":"function","name":"positions","inputs":[{"name":"","type":"address","internalType":"contract IERC20"},{"name":"","type":"address","internalType":"address"}],"outputs":[{"name":"strategy","type":"address","internalType":"address"},{"name":"token","type":"address","internalType":"contract IERC20"},{"name":"amount","type":"uint128","internalType":"uint128"},{"name":"positionData","type":"bytes","internalType":"bytes"}],"stateMutability":"view"},{"type":"function","name":"yieldClaim","inputs":[{"name":"token","type":"address","internalType":"contract IERC20"},{"name":"recipient","type":"address","internalType":"address"}],"outputs":[],"stateMutability":"nonpayable"},{"type":"event","name":"DepositedFromDrips","inputs":[{"name":"token","type":"address","indexed":true,"internalType":"contract IERC20"},{"name":"amount","type":"uint256","indexed":false,"internalType":"uint256"}],"anonymous":false},{"type":"event","name":"ForcedWithdrawForRecipient","inputs":[{"name":"accountId","type":"uint256","indexed":true,"internalType":"uint256"},{"name":"token","type":"address","indexed":true,"internalType":"contract IERC20"},{"name":"strategy","type":"address","indexed":true,"internalType":"address"},{"name":"amount","type":"uint256","indexed":false,"internalType":"uint256"}],"anonymous":false},{"type":"event","name":"PositionClosed","inputs":[{"name":"token","type":"address","indexed":true,"internalType":"contract IERC20"},{"name":"strategy","type":"address","indexed":true,"internalType":"address"},{"name":"amount","type":"uint256","indexed":false,"internalType":"uint256"},{"name":"withdrawn","type":"uint256","indexed":false,"internalType":"uint256"}],"anonymous":false},{"type":"event","name":"PositionOpened","inputs":[{"name":"token","type":"address","indexed":true,"internalType":"contract IERC20"},{"name":"strategy","type":"address","indexed":true,"internalType":"address"},{"name":"amount","type":"uint256","indexed":false,"internalType":"uint256"}],"anonymous":false},{"type":"event","name":"ReturnedPrincipalToDrips","inputs":[{"name":"token","type":"address","indexed":true,"internalType":"contract IERC20"},{"name":"amount","type":"uint256","indexed":false,"internalType":"uint256"}],"anonymous":false},{"type":"event","name":"YieldClaimed","inputs":[{"name":"token","type":"address","indexed":true,"internalType":"contract IERC20"},{"name":"amount","type":"uint256","indexed":false,"internalType":"uint256"}],"anonymous":false},{"type":"error","name":"AlreadyConsumed","inputs":[]},{"type":"error","name":"AmountMismatch","inputs":[]},{"type":"error","name":"ExceedsPrincipal","inputs":[]},{"type":"error","name":"InsufficientLiquid","inputs":[]},{"type":"error","name":"NoYield","inputs":[]},{"type":"error","name":"NotAuthorized","inputs":[]},{"type":"error","name":"OnlyDrips","inputs":[]},{"type":"error","name":"PositionNotFound","inputs":[]},{"type":"error","name":"WithdrawalNotFound","inputs":[]},{"type":"error","name":"WithdrawalPending","inputs":[]},{"type":"error","name":"WrongStrategy","inputs":[]},{"type":"error","name":"WrongToken","inputs":[]}],"bytecode":{"object":"0x60c0346100a857601f6118a538819003918201601f19168301916001600160401b038311848410176100ac578084926020946040528339810103126100a857516001600160a01b03811681036100a8576080523360a0526040516117e490816100c1823960805181818161016b0152818161095401528181610a930152610eb6015260a0518181816101e80152818161050c01528181610b4001528181610fd801526111690152f35b5f80fd5b634e487b7160e01b5f52604160045260245ffdfe60808060405260049081361015610014575f80fd5b5f3560e01c9081630ef557631461113f575080634bd21445146110b05780634fe3e7ca14610fab5780635041964614610e9a578063567add6414610e6f5780635e5c06e21461045557806369aa90d714610d725780638300ca2014610b6f5780638da5cb5b14610b2b5780639144472414610a695780639730ea361461090d578063b33dc19014610887578063bbce33bf146104bb578063c84aae1714610455578063d089b2cc1461019a578063d2debf77146101565763e6150400146100d9575f80fd5b34610152576020366003190112610152578060c091355f52600260205260ff60405f209182549260018060a01b03908160018201541692826002830154169060018060801b03600384015416920154936040519687526020870152604086015260608501528116608084015260a01c16151560a0820152f35b5f80fd5b34610152575f366003190112610152576040517f00000000000000000000000000000000000000000000000000000000000000006001600160a01b03168152602090f35b5034610152576060366003190112610152576101b4611228565b906101bd611254565b6044356001600160401b038111610152576101db90369084016113f1565b926001600160a01b0391907f000000000000000000000000000000000000000000000000000000000000000083163303610446578286165f526020916001835260405f208486165f52835260405f2095848754161561043557918392916060949260018060801b0360028a0154169160405196879463107dcac760e11b86528501525f9260038b0180549061026f8261126a565b91826064890152876001821691825f146104105750506001146103ce575b5050602485015283830360031901604485015283926102ad9290916116c2565b03815f8789165af19182156103c3575f92610385575b50915f8051602061174f83398151915293819260409461036e600289015460018060801b038116998a85105f1461037d576002855b6001600160801b039081169c61030f908e9061165a565b166001600160801b031993841617910155858b165f90815280845288902060018101805491929091906001600160801b0361034c8e82851661165a565b16911617905561036860018060801b038516825460801c61141e565b9061144b565b855197885287015216941692a3005b60028b6102f8565b908093925081813d83116103bc575b61039e81836112d1565b81010312610152575190915f8051602061174f8339815191526102c3565b503d610394565b6040513d5f823e3d90fd5b5f9081528781209297969550915b8183106103f657509495939450840160840192818561028d565b80546084848c01015288968a9650909201916001016103dc565b60ff191660848083019190915293151560051b810190930196508492915061028d9050565b604051636ec9be1160e01b81528390fd5b60405163ea8e4eb560e01b8152fd5b34610152576020366003190112610152576001600160a01b03610476611228565b165f9081526020818152604091829020805460019091015483516001600160801b03808416825260809390931c938101939093521691810191909152606090f35b0390f35b5034610152576080366003190112610152576104d5611228565b906104de611254565b906001600160401b03606435818111610152576104fe90369084016113f1565b6001600160a01b03939092917f000000000000000000000000000000000000000000000000000000000000000085163303610877578487165f525f60205260405f2093845460801c604435116108665761058d9392915f916105636044358a8c611673565b6040519586928392639dc21d4760e01b8452604435878501526040602485015260448401916116c2565b038183898b165af19283156103c3575f936107f3575b506040519260808401848110848211176107e0576040528587168452602084018689168152604085019060018060801b0360443516825260608601928352878a165f52600160205260405f20888a165f526020528760405f2096511660018060a01b03199081885416178755886001880192511690825416179055600285019060018060801b0390511660018060801b0319825416179055519081519283116107cd5750610654600384015461126a565b601f8111610785575b50602090601f83116001146107085792600383600194602097945f8051602061178f83398151915299975f926106fd575b50505f1982841b1c191690851b179101555b6106c06106ba838060801b0360443516835460801c61165a565b8261144b565b0180546001600160801b036106db604435821682841661141e565b6001600160801b031990921691161790556040516044358152938116941692a3005b015190505f8061068e565b90601f19831691600385015f5260205f20925f5b81811061076d575084602097945f8051602061178f833981519152999794600394600198899510610756575b505050811b019101556106a0565b01515f1983861b60f8161c191690555f8080610748565b9293602060018192878601518155019501930161071c565b600384015f5260205f20601f840160051c810191602085106107c3575b601f0160051c01905b8181106107b8575061065d565b5f81556001016107ab565b90915081906107a2565b604190634e487b7160e01b5f525260245ffd5b604183634e487b7160e01b5f525260245ffd5b9092503d805f833e61080581836112d1565b81019060208183031261015257805190838211610152570181601f820112156101525780516108338161146e565b9261084160405194856112d1565b818452602082840101116101525761085f9160208085019101611395565b915f6105a3565b60405163ac77922160e01b81528390fd5b5060405163ea8e4eb560e01b8152fd5b34610152576040366003190112610152576108a0611228565b6108a8611254565b6001600160a01b039182165f908152600160209081526040808320938516835292905220805460028201546001600160801b03169216906104b7906108ef906003016112f4565b604051938493845260208401526060604084015260608301906113b6565b50346101525760a0366003190112610152578035610929611254565b61093161123e565b9261093a6113db565b936084359460018060a01b039384871680970361015257847f0000000000000000000000000000000000000000000000000000000000000000163303610a58575f868152600260205260409020600301546001600160801b0391908216610a4757604051936109a8856112a2565b8785528660208601911681528660408601921682528260608601941684526080850198895260a08501975f89525f52600260205260405f209451855586600186019151169060018060a01b031991828254161790558660028601925116908254161790556003830191511660018060801b03198254161790550192511682549160ff60a01b9051151560a01b169160018060a81b031916171790555f80f35b604051632cd3d71b60e21b81528590fd5b604051636a429e1160e11b81528490fd5b503461015257604036600319011261015257610a83611228565b602435916001600160a01b0391907f000000000000000000000000000000000000000000000000000000000000000083163303610b1c57505f8051602061176f833981519152916020911692835f525f8252610b1360405f2061036860018060801b0380851690835490610af98382841661141e565b6001600160801b031990921691161780845560801c61141e565b604051908152a2005b604051636a429e1160e11b8152fd5b34610152575f366003190112610152576040517f00000000000000000000000000000000000000000000000000000000000000006001600160a01b03168152602090f35b503461015257608036600319011261015257803590610b8c611254565b90610b9561123e565b92610b9e6113db565b91815f52600260205260405f209460018060801b039586600382015416908115610d61578381019560ff875460a01c16610d50578816809203610d3f5760018101546001600160a01b039788169791908216889003610d2e576002829101541695818416809703610d1d57865f52600160205260405f20885f5260205260405f2098828a541615610d0c5760028a0154908082169a8b86105f14610d04578180875b169c8d610c4c9161165a565b6001600160801b03199485169116176002909101555f898152602081905260409020600101805490929091610c838d82851661165a565b169116179055805490600160a01b60ff60a01b19831617905516610ca692611673565b815f52600260205260405f205f8155600181015f9055600281015f9055600381015f9055015f905560405184815260207f1aa643458c310b2f3d17ad8431608ca07714a09673c0815d23a733adce155f3b91a4604051908152602090f35b81808d610c40565b604051636ec9be1160e01b81528690fd5b604051635079ff7560e11b81528590fd5b6040516338604a5760e21b81528590fd5b6040516355e97b0d60e01b81528490fd5b604051636f47ab5f60e01b81528590fd5b604051638d0fc1dd60e01b81528490fd5b503461015257602080600319360112610152578135905f60a0604051610d97816112a2565b82815282848201528260408201528260608201528260808201520152815f526002815260018060801b039182600360405f2001541615610d61579260c0935f526002825260405f209260405190610ded826112a2565b84549485835260018060a01b03809481600184015416968086019788528280600286015416926040880193845286600387015416956060890196875201549860ff60a060808a0199848d168b52019a60a01c1615158a526040519a8b5251169089015251166040870152511660608501525116608083015251151560a0820152f35b34610152576020366003190112610152576020610e92610e8d611228565b6116fc565b604051908152f35b503461015257604036600319011261015257610eb4611228565b7f00000000000000000000000000000000000000000000000000000000000000009160243591906001600160a01b038085163303610f9b57821693845f525f60205260405f209283549260018060801b03938481168711610f8b5760801c8611610f7c5750926103688593610f507fc93b9d0f145c506fe4052b6ac70836552abe868c061de1f9cc934a797042bff597610b1395602098611673565b825485821691610f628383831661165a565b6001600160801b031990921691161780845560801c61165a565b60405163ac77922160e01b8152fd5b5060405163cb5b144160e01b8152fd5b50604051636a429e1160e11b8152fd5b503461015257604036600319011261015257610fc5611228565b90610fce611254565b6001600160a01b037f00000000000000000000000000000000000000000000000000000000000000008116330361109f57831692835f525f60205260405f20918254918260801c9460018060801b03938461102f81600189015416896116e2565b91169081811061108e5790611043916116ef565b958611610f7c57509261036885936110827fc04825ba3f383b602255d2a13065a68e325c65c9e0ed5d031ea2b06f641873af97610b1395602098611673565b8416825460801c61165a565b60405163bbd783bd60e01b81528390fd5b60405163ea8e4eb560e01b81528390fd5b34610152576040366003190112610152576110c9611228565b6110d1611254565b60018060a01b038092165f5260016020528160405f2091165f5260205260405f20906104b781835416916001840154169261111b600360018060801b0360028401541692016112f4565b906040519485948552602085015260408401526080606084015260808301906113b6565b9050346101525760403660031901126101525761115a611228565b602435926001600160a01b03927f00000000000000000000000000000000000000000000000000000000000000008416330361121c57506040516323b872dd60e01b6020820152336024820152306044820152606480820186905281529060a08201906001600160401b038211838310176107cd5750916111f05f8051602061176f833981519152949260209460405282611489565b1692835f525f8252610b1360405f2061036860018060801b0380851690835490610af98382841661141e565b63ea8e4eb560e01b8152fd5b600435906001600160a01b038216820361015257565b604435906001600160a01b038216820361015257565b602435906001600160a01b038216820361015257565b90600182811c92168015611298575b602083101461128457565b634e487b7160e01b5f52602260045260245ffd5b91607f1691611279565b60c081019081106001600160401b038211176112bd57604052565b634e487b7160e01b5f52604160045260245ffd5b601f909101601f19168101906001600160401b038211908210176112bd57604052565b9060405191825f8254926113078461126a565b9081845260019485811690815f146113725750600114611332575b5050611330925003836112d1565b565b909391505f52602090815f20935f915b81831061135a57505061133093508201015f80611322565b85548884018501529485019487945091830191611342565b91505061133094506020925060ff191682840152151560051b8201015f80611322565b5f5b8381106113a65750505f910152565b8181015183820152602001611397565b906020916113cf81518092818552858086019101611395565b601f01601f1916010190565b606435906001600160801b038216820361015257565b9181601f84011215610152578235916001600160401b038311610152576020838186019501011161015257565b6001600160801b03918216908216019190821161143757565b634e487b7160e01b5f52601160045260245ffd5b80546001600160801b031660809290921b6001600160801b031916919091179055565b6001600160401b0381116112bd57601f01601f191660200190565b604080516001600160a01b03929092169291908101906001600160401b038211818310176112bd5761151c916040526020938482527f5361666545524332303a206c6f772d6c6576656c2063616c6c206661696c6564858301525f808587829751910182855af13d156115b9573d916115018361146e565b9261150f60405194856112d1565b83523d868885013e6115bd565b80519182159184831561158e575b5050509050156115375750565b6084906040519062461bcd60e51b82526004820152602a60248201527f5361666545524332303a204552433230206f7065726174696f6e20646964206e6044820152691bdd081cdd58d8d9595960b21b6064820152fd5b9193818094500103126115b5578201519081151582036115b25750805f808461152a565b80fd5b5080fd5b6060915b9192901561161f57508151156115d1575090565b3b156115da5790565b60405162461bcd60e51b815260206004820152601d60248201527f416464726573733a2063616c6c20746f206e6f6e2d636f6e74726163740000006044820152606490fd5b8251909150156116325750805190602001fd5b60405162461bcd60e51b8152602060048201529081906116569060248301906113b6565b0390fd5b6001600160801b03918216908216039190821161143757565b60405163a9059cbb60e01b60208201526001600160a01b03909216602483015260448083019390935291815260808101916001600160401b038311828410176112bd5761133092604052611489565b908060209392818452848401375f828201840152601f01601f1916010190565b9190820180921161143757565b9190820391821161143757565b6001600160a01b03165f90815260208190526040902080546001909101546001600160801b0390611733908216608084901c6116e2565b911680821061174857611745916116ef565b90565b50505f9056fed4c9b0490ba05aa750675b65fe1802b11692a700574310d45b4feae11f529eef8652f6ac3dffc2eddf5d65044893e630d4a4eda75f89898f5c1f1e34b84dc10fe01e9ad0238c189207821b84bca068519343d9e9cd923f04184eba2575c110a3a2646970667358221220234a8edd72b6a64d8409145b43dc250377139093fa22add1a5c19c58223ee6dc64736f6c63430008140033","linkReferences":{}},"methodIdentifiers":{"accounts(address)":"5e5c06e2","calculateYield(address)":"567add64","completeForceWithdrawal(uint256,address,address,uint128)":"8300ca20","dripsContract()":"d2debf77","dripsDeposit(address,uint256)":"91444724","dripsForceWithdraw(uint256,address,address,uint128,address)":"9730ea36","dripsReturn(address,uint256)":"50419646","getBalances(address)":"c84aae17","getPosition(address,address)":"b33dc190","getWithdrawalState(uint256)":"69aa90d7","owner()":"8da5cb5b","ownerDeposit(address,uint256)":"0ef55763","pendingWithdrawals(uint256)":"e6150400","positionClose(address,address,bytes)":"d089b2cc","positionOpen(address,address,uint256,bytes)":"bbce33bf","positions(address,address)":"4bd21445","yieldClaim(address,address)":"4fe3e7ca"},"id":58}