{"abi":[{"type":"function","name":"deploy","inputs":[{"name":"bytecode","type":"bytes","internalType":"bytes"}],"outputs":[{"name":"addr","type":"address","internalType":"address"}],"stateMutability":"nonpayable"},{"type":"event","name":"Deployed","inputs":[{"name":"addr","type":"address","indexed":false,"internalType":"address"}],"anonymous":false}],"bytecode":{"object":"0x60808060405234610016576101a0908161001b8239f35b5f80fdfe60806040526004361015610011575f80fd5b5f803560e01c6277436014610024575f80fd5b346100d85760203660031901126100d8576001600160401b036004358181116100d457366023820112156100d4578060040135908282116100cf5760405192601f8301601f19908116603f01168401908111848210176100cf5760405281835236602483830101116100cb57926020826100ad949360246100c7970183860137830101526100ef565b6040516001600160a01b0390911681529081906020820190565b0390f35b8380fd5b6100db565b8280fd5b80fd5b634e487b7160e01b5f52604160045260245ffd5b6020815191015ff0906001600160a01b03821680156101355760207ff40fcec21964ffb566044d083b4073f29f7f7929110ea19e1b3ebe375d89055e91604051908152a1565b60405162461bcd60e51b815260206004820152600d60248201526c11195c1b1bde4819985a5b1959609a1b6044820152606490fdfea264697066735822122051f1dc785c67fed1b81cb3104d6552cf3c0863f9b904ba6ce8f8380c16c6fe5a64736f6c63430008140033","linkReferences":{}},"methodIdentifiers":{"deploy(bytes)":"00774360"},"id":47}